:100000000C945D000C9485000C9485000C94850084
:100010000C9485000C9485000C9485000C9485004C
:100020000C9485000C9485000C9485000C94590662
:100030000C9485000C9485000C9485000C9485002C
:100040000C9411170C9485000C94F00C0C94CA0CB1
:100050000C9485000C9485000C9485000C9485000C
:100060000C94B5070C9485000000000025002800C2
:100070002B0000000008000201000003040700003C
:1000800000000000000000000000240027002A00FB
:10009000010204081020408001020408102001021F
:1000A00004081020040404040404040402020202EC
:1000B0000202030303030303AE1811241FBECFEF94
:1000C000D8E0DEBFCDBF12E0A0E0B1E0E2ECFAE3A1
:1000D00002C005900D92A438B107D9F724E0A4E836
:1000E000B2E001C01D92A73FB207E1F710E0CDE5F5
:1000F000D0E004C02197FE010E94FF1ACC35D10741
:10010000C9F70E945B170C945F1D0C940000CF93FD
:10011000DF93FC018181813221F0319681E090E012
:1001200003C0329680E090E0AC0121E042272081BC
:100130002D3591F0222381F0A181EB013881AD3280
:1001400039F432171CF0228123173CF43396EFCF99
:10015000231719F03196EBCFCA01DF91CF910895A3
:1001600080E008950895E091A5028091A402E81727
:1001700030F4F0E0EC57FD4F808190E008958FEF70
:100180009FEF08959091A5028091A402981750F4D2
:10019000E92FF0E0EC57FD4F208130E09F5F909316
:1001A000A50202C02FEF3FEFC90108958091A4027C
:1001B00090E02091A502821B9109089585ED80931E
:1001C000BC008091BC0084FDFCCF109227030895F1
:1001D0004091D102262F30E0240F311D213231050C
:1001E000DCF4209127032430C9F4FC0180E090E086
:1001F000861758F43091D1022191DC01A155BD4FF1
:10020000A30FB11D2C930196F3CF8091D102680FFB
:100210006093D10280E0089581E0089582E008951E
:10022000CF92DF92EF92FF920F931F93CF93DF93C2
:100230007C01262F972F8A0180912803882391F033
:10024000C62FD72F6E01C40ED51ECC15DD0571F05B
:100250006991D701ED91FC910190F081E02DC701EA
:100260000995F3CF642F822F0E94E800C801DF9127
:10027000CF911F910F91FF90EF90DF90CF90089555
:10028000CF93DF931F92CDB7DEB769832091280308
:100290002223D1F020914B03203240F021E030E0C6
:1002A000FC013383228380E090E015C08091290314
:1002B000E82FF0E0E65DFC4F998190838F5F80939B
:1002C000290380934B0305C061E0CE0101960E9493
:1002D000E80081E090E00F90DF91CF910895EF92D8
:1002E000FF920F931F93CF93DF937B010196FC0145
:1002F00020812D37E1F02223D1F02F32C1F08F0180
:1003000021912D3759F4E801C81BD90BAE01B70173
:100310000E941A1D892B49F0C801E8CF222399F3C6
:100320002F3289F32C3259F7EECFCE0102C080E094
:1003300090E0DF91CF911F910F91FF90EF90089582
:10034000CF93DF93EC016DEB71E08DE593E00E94BC
:10035000B60C66E6CE010E949D16882371F0CE0190
:100360000E94BF166093A6027093A7028093A80212
:100370009093A902DF91CF91089569ED71E08DE529
:1003800093E0DF91CF910C94B60CCF93DF93EC0107
:1003900065E172E08DE593E00E94B60C66E6CE0161
:1003A0000E949D16882371F0CE010E94BF166093B3
:1003B000AA027093AB028093AC029093AD02DF91DE
:1003C000CF91089562E372E08DE593E0DF91CF91E4
:1003D0000C94B60C9B0190E00496982F8827642F0C
:1003E000820F931F0C94F21108958CBD9DBD08954A
:1003F000CF93C82F80E590E00E94F50160E170E0A6
:100400008C2F0E9455144FEF62E070E08C2FCF913B
:100410000C94EA01FF920F931F93CF93DF9300D0C8
:10042000CDB7DEB7F82E8A012A8369830E94F801CE
:1004300080E590E00E94F5012A816981462F422BD8
:1004400060E070E08F2D0E94EA010115110551F462
:100450000091F7021091F8020F5F1F4F1093F802FE
:100460000093F702412F64E070E08F2D0E94EA01B3
:10047000402F65E070E08F2D0E94EA0161E070E09E
:100480008F2D0E94551481E00F900F90DF91CF9136
:100490001F910F91FF900895CF93DF9300D000D06C
:1004A000CDB7DEB7DC011496FE013196CE0105967C
:1004B000E817F90719F02E912193FACF69817A8113
:1004C0008B819C810F900F900F900F90DF91CF91B7
:1004D0000895CF93DF93EC0160E170E08A859B85FE
:1004E0000E94321C9B878A87892B29F080E190E04B
:1004F0009F878E8706C083E090E09F838E831B8654
:100500001A861D861C86DF91CF910895EF92FF9287
:100510000F931F93CF93DF93EC017B018881998127
:100520000E949A1BF70101900020E9F7CF018E1974
:100530009F090E94051B8C01009739F483E090E02D
:100540009F838E831982188205C0B7010E94131DF4
:1005500019830883CE01DF91CF911F910F91FF90F6
:10056000EF900895FC01848195816817790754F410
:10057000660F771F0280F381E02DE60FF71F808161
:100580009181089584E090E09783868380E090E0F5
:100590000895EF92FF920F931F93CF937C01C1E0D8
:1005A000FC0186819781892B09F4C0E000E010E00E
:1005B000F70184819581081719077CF4B801C701F8
:1005C0000E94B202FC0191E020813181232B09F4C9
:1005D00090E0C92B0F5F1F4FEBCF8C2FCF911F9156
:1005E0000F91FF90EF9008950F931F93CF93DF9398
:1005F000EC016FE672E08DE593E00E94B60C69E6CF
:10060000CE010E949D16882309F160E070E0CE01C2
:100610000E94B2028C01CE010E94C90281110BC05E
:10062000F801848195818936910529F48681978125
:10063000A085B18503C080E090E0DC01019721F442
:1006400081E08093AE0202C01092AE02DF91CF91A2
:100650001F910F9108953F924F925F926F927F92F8
:100660008F929F92AF92BF92CF92DF92EF92FF92C2
:100670000F931F93CF93DF93EC015B0119821882D4
:100680001D821C821F821E821B821A821B861A8672
:100690001D861C861F861E860E9469021986188682
:1006A000D5016D917C91CE010E948602E12CF12C46
:1006B000B8E03B2E13E0812E912CF50184819581C9
:1006C000E816F9060CF085C0D5011296ED91FC9163
:1006D0001397C701880F991FE80FF91FC080D180B9
:1006E0008EE090E00E94051B8C01FC0111821082BB
:1006F000D60114968D919C911597958384831296BB
:100700004D905C9013975382428286369105A1F0FA
:100710008437910589F09C01285631092230310532
:1007200058F02B5F3F4F2230310530F08237910572
:1007300019F08D36910551F4F6013696D8011696CA
:10074000832D01900D928A95E1F71BC083379105A7
:1007500019F082369105A9F4C2010E94051B3C01E3
:10076000009721F4F801918280820BC0D601169681
:100770006D917C911797A2010E94011DF80177826B
:100780006682D8018D919C91039719F49F828E8285
:100790001CC06C817D816F5F7F4F660F771F8A81E0
:1007A0009B810E94321C009789F39B838A832C8152
:1007B0003D81A901440F551FFC01E40FF51F118372
:1007C00000832F5F3F4F3D832C83BFEFEB1AFB0A63
:1007D00074CFDF91CF911F910F91FF90EF90DF9039
:1007E000CF90BF90AF909F908F907F906F905F90D1
:1007F0004F903F900895FC0120812D3559F02CF445
:100800002F3301F12B3561F015C02B3789F02D37CF
:1008100049F010C0FC0120812B3511F00197FACF6F
:100820000C948700FC0120812B3711F00197FACF3F
:100830000C946F0181E090E0FB013081231721F0DF
:1008400080E0089581E090E00895EF92FF920F9389
:100850001F93CF93DF931F92CDB7DEB77C018B013F
:10086000B801F80181918F018F3229F4F70180815D
:100870008F3221F436C0811110C0F8CF882389F15E
:100880008A3261F5F70181818F3259F131E020E040
:10089000811130E0832F922F26C0F7012081C701FC
:1008A0002A3231F401960E942504892BC9F219C01D
:1008B00029830E94FB0329810097A9F02F7D2B3506
:1008C00049F4970179012F5F3F4FF70180818F7DB8
:1008D0008D35C1F7FFEFEF1AFF0AC2CF80E090E03D
:1008E00002C081E090E00F90DF91CF911F910F91B6
:1008F000FF90EF900895FC018281938118161906EC
:1009000064F4848195818337910521F486819781F0
:100910000C949A1B82369105C9F30895EF92FF92C9
:100920000F931F93CF93DF93EC01888199810E94ED
:100930009A1B1F821E8200E010E08C819D810817A7
:1009400019077CF4B801CE010E94B2027C01009725
:1009500029F00E947B04C7010E949A1B0F5F1F4F62
:10096000ECCF8A819B810E949A1B1B821A821D8276
:100970001C8219861886CE010E9469028A859B8591
:10098000DF91CF911F910F91FF90EF900C949A1BE4
:100990004F925F926F927F92AF92BF92CF92DF920F
:1009A000EF92FF920F931F93CF93DF93CDB7DEB7F4
:1009B00028970FB6F894DEBF0FBECDBFFC011182A1
:1009C000108282E690E095838483CA010496938323
:1009D00082838A01052E000C220B330B0D831E83AC
:1009E0002F8338878E010B5F1F4F9E01275F3F4F7C
:1009F000DE0111966D01A017B10731F0D901FE900B
:100A00009D01D601FD92F6CF49805A806B807C8093
:100A10004D825E826F82788618161906E4F47A0198
:100A20005B018F010E94051B6C01009731F483E08C
:100A300090E0F8019183808310C0DC014D925D92BB
:100A40006D927D92CD01A701B5010E94011DF801B3
:100A5000D782C68202C01782168228960FB6F894F3
:100A6000DEBF0FBECDBFDF91CF911F910F91FF90E1
:100A7000EF90DF90CF90BF90AF907F906F905F909E
:100A80004F900895EF92FF920F931F93CF93DF93B0
:100A900000D0CDB7DEB77C01FC011182108283E764
:100AA00090E095838483FB0101900020E9F7CF015A
:100AB000861B970BF7019383828369837A830E9455
:100AC000051B8C0169817A81009731F483E090E005
:100AD000F7019183808305C00E94131DF7011783DE
:100AE00006830F900F90DF91CF911F910F91FF9090
:100AF000EF900895CF92DF92EF92FF92CF93DF9322
:100B0000EC01603282E078070CF03DC077FD06C052
:100B1000653B71052CF064EB70E002C060E070E0B2
:100B2000898128E830E06901C81AD10887FDD3948B
:100B3000CC0CDD1CCC0CDD1C0D2C000CEE08FF08D1
:100B40008A8128E532E0281B310987FD3395220F81
:100B5000331F220F331FC901330FAA0BBB0B9C019C
:100B6000AD012C193D094E095F09DB010E94BA1A3B
:100B700024EB30E040E050E00E94901AC20ED31EF9
:100B8000E41EF51EB60188818C3080F5998148E815
:100B900050E0491B510997FD5395440F551F440FD1
:100BA000551F6417750784F09A8128E532E0291BE8
:100BB000310997FD3395220F331F220F331FAB01ED
:100BC000261737070CF4A90142505109440F551F4D
:100BD0002FB7F89490E0FC01EE0FFF1F8E0F9F1FC0
:100BE000FC01EC5EFB4F528341832FBFDF91CF911D
:100BF000FF90EF90DF90CF9008951F93CF93DF93F6
:100C0000EC01162F88818C3008F04EC061E0812FF6
:100C10000E94F6148881E82FF0E09F01220F331F15
:100C2000E20FF31FEC5EFB4F1F739081907C192B3A
:100C3000108319821A826CE00E94F31A9CE0899F4B
:100C4000B001112440E050E09A01260F371FF9014E
:100C5000EE0FFF1F2E0F3F1FF901EC5EFB4F90813F
:100C600096FD16C04F5F5F4F4C30510569F78111FB
:100C70000FC01092800082E0809381001092850066
:100C800010928400B19A80916F00826080936F000F
:100C9000E881F0E0CF01880F991FE80FF91FEC5EA3
:100CA000FB4F8081806480838881DF91CF911F9189
:100CB00008951F920F920FB60F9211242F933F9316
:100CC0004F935F936F937F938F939F93AF93BF9354
:100CD000EF93FF938091F60287FF05C01092850085
:100CE000109284001BC02091F602022E000C330BE0
:100CF0008091380490E02817390784F48091F60237
:100D0000082E000C990BFC01EE0FFF1F8E0F9F1F8A
:100D1000FC01EC5EFB4F808186FD15C08091F602E0
:100D20008F5F8093F6022091F602022E000C330BA7
:100D30008091380490E028173907C4F48091F602B6
:100D40008C3064F113C08091F602082E000C990BD0
:100D5000FC01EE0FFF1F8E0F9F1FFC01EC5EFB4F8F
:100D6000808160E08F730E94AA14D8CF80918400A4
:100D700090918500049680349C4918F480E49CE9A5
:100D800005C080918400909185000496909389001D
:100D9000809388008FEF8093F6023BC020918400FF
:100DA000309185008091F602082E000C990BFC0111
:100DB000EE0FFF1F8E0F9F1FFC01EC5EFB4F81812A
:100DC0009281820F931F9093890080938800809175
:100DD000F602082E000C990BFC01EE0FFF1F8E0F80
:100DE0009F1FFC01EC5EFB4F808186FF12C080914B
:100DF000F602082E000C990BFC01EE0FFF1F8E0F60
:100E00009F1FFC01EC5EFB4F808161E08F730E94AD
:100E1000AA14FF91EF91BF91AF919F918F917F9114
:100E20006F915F914F913F912F910F900FBE0F9057
:100E30001F9018958EBD00000DB407FEFDCF8EB536
:100E400008950F931F93CF93DF931F92CDB7DEB713
:100E500090E00496982F88278C01060F171F0E9498
:100E6000720E8FE00E941A07812F0E941A07802FAE
:100E70000E941A0780E00E941A0789830E94700E60
:100E800089810F90DF91CF911F910F910895AF92BB
:100E9000BF92DF92EF92FF920F931F93CF93DF9356
:100EA000D82E7B018A0180E590E00E94F501C0E028
:100EB000D0E08D2D0E9414125C01892B21F08D2D24
:100EC0000E941412EC01CA15DB0599F7209799F4DA
:100ED00063E070E08D2D0E9421078431D9F18823D1
:100EE000C9F1C1E0D0E08C3111F4C0E0D0E0D1957F
:100EF000C195D1092FC00C171D070CF4E8011C1671
:100F00001D0644F568E270E08D2D0E942107082F30
:100F100010E069E270E08D2D0E942107102F00275C
:100F2000082B9E01A701B8018D2D0E9465140C0F9E
:100F30001D1F412F68E270E08D2D0E94EA01402FB5
:100F400069E270E08D2D0E94EA0160E470E08D2D71
:100F50000E945514CE01DF91CF911F910F91FF9008
:100F6000EF90DF90BF90AF9008951F920F920FB651
:100F70000F9211242F933F934F935F936F937F931F
:100F80008F939F93AF93BF93EF93FF938091B9009B
:100F9000887F803609F49CC068F5883209F45BC00C
:100FA00090F4803109F454C038F4882309F4F6C071
:100FB000883009F44DC0F6C0883109F44CC0803245
:100FC00009F45DC0EFC0803409F468C048F4803390
:100FD00009F455C0883309F0E5C080932503D8C0D3
:100FE000803509F44FC0883509F45DC0883409F0B4
:100FF000D9C0D6C0883909F4C7C0A8F4883709F425
:1010000067C038F4883609F463C0803709F460C0DB
:10101000C9C0883809F4B8C0803909F45FC0803885
:1010200009F0C0C05BC0803B09F486C038F4803A48
:1010300009F466C0883A09F47FC0B4C0803C09F462
:10104000A7C0883C09F4A4C0883B09F48AC0AAC0A0
:101050008091020310C0909124038091230398177C
:1010600070F5E091240381E08E0F80932403F0E07B
:10107000ED5FFC4F80818093BB0085EC86C0809340
:1010800025038EC0E091240381E08E0F809324031A
:101090008091BB00F0E0ED5FFC4F808390912403D2
:1010A000809123036EC0E091240381E08E0F809332
:1010B00024038091BB00F0E0ED5FFC4F80838091C2
:1010C000260381116DC081E08093010384EA61C031
:1010D00083E0809327031092F502CFCF8091F50231
:1010E000803208F051C0E091F50281E08E0F8093CC
:1010F000F5028091BB00F0E0EB52FD4F8083BDCF45
:1011000085EC8093BC00109227038091F502803219
:1011100030F4E091F502F0E0EB52FD4F1082609167
:10112000F50270E0E091D302F091D40285ED92E0F7
:1011300009951092F50236C084E08093270310923F
:10114000D2021092D102E091CF02F091D002099523
:101150008091D102811105C081E08093D10210926B
:10116000AF02E091D20281E08E0F8093D202F0E0D4
:10117000E155FD4F80818093BB009091D202809118
:10118000D102981708F479CF85E88093BC000AC093
:1011900085EC8093BC001092270304C010922503B5
:1011A0000E94DE00FF91EF91BF91AF919F918F91CF
:1011B0007F916F915F914F913F912F910F900FBE53
:1011C0000F901F9018951092270381E080932603BB
:1011D0001092010361E082E10E94AA1461E083E1C0
:1011E0000E94AA14E9EBF0E080818E7F80838081E9
:1011F0008D7F808388E48093B80085E48093BC0071
:101200000895CF92DF92EF92FF920F931F93CF93A7
:10121000DF936C017A018B01C0E0D0E0CE15DF05D1
:1012200089F0D8016D918D01D601ED91FC9101906D
:10123000F081E02DC6010995892B11F47E0102C0D1
:101240002196ECCFC701DF91CF911F910F91FF90B5
:10125000EF90DF90CF900895FC01918D828D9817CB
:1012600061F0828DDF01A80FB11D5D968C91928D8A
:101270009F5F9F73928F90E008958FEF9FEF089587
:10128000FC01918D828D981731F0828DE80FF11D50
:10129000858D90E008958FEF9FEF0895FC01918D6B
:1012A000228D892F90E0805C9F4F821B91098F7364
:1012B000992708958DE593E00E944E0921E0892B3E
:1012C00009F420E0822F0895FC01848DDF01A80F2E
:1012D000B11DA35ABF4F2C91848D90E001968F735E
:1012E0009927848FA689B7892C93A089B1898C917D
:1012F00080648C93938D848D981306C00288F38943
:10130000E02D80818F7D80830895EF92FF920F936F
:101310001F93CF93DF93EC0181E0888F9B8D8C8DA1
:10132000981305C0E889F989808185FD24C0F62ECF
:101330000B8D10E00F5F1F4F0F731127E02E8C8D68
:10134000E8120CC00FB607FCFACFE889F989808152
:1013500085FFF5CFCE010E946409F1CF8B8DFE0190
:10136000E80FF11DE35AFF4FF0820B8FEA89FB89EA
:101370008081806207C0EE89FF896083E889F989EE
:1013800080818064808381E090E0DF91CF911F9124
:101390000F91FF90EF900895CF93DF93EC01888D2C
:1013A0008823C9F0EA89FB89808185FD05C0A88969
:1013B000B9898C9186FD0FC00FB607FCF5CF8081EF
:1013C00085FFF2CFA889B9898C9185FFEDCFCE0139
:1013D0000E946409E7CFDF91CF91089580E090E00B
:1013E000892B29F00E945A0981110C94000008955C
:1013F00008950E94FC1CBF92CF92DF92EF92FF9261
:101400000F931F93CF93DF9300D000D000D0CDB7C0
:10141000DEB7FC01208D243009F05DC06A017B013C
:101420008C01B12C63E070E08B2D0E9421078111AB
:1014300003C0F801B08E06C08831D9F3B394F4E04C
:10144000BF12F0CFF801808D843009F444C096E0DB
:10145000ECE0F1E0DE01119601900D929A95E1F732
:10146000F70193819F779C8394819D8395819E83CF
:10147000B7016E5F7F4F90E0982F882744E050E0DF
:10148000845F9B4F0E94A40EF801F08C4D2D60E10B
:1014900070E08F2D0E94EA014C2D61E170E08F2DEC
:1014A0000E94EA01F801808D90E0982F882746E09D
:1014B00050E0BE016F5F7F4F8A5F9B4F0E94A40E7A
:1014C000F801128E118E20E8A60162E0808D0E9444
:1014D0000A0281E001C080E026960FB6F894DEBFD4
:1014E0000FBECDBFDF91CF911F910F91FF90EF9075
:1014F000DF90CF90BF900895FF920F931F93CF93EB
:10150000DF931F92CDB7DEB7FC01218D328D232BE7
:1015100009F1F08C80E590E00E94F50168E270E04E
:101520008F2D0E942107082F10E069E270E08F2DB7
:101530000E942107702F6627682B21E030E0AE0162
:101540004F5F5F4F8F2D0E9465140E94F4018981C7
:1015500090E002C08FEF9FEF0F90DF91CF911F912E
:101560000F91FF900895CF93DF93FC01218D328D71
:101570002115310519F48FEF9FEF11C0EC014217CF
:10158000530708F0A901888D0E944707181619060D
:1015900094F7298D3A8D281B390B3A8F298FDF91CB
:1015A000CF9108950F931F93CF93DF931F92CDB7E1
:1015B000DEB7FC01218D328D232B61F08C0141E0DF
:1015C00050E0BE016F5F7F4F808D0E944707181665
:1015D00019061CF08FEF9FEF08C0F801818D928DE6
:1015E0000197928F818F898190E00F90DF91CF9149
:1015F0001F910F910895BF92CF92DF92EF92FF92C9
:101600000F931F93CF93DF93CDB7DEB728970FB615
:10161000F894DEBF0FBECDBF8C01F801818D928D95
:10162000892B49F0D801ED91FC910680F781E02DDE
:10163000C8010995F2CFB08C80E590E00E94F501D9
:10164000E12CF12C8B2D0E9414126C01892B21F0BE
:101650008B2D0E9414127C01EC14FD0499F70E945A
:10166000F4011E141F045CF548E050E0BE016F5FFA
:101670007F4FD80158968C910E9447079C011816FD
:101680001906DCF489819A81AB81BC81F801808BD9
:10169000918BA28BB38B8D8190E0982F88272E8120
:1016A000820F911D958B848B2F8130E0322F222762
:1016B0008885280F311D328F218FC90102C080E03B
:1016C00090E028960FB6F894DEBF0FBECDBFDF9135
:1016D000CF911F910F91FF90EF90DF90CF90BF902F
:1016E00008957F928F929F92AF92BF92CF92DF9296
:1016F000EF92FF920F931F93CF93DF935C014B0107
:101700006A01FC0106891789708C80E590E00E94CF
:10171000F501C0E0D0E0872D0E942C127C01892BBE
:1017200021F0872D0E942C12EC01CE15DF0599F7D0
:10173000CC15DD0578F4C0E0D0E0872D0E942C1296
:101740006C01892B21F0872D0E942C12EC01CC1505
:10175000DD0599F764E270E0872D0E942107E82EED
:10176000F12C65E270E0872D0E942107FE2CEE240B
:10177000E82AE701C00FD11F9E013770E72CF12C3A
:10178000C701880F991FAC01445B5C4F7A01FA01D5
:1017900080819181820F931FA9014C0D5D1D413005
:1017A000584090F000E018E0021B130BA801B401B0
:1017B0000E94A40EA601401B510BB401600F711FC3
:1017C000F7018081918102C0A601B4010E94A40E9C
:1017D000CC0DDD1D4D2F64E270E0872D0E94EA01E3
:1017E0004C2F65E270E0872D0E94EA010E94F4010F
:1017F000F501868997898C0D9D1D978B868BC60177
:10180000DF91CF911F910F91FF90EF90DF90CF90DC
:10181000BF90AF909F908F907F9008956115710554
:1018200079F0FB0101900020E9F73197AF01461BE9
:10183000570BDC01ED91FC910280F381E02D0994BE
:1018400080E090E008954F925F926F927F92EF92C6
:10185000FF920F931F93CF93DF93CDB7DEB7A1977E
:101860000FB6F894DEBF0FBECDBF7C01FA01CB01ED
:1018700019A2223008F42AE08E010F5D1F4F422E7C
:10188000512C612C712CBF01A30192010E94C21A3C
:10189000F901CA01015011096A3014F4605D01C0F8
:1018A000695CD8016C93232B242B252B61F7B8019D
:1018B000C7010E940E0CA1960FB6F894DEBF0FBEB2
:1018C000CDBFDF91CF911F910F91FF90EF907F904F
:1018D0006F905F904F9008958F929F92AF92BF92BA
:1018E000CF92DF92EF92FF920F931F93CF93DF93EC
:1018F0007C01EB016C0182E0C80ED11C4701E5E0E0
:101900008E0E911C00E010E0F60141916F0150E055
:1019100060E070E02AE0CE010E94230C5C01E881C7
:10192000F9810190F081E02D6EE2CE0109958A0DDA
:101930009B1D080F191FC814D90431F7F701458101
:1019400050E060E070E02AE0CE010E94230C800F9E
:10195000911FDF91CF911F910F91FF90EF90DF903A
:10196000CF90BF90AF909F908F9008950F931F934B
:10197000CF93DF93EC010E940E0C8C0160E872E0C3
:10198000CE010E940E0C800F911FDF91CF911F910D
:101990000F9108951F920F920FB60F9211242F935B
:1019A0003F934F935F936F937F938F939F93AF93E7
:1019B000BF93EF93FF938DE593E00E946409FF913D
:1019C000EF91BF91AF919F918F917F916F915F91B7
:1019D0004F913F912F910F900FBE0F901F90189530
:1019E0001F920F920FB60F9211242F938F939F93F4
:1019F000EF93FF93E0916D03F0916E038081E0918E
:101A00007303F091740382FD12C09081809176037C
:101A10008F5F8F7320917703821751F0E0917603E7
:101A2000F0E0E35AFC4F958F8093760301C08081EC
:101A3000FF91EF919F918F912F910F900FBE0F907B
:101A40001F9018950F931F93CF93DF9300D0CDB7BE
:101A5000DEB7152F032FFC01808191E090932803BE
:101A600080934A031092290310924B03F4E06F9F76
:101A7000B00111246A5F7F4F88E094E02A83498394
:101A80000E9440014981842F912F0E94A112812F31
:101A900090E00E94A1122A81822F902F0E94A11211
:101AA000802F90E00E94A11281E00F900F90DF91B3
:101AB000CF911F910F910C944412CF93DF93EC01BF
:101AC0008B819C8120E030E040E050E06A81CB9641
:101AD0000E94220D8B819C8120E030E040E050E1AB
:101AE0006981CB96DF91CF910C94220DCF93DF9338
:101AF000EC01623041F06430B9F0613059F5DF91AA
:101B0000CF910C945D0D8B819C8120E030E040E012
:101B100050E06981CB960E94220D8B819C8120E050
:101B200030E040E050E110C08B819C8120E030E04B
:101B300040E050E06981CB960E94220D8B819C8110
:101B400020E030E040E050E06A81CB96DF91CF9119
:101B50000C94220DDF91CF910895CF93DF931F92C4
:101B6000CDB7DEB76983DC01ED91FC910280F38192
:101B7000E02D41E050E0BE016F5F7F4F09950F906F
:101B8000DF91CF910895FC01818D928D0895FC0124
:101B90008489958908952AE931E0FC013183208305
:101BA000FB014089518962897389FC014283538317
:101BB000648375830895DC01ED91FC91028CF38DB3
:101BC000E02D0994CF93FC01C08D80E590E00E9448
:101BD000F50160E270E08C2F0E94551462E070E025
:101BE0008C2F0E94210784FD19C062E070E08C2FC9
:101BF0000E94210783FF0BC048E162E070E08C2F58
:101C00000E94EA010E94F40180E090E011C00E946D
:101C1000F40180E590E00E94F501E0CF40E162E050
:101C200070E08C2F0E94EA010E94F40181E090E0B4
:101C3000CF910895CF93DF93EC01888D843061F0CC
:101C40000E94F801E88DF0E0EE0FFF1FE750FD4F16
:101C50001182108284E0888FDF91CF910895CF9216
:101C6000DF92EF92FF921F93CF93DF931F92CDB736
:101C7000DEB7FC01208D243011F080E028C07B010C
:101C80006C0110E080E590E00E94F50163E070E0F7
:101C9000812F0E94210789830E94F401898181118B
:101CA00003C0F601108F05C08831D9F31F5F1430CF
:101CB00049F7F601808D843001F3F586E486128EB3
:101CC000118E20E0A70162E00E940A0281E00F90DD
:101CD000DF91CF911F91FF90EF90DF90CF9008950B
:101CE0002A9A08952A980895CF92DF92EF92FF9250
:101CF0000F931F93CF93DF93EC017A018B016C015B
:101D0000C40ED51ECC15DD05A9F00E94720E8FE021
:101D10000E941A078D2F0E941A078C2F0E941A0703
:101D2000219680E00E941A07F80181938F010E949A
:101D3000700EE8CFC701DF91CF911F910F91FF90F7
:101D4000EF90DF90CF900895CF92DF92EF92FF92C5
:101D50000F931F93CF93DF93EC017A018B016C01FA
:101D6000C40ED51ECC15DD05A1F00E94720E80EFC9
:101D70000E941A078D2F0E941A078C2F0E941A07A3
:101D80002196F80181918F010E941A070E94700E1E
:101D9000E9CFC701DF91CF911F910F91FF90EF9095
:101DA000DF90CF900895EF92FF921F93CF93DF9330
:101DB000EB017A01FC01178A168A108D8A81811144
:101DC00009C08B81811106C08C81811103C08D8176
:101DD000882329F1E114F10411F180E590E00E94DB
:101DE000F501BE016E5F7F4F812F90E0982F88270D
:101DF00044E050E0845F9B4F0E94A40E4F2D60E1B1
:101E000070E0812F0E94EA014E2D61E170E0812F88
:101E10000E94EA010E94F40181E090E002C080E0AB
:101E200090E0DF91CF911F91FF90EF9008954F9236
:101E30005F926F927F928F929F92AF92BF92CF925A
:101E4000DF92EF92FF920F931F93CF93DF93CDB763
:101E5000DEB7EE970FB6F894DEBF0FBECDBF5C01C4
:101E60008B014A018AE991E09A8389831C861B864B
:101E700048EE53E060E070E04D875E876F87788BB7
:101E800024E731E03A872987988F8F8B198E1A8E35
:101E90001B8E1C8E24E029A399AB88AB1AAA1BAA1F
:101EA0001CAA1DAA8091FC039091FD03A091FE0342
:101EB000B091FF038EA39FA3A8A7B9A78B839C8390
:101EC000AD83BE8318861F82F80120E080E090E099
:101ED0006AE03191332319F140ED430F4A3080F429
:101EE000689FA001699F500D1124CA01C097830FFC
:101EF000911D37FD9A958F3F910559F350F32BC0F3
:101F00003E3249F5233039F1A2E3B0E0AC0FBD1FFA
:101F1000A20FB11D8C932F5F80E090E0DACF2330C9
:101F2000D1F48DABD501ED91FC910288F389E02DC0
:101F30008AE991E09DA38CA38AA99BA9ACA9BDA91C
:101F40008EA39FA3A8A7B9A7A401BE016C5D7F4F74
:101F5000C501099530C24B815C816D817E81809184
:101F6000040490910504A0910604B0910704481759
:101F700059076A077B0709F41CC20E9405176F7096
:101F800077277C5FCE0109960E942F0E813009F0E1
:101F90000DC28AE991E09DA38CA38B819C81AD81C8
:101FA000BE818EA39FA3A8A7B9A745E350E0BE01B9
:101FB0006C5D7F4FCE0109960E94D30E892B19F4D8
:101FC00000E010E07EC10E94051778876F837627B6
:101FD000672776277DA36CA342E050E0BE016C5DCD
:101FE0007F4FCE0109960E94710B81E090E09FAB7C
:101FF0008EAB42E050E0BE016A5C7F4FCE01099695
:102000000E94710B80E091E09FAB8EAB42E050E00C
:10201000BE016A5C7F4FCE0109960E94710B1FAA18
:102020001EAA42E050E0BE016A5C7F4FCE010996D5
:102030000E94710B42E050E0BE016A5C7F4FCE010E
:1020400009960E94710B42E050E0BE016A5C7F4F2E
:10205000CE0109960E94710B7801D7018C918823DB
:1020600019F1F8017F018191811117C06701C01A30
:10207000D10A1C141D04A4F4C8AE41E050E0BE0116
:10208000685C7F4FCE0109960E94710BA601B801D2
:10209000CE0109960E94710B03C08E3219F7E6CF6C
:1020A00087010F5F1F4FD9CF18AE41E050E0BE014E
:1020B000685C7F4FCE0109960E94710B00E011E031
:1020C0001FAB0EAB42E050E0BE016A5C7F4FCE0119
:1020D00009960E94710B1FAB0EAB42E050E0BE01AF
:1020E0006A5C7F4FCE0109960E94710BCE01099662
:1020F0000E94E20D892B09F463CF63E0E62EF12CF8
:102100000E9405172B013C01CE0109960E94FB0A93
:1021100018161906A4F00E940517DC01CB018419DA
:102120009509A609B70989389341A105B105C8F4F5
:1021300062E370E080E090E00E943215E5CF4B81D1
:102140005C816D817E81898D9A8DAB8DBC8D4817A8
:1021500059076A077B0741F48D8D9E8DC59721F441
:1021600006C02FEF3FEFA4C02EEF3FEFA1C08AA122
:102170009BA10C970CF4B2C04CE050E0BE016C5D2A
:102180007F4FCE0109960E94B30A8EA190E0982F4E
:1021900088272FA1822B9BAF8AAF2CA130E0322F52
:1021A00022274DA1242B4F8158854217530709F050
:1021B00092C097FF90C08F709270892B09F0F3C086
:1021C0000AA510E0102F00278BA5082B011511057B
:1021D00009F4E6C0C12CD12C88A590E0982F88275F
:1021E00029A5822BC816D90608F47BC0C12CD12C96
:1021F00041E050E0BE01645C7F4FCE0109960E9431
:10220000B30A8CAD982F907C09F0A5C0811197C0BE
:102210008CAD8111EDCF42E050E0BE01685C7F4F94
:10222000CE0109960E94B30A42E050E0BE016A5C0A
:102230007F4FCE0109960E94B30ACE0109960E94F3
:10224000D20ACE0109960E94D20ACE0109960E94B6
:10225000D20ACE0109960E94D20A42E050E0BE01A5
:10226000665C7F4FCE0109960E94B30A88AD99AD96
:102270008115914009F075C02EA93FA93227232767
:1022800032272130310509F06CC08AAD9BAD811534
:10229000944009F082C044E050E0BE016E5C7F4F84
:1022A000CE0109962DAF3EAF0E94B30A2DAD3EADD3
:1022B0008901B1E0EB1AF10821F02F3F3F4F09F4FB
:1022C0001FCFCE0109960E941A0E0130110509F4A4
:1022D00029CEC80170C02CEF3FEFEACF2DEF3FEFC2
:1022E000E7CF41E050E0BE016A5C7F4FCE01099626
:1022F0000E94B30A8EA9811117C08EA98111F1CF56
:10230000CE0109960E94D20ACE0109960E94D20AF5
:10231000CE0109960E94D20ACE0109960E94D20AE5
:10232000FFEFCF1ADF0A58CF8EA99FEF980F9EAB11
:10233000882319F3CE0109960E94D20AF5CF8CADFD
:102340009FEF980F9CAF882309F462CFCE010996C6
:102350000E94D20AF4CFCE0109960E94D20A1CAE86
:1023600057CF612C712C8AAD9BAD98278927982770
:102370006816790640F4CE0109960E94D20A8FEFC2
:10238000681A780AF0CFAFEFCA1ADA0AC016D10677
:1023900009F02ECF26EF3FEF8BCF27EF3FEF88CF0F
:1023A0002AEF3FEF85CF2BEF3FEF82CF80E090E029
:1023B00002C08EEF9FEFEE960FB6F894DEBF0FBE11
:1023C000CDBFDF91CF911F910F91FF90EF90DF90E4
:1023D000CF90BF90AF909F908F907F906F905F90C5
:1023E0004F9008951F93CF93DF9300D0CDB7DEB702
:1023F000182F6A8399830E94720E80EF0E941A0739
:102400009981892F0E941A07812F0E941A076A81D9
:10241000862F0E941A070E94700E81E00F900F9085
:10242000DF91CF911F9108951F93CF93DF93182FC2
:1024300066E270E00E942107C82FD0E067E270E0FA
:10244000812F0E942107DC2FCC279E01282BC90158
:10245000DF91CF911F9108951F93CF93DF93182F92
:1024600060E270E00E942107C82FD0E061E270E0D6
:10247000812F0E942107DC2FCC279E01282BC90128
:10248000DF91CF911F910895382F20914B039091A8
:102490004A03213208F049C0809127038111FCCF03
:1024A00042E040932703309326033FEF3093250308
:1024B0001092240320932303AAE2B3E043E053E005
:1024C000FA013E2F341B321718F43D913193F9CFA6
:1024D0001092020320910203990F922B9093020312
:1024E00090910103913061F41092010390910203E5
:1024F0009093BB009091BC0093FDF8CF95EC01C088
:1025000095EE9093BC00909127039230E1F3909167
:1025100025039F3F79F080912503803241F080911F
:102520002503803331F084E005C081E003C082E000
:1025300001C083E01092290310924B0310922803EC
:102540000895682F88E094E00C944001CF93C62F43
:1025500090919B0421E02093280390934A031092CA
:10256000290310924B03682F88E094E00E944001F9
:102570006C2F88E094E00E94400181E0CF910C94A0
:1025800044122F923F924F925F926F927F928F925E
:102590009F92AF92BF92CF92DF92EF92FF920F93F2
:1025A0001F93CF93DF93CDB7DEB76C970FB6F89438
:1025B000DEBF0FBECDBF9D8B8C8B3B015F8B4E8BE7
:1025C000212C312C1B8AAC89BD8912968D919C914E
:1025D0001397281639060CF04EC1AC89BD89ED91D0
:1025E000FC91C101880F991FE80FF91F608171816B
:1025F000CE0101960E942B0389809A80B301C40109
:102600000E940A1D892B19F0730184013DC0F40159
:1026100001900020E9F73197BF016819790919C1C4
:10262000F8012081222309F4FCC02A3209F0BCC041
:102630002701F7015F0181918F3259F51A8B098BC0
:10264000F80180E090E06F0121912F3241F5B1E077
:10265000CB1AD108E1E0AE1AB10881309105E1F45E
:10266000D6011C911A3209F509891A89D8018D9170
:10267000BA8BA98B8F3209F091C07201F20181915E
:102680002F018F3209F08DC0D7013C913111C8CF95
:10269000C8C08111CFCFD2CF029799F177C0222342
:1026A000B1F22A3281F60196CECFB501C6010E9461
:1026B000FB03892B09F4D7C01F7D1D3549F4D601D2
:1026C0008C918F7D8B3521F0F1E0CF1AD108F7CFB7
:1026D000B1E0CB1AD108E1E0AE1AB108C1CFB50123
:1026E000C6012C8F0E94FB032C8D892B09F4BBC0E3
:1026F0002F7D2D3559F0F1E0CF1AD10821E0A21A33
:10270000B108D6012C912A3251F709C0F601808117
:102710008F7D8B3581F3B1E0CB1AD108F7CFBFEFB6
:10272000AB1ABB0AF6013197F98FE88FEA14FB0464
:1027300008F099C0C88CD98CF1E0AF1AB1089501A6
:10274000F60140814A3261F0B901C6012C8F3A8FFF
:102750004B8F0E94FB032C8D3A8D4B8D892B21F4DE
:10276000C016D10619F780CF4F7D4D3549F4D601FB
:102770008C918F7D8B3521F081E0C81AD108F7CF7D
:10278000B1E0CB1AD10821503109DACFB701C80125
:102790000E942504892B09F067CF65C0811164CFA1
:1027A0006CCF81116ACF70CF3A3291F4F8018F016A
:1027B00081918F3211F4F70106C08111F8CFFBCF60
:1027C000882309F461CF7F0181918F32C9F75CCFF3
:1027D000B701C8012C8F0E94FB032C8D009709F4D0
:1027E00042C02B3559F4C801FC01019620812D35DA
:1027F000D9F78C01FFEFEF1AFF0A46CF2B3759F4B8
:102800009801F9012F5F3F4F40814D37D1F7890182
:10281000E80EF91E39CF0F5F1F4F2FEFE21AF20AB1
:1028200033CFB8016819790981E090E0332311F0C2
:1028300080E090E0D8012C91211103C082600397C1
:1028400041F0161617067CF4F80180818F3259F496
:1028500003C0161617063CF4CE010196EE89FF89D7
:10286000099521E02B8BCE0101960E948E048FEFFB
:10287000281A380AA8CE8B896C960FB6F894DEBF5A
:102880000FBECDBFDF91CF911F910F91FF90EF90C1
:10289000DF90CF90BF90AF909F908F907F906F9080
:1028A0005F904F903F902F900895CF93C82F462F61
:1028B00061E070E00E94EA0161E070E08C2F0E940C
:1028C00021078111F9CFCF910895AF92BF92CF9296
:1028D000DF92EF92FF920F931F93CF93DF9300D07D
:1028E000CDB7DEB77A836983BA01A901E981FA819C
:1028F000F770082F10E0000F111F0C5A1C4FD80161
:102900008D919C918E0F9F1F2E0F3F1F21303840BD
:1029100098F07A015B0120E038E06901CE1ADF0A05
:10292000A6010E94740EA7014C195D09B5016C0D3A
:102930007D1DF801808191810F900F90DF91CF91E3
:102940001F910F91FF90EF90DF90CF90BF90AF90CD
:102950000C94740E90E0FC01EE58FF4F3491FC0192
:10296000E057FF4F2491FC01EC55FF4FE491EE231B
:1029700009F43BC0332339F1333091F038F431306E
:10298000A9F0323001F584B58F7D12C0373091F057
:102990003830A1F03430B9F4809180008F7D03C0CD
:1029A000809180008F77809380000DC084B58F77F1
:1029B00084BD09C08091B0008F7703C08091B000C2
:1029C0008F7D8093B000F0E0EE0FFF1FE859FF4FBE
:1029D000A591B4918FB7F894EC91611103C0209543
:1029E0002E2301C02E2B2C938FBF0895CF93DF93FE
:1029F00090E0FC01E057FF4F2491FC01EC55FF4FA4
:102A00008491882361F190E0880F991FFC01EA57B7
:102A1000FF4FC591D491FC01E859FF4FA591B491A6
:102A2000611109C09FB7F89488812095822388831B
:102A3000EC912E230BC0623061F49FB7F89438817B
:102A4000822F809583238883EC912E2B2C939FBF1C
:102A500006C08FB7F894E8812E2B28838FBFDF91B3
:102A6000CF9108958F929F92AF92BF92CF92DF92B3
:102A7000EF92FF926B017C010E94E0164B015C011A
:102A8000C114D104E104F104F1F00E94E016DC016C
:102A9000CB0188199909AA09BB09883E9340A10571
:102AA000B10570F321E0C21AD108E108F10888EEFF
:102AB000880E83E0981EA11CB11CC114D104E1044E
:102AC000F10419F7DDCFFF90EF90DF90CF90BF902A
:102AD000AF909F908F900895CF92DF92EF92FF92E8
:102AE0000F931F93CF93DF93CDB7DEB7C254D109B5
:102AF0000FB6F894DEBF0FBECDBFFC01828193817B
:102B0000A481B58123968CAF9DAFAEAFBFAF2397A5
:102B100021E023962FAF239723964CAD5DAD6EAD8C
:102B20007FAD23974BAB5CAB6DAB7EAB89AF9AAF00
:102B3000ABAFBCAF8DA79EA7AFA7B8AB28AB4DA5D9
:102B40005EA56FA578A94FA358A769A77AA72EAB52
:102B50004BA95CA96DA97EA949A35AA36BA37CA329
:102B60008B8F9C8FAD8FBE8F4AE951E05C8B4B8B76
:102B70003FEF3D8B3E8B3F8B188E5E874D872AA79C
:102B8000CFA0D8A4E9A4FAA4CF86D88AE98AFA8A81
:102B90002CA309A11AA12BA13CA109871A872B8775
:102BA0003C875A8349838B839C83AD83BE836CE2CD
:102BB00071E080E090E00E9432151FB7F894809198
:102BC0005C03811127C0EEEAF0E08491EAE9F0E0CD
:102BD0009491E82FF0E0EE0FFF1FEA57FF4FA59109
:102BE000B491EC91E92321F461E08AE00E94AA14F7
:102BF00061E08AE00E94F6148CB580618CBD8CB5D2
:102C000080648CBD61E08DE00E94F61461E08BE091
:102C10000E94F61480915C038F5F80935C031FBF5A
:102C2000229A80E590E00E94F50160E880E090E063
:102C30000E94F21165E58BE190E00E94F21165E5DA
:102C40008AE190E00E94F2110E94F40180E090E499
:102C500090934D0380934C0380E090E6909355034E
:102C60008093540380E098E490934F0380934E0345
:102C700080E098E6909357038093560380E090E5B8
:102C8000909351038093500380E090E79093590311
:102C90008093580380E098E5909353038093520308
:102CA00080E098E790935B0380935A0380E590E07F
:102CB0000E94F50146E050E060E071E089E090E0BC
:102CC0000E94A40E44E050E0BE016D5F7F4F8FE094
:102CD00090E00E94A40E44E050E0BE01615F7F4F8F
:102CE00081E090E00E94A40E44E050E0BE016B5EE3
:102CF0007F4F85E090E00E94A40E0E94F40181E0E5
:102D00008C8789859A85AB85BC858093FC039093DD
:102D1000FD03A093FE03B093FF03CE5BDF4F0FB61E
:102D2000F894DEBF0FBECDBFDF91CF911F910F9101
:102D3000FF90EF90DF90CF900895EF92FF920F9366
:102D40001F93CF938C01C62F60E070E00E94B20207
:102D50007C01C8010E94C90281110AC06C2FCC0FEE
:102D6000770B81E0F701248135812617370709F0B9
:102D700080E0CF911F910F91FF90EF9008950F93F6
:102D80001F93CF93DF938C0160E070E00E94B2024A
:102D9000EC01C8010E94C90281110AC08C819D8189
:102DA0008636910529F46E817F818885998503C0D7
:102DB00060E070E0CB01DF91CF911F910F910895FA
:102DC0003FB7F8948091EF049091F004A091F10442
:102DD000B091F20426B5A89B05C02F3F19F00196CB
:102DE000A11DB11D3FBFBA2FA92F982F8827820F91
:102DF000911DA11DB11DBC01CD0142E0660F771FE1
:102E0000881F991F4A95D1F708952FB7F8946091BC
:102E1000EB047091EC048091ED049091EE042FBFCF
:102E200008951F920F920FB60F9211242F933F9384
:102E30008F939F93AF93BF938091EB049091EC0499
:102E4000A091ED04B091EE043091EA0423E0230F49
:102E50002D3720F40196A11DB11D05C026E8230FD2
:102E60000296A11DB11D2093EA048093EB04909378
:102E7000EC04A093ED04B093EE048091EF049091E4
:102E8000F004A091F104B091F2040196A11DB11DCE
:102E90008093EF049093F004A093F104B093F204B4
:102EA000BF91AF919F918F913F912F910F900FBE46
:102EB0000F901F901895789484B5826084BD84B576
:102EC000816084BD85B5826085BD85B5816085BD25
:102ED00080916E00816080936E00109281008091DD
:102EE0008100826080938100809181008160809365
:102EF0008100809180008160809380008091B1008A
:102F000084608093B1008091B00081608093B000B4
:102F100080917A00846080937A0080917A00826048
:102F200080937A0080917A00816080937A0080910A
:102F30007A00806880937A001092C100E0916D035E
:102F4000F0916E0382E08083E0916903F0916A035F
:102F50001082E0916B03F0916C038FEC80831092F0
:102F60007503E0917103F091720386E08083E09134
:102F70006F03F0917003808180618083E0916F0323
:102F8000F0917003808188608083E0916F03F091FD
:102F90007003808180688083E0916F03F0917003FB
:102FA00080818F7D808362EA71E08DE593E00E94ED
:102FB000B60C60E070E08FE994E00E94FD0560E0EF
:102FC00070E08CE994E00E94FD051092A502109239
:102FD000A4021092290310924B030E94E30810925E
:102FE000290310924B030E94E30860E080E00E94F6
:102FF000A61280E496E0909362048093610480912D
:103000009B0491E09093280380934A031092290334
:1030100010924B0360E088E094E00E94400181E060
:103020000E94441280919B04909127039111FCCF40
:1030300091E090932703909326032FEF209325038D
:1030400010922403109223039093020390910203A1
:10305000880F892B8093020380910103813061F4F2
:1030600010920103809102038093BB008091BC0009
:1030700083FDF8CF85EC01C085EE8093BC00809184
:1030800027038130E1F380912403811103C08091F3
:10309000240301C081E0A3E0B3E024E832E0F901B9
:1030A0009E2F921B981718F49D919193F9CF10922F
:1030B000A5028093A40288E094E00E94C200C82F79
:1030C000682F6F76606180E00E94A61263E08EEF49
:1030D0000E94A6126C2F80E00E94A61265E070E0AC
:1030E00080E090E00E9432156C2F616A80E00E94BF
:1030F000A612C0E020E030E040E050E06C2F8BE909
:1031000094E00E94220DCF5FC031A1F760E080E023
:103110000E94F61460E080E00E94F61460E080E017
:103120000E94F61460E080E00E94F61460E081E006
:103130000E94F61460E081E00E94F61460E081E0F5
:103140000E94F61460E081E00E94F61462E0809133
:103150005C0490915D040E94760DF8CF8AE991E0BD
:103160009093A3048093A2041092A4041092A50447
:103170001092A6041092A7041092600310925F03AD
:1031800048EE53E060E070E04093610350936203C7
:10319000609363037093640326E131E030935E0330
:1031A00020935D0325EC30E030936A03209369039C
:1031B00024EC30E030936C0320936B0320EC30E080
:1031C00030936E0320936D0321EC30E03093700355
:1031D00020936F0322EC30E030937203209371034D
:1031E00026EC30E03093740320937303109276033F
:1031F0001092770310927803109279039093A904A8
:103200008093A8041092AA041092AB041092AC040C
:103210001092AD049093AF048093AE041092B0046A
:103220001092B1041092B2041092B3049093B504BA
:103230008093B4041092B6041092B7041092B804AC
:103240001092B9049093BB048093BA041092BC040A
:103250001092BD041092BE041092BF049093FB0321
:103260008093FA031092FC031092FD031092FE0368
:103270001092FF03909303048093020410920404BD
:103280001092050410920604109207049093C10452
:103290008093C0041092C2041092C3041092C4041C
:1032A0001092C5049093C7048093C6041092C8047A
:1032B0001092C9041092CA041092CB049093CD04CA
:1032C0008093CC041092CE041092CF041092D004BC
:1032D0001092D1049093D3048093D2041092D4041A
:1032E0001092D5041092D6041092D7049093D9046A
:1032F0008093D8041092DA041092DB041092DC045C
:103300001092DD049093DF048093DE041092E004B9
:103310001092E1041092E2041092E30410920B0464
:1033200010920A0440930C0450930D0460930E0411
:1033300070930F0426E231E03093090420930804CF
:103340009093E5048093E4041092E6041092E7045D
:103350001092E8041092E904809138048C30A0F4B3
:1033600091E0980F9093380480939F0490E0FC01C3
:10337000EE0FFF1F8E0F9F1FFC01EC5EFB4F88EBD3
:103380009BE09283818303C08FEF80939F048091A1
:1033900038048C30A0F491E0980F90933804809317
:1033A0009C0490E0FC01EE0FFF1F8E0F9F1FFC019D
:1033B000EC5EFB4F88EB9BE09283818303C08FEF31
:1033C00080939C04E5E6F4E012821182138210825D
:1033D000DF0111971C9211971C92369684E0ED370D
:1033E000F80791F71092870410928A0410928604CD
:1033F000109285041092970410929A0410929604E9
:103400001092950480E68093600480939B048091E1
:103410006804811111C01092680480E694E09093D2
:1034200067048093660488E0809363048AE0809355
:10343000640489E08093650483E694E090935F04DC
:1034400080935E0480916E04811112C081E08093AC
:103450006E0480E694E090936D0480936C048DE09C
:10346000809369048BE080936A048CE080936B0402
:1034700089E694E090935D0480935C0480917404E9
:10348000811111C082E08093740420E634E030930F
:1034900073042093720480936F0484E0809370041B
:1034A00083E0809371048FE694E090935B048093B3
:1034B0005A04109242041092410488EE93E0A0E076
:1034C000B0E08093430490934404A0934504B093E8
:1034D000460484E791E09093400480933F048AE996
:1034E00091E090934E0480934D0410924F041092FB
:1034F0005004109251041092520424E02093570477
:1035000090933A048093390480EC80933B0488EADA
:1035100080933C0410923D048BE980933E0408950F
:10352000052E97FB1EF400940E94A71A57FD07D0A2
:103530000E94C21A07FC03D04EF40C94A71A5095AF
:103540004095309521953F4F4F4F5F4F089590958F
:103550008095709561957F4F8F4F9F4F08950E9482
:10356000E41AA59F900DB49F900DA49F800D911D0E
:1035700011240895B7FF0C94AF1A0E94AF1A821B52
:10358000930B0895A1E21A2EAA1BBB1BFD010DC0CF
:10359000AA1FBB1FEE1FFF1FA217B307E407F50703
:1035A00020F0A21BB30BE40BF50B661F771F881FDF
:1035B000991F1A9469F760957095809590959B0175
:1035C000AC01BD01CF010895A29FB001B39FC0011E
:1035D000A39F700D811D1124911DB29F700D811D3F
:1035E0001124911D0895991B79E004C0991F961725
:1035F00008F0961B881F7A95C9F780950895EE0FFD
:10360000FF1F0590F491E02D0994CF93DF93823052
:10361000910510F482E090E0E091F504F091F60459
:1036200020E030E0C0E0D0E0309711F140815181DE
:1036300048175907C0F04817590761F482819381F0
:10364000209719F09B838A832BC09093F604809374
:10365000F50426C02115310519F04217530718F457
:103660009A01BE01DF01EF010280F381E02DDCCF82
:103670002115310509F1281B390B2430310590F44F
:1036800012968D919C9113976115710521F0FB01A4
:103690009383828304C09093F6048093F504FD0124
:1036A000329644C0FD01E20FF31F819391932250A3
:1036B00031092D933C933AC02091F3043091F404E6
:1036C000232B41F420910801309109013093F40437
:1036D0002093F30420910601309107012115310553
:1036E00041F42DB73EB740910A0150910B01241BC4
:1036F000350BE091F304F091F404E217F307A0F422
:103700002E1B3F0B2817390778F0AC014E5F5F4F37
:103710002417350748F04E0F5F1F5093F404409371
:10372000F3048193919302C0E0E0F0E0CF01DF91D8
:10373000CF9108950F931F93CF93DF93009709F4D0
:103740008CC0FC013297138212820091F504109113
:10375000F6040115110581F420813181820F931F38
:103760002091F3043091F4042817390779F5F09388
:10377000F404E093F30471C0D80140E050E0AE17C8
:10378000BF0750F412962D913C911397AD0121156E
:10379000310509F1D901F3CF9D01DA013383228389
:1037A00060817181860F971F8217930769F4EC017E
:1037B00028813981260F371F2E5F3F4F31832083A9
:1037C0008A819B8193838283452B29F4F093F604AD
:1037D000E093F50442C01396FC93EE931297ED012B
:1037E000499159919E01240F351FE217F30771F497
:1037F00080819181840F951F029611969C938E93E0
:103800008281938113969C938E931297E0E0F0E06F
:10381000D80112968D919C911397009719F0F80199
:103820008C01F6CF8D919C9198012E5F3F4F820FB6
:10383000931F2091F3043091F4042817390769F499
:10384000309729F41092F6041092F50402C0138206
:1038500012821093F4040093F304DF91CF911F912F
:103860000F910895A0E0B0E0E8E3FCE10C942C1D7A
:10387000EC01009721F4CB010E94051BB8C0FC01AC
:10388000E60FF71F9C0122503109E217F30708F4F5
:10389000ACC0D9010D911C91119706171707B0F014
:1038A0000530110508F49FC0C801049786179707D3
:1038B00008F499C002501109061B170B01931193CC
:1038C0006D937C93CF010E949A1B8DC05B01A01A5F
:1038D000B10A4C01800E911EA091F504B091F6043E
:1038E00040E050E0E12CF12C109709F44AC0A815F3
:1038F000B905D1F56D907C901197630182E0C80EF7
:10390000D11CCA14DB0480F1A3014A195B096A01C6
:1039100082E0C80ED11C1296BC9012971396AC91FF
:10392000B5E0CB16D10440F0B282A383518340832B
:10393000D9016D937C930AC00E5F1F4FC301800FA6
:10394000911FF90191838083EB2DFA2FE114F1048B
:1039500031F0D7011396FC93EE93129744C0F09385
:10396000F604E093F5043FC08D919C9111974817A0
:10397000590708F4AC017D0112960D90BC91A02D61
:10398000B3CF8091F3049091F40488159905E1F484
:1039900046175707C8F480910601909107010097D8
:1039A00041F48DB79EB740910A0150910B01841BE1
:1039B000950BE817F907C8F4F093F404E093F304C7
:1039C000F901718360830FC0CB010E94051B7C014C
:1039D000009759F0A801BE010E94011DCE010E946E
:1039E0009A1BC70104C0CE0102C080E090E0CDB7B1
:1039F000DEB7EEE00C94481D81E090E0F8940C9462
:103A00005F1DFB01DC0102C001900D92415050404E
:103A1000D8F70895FB01DC018D9101908019011008
:103A2000D9F3990B0895FB01DC0101900D92002060
:103A3000E1F70895FB01DC014150504030F08D91D9
:103A40000190801919F40020B9F7881B990B08958B
:103A50002F923F924F925F926F927F928F929F929E
:103A6000AF92BF92CF92DF92EF92FF920F931F938C
:103A7000CF93DF93CDB7DEB7CA1BDB0B0FB6F8943D
:103A8000DEBF0FBECDBF09942A88398848885F847D
:103A90006E847D848C849B84AA84B984C884DF80EE
:103AA000EE80FD800C811B81AA81B981CE0FD11DD2
:103AB0000FB6F894DEBF0FBECDBFED010895F894A8
:023AC000FFCF36
:103AC200DEADBEEFFEED0000F704800001005E00F7
:103AD200000000000000850901094E092C09400977
:103AE200CC090000000040011001D600C200B30062
:103AF200B20000000000F909F909F909F909F90908
:103B0200F909F909B000F909F909F909F909F909F5
:103B1200F909F909F909F90900000000F90901098F
:103B2200F909F909F909F90900000000F90901097F
:103B320000000000AD0D710BC30DD20A7C0AF8091A
:103B42002F0EFB091A0ED30E170FE20DFB0AB30A52
:103B5200DB0DCB0DC70D000000006C0C0000000057
:103B6200F909496E697469616C69736174696F6E90
:103B720020646573206D6F746575727300436861AC
:103B82006E67656D656E7420616E676C65206F652A
:103B9200696C2064726F6974005741524E494E47F6
:103BA200203A20457272657572206C6F72732064C0
:103BB20075206368616E67656D656E742064276148
:103BC2006E676C65206465206C276F65696C206484
:103BD200726F6974004368616E67656D656E74200B
:103BE200616E676C65206F65696C206761756368DB
:103BF20065005741524E494E47203A204572726540
:103C02007572206C6F7273206475206368616E67D1
:103C1200656D656E74206427616E676C65206465EE
:103C2200206C276F65696C20676175636865005455
:103C32006F67676C6520656E6772656E61676500A8
:043C42000D0A000067
:00000001FF
