:100000000C9464000C948C000C948C000C948C0068
:100010000C948C000C948C000C948C000C948C0030
:100020000C948C000C948C000C948C000C94DF05C8
:100030000C948C000C948C000C948C000C948C0010
:100040000C9470140C948C000C940D110C94E7100B
:100050000C948C000C948C000C948C000C948C00F0
:100060000C943B070C948C00B617BC17CF17DA170B
:100070002718D818C61B00000000250028002B00F8
:100080000000000800020100000304070000000057
:100090000000000000000000240027002A000102E8
:1000A0000408102040800102040810200102040806
:1000B00010200404040404040404020202020202E4
:1000C000030303030303801E11241FBECFEFD8E0F8
:1000D000DEBFCDBF11E0A0E0B1E0E6E6F6E402C08D
:1000E00005900D92AE3FB107D9F724E0AEEFB1E035
:1000F00001C01D92A836B207E1F710E0C4E6D0E0D7
:1001000004C02197FE010E94D120C336D107C9F750
:100110000E94BA140C9431230C940000CF93DF9307
:10012000FC018181813221F0319681E090E003C0B1
:10013000329680E090E0AC0121E0422720812D350D
:1001400091F0222381F0A181EB013881AD3239F4A5
:1001500032171CF0228123173CF43396EFCF23177C
:1001600019F03196EBCFCA01DF91CF91089580E06D
:1001700008950895E0911F0280911E02E81730F45F
:10018000F0E0E250FE4F808190E008958FEF9FEF06
:10019000089590911F0280911E02981750F4E92F44
:1001A000F0E0E250FE4F208130E09F5F90931F020D
:1001B00002C02FEF3FEFC901089580911E0290E029
:1001C00020911F02821B9109089585ED8093BC0048
:1001D0008091BC0084FDFCCF10929802089540915C
:1001E0004202262F30E0240F311D21323105DCF48C
:1001F000209198022430C9F4FC0180E090E0861739
:1002000058F4309142022191DC01A05EBD4FA30F52
:10021000B11D2C930196F3CF80914202680F609339
:10022000420280E0089581E0089582E00895CF922F
:10023000DF92EF92FF920F931F93CF93DF937C0196
:10024000262F972F8A0180919902882391F0C62F3B
:10025000D72F6E01C40ED51ECC15DD0571F0699146
:10026000D701ED91FC910190F081E02DC701099536
:10027000F3CF642F822F0E94EF00C801DF91CF914E
:100280001F910F91FF90EF90DF90CF900895CF9343
:10029000DF931F92CDB7DEB76983209199022223A5
:1002A000D1F02091BC02203240F021E030E0FC018E
:1002B0003383228380E090E015C080919A02E82F7A
:1002C000F0E0E556FD4F998190838F5F80939A020D
:1002D0008093BC0205C061E0CE0101960E94EF0050
:1002E00081E090E00F90DF91CF910895EF92FF921F
:1002F0000F931F93CF93DF937B010196FC01208125
:100300002D37E1F02223D1F02F32C1F08F0121915E
:100310002D3759F4E801C81BD90BAE01B7010E9473
:10032000EC22892B49F0C801E8CF222399F32F3220
:1003300089F32C3259F7EECFCE0102C080E090E075
:10034000DF91CF911F910F91FF90EF9008959B0146
:1003500090E00496982F8827642F820F931F0C94A7
:10036000B60C08958CBD9DBD0895CF93C82F80E530
:1003700090E00E94B20160E170E08C2F0E941C129C
:100380004FEF62E070E08C2FCF910C94A701FF92A9
:100390000F931F93CF93DF9300D0CDB7DEB7F82E26
:1003A0008A012A8369830E94B50180E590E00E945A
:1003B000B2012A816981462F422B60E070E08F2DC7
:1003C0000E94A7010115110551F4009168021091D6
:1003D00069020F5F1F4F1093690200936802412F5B
:1003E00064E070E08F2D0E94A701402F65E070E06F
:1003F0008F2D0E94A70161E070E08F2D0E941C12DA
:1004000081E00F900F90DF91CF911F910F91FF909E
:100410000895CF93DF9300D000D0CDB7DEB7DC01D5
:100420001496FE013196CE010596E817F90719F0EA
:100430002E912193FACF69817A818B819C810F90D3
:100440000F900F900F90DF91CF910895CF93DF938E
:10045000EC0160E170E08A859B850E9404229B8705
:100460008A87892B29F080E190E09F878E8706C0DC
:1004700083E090E09F838E831B861A861D861C86F0
:10048000DF91CF910895EF92FF920F931F93CF9337
:10049000DF93EC017B01888199810E946C21F70137
:1004A00001900020E9F7CF018E199F090E94D72003
:1004B0008C01009739F483E090E09F838E8319824A
:1004C000188205C0B7010E94E52219830883CE0176
:1004D000DF91CF911F910F91FF90EF900895FC0154
:1004E000848195816817790754F4660F771F02801D
:1004F000F381E02DE60FF71F80819181089584E05C
:1005000090E09783868380E090E00895EF92FF92D9
:100510000F931F93CF937C01C1E0FC0186819781EB
:10052000892B09F4C0E000E010E0F7018481958197
:10053000081719077CF4B801C7010E946F02FC017B
:1005400091E020813181232B09F490E0C92B0F5FCA
:100550001F4FEBCF8C2FCF911F910F91FF90EF90FA
:1005600008953F924F925F926F927F928F929F92E7
:10057000AF92BF92CF92DF92EF92FF920F931F93B1
:10058000CF93DF93EC015B01198218821D821C82DC
:100590001F821E821B821A821B861A861D861C865B
:1005A0001F861E860E94260219861886D5016D9127
:1005B0007C91CE010E944302E12CF12CB8E03B2E4D
:1005C00013E0812E912CF50184819581E816F906BE
:1005D0000CF085C0D5011296ED91FC911397C701DF
:1005E000880F991FE80FF91FC080D1808EE090E03E
:1005F0000E94D7208C01FC0111821082D601149632
:100600008D919C9115979583848312964D905C9063
:1006100013975382428286369105A1F08437910563
:1006200089F09C01285631092230310558F02B5FA2
:100630003F4F2230310530F08237910519F08D3669
:10064000910551F4F6013696D8011696832D019046
:100650000D928A95E1F71BC08337910519F0823618
:100660009105A9F4C2010E94D7203C01009721F412
:10067000F801918280820BC0D60116966D917C9113
:100680001797A2010E94D322F80177826682D801CF
:100690008D919C91039719F49F828E821CC06C816E
:1006A0007D816F5F7F4F660F771F8A819B810E94DC
:1006B0000422009789F39B838A832C813D81A901C1
:1006C000440F551FFC01E40FF51F118300832F5FBA
:1006D0003F4F3D832C83BFEFEB1AFB0A74CFDF91B2
:1006E000CF911F910F91FF90EF90DF90CF90BF902F
:1006F000AF909F908F907F906F905F904F903F90C2
:100700000895FC0120812D3559F02CF42F3301F18F
:100710002B3561F015C02B3789F02D3749F010C00B
:10072000FC0120812B3511F00197FACF0C948E003B
:10073000FC0120812B3711F00197FACF0C94760140
:1007400081E090E0FB013081231721F080E00895E3
:1007500081E090E00895EF92FF920F931F93CF9363
:10076000DF931F92CDB7DEB77C018B01B801F80192
:1007700081918F018F3229F4F70180818F3221F42A
:1007800036C0811110C0F8CF882389F18A3261F513
:10079000F70181818F3259F131E020E0811130E0A1
:1007A000832F922F26C0F7012081C7012A3231F40E
:1007B00001960E94AB03892BC9F219C029830E94BC
:1007C000810329810097A9F02F7D2B3549F49701EA
:1007D00079012F5F3F4FF70180818F7D8D35C1F704
:1007E000FFEFEF1AFF0AC2CF80E090E002C081E085
:1007F00090E00F90DF91CF911F910F91FF90EF90BC
:100800000895FC01828193811816190664F484818D
:1008100095818337910521F4868197810C946C2111
:1008200082369105C9F30895EF92FF920F931F93BB
:10083000CF93DF93EC01888199810E946C211F8204
:100840001E8200E010E08C819D81081719077CF45E
:10085000B801CE010E946F027C01009729F00E942E
:100860000104C7010E946C210F5F1F4FECCF8A81EA
:100870009B810E946C211B821A821D821C82198618
:100880001886CE010E9426028A859B85DF91CF9132
:100890001F910F91FF90EF900C946C214F925F92FB
:1008A0006F927F92AF92BF92CF92DF92EF92FF92C0
:1008B0000F931F93CF93DF93CDB7DEB728970FB673
:1008C000F894DEBF0FBECDBFFC011182108282E61C
:1008D00090E095838483CA010496938382838A017E
:1008E000052E000C220B330B0D831E832F833887BC
:1008F0008E010B5F1F4F9E01275F3F4FDE01119658
:100900006D01A017B10731F0D901FE909D01D6010C
:10091000FD92F6CF49805A806B807C804D825E824A
:100920006F82788618161906E4F47A015B018F014C
:100930000E94D7206C01009731F483E090E0F80129
:100940009183808310C0DC014D925D926D927D9207
:10095000CD01A701B5010E94D322F801D782C6823A
:1009600002C01782168228960FB6F894DEBF0FBE1B
:10097000CDBFDF91CF911F910F91FF90EF90DF904E
:10098000CF90BF90AF907F906F905F904F90089501
:10099000EF92FF920F931F93CF93DF9300D0CDB7C9
:1009A000DEB77C01FC011182108283E790E0958321
:1009B0008483FB0101900020E9F7CF01861B970B90
:1009C000F7019383828369837A830E94D7208C0105
:1009D00069817A81009731F483E090E0F701918397
:1009E000808305C00E94E522F701178306830F90DC
:1009F0000F90DF91CF911F910F91FF90EF9008958D
:100A0000CF92DF92EF92FF92CF93DF93EC016032AF
:100A100082E078070CF03DC077FD06C0653B7105AC
:100A20002CF064EB70E002C060E070E0898128E89F
:100A300030E06901C81AD10887FDD394CC0CDD1CC5
:100A4000CC0CDD1C0D2C000CEE08FF088A8128E57B
:100A500032E0281B310987FD3395220F331F220F07
:100A6000331FC901330FAA0BBB0B9C01AD012C191D
:100A70003D094E095F09DB010E948C2024EB30E028
:100A800040E050E00E946220C20ED31EE41EF51E1C
:100A9000B60188818C3080F5998148E850E0491B87
:100AA000510997FD5395440F551F440F551F641767
:100AB000750784F09A8128E532E0291B310997FDFA
:100AC0003395220F331F220F331FAB012617370731
:100AD0000CF4A90142505109440F551F2FB7F89447
:100AE00090E0FC01EE0FFF1F8E0F9F1FFC01E257ED
:100AF000FC4F528341832FBFDF91CF91FF90EF9046
:100B0000DF90CF9008951F93CF93DF93EC01162FC2
:100B100088818C3008F04EC061E0812F0E94BD12A8
:100B20008881E82FF0E09F01220F331FE20FF31FAF
:100B3000E257FC4F1F739081907C192B1083198210
:100B40001A826CE00E94C5209CE0899FB0011124AC
:100B500040E050E09A01260F371FF901EE0FFF1F0A
:100B60002E0F3F1FF901E257FC4F908196FD16C0F2
:100B70004F5F5F4F4C30510569F781110FC01092E4
:100B8000800082E0809381001092850010928400A2
:100B9000B19A80916F00826080936F00E881F0E0ED
:100BA000CF01880F991FE80FF91FE257FC4F808192
:100BB000806480838881DF91CF911F9108951F9277
:100BC0000F920FB60F9211242F933F934F935F9381
:100BD0006F937F938F939F93AF93BF93EF93FF9305
:100BE0008091670287FF05C01092850010928400F3
:100BF0001BC020916702022E000C330B8091B203C0
:100C000090E02817390784F480916702082E000CC1
:100C1000990BFC01EE0FFF1F8E0F9F1FFC01E25787
:100C2000FC4F808186FD15C0809167028F5F8093A5
:100C3000670220916702022E000C330B8091B203F1
:100C400090E028173907C4F4809167028C3064F172
:100C500013C080916702082E000C990BFC01EE0F67
:100C6000FF1F8E0F9F1FFC01E257FC4F808160E049
:100C70008F730E947112D8CF80918400909185006B
:100C8000049680349C4918F480E49CE905C0809166
:100C90008400909185000496909389008093880049
:100CA0008FEF809367023BC02091840030918500D4
:100CB00080916702082E000C990BFC01EE0FFF1FBC
:100CC0008E0F9F1FFC01E257FC4F81819281820FA2
:100CD000931F909389008093880080916702082E6B
:100CE000000C990BFC01EE0FFF1F8E0F9F1FFC01E4
:100CF000E257FC4F808186FF12C080916702082E68
:100D0000000C990BFC01EE0FFF1F8E0F9F1FFC01C3
:100D1000E257FC4F808161E08F730E947112FF9156
:100D2000EF91BF91AF919F918F917F916F915F9163
:100D30004F913F912F910F900FBE0F901F901895DC
:100D40008EBD00000DB407FEFDCF8EB508950F9344
:100D50001F93CF93DF931F92CDB7DEB790E0049639
:100D6000982F88278C01060F171F0E9436098FE0E5
:100D70000E94A006812F0E94A006802F0E94A0063C
:100D800080E00E94A00689830E94340989810F9027
:100D9000DF91CF911F910F910895AF92BF92DF9293
:100DA000EF92FF920F931F93CF93DF93D82E7B0187
:100DB0008A0180E590E00E94B201C0E0D0E08D2D74
:100DC0000E94D80C5C01892B21F08D2D0E94D80C3B
:100DD000EC01CA15DB0599F7209799F463E070E000
:100DE0008D2D0E94A7068431D9F18823C9F1C1E075
:100DF000D0E08C3111F4C0E0D0E0D195C195D1099B
:100E00002FC00C171D070CF4E8011C161D0644F535
:100E100068E270E08D2D0E94A706082F10E069E2BD
:100E200070E08D2D0E94A706102F0027082B9E0131
:100E3000A701B8018D2D0E942C120C0F1D1F412FF0
:100E400068E270E08D2D0E94A701402F69E270E0FA
:100E50008D2D0E94A70160E470E08D2D0E941C1270
:100E6000CE01DF91CF911F910F91FF90EF90DF9016
:100E7000BF90AF9008951F920F920FB60F9211245A
:100E80002F933F934F935F936F937F938F939F9392
:100E9000AF93BF93EF93FF938091B900887F803623
:100EA00009F49CC068F5883209F45BC090F4803185
:100EB00009F454C038F4882309F4F6C0883009F4E2
:100EC0004DC0F6C0883109F44CC0803209F45DC0D1
:100ED000EFC0803409F468C048F4803309F455C089
:100EE000883309F0E5C080939602D8C0803509F4B4
:100EF0004FC0883509F45DC0883409F0D9C0D6C028
:100F0000883909F4C7C0A8F4883709F467C038F4F1
:100F1000883609F463C0803709F460C0C9C08838D6
:100F200009F4B8C0803909F45FC0803809F0C0C046
:100F30005BC0803B09F486C038F4803A09F466C08F
:100F4000883A09F47FC0B4C0803C09F4A7C0883C4B
:100F500009F4A4C0883B09F48AC0AAC08091730236
:100F600010C09091950280919402981770F5E091CD
:100F7000950281E08E0F80939502F0E0EC58FD4FD2
:100F800080818093BB0085EC86C0809396028EC0E2
:100F9000E091950281E08E0F809395028091BB00D5
:100FA000F0E0EC58FD4F808390919502809194027F
:100FB0006EC0E091950281E08E0F80939502809142
:100FC000BB00F0E0EC58FD4F8083809197028111C7
:100FD0006DC081E08093720284EA61C083E08093F7
:100FE000980210926602CFCF80916602803208F09C
:100FF00051C0E091660281E08E0F8093660280917D
:10100000BB00F0E0EA5BFD4F8083BDCF85EC8093B1
:10101000BC001092980280916602803230F4E09118
:101020006602F0E0EA5BFD4F10826091660270E0BC
:10103000E0914402F091450286E492E00995109215
:10104000660236C084E080939802109243021092A8
:101050004202E0914002F0914102099580914202E2
:10106000811105C081E08093420210922002E0913C
:10107000430281E08E0F80934302F0E0E05EFD4F7B
:1010800080818093BB009091430280914202981727
:1010900008F479CF85E88093BC000AC085EC809382
:1010A000BC001092980204C0109296020E94E500C3
:1010B000FF91EF91BF91AF919F918F917F916F9130
:1010C0005F914F913F912F910F900FBE0F901F9006
:1010D00018951092980281E0809397021092720204
:1010E00061E082E10E94711261E083E10E9471126D
:1010F000E9EBF0E080818E7F808380818D7F80832B
:1011000088E48093B80085E48093BC000895FC01D6
:10111000818D928D0895FC018489958908952AE92D
:1011200031E0FC0131832083FB01408951896289D0
:101130007389FC0142835383648375830895DC01C2
:10114000ED91FC91028CF38DE02D0994CF93FC017D
:10115000C08D80E590E00E94B20160E270E08C2FCB
:101160000E941C1262E070E08C2F0E94A70684FD92
:1011700019C062E070E08C2F0E94A70683FF0BC0AD
:1011800048E162E070E08C2F0E94A7010E94B1014B
:1011900080E090E011C00E94B10180E590E00E94E3
:1011A000B201E0CF40E162E070E08C2F0E94A70125
:1011B0000E94B10181E090E0CF910895CF93DF9339
:1011C000EC01888D843061F00E94B501E88DF0E07B
:1011D000EE0FFF1FE659FD4F1182108284E0888FC9
:1011E000DF91CF910895CF92DF92EF92FF921F93FC
:1011F000CF93DF931F92CDB7DEB7FC01208D243053
:1012000011F080E028C07B016C0110E080E590E0E7
:101210000E94B20163E070E0812F0E94A7068983DB
:101220000E94B1018981811103C0F601108F05C0B0
:101230008831D9F31F5F143049F7F601808D84306F
:1012400001F3F586E486128E118E20E0A70162E09C
:101250000E94C70181E00F90DF91CF911F91FF9015
:10126000EF90DF90CF9008952A9A08952A980895D4
:10127000CF92DF92EF92FF920F931F93CF93DF9362
:10128000EC017A018B016C01C40ED51ECC15DD0575
:10129000A9F00E9436098FE00E94A0068D2F0E94BF
:1012A000A0068C2F0E94A006219680E00E94A00636
:1012B000F80181938F010E943409E8CFC701DF91C3
:1012C000CF911F910F91FF90EF90DF90CF900895F5
:1012D000CF92DF92EF92FF920F931F93CF93DF9302
:1012E000EC017A018B016C01C40ED51ECC15DD0515
:1012F000A1F00E94360980EF0E94A0068D2F0E9467
:10130000A0068C2F0E94A0062196F80181918F01E2
:101310000E94A0060E943409E9CFC701DF91CF9156
:101320001F910F91FF90EF90DF90CF900895EF9273
:10133000FF921F93CF93DF93EB017A01FC01178A91
:10134000168A108D8A81811109C08B81811106C096
:101350008C81811103C08D81882329F1E114F1046E
:1013600011F180E590E00E94B201BE016E5F7F4FF7
:10137000812F90E0982F882744E050E0845F9B4FB6
:101380000E9468094F2D60E170E0812F0E94A70143
:101390004E2D61E170E0812F0E94A7010E94B101F2
:1013A00081E090E002C080E090E0DF91CF911F915A
:1013B000FF90EF9008954F925F926F927F928F927D
:1013C0009F92AF92BF92CF92DF92EF92FF920F93D4
:1013D0001F93CF93DF93CDB7DEB7EE970FB6F89498
:1013E000DEBF0FBECDBF5C018B014A018AE991E0EF
:1013F0009A8389831C861B8648EE53E060E070E088
:101400004D875E876F87788B24E731E03A8729879D
:10141000988F8F8B198E1A8E1B8E1C8E24E029A319
:1014200099AB88AB1AAA1BAA1CAA1DAA80917603A5
:1014300090917703A0917803B09179038EA39FA335
:10144000A8A7B9A78B839C83AD83BE8318861F8210
:10145000F80120E080E090E06AE03191332319F157
:1014600040ED430F4A3080F4689FA001699F500D02
:101470001124CA01C097830F911D37FD9A958F3FA4
:10148000910559F350F32BC03E3249F5233039F121
:10149000A2E3B0E0AC0FBD1FA20FB11D8C932F5F74
:1014A00080E090E0DACF2330D1F48DABD501ED911F
:1014B000FC910288F389E02D8AE991E09DA38CA339
:1014C0008AA99BA9ACA9BDA98EA39FA3A8A7B9A7C8
:1014D000A401BE016C5D7F4FC501099530C24B81EF
:1014E0005C816D817E8180917E0390917F03A091CC
:1014F0008003B0918103481759076A077B0709F4F5
:101500001CC20E9464146F7077277C5FCE0109961D
:101510000E94F308813009F00DC28AE991E09DA391
:101520008CA38B819C81AD81BE818EA39FA3A8A734
:10153000B9A745E350E0BE016C5D7F4FCE0109962F
:101540000E949709892B19F400E010E07EC10E94E7
:10155000641478876F837627672776277DA36CA32B
:1015600042E050E0BE016C5D7F4FCE0109960E94C3
:101570008E0F81E090E09FAB8EAB42E050E0BE0169
:101580006A5C7F4FCE0109960E948E0F80E091E049
:101590009FAB8EAB42E050E0BE016A5C7F4FCE0154
:1015A00009960E948E0F1FAA1EAA42E050E0BE01BB
:1015B0006A5C7F4FCE0109960E948E0F42E050E098
:1015C000BE016A5C7F4FCE0109960E948E0F42E0F9
:1015D00050E0BE016A5C7F4FCE0109960E948E0FDB
:1015E0007801D7018C91882319F1F8017F0181914D
:1015F000811117C06701C01AD10A1C141D04A4F47C
:10160000C8AE41E050E0BE01685C7F4FCE01099654
:101610000E948E0FA601B801CE0109960E948E0F7E
:1016200003C08E3219F7E6CF87010F5F1F4FD9CF66
:1016300018AE41E050E0BE01685C7F4FCE010996D4
:101640000E948E0F00E011E01FAB0EAB42E050E0B5
:10165000BE016A5C7F4FCE0109960E948E0F1FABC0
:101660000EAB42E050E0BE016A5C7F4FCE010996AE
:101670000E948E0FCE0109960E94A608892B09F4BC
:1016800063CF63E0E62EF12C0E9464142B013C0131
:10169000CE0109960E94180F18161906A4F00E9490
:1016A0006414DC01CB0184199509A609B7098938AE
:1016B0009341A105B105C8F462E370E080E090E0D9
:1016C0000E94F912E5CF4B815C816D817E81898D0D
:1016D0009A8DAB8DBC8D481759076A077B0741F47B
:1016E0008D8D9E8DC59721F406C02FEF3FEFA4C0CE
:1016F0002EEF3FEFA1C08AA19BA10C970CF4B2C0C2
:101700004CE050E0BE016C5D7F4FCE0109960E9417
:10171000D00E8EA190E0982F88272FA1822B9BAF0F
:101720008AAF2CA130E0322F22274DA1242B4F81EC
:1017300058854217530709F092C097FF90C08F70E9
:101740009270892B09F0F3C00AA510E0102F002732
:101750008BA5082B0115110509F4E6C0C12CD12C6D
:1017600088A590E0982F882729A5822BC816D9062E
:1017700008F47BC0C12CD12C41E050E0BE01645C78
:101780007F4FCE0109960E94D00E8CAD982F907C91
:1017900009F0A5C0811197C08CAD8111EDCF42E059
:1017A00050E0BE01685C7F4FCE0109960E94D00ECA
:1017B00042E050E0BE016A5C7F4FCE0109960E9474
:1017C000D00ECE0109960E94EF0ECE0109960E941E
:1017D000EF0ECE0109960E94EF0ECE0109960E94EF
:1017E000EF0E42E050E0BE01665C7F4FCE010996ED
:1017F0000E94D00E88AD99AD8115914009F075C059
:101800002EA93FA93227232732272130310509F09D
:101810006CC08AAD9BAD8115944009F082C044E054
:1018200050E0BE016E5C7F4FCE0109962DAF3EAFFA
:101830000E94D00E2DAD3EAD8901B1E0EB1AF1084A
:1018400021F02F3F3F4F09F41FCFCE0109960E9490
:10185000DE080130110509F429CEC80170C02CEF53
:101860003FEFEACF2DEF3FEFE7CF41E050E0BE0181
:101870006A5C7F4FCE0109960E94D00E8EA981111D
:1018800017C08EA98111F1CFCE0109960E94EF0EEB
:10189000CE0109960E94EF0ECE0109960E94EF0E2E
:1018A000CE0109960E94EF0EFFEFCF1ADF0A58CF44
:1018B0008EA99FEF980F9EAB882319F3CE0109964E
:1018C0000E94EF0EF5CF8CAD9FEF980F9CAF882351
:1018D00009F462CFCE0109960E94EF0EF4CFCE013B
:1018E00009960E94EF0E1CAE57CF612C712C8AAD69
:1018F0009BAD9827892798276816790640F4CE0172
:1019000009960E94EF0E8FEF681A780AF0CFAFEFBA
:10191000CA1ADA0AC016D10609F02ECF26EF3FEF19
:101920008BCF27EF3FEF88CF2AEF3FEF85CF2BEF0D
:101930003FEF82CF80E090E002C08EEF9FEFEE9607
:101940000FB6F894DEBF0FBECDBFDF91CF911F91D0
:101950000F91FF90EF90DF90CF90BF90AF909F904E
:101960008F907F906F905F904F9008951F93CF93CB
:10197000DF9300D0CDB7DEB7182F6A8399830E941A
:10198000360980EF0E94A0069981892F0E94A00647
:10199000812F0E94A0066A81862F0E94A0060E94C5
:1019A000340981E00F900F90DF91CF911F9108953E
:1019B0001F93CF93DF93182F66E270E00E94A70673
:1019C000C82FD0E067E270E0812F0E94A706DC2FCD
:1019D000CC279E01282BC901DF91CF911F9108953B
:1019E0001F93CF93DF93182F60E270E00E94A70649
:1019F000C82FD0E061E270E0812F0E94A706DC2FA3
:101A0000CC279E01282BC901DF91CF911F9108950A
:101A1000CF92DF92EF92FF920F931F93CF93DF93BA
:101A20006C017A018B01C0E0D0E0CE15DF0589F0B2
:101A3000D8016D918D01D601ED91FC910190F0815D
:101A4000E02DC6010995892B11F47E0102C0219673
:101A5000ECCFC701DF91CF911F910F91FF90EF90D5
:101A6000DF90CF900895FC01918D828D981761F0E1
:101A7000828DDF01A80FB11D5D968C91928D9F5FC5
:101A80009F73928F90E008958FEF9FEF0895FC0170
:101A9000918D828D981731F0828DE80FF11D858D23
:101AA00090E008958FEF9FEF0895FC01918D228DB6
:101AB000892F90E0805C9F4F821B91098F7399273B
:101AC000089587ED92E00E94550D21E0892B09F4DD
:101AD00020E0822F0895FC01848DDF01A80FB11D45
:101AE000A35ABF4F2C91848D90E001968F73992754
:101AF000848FA689B7892C93A089B1898C91806441
:101B00008C93938D848D981306C00288F389E02D01
:101B100080818F7D80830895EF92FF920F931F93B2
:101B2000CF93DF93EC0181E0888F9B8D8C8D981390
:101B300005C0E889F989808185FD24C0F62E0B8DCA
:101B400010E00F5F1F4F0F731127E02E8C8DE812EE
:101B50000CC00FB607FCFACFE889F989808185FFB0
:101B6000F5CFCE010E946B0DF1CF8B8DFE01E80FFA
:101B7000F11DE35AFF4FF0820B8FEA89FB898081C8
:101B8000806207C0EE89FF896083E889F9898081D6
:101B90008064808381E090E0DF91CF911F910F916D
:101BA000FF90EF900895CF93DF93EC01888D882309
:101BB000C9F0EA89FB89808185FD05C0A889B989BA
:101BC0008C9186FD0FC00FB607FCF5CF808185FF95
:101BD000F2CFA889B9898C9185FFEDCFCE010E9403
:101BE0006B0DE7CFDF91CF91089580E090E0892BD6
:101BF00029F00E94610D81110C9400000895089550
:101C0000CF93DF931F92CDB7DEB76983DC01ED91EF
:101C1000FC910280F381E02D41E050E0BE016F5F56
:101C20007F4F09950F90DF91CF9108950E94CE22AA
:101C3000BF92CF92DF92EF92FF920F931F93CF93B9
:101C4000DF9300D000D000D0CDB7DEB7FC01208DEF
:101C5000243009F05DC06A017B018C01B12C63E086
:101C600070E08B2D0E94A706811103C0F801B08E91
:101C700006C08831D9F3B394F4E0BF12F0CFF80175
:101C8000808D843009F444C096E0ECE0F1E0DE01A0
:101C9000119601900D929A95E1F7F70193819F7744
:101CA0009C8394819D8395819E83B7016E5F7F4F56
:101CB00090E0982F882744E050E0845F9B4F0E947B
:101CC0006809F801F08C4D2D60E170E08F2D0E94C5
:101CD000A7014C2D61E170E08F2D0E94A701F80152
:101CE000808D90E0982F882746E050E0BE016F5F1E
:101CF0007F4F8A5F9B4F0E946809F801128E118EF8
:101D000020E8A60162E0808D0E94C70181E001C049
:101D100080E026960FB6F894DEBF0FBECDBFDF91F0
:101D2000CF911F910F91FF90EF90DF90CF90BF90D8
:101D30000895FF920F931F93CF93DF931F92CDB718
:101D4000DEB7FC01218D328D232B09F1F08C80E56B
:101D500090E00E94B20168E270E08F2D0E94A70619
:101D6000082F10E069E270E08F2D0E94A706702F07
:101D70006627682B21E030E0AE014F5F5F4F8F2D6B
:101D80000E942C120E94B101898190E002C08FEF65
:101D90009FEF0F90DF91CF911F910F91FF900895CA
:101DA000CF93DF93FC01218D328D2115310519F47C
:101DB0008FEF9FEF11C0EC014217530708F0A90104
:101DC000888D0E94CD061816190694F7298D3A8D34
:101DD000281B390B3A8F298FDF91CF9108950F93EC
:101DE0001F93CF93DF931F92CDB7DEB7FC01218DF8
:101DF000328D232B61F08C0141E050E0BE016F5F1A
:101E00007F4F808D0E94CD06181619061CF08FEFAB
:101E10009FEF08C0F801818D928D0197928F818F7D
:101E2000898190E00F90DF91CF911F910F910895DC
:101E3000BF92CF92DF92EF92FF920F931F93CF93B7
:101E4000DF93CDB7DEB728970FB6F894DEBF0FBE8D
:101E5000CDBF8C01F801818D928D892B49F0D8017D
:101E6000ED91FC910680F781E02DC8010995F2CF34
:101E7000B08C80E590E00E94B201E12CF12C8B2D1A
:101E80000E94D80C6C01892B21F08B2D0E94D80C5C
:101E90007C01EC14FD0499F70E94B1011E141F048B
:101EA0005CF548E050E0BE016F5F7F4FD801589667
:101EB0008C910E94CD069C0118161906DCF48981CC
:101EC0009A81AB81BC81F801808B918BA28BB38B03
:101ED0008D8190E0982F88272E81820F911D958B00
:101EE000848B2F8130E0322F22278885280F311DE7
:101EF000328F218FC90102C080E090E028960FB692
:101F0000F894DEBF0FBECDBFDF91CF911F910F912F
:101F1000FF90EF90DF90CF90BF9008957F928F92C7
:101F20009F92AF92BF92CF92DF92EF92FF920F9368
:101F30001F93CF93DF935C014B016A01FC0106897B
:101F40001789708C80E590E00E94B201C0E0D0E07B
:101F5000872D0E94F00C7C01892B21F0872D0E9497
:101F6000F00CEC01CE15DF0599F7CC15DD0578F402
:101F7000C0E0D0E0872D0E94F00C6C01892B21F08D
:101F8000872D0E94F00CEC01CC15DD0599F764E279
:101F900070E0872D0E94A706E82EF12C65E270E024
:101FA000872D0E94A706FE2CEE24E82AE701C00F29
:101FB000D11F9E013770E72CF12CC701880F991FA4
:101FC000AC0143545D4F7A01FA0180819181820F07
:101FD000931FA9014C0D5D1D4130584090F000E069
:101FE00018E0021B130BA801B4010E946809A601A6
:101FF000401B510BB401600F711FF701808191816B
:1020000002C0A601B4010E946809CC0DDD1D4D2F50
:1020100064E270E0872D0E94A7014C2F65E270E01A
:10202000872D0E94A7010E94B101F5018689978939
:102030008C0D9D1D978B868BC601DF91CF911F91D3
:102040000F91FF90EF90DF90CF90BF90AF909F9057
:102050008F907F9008956115710579F0FB010190D3
:102060000020E9F73197AF01461B570BDC01ED91DA
:10207000FC910280F381E02D099480E090E00895C6
:102080004F925F926F927F92EF92FF920F931F9306
:10209000CF93DF93CDB7DEB7A1970FB6F894DEBF2D
:1020A0000FBECDBF7C01FA01CB0119A2223008F48A
:1020B0002AE08E010F5D1F4F422E512C612C712C96
:1020C000BF01A30192010E949420F901CA010150AD
:1020D00011096A3014F4605D01C0695CD8016C9329
:1020E000232B242B252B61F7B801C7010E942B104D
:1020F000A1960FB6F894DEBF0FBECDBFDF91CF9192
:102100001F910F91FF90EF907F906F905F904F9095
:1021100008958F929F92AF92BF92CF92DF92EF92EB
:10212000FF920F931F93CF93DF937C01EB016C0120
:1021300082E0C80ED11C4701E5E08E0E911C00E044
:1021400010E0F60141916F0150E060E070E02AE09C
:10215000CE010E9440105C01E881F9810190F0817C
:10216000E02D6EE2CE0109958A0D9B1D080F191F07
:10217000C814D90431F7F701458150E060E070E000
:102180002AE0CE010E944010800F911FDF91CF9175
:102190001F910F91FF90EF90DF90CF90BF90AF9085
:1021A0009F908F9008950F931F93CF93DF93EC012F
:1021B0000E942B108C016AEF71E0CE010E942B105F
:1021C000800F911FDF91CF911F910F9108951F9262
:1021D0000F920FB60F9211242F933F934F935F935B
:1021E0006F937F938F939F93AF93BF93EF93FF93DF
:1021F00087ED92E00E946B0DFF91EF91BF91AF913F
:102200009F918F917F916F915F914F913F912F910E
:102210000F900FBE0F901F9018951F920F920FB640
:102220000F9211242F938F939F93EF93FF93E0913D
:10223000E702F091E8028081E091ED02F091EE0278
:1022400082FD12C090818091F0028F5F8F73209188
:10225000F102821751F0E091F002F0E0E952FD4FF7
:10226000958F8093F00201C08081FF91EF919F9143
:102270008F912F910F900FBE0F901F9018950F9375
:102280001F93CF93DF9300D0CDB7DEB7152F032F69
:10229000FC01808191E0909399028093BB0210929F
:1022A0009A021092BC02F4E06F9FB00111246A5FA1
:1022B0007F4F82E893E02A8349830E944701498146
:1022C000842F912F0E94FC11812F90E00E94FC111D
:1022D0002A81822F902F0E94FC11802F90E00E9473
:1022E000FC1181E00F900F90DF91CF911F910F9122
:1022F0000C949F113FB7F8948091D2029091D30231
:10230000A091D402B091D50226B5A89B05C02F3F5D
:1023100019F00196A11DB11D3FBFBA2FA92F982F0B
:102320008827820F911DA11DB11DBC01CD0142E086
:10233000660F771F881F991F4A95D1F70895382F88
:102340002091BC029091BB02213208F049C08091DB
:1023500098028111FCCF42E040939802309397029B
:102360003FEF309396021092950220939402ABE9CE
:10237000B2E044E752E0FA013E2F341B321718F462
:102380003D913193F9CF1092730220917302990F0E
:10239000922B9093730290917202913061F410929B
:1023A0007202909173029093BB009091BC0093FDD8
:1023B000F8CF95EC01C095EE9093BC0090919802F7
:1023C0009230E1F3909196029F3F79F080919602CE
:1023D000803241F080919602803331F084E005C074
:1023E00081E003C082E001C083E010929A02109263
:1023F000BC02109299020895682F82E893E00C9431
:102400004701CF93C62F9091110421E020939902A8
:102410009093BB0210929A021092BC02682F82E83D
:1024200093E00E9447016C2F82E893E00E944701ED
:1024300081E0CF910C949F11CF93C82F462F61E07C
:1024400070E00E94A70161E070E08C2F0E94A70657
:102450008111F9CFCF910895AF92BF92CF92DF92C1
:10246000EF92FF920F931F93CF93DF9300D0CDB7DE
:10247000DEB77A836983BA01A901E981FA81F7702D
:10248000082F10E0000F111F0B531D4FD8018D9125
:102490009C918E0F9F1F2E0F3F1F2130384098F0C8
:1024A0007A015B0120E038E06901CE1ADF0AA6015B
:1024B0000E943809A7014C195D09B5016C0D7D1DFD
:1024C000F801808191810F900F90DF91CF911F9142
:1024D0000F91FF90EF90DF90CF90BF90AF900C9452
:1024E000380990E0FC01E058FF4F3491FC01E256BE
:1024F000FF4F2491FC01EE54FF4FE491EE2309F4C9
:102500003BC0332339F1333091F038F43130A9F046
:10251000323001F584B58F7D12C0373091F03830FC
:10252000A1F03430B9F4809180008F7D03C0809198
:1025300080008F77809380000DC084B58F7784BD35
:1025400009C08091B0008F7703C08091B0008F7D6B
:102550008093B000F0E0EE0FFF1FEA58FF4FA59107
:10256000B4918FB7F894EC91611103C020952E239C
:1025700001C02E2B2C938FBF0895CF93DF9390E053
:10258000FC01E256FF4F2491FC01EE54FF4F849171
:10259000882361F190E0880F991FFC01EC56FF4FF2
:1025A000C591D491FC01EA58FF4FA591B4916111F6
:1025B00009C09FB7F8948881209582238883EC9185
:1025C0002E230BC0623061F49FB7F8943881822FBC
:1025D000809583238883EC912E2B2C939FBF06C07C
:1025E0008FB7F894E8812E2B28838FBFDF91CF918E
:1025F00008958F929F92AF92BF92CF92DF92EF9207
:10260000FF926B017C010E947A114B015C01C114A5
:10261000D104E104F104F1F00E947A11DC01CB0154
:1026200088199909AA09BB09883E9340A105B105FB
:1026300070F321E0C21AD108E108F10888EE880E93
:1026400083E0981EA11CB11CC114D104E104F10463
:1026500019F7DDCFFF90EF90DF90CF90BF90AF9054
:102660009F908F900895CF92DF92EF92FF920F93F9
:102670001F93CF93DF93CDB7DEB7C254D1090FB606
:10268000F894DEBF0FBECDBFFC0182819381A4818F
:10269000B58123968CAF9DAFAEAFBFAF239721E03E
:1026A00023962FAF239723964CAD5DAD6EAD7FADD6
:1026B00023974BAB5CAB6DAB7EAB89AF9AAFABAF47
:1026C000BCAF8DA79EA7AFA7B8AB28AB4DA55EA5A5
:1026D0006FA578A94FA358A769A77AA72EAB4BA9D6
:1026E0005CA96DA97EA949A35AA36BA37CA38B8F78
:1026F0009C8FAD8FBE8F4AE951E05C8B4B8B3FEFD7
:102700003D8B3E8B3F8B188E5E874D872AA7CFA0CF
:10271000D8A4E9A4FAA4CF86D88AE98AFA8A2CA395
:1027200009A11AA12BA13CA109871A872B873C87F5
:102730005A8349838B839C83AD83BE836CE271E0B3
:1027400080E090E00E94F9121FB7F8948091D602C1
:10275000811127C0ECEBF0E08491E8EAF0E094917D
:10276000E82FF0E0EE0FFF1FEC56FF4FA591B4915C
:10277000EC91E92321F461E08AE00E94711261E0AA
:102780008AE00E94BD128CB580618CBD8CB58064DE
:102790008CBD61E08DE00E94BD1261E08BE00E9483
:1027A000BD128091D6028F5F8093D6021FBF229AFE
:1027B00080E590E00E94B20160E880E090E00E9435
:1027C000B60C65E58BE190E00E94B60C65E58AE108
:1027D00090E00E94B60C0E94B10180E090E49093DA
:1027E000BE028093BD0280E090E69093C602809383
:1027F000C50280E098E49093C0028093BF0280E01D
:1028000098E69093C8028093C70280E090E5909389
:10281000C2028093C10280E090E79093CA02809345
:10282000C90280E098E59093C4028093C30280E0DF
:1028300098E79093CC028093CB0280E590E00E94D1
:10284000B20146E050E060E071E089E090E00E9473
:10285000680944E050E0BE016D5F7F4F8FE090E07B
:102860000E94680944E050E0BE01615F7F4F81E053
:1028700090E00E94680944E050E0BE016B5E7F4F2B
:1028800085E090E00E9468090E94B10181E08C8798
:1028900089859A85AB85BC85809376039093770371
:1028A000A0937803B0937903CE5BDF4F0FB6F89413
:1028B000DEBF0FBECDBFDF91CF911F910F91FF9073
:1028C000EF90DF90CF9008952FB7F8946091CE02EB
:1028D0007091CF028091D0029091D1022FBF0895C4
:1028E0001F920F920FB60F9211242F933F938F9345
:1028F0009F93AF93BF938091CE029091CF02A0910E
:10290000D002B091D1023091CD0223E0230F2D37B8
:1029100020F40196A11DB11D05C026E8230F0296E3
:10292000A11DB11D2093CD028093CE029093CF02C2
:10293000A093D002B093D1028091D2029091D302A1
:10294000A091D402B091D5020196A11DB11D809332
:10295000D2029093D302A093D402B093D502BF9138
:10296000AF919F918F913F912F910F900FBE0F903C
:102970001F901895CF93DF93CDB7DEB7C755D10918
:102980000FB6F894DEBF0FBECDBF789484B58260D9
:1029900084BD84B5816084BD85B5826085BD85B503
:1029A000816085BD80916E00816080936E00109281
:1029B00081008091810082608093810080918100FC
:1029C000816080938100809180008160809380008D
:1029D0008091B10084608093B1008091B0008160EB
:1029E0008093B00080917A00846080937A00809117
:1029F0007A00826080937A0080917A00816080936F
:102A00007A0080917A00806880937A001092C100E9
:102A1000E091E702F091E80282E08083E091E30236
:102A2000F091E4021082E091E502F091E6028FEC71
:102A300080831092EF02E091EB02F091EC0286E0CD
:102A40008083E091E902F091EA02808180618083D5
:102A5000E091E902F091EA02808188608083E09150
:102A6000E902F091EA02808180688083E091E902C6
:102A7000F091EA0280818F7D808368EA71E087EDC2
:102A800092E00E94D31060E070E085E194E00E9443
:102A9000830560E070E082E194E00E94830510927B
:102AA0001F0210921E0210929A021092BC020E9403
:102AB000690810929A021092BC020E94690860E0B4
:102AC00080E00E94011280E496E09093D803809306
:102AD000D7038091110491E0909399028093BB02F7
:102AE00010929A021092BC0260E082E893E00E9489
:102AF000470181E00E949F118091110490919802FA
:102B00009111FCCF91E090939802909397022FEF50
:102B10002093960210929502109294029093730261
:102B200090917302880F892B8093730280917202B7
:102B3000813061F410927202809173028093BB0025
:102B40008091BC0083FDF8CF85EC01C085EE8093B9
:102B5000BC00809198028130E1F38091950281114F
:102B600003C08091950201C081E0A4E7B2E02EEF9E
:102B700031E0F9019E2F921B981718F49D919193C3
:102B8000F9CF10921F0280931E0282E893E00E9408
:102B9000C900182F682F6F76606180E00E940112D3
:102BA00063E08EEF0E940112612F80E00E9401120B
:102BB00065E070E080E090E00E94F912612F616AA8
:102BC00080E00E94011210E020E030E040E050E0A0
:102BD000612F81E194E00E943F111F5F1031A1F746
:102BE00060E080E00E94BD1260E080E00E94BD12C3
:102BF00060E080E00E94BD1260E080E00E94BD12B3
:102C000063EC71E087ED92E00E94D3108AE991E0D5
:102C10009A8389838091B5039091B603A091B703FD
:102C2000B091B8038B839C83AD83BE83CE010196A4
:102C30000E9433139E012B5E3F4F23963FAF2EAF72
:102C40002397CE01059625969FAF8EAF259789EBEA
:102C500093E00E94180F2F969FAF8EAF2F971816F4
:102C600019060CF0E2C7812C912C212C312C2796CF
:102C70001FAE1EAE279729961FAE1EAE29972D9622
:102C80001FAE1EAE2D972B961FAE1EAE2B972F9606
:102C90002EAD3FAD2F97215031092F963FAF2EAF6C
:102CA0002F972F3F3F4F09F4CBC589EB93E00E944C
:102CB000EF0ED82E84010F5F1F4FB801C1010E9493
:102CC00004221C01009731F0FC01E80DF91DD082AF
:102CD000480106C023E030E029963FAF2EAF299788
:102CE00027962EAD3FAD279722303105C1F124F450
:102CF00021303105A1F00BC027962EAD3FAD2797AF
:102D000023303105A9F12430310509F4CBC033E279
:102D1000D31609F48BC58FE2D812B9CFB3C038E00F
:102D20008316910409F0B3CFB10187ED91E00E94C1
:102D3000DC22892B31F022E030E029963FAF2EAF24
:102D40002997C1010E946C21812C912C212C312CBE
:102D500022E030E027963FAF2EAF279798CF38E09C
:102D60008316910409F093CFC1010E946C214FC5D5
:102D700034E08316910409F08ACFF10180819181BA
:102D8000A281B381898B9A8BAB8BBC8BDE0155966C
:102D9000FE01319625962EAD3FAD2597E217F3073C
:102DA00019F08E918193F6CF89819A81AB81BC8194
:102DB000898B9A8BAB8BBC8BAC01BD0143705527C3
:102DC00066277727452B462B472B09F032C50097FE
:102DD000A105B10509F42DC561969FAF8EAF61972E
:102DE000C1010E946C2180E190E00E94D7208C01FB
:102DF000DC0111961C921E9215961C921E9214973D
:102E000017961C921E92169713961C921E9212975A
:102E10001B961C921E921A971D961C921E921C972E
:102E20001F961C921E921E970E942602F801118680
:102E3000108622E030E0378326832D96CEACDFACBF
:102E40002D973FEFC31AD30A7601EE0CFF1CB70192
:102E50002B968EAD9FAD2B970E9404220097A9F070
:102E6000E80EF91EF7013297118300832D96DFAE2D
:102E7000CEAE2D972B969FAF8EAF2B97812C912C9A
:102E8000212C312C24E030E065CF812C912C212C99
:102E9000312C24E030E027963FAF2EAF279723E078
:102EA00030E0C9C42D962EAD3FAD2D9721153105CB
:102EB00009F4EDCEF901E150F048EE0FFF1F2B961B
:102EC0008EAD9FAD2B97E80FF91F00811181D801BE
:102ED0001E962D913C911F971A968D919C911B9750
:102EE0001C966D917C911D97121613068CF49B0114
:102EF0002F5F3F4F1D963C932E931C97FC01E60FCE
:102F0000F71FD0821E968D919C911F97019717C035
:102F10006F5E7F4F0E940422F8019387828700979B
:102F200099F024853585A9014F5F5F4F5587448708
:102F3000FC01E20FF31FD08280E190E0D8011F96E0
:102F40009C938E931E9705C023E030E0F8013783F1
:102F50002683D8011896ED91FC911997E730F10579
:102F600008F047C4EC5CFF4F0C94D120BFE2DB12A9
:102F700040C421E030E02DC4D1103BC4D8011A96E2
:102F80006D917C911B97C8010E944302F801178242
:102F90001682C8010E942602E2E0F0E003C1FCE2D2
:102FA000DF1227C4E3E0F0E0D8011996FC93EE931A
:102FB0001897A2C0DD2009F445C08EE090E00E9481
:102FC000D7207C01E2E0F0E0DC011196FC93EE9367
:102FD0008D2DDD0C990B15969C938E93149713965B
:102FE0001C921E921297D80114966D917C911597A0
:102FF0006F5F7F4F660F771F12968D919C9113978D
:103000000E940422009731F423E030E0F801378376
:1030100026831DC0D80113969C938E931297149605
:103020002D913C911597A901440F551FFC01E40F08
:10303000F51FF182E0822F5F3F4F15963C932E9350
:10304000149705C024E030E0F80131872087D801CB
:1030500014962D913C911597C90180959095837098
:103060009927009711F484E090E0820F931FF801F4
:10307000248535852817390709F0BBC3C8010E948C
:103080002602E5E0F0E08EC049805A806B807C80AB
:10309000D80114968D919C911597E816F9060CF0BD
:1030A000C2C0B701C8010E946F026C01009729F0ED
:1030B0000E940104C6010E946C218EE090E00E94F3
:1030C000D720FC011182108289E690E095838483E9
:1030D00024E030E033832283468257826086718603
:1030E000EE0CFF1CD80112968D919C911397DC0178
:1030F000AE0DBF1DED93FC93C8010E94260279C35B
:10310000FFEFEF1AFF0AD80114968D919C91159745
:10311000E816F9060CF06DC3B701C8010E946F02F2
:10312000DC012D913C9111972230310549F714961D
:10313000AD90BC901597B6E6AB16B10409F48CC0FF
:10314000D4F133E7A316B10409F040C0D11051C344
:10315000D8011A96CD90DC901B9714968D919C9176
:103160001597E816F9060CF442C2E816F90609F0BC
:1031700007C38EE090E00E94D7207C01B6010E9438
:10318000C804F701808191818330910509F044C220
:10319000D80117969C938E931697C8010E94260219
:1031A000E6E0F0E0D8011996FC93EE93189721C35E
:1031B000E12CF12CA8CFF2E6AF16B10409F43BC222
:1031C00024E6A216B10409F4A6C013C384E7A81626
:1031D000B10409F42EC199E6A916B10409F009C396
:1031E000D8011C968D919C911D97049709F001C3FD
:1031F0001A96ED91FC911B9780819181A281B381F8
:10320000898B9A8BAB8BBC8BDE015596FE01319678
:1032100025962EAD3FAD2597E217F30709F434CF7D
:103220008E918193F5CFE816F90609F0DAC18EE0A8
:1032300090E00E94D7206C01FC011182108289E687
:1032400090E09583848324E030E0338322834682B8
:10325000578260867186C7C0D8011C968D919C915B
:103260001D97049709F0C5C21A96ED91FC911B9722
:1032700080819181A281B381898B9A8BAB8BBC8B2E
:10328000DE015596FE01319625962EAD3FAD259770
:10329000E217F30719F08E918193F6CF49805A8097
:1032A0006B807C80D80114968D919C911597E816BF
:1032B000F906E4F4B701C8010E946F026C0100979F
:1032C00029F00E940104C6010E946C218EE090E06A
:1032D0000E94D720FC011182108226E630E035835F
:1032E000248384E090E0938382835DC0E816F9062E
:1032F00009F077C18EE090E00E94D7206C01FC01BC
:103300001182108226E630E03583248384E090E049
:103310009383828361C0D8011C968D919C911D97E7
:10332000089709F066C21A96ED91FC911B9788E008
:10333000DE01119601900D928A95E1F7DE01159656
:10334000FE01719623962EAD3FAD2397E217F3074A
:1033500019F08E918193F6CF49885A886B887C88C2
:10336000D80114968D919C911597E816F90604F5ED
:10337000B701C8010E946F026C01009729F00E94FA
:103380000104C6010E946C218EE090E00E94D720CB
:10339000FC011182108224E030E03383228386E630
:1033A00090E095838483468257826086718698CEAA
:1033B000E816F90609F015C18EE090E00E94D720CA
:1033C0006C01FC011182108224E030E033832283FF
:1033D00086E690E095838483D60116964D925D92A1
:1033E0006D927C921997B7016F5F7F4F660F771FC1
:1033F000F801828193810E940422009741F4E3E066
:10340000F0E0D8011796FC93EE93169775CED8018D
:1034100013969C938E93129714962D913C91159729
:10342000A901440F551FFC01E40FF51FD182C08292
:10343000D1C0D8011C96CD90DC901D97B8E0CB167A
:10344000D10409F0D6C1D8011A96ED91FC911B97D1
:1034500088E0DE01519601900D928A95E1F7CE0148
:1034600041960E940902698B7A8B8B8B9C8BCE01D3
:1034700045960E9409026D8B7E8B8F8B988F88E01A
:10348000FE017196DE01D99601900D928A95E1F7C1
:10349000F80184819581E816F9060CF045C0B70162
:1034A000C8010E946F026C01009729F00E9401047C
:1034B000C6010E946C2188E0FE01F996DE0111969A
:1034C00001900D928A95E1F78EE090E00E94D7205E
:1034D00028E0FE013196DE01D19601900D922A95E9
:1034E000E1F7DC0111961C921E92E4E7F0E01596DC
:1034F000FC93EE93149728E030E013963C932E93C0
:103500001297FE01F196169601900D922A95E1F719
:10351000EE0CFF1CD8011296ED91FC911397EE0D65
:10352000FF1D91838083E8CDE816F90609F059C0A4
:1035300088E0FE01F996DE01999601900D928A9538
:10354000E1F788E0FE01B996DE01119601900D9237
:103550008A95E1F78EE090E00E94D7203C0188E058
:10356000FE013196DE01919601900D928A95E1F768
:10357000F30111821082B582A482D382C28288E0D4
:10358000FE01B196D301169601900D928A95E1F74E
:10359000B7016F5F7F4F660F771FD80112968D912D
:1035A0009C9113970E940422009719F423E030E0C5
:1035B0001AC0D80113969C938E93129714962D914E
:1035C0003C911597A901440F551FFC01E40FF51F0D
:1035D000718260822F5F3F4F15963C932E93149714
:1035E0008BCD24E030E0F8013783268385CDB70109
:1035F000C8010E946F025C01009729F00E9401043B
:10360000C5010E946C218EE090E00E94D7205C01F1
:10361000B6010E94C8045BC0F801648175816F5FC8
:103620007F4F660F771F828193810E94042200974B
:1036300009F08EC071C0D8011C96AD90BC901D974A
:10364000B5E0AB16B1040CF4D4C0F801C284D38445
:10365000F60180819181A281B38189839A83AB83B2
:10366000BC83CE0101960E9409022B013C01C501D9
:10367000BB0CAA0BBB0BB301A2014C5F5F4F6F4F9A
:103680007F4F84179507A607B70709F0B2C0F4E08B
:10369000CF0ED11CD80114968D919C911597E816E8
:1036A000F90644F5B701C8010E946F025C0100975A
:1036B00029F00E940104C5010E946C218EE090E077
:1036C0000E94D7205C01A201B6010E944E04F501C0
:1036D000808191818330910509F45ACDEE0CFF1C55
:1036E000D8011296ED91FC911397EE0DFF1DB1825A
:1036F000A08253CDE816F90609F042C08EE090E0B2
:103700000E94D7207C01A201B6010E944E04F7015D
:1037100080819181039741F4E3E0F0E0D8011796AE
:10372000FC93EE93169739CDD80114966D917C9148
:1037300015976F5F7F4F660F771F12968D919C9143
:1037400013970E940422009719F423E030E01AC076
:10375000D80113969C938E93129714962D913C91B9
:103760001597A901440F551FFC01E40FF51FF182C5
:10377000E0822F5F3F4F15963C932E9314970DCD0B
:1037800024E030E0F8013783268307CDF801E48098
:10379000F580F1E0EF1AF10803C031E0E31AF10817
:1037A000F7FC27C0B701C8010E946F02DC012D9110
:1037B0003C911197232B89F712968D919C91139729
:1037C00091958195910983709927009731F425E0AF
:1037D00030E0F801318720870CC0D8011C962D916C
:1037E0003C911D972817390721F4C8010E94260231
:1037F000EECF61968EAD9FAD61978816990671F4F4
:10380000C1010E946C2161969FAE8EAE6197812CA2
:10381000912C212C312C23E030E09CCA61968EAD96
:103820009FAD61978815990524F031CA21E030E0F9
:1038300091CA22E030E029963FAF2EAF299727CAE0
:103840002D962EAD3FAD2D9765963FAF2EAF659768
:10385000DD24D39429962EAD3FAD2997232B09F46F
:10386000D12C2B968EAD9FAD2B9763969FAF8EAFCD
:1038700063978C01E12CF12C2D962EAD3FAD2D9749
:10388000E216F3065CF4D8018D919D918D010E94A2
:103890008602D82ABFEFEB1AFB0AEECFD110B2C1D5
:1038A000232B59F02B96AEADBFAD2B970D90BC914D
:1038B000A02D6796BFAFAEAF679767966EAD7FAD31
:1038C0006797CE0141960E94B10260E070E0CE01A0
:1038D00041960E946F028C01CE0141960E948602A1
:1038E000811103C0F801648101C060E0062E000C64
:1038F000770B61527E4F87ED92E00E94D31027969E
:103900001FAE1EAE279727962EAD3FAD27972D965B
:103910008EAD9FAD2D97281739070CF06EC16396B9
:10392000AEADBFAD63976D917D916396BFAFAEAF06
:103930006397CE0101960E94B10289809A8062EA63
:1039400071E0C4010E94DC22892B31F0840182EAFB
:10395000C82E81E0D82E4CC0F40101900020E9F778
:103960003197CF018819990930C1F80120812223AC
:1039700009F412C12A3209F0CEC02F96DFAECEAEC6
:103980002F97F6015F0181918F32B9F529961FAF0C
:103990000EAF2997F80180E090E07F0121912F324E
:1039A00091F5B1E0EB1AF108E1E0AE1AB10881300F
:1039B000910531F5D7011C911A3259F529960EADB2
:1039C0001FAD2997F80181912996FFAFEEAF299796
:1039D0008F3209F09AC02F96CEACDFAC2F97D6016C
:1039E0008D912F96BFAFAEAF2F978F3209F090C059
:1039F000D6014C914111B9CFCFC08111C3CFC6CFF1
:103A00000297B9F17AC0222361F22A3231F6019687
:103A1000C4CFB501C7010E948103892B09F4DEC020
:103A20001F7D1D3549F4D7018C918F7D8B3521F099
:103A3000F1E0EF1AF108F7CFB1E0EB1AF108E1E09D
:103A4000AE1AB108B7CFB501C70168962FAF689716
:103A50000E94810368962FAD6897892B09F4BEC038
:103A60002F7D2D3559F0F1E0EF1AF10821E0A21A6F
:103A7000B108D7012C912A3231F709C0F7018081B2
:103A80008F7D8B3581F3B1E0EB1AF108F7CFBFEFF3
:103A9000AB1ABB0AE1E0EE1AF108CA14DB0408F025
:103AA0009DC03701F1E0AF1AB1082501D3012C9177
:103AB0002A3261F0B201C30168962FAF68970E9465
:103AC000810368962FAD6897892B21F460167106E3
:103AD00021F774CF2F7D2D3549F4D3018C918F7D43
:103AE0008B3521F021E0621A7108F7CFB1E06B1A33
:103AF0007108E1E04E1A5108D9CFB601C8010E9401
:103B0000AB03892B09F05ACF69C0811157CF63CF1E
:103B1000811161CF6DCF4A3291F4F8018F0181910B
:103B20008F3211F4F60106C08111F8CFFBCF882344
:103B300009F45ECF6F0181918F32C9F759CFB60179
:103B4000C80168962FAF68970E94810368962FADD1
:103B50006897009709F442C02B3559F4C801FC015D
:103B6000019620812D35D9F78C01BFEFCB1ADB0AE6
:103B70003FCF2B3759F49801F9012F5F3F4F408118
:103B80004D37D1F78901C80ED91E32CF0F5F1F4FB5
:103B9000EFEFCE1ADE0A2CCFC8018819990921E06F
:103BA00030E0442311F020E030E0D8014C91411185
:103BB00004C022602330310541F01816190674F450
:103BC000F80180818F3251F403C01816190634F4BD
:103BD0006CEE71E087ED92E00E94D310CE01019669
:103BE0000E94140427962EAD3FAD27972F5F3F4FBD
:103BF00027963FAF2EAF279786CECE0141960E94E3
:103C000014041DC029962EAD3FAD2997A90160E08F
:103C100070E02AE087ED92E00E9440106AEF71E0C8
:103C200087ED92E00E942B100AC0212C312C659662
:103C30001FAE1EAE65972B961FAE1EAE2B972B9612
:103C4000EEACFFAC2B9700E010E06596EEADFFAD5B
:103C500065970E171F0784F4D701CD90DD907D0185
:103C6000C114D10431F0C6010E941404C6010E949F
:103C70006C210F5F1F4FE9CF2B968EAD9FAD2B9719
:103C80000E946C21C1010E946C210091D40310910B
:103C9000D503D80113968D919C91149720E030E0C4
:103CA00040E050E011966C91CB960E943F11F801D4
:103CB0008381948120E030E040E050E06281CB9647
:103CC0000E943F11E091D403F091D5038381948148
:103CD00020E030E040E050E06081CB960E943F1150
:103CE00060E070E085E194E00E94000560E070E033
:103CF00082E194E00E9400050E94F50D0C942716C5
:103D00008AE991E0909319048093180410921A04A0
:103D100010921B0410921C0410921D041092DA02DF
:103D20001092D90248EE53E060E070E04093DB026D
:103D30005093DC026093DD027093DE0226E131E0F5
:103D40003093D8022093D70225EC30E03093E40280
:103D50002093E30224EC30E03093E6022093E50266
:103D600020EC30E03093E8022093E70221EC30E0D1
:103D70003093EA022093E90222EC30E03093EC0227
:103D80002093EB0226EC30E03093EE022093ED021C
:103D90001092F0021092F1021092F2021092F302CD
:103DA00090931F0480931E0410922004109221040B
:103DB00010922204109223049093250480932404EB
:103DC00010922604109227041092280410922904BD
:103DD00090932B0480932A0410922C0410922D04AB
:103DE00010922E0410922F0490933104809330048B
:103DF000109232041092330410923404109235045D
:103E00009093750380937403109276031092770356
:103E1000109278031092790390937D0380937C0332
:103E200010927E0310927F03109280031092810300
:103E3000909337048093360410923804109239041A
:103E400010923A0410923B0490933D0480933C04FA
:103E500010923E0410923F041092400410924104CC
:103E600090934304809342041092440410924504BA
:103E7000109246041092470490934904809348049A
:103E800010924A0410924B0410924C0410924D046C
:103E900090934F0480934E0410925004109251045A
:103EA000109252041092530490935504809354043A
:103EB000109256041092570410925804109259040C
:103EC00010928503109284034093860350938703D6
:103ED000609388037093890326E231E03093830373
:103EE0002093820390935F0480935E041092600499
:103EF0001092610410926204109263048091B203E4
:103F00008C30A0F491E0980F9093B2038093150445
:103F100090E0FC01EE0FFF1F8E0F9F1FFC01E25788
:103F2000FC4F88EB9BE09283818303C08FEF8093EB
:103F300015048091B2038C30A0F491E0980F909317
:103F4000B2038093120490E0FC01EE0FFF1F8E0F6E
:103F50009F1FFC01E257FC4F88EB9BE0928381831B
:103F600003C08FEF80931204EBEDF3E01282118215
:103F700013821082DF0111971C9211971C923696C2
:103F800083E0E33FF80791F71092FD0310920004DD
:103F90001092FC031092FB0310920D041092100477
:103FA00010920C0410920B0480E68093D603809349
:103FB00011048091DE03811111C01092DE0386EDA1
:103FC00093E09093DD038093DC0388E08093D90332
:103FD0008AE08093DA0389E08093DB0389ED93E044
:103FE0009093D5038093D4038091E403811112C090
:103FF00081E08093E40386ED93E09093E303809364
:10400000E2038DE08093DF038BE08093E0038CE09C
:104010008093E1038FED93E090935D0480935C04C3
:104020008091EA03811111C082E08093EA0326EDBA
:1040300033E03093E9032093E8038093E50384E0C1
:104040008093E60383E08093E70385EE93E090930B
:104050005B0480935A041092BC031092BB0388EE59
:1040600093E0A0E0B0E08093BD039093BE03A093E3
:10407000BF03B093C00384E791E09093BA038093A9
:10408000B9038AE991E09093C8038093C703109223
:10409000C9031092CA031092CB031092CC0324E000
:1040A0002093D1039093B4038093B30380EC809367
:1040B000B50388EA8093B6031092B7038BE9809327
:1040C000B8030895052E97FB1EF400940E947920F2
:1040D00057FD07D00E94942007FC03D04EF40C94A7
:1040E000792050954095309521953F4F4F4F5F4F28
:1040F000089590958095709561957F4F8F4F9F4F54
:1041000008950E94B620A59F900DB49F900DA49F86
:10411000800D911D11240895B7FF0C9481200E94F9
:104120008120821B930B0895A1E21A2EAA1BBB1BB0
:10413000FD010DC0AA1FBB1FEE1FFF1FA217B30773
:10414000E407F50720F0A21BB30BE40BF50B661F89
:10415000771F881F991F1A9469F76095709580954D
:1041600090959B01AC01BD01CF010895A29FB001C4
:10417000B39FC001A39F700D811D1124911DB29F9B
:10418000700D811D1124911D0895991B79E004C0C3
:10419000991F961708F0961B881F7A95C9F7809586
:1041A0000895EE0FFF1F0590F491E02D0994CF9331
:1041B000DF938230910510F482E090E0E091660494
:1041C000F091670420E030E0C0E0D0E0309711F1DA
:1041D0004081518148175907C0F04817590761F4C9
:1041E00082819381209719F09B838A832BC09093BF
:1041F00067048093660426C02115310519F0421723
:10420000530718F49A01BE01DF01EF010280F38128
:10421000E02DDCCF2115310509F1281B390B2430A5
:10422000310590F412968D919C911397611571054B
:1042300021F0FB019383828304C0909367048093F1
:104240006604FD01329644C0FD01E20FF31F819325
:104250009193225031092D933C933AC020916404EC
:1042600030916504232B41F420910801309109011C
:104270003093650420936404209106013091070176
:104280002115310541F42DB73EB740910A015091F7
:104290000B01241B350BE0916404F0916504E217D7
:1042A000F307A0F42E1B3F0B2817390778F0AC0159
:1042B0004E5F5F4F2417350748F04E0F5F1F509336
:1042C0006504409364048193919302C0E0E0F0E0C0
:1042D000CF01DF91CF9108950F931F93CF93DF9379
:1042E000009709F48CC0FC0132971382128200916E
:1042F0006604109167040115110581F42081318154
:10430000820F931F209164043091650428173907A8
:1043100079F5F0936504E093640471C0D80140E03E
:1043200050E0AE17BF0750F412962D913C911397B1
:10433000AD012115310509F1D901F3CF9D01DA0154
:104340003383228360817181860F971F82179307C1
:1043500069F4EC0128813981260F371F2E5F3F4F0A
:10436000318320838A819B8193838283452B29F427
:10437000F0936704E093660442C01396FC93EE93B7
:104380001297ED01499159919E01240F351FE217B3
:10439000F30771F480819181840F951F0296119625
:1043A0009C938E938281938113969C938E93129704
:1043B000E0E0F0E0D80112968D919C911397009760
:1043C00019F0F8018C01F6CF8D919C9198012E5F28
:1043D0003F4F820F931F209164043091650428178A
:1043E000390769F4309729F4109267041092660433
:1043F00002C0138212821093650400936404DF915B
:10440000CF911F910F910895A0E0B0E0EAE0F2E2B1
:104410000C94FE22EC01009721F4CB010E94D720DE
:10442000B8C0FC01E60FF71F9C0122503109E217CA
:10443000F30708F4ACC0D9010D911C911197061730
:104440001707B0F00530110508F49FC0C8010497A4
:104450008617970708F499C002501109061B170B1D
:10446000019311936D937C93CF010E946C218DC0B9
:104470005B01A01AB10A4C01800E911EA091660446
:10448000B091670440E050E0E12CF12C109709F462
:104490004AC0A815B905D1F56D907C9011976301BC
:1044A00082E0C80ED11CCA14DB0480F1A3014A19B2
:1044B0005B096A0182E0C80ED11C1296BC9012976B
:1044C0001396AC91B5E0CB16D10440F0B282A38331
:1044D00051834083D9016D937C930AC00E5F1F4FB7
:1044E000C301800F911FF90191838083EB2DFA2F77
:1044F000E114F10431F0D7011396FC93EE93129777
:1045000044C0F0936704E09366043FC08D919C9192
:1045100011974817590708F4AC017D0112960D90C8
:10452000BC91A02DB3CF809164049091650488154F
:104530009905E1F446175707C8F480910601909158
:104540000701009741F48DB79EB740910A01509141
:104550000B01841B950BE817F907C8F4F093650469
:10456000E0936404F901718360830FC0CB010E9462
:10457000D7207C01009759F0A801BE010E94D322E8
:10458000CE010E946C21C70104C0CE0102C080E0B0
:1045900090E0CDB7DEB7EEE00C941A2381E090E016
:1045A000F8940C943123FB01DC0102C001900D92C0
:1045B00041505040D8F70895FB01DC018D910190E6
:1045C00080190110D9F3990B0895FB01DC010190CA
:1045D0000D920020E1F70895FB01DC0141505040AD
:1045E00030F08D910190801919F40020B9F7881BE3
:1045F000990B08952F923F924F925F926F927F9204
:104600008F929F92AF92BF92CF92DF92EF92FF92E2
:104610000F931F93CF93DF93CDB7DEB7CA1BDB0B8E
:104620000FB6F894DEBF0FBECDBF09942A88398833
:1046300048885F846E847D848C849B84AA84B9843A
:10464000C884DF80EE80FD800C811B81AA81B98146
:10465000CE0FD11D0FB6F894DEBF0FBECDBFED015A
:064660000895F894FFCF5D
:10466600DEADBEEFFEED00006804800001005E00D6
:104676000000000000008C0D080D550D330D470D90
:10468600D30D0000000047011701DD00C900BA0084
:10469600B90000000000160E160E160E160E160EA7
:1046A600160E160EB700160E160E160E160E160E51
:1046B600160E160E160E160E00000000160E080D2B
:1046C600160E160E160E160E00000000160E080D1B
:1046D60000000000000E8E0F8708EF0E990EFF0DEA
:1046E600F308180EDE089709DB09A608180FD00E86
:1046F6009F088F088B08000000008910000000004A
:10470600160E2F746F6E6500496E697469616C6967
:10471600736174696F6E20646573206D6F7465755F
:10472600727300436F6E6E6578696F6E20617520D7
:10473600726573656175002362756E646C650052FF
:1047460065636569766564204F534300546F6E65F3
:0E475600207265636569766564000D0A0000D7
:00000001FF
