:100000000C9465000C948D000C948D000C948D0064
:100010000C948D000C948D000C948D000C948D002C
:100020000C948D000C948D000C948D000C940C039A
:100030000C948D000C948D000C948D000C948D000C
:100040000C940C140C948D000C94C6100C94A010FD
:100050000C948D000C948D000C948D000C948D00EC
:100060000C9468040C948D0084158A15BB15C31577
:100070000C16A616F21800000000250028002B0020
:100080000000000800020100000304070000000057
:100090000000000000000000240027002A000102E8
:1000A0000408102040800102040810200102040806
:1000B00010200404040404040404020202020202E4
:1000C000030303030303E819561411241FBECFEFE3
:1000D000D8E0DEBFCDBF14E0A0E0B1E0E8ECFEE385
:1000E00002C005900D92A831B107D9F726E0A8E12A
:1000F000B4E001C01D92AE36B207E1F710E0C4E6ED
:10010000D0E004C02197FE010E942E1DC336D10706
:10011000C9F70E9467140C94571F0C94000080E0EC
:10012000089508958FEF9FEF08958FEF9FEF089543
:100130008091960490E0919581959109089585EDBF
:100140008093BC008091BC0084FDFCCF10927004B1
:10015000089540914A04262F30E0240F311D2132AA
:100160003105DCF4209170042430C9F4FC0180E0F6
:1001700090E0861758F430914A042191DC01A85D83
:10018000BB4FA30FB11D2C930196F3CF80914A046E
:10019000680F60934A0480E0089581E0089582E04A
:1001A0000895CF93DF9300D0CDB7DEB7CB01642F96
:1001B00049835A830E94A9004981842F5A81952F2F
:1001C0000F900F90DF91CF910895CF93DF931F92FF
:1001D000CDB7DEB7698361E0CE0101960E94A90028
:1001E00081E090E00F90DF91CF910895CF93DF935E
:1001F000FC018181813221F0319681E090E003C0E1
:10020000329680E090E0AC0121E0422720812D353C
:1002100091F0222381F0A181EB013881AD3239F4D4
:1002200032171CF0228123173CF43396EFCF2317AB
:1002300019F03196EBCFCA01DF91CF910895EF927B
:10024000FF920F931F93CF93DF937B010196FC01E5
:1002500020812D37E1F02223D1F02F32C1F08F0120
:1002600021912D3759F4E801C81BD90BAE01B70114
:100270000E94491F892B49F0C801E8CF222399F336
:100280002F3289F32C3259F7EECFCE0102C080E035
:1002900090E0DF91CF911F910F91FF90EF90089523
:1002A000FC0120812D3559F02CF42F3301F12B3531
:1002B00061F015C02B3789F02D3749F010C0FC01D3
:1002C00020812B3511F00197FACF0C94F600FC0138
:1002D00020812B3711F00197FACF0C941F0181E098
:1002E00090E0FB013081231721F080E0089581E048
:1002F00090E00895EF92FF920F931F93CF93DF93B7
:100300001F92CDB7DEB77C018B01B801F801819156
:100310008F018F3229F4F70180818F3221F436C0AA
:10032000811110C0F8CF882389F18A3261F5F70175
:1003300081818F3259F131E020E0811130E0832F4B
:10034000922F26C0F7012081C7012A3231F401968D
:100350000E947A01892BC9F219C029830E94500199
:1003600029810097A9F02F7D2B3549F49701790158
:100370002F5F3F4FF70180818F7D8D35C1F7FFEFF4
:10038000EF1AFF0AC2CF80E090E002C081E090E067
:100390000F90DF91CF911F910F91FF90EF900895F3
:1003A000CF93DF93EC0162EA71E083EA94E00E946C
:1003B0008C1069E6CE010E9419118823C1F0CE018C
:1003C0000E94F81024E630E040E050E00E94661CF5
:1003D000CA01B9010E94021C609324047093250491
:1003E0008093260490932704DF91CF91089566ECC3
:1003F00071E083EA94E0DF91CF910C948C10CF935D
:10040000DF93EC0166E072E083EA94E00E948C10D6
:1004100069E6CE010E9419118823C1F0CE010E9425
:10042000F81024E630E040E050E00E94661CCA016B
:10043000B9010E94021C60932004709321048093F0
:10044000220490932304DF91CF9108956AE272E031
:1004500083EA94E0DF91CF910C948C10CF93DF93DB
:10046000EC0162E772E083EA94E00E948C1069E696
:10047000CE010E941911882361F0CE010E94F8106C
:100480006130710521F481E080939A0402C01092DA
:100490009A04DF91CF910895CF93DF93EC0163E845
:1004A00072E083EA94E00E948C1066E6CE010E941E
:1004B00019118823C1F0CE010E943B110E94F81C43
:1004C0009B01AC01A4EBB0E00E94851C0E94021CC1
:1004D00060931C0470931D0480931E0490931F046A
:1004E000DF91CF9108956FE972E083EA94E0DF91A4
:1004F000CF910C948C10CF93DF93EC016BED72E0F5
:1005000083EA94E00E948C1066E6CE010E941911E5
:100510008823C1F0CE010E943B110E94F81C9B0170
:10052000AC01A4EBB0E00E94851C0E94021C609309
:1005300018047093190480931A0490931B04DF919C
:10054000CF91089568EF72E083EA94E0DF91CF9154
:100550000C948C109B0190E00496982F8827642FB0
:10056000820F931F0C946F0C08958CBD9DBD089550
:10057000CF93C82F80E590E00E94B50260E170E063
:100580008C2F0E94F4114FEF62E070E08C2FCF911E
:100590000C94AA02FF920F931F93CF93DF9300D086
:1005A000CDB7DEB7F82E8A012A8369830E94B8028C
:1005B00080E590E00E94B5022A816981462F422B96
:1005C00060E070E08F2D0E94AA020115110551F420
:1005D00000919804109199040F5F1F4F1093990494
:1005E00000939804412F64E070E08F2D0E94AA02CE
:1005F000402F65E070E08F2D0E94AA0261E070E05C
:100600008F2D0E94F41181E00F900F90DF91CF9118
:100610001F910F91FF9008951F920F920FB60F92A6
:1006200011242F933F934F935F936F937F938F93F7
:100630009F93AF93BF93EF93FF938091970487FFAE
:1006400005C010928500109284001BC02091970471
:10065000022E000C330B8091720590E028173907A9
:1006600084F480919704082E000C990BFC01EE0F86
:10067000FF1F8E0F9F1FFC01E25BFA4F808186FDFA
:1006800015C0809197048F5F809397042091970401
:10069000022E000C330B8091720590E02817390769
:1006A000C4F4809197048C3064F113C08091970456
:1006B000082E000C990BFC01EE0FFF1F8E0F9F1FE1
:1006C000FC01E25BFA4F808160E08F730E94491267
:1006D000D8CF8091840090918500049680349C4905
:1006E00018F480E49CE905C0809184009091850015
:1006F000049690938900809388008FEF80939704ED
:100700003BC0209184003091850080919704082E91
:10071000000C990BFC01EE0FFF1F8E0F9F1FFC01B9
:10072000E25BFA4F81819281820F931F909389003F
:100730008093880080919704082E000C990BFC018F
:10074000EE0FFF1F8E0F9F1FFC01E25BFA4F8081AF
:1007500086FF12C080919704082E000C990BFC01B3
:10076000EE0FFF1F8E0F9F1FFC01E25BFA4F80818F
:1007700061E08F730E944912FF91EF91BF91AF9199
:100780009F918F917F916F915F914F913F912F91A9
:100790000F900FBE0F901F9018958EBD00000DB4E6
:1007A00007FEFDCF8EB508950F931F93CF93DF9370
:1007B0001F92CDB7DEB790E00496982F88278C0162
:1007C000060F171F0E94EF088FE00E94CD03812FB4
:1007D0000E94CD03802F0E94CD0380E00E94CD03B4
:1007E00089830E94ED0889810F90DF91CF911F913D
:1007F0000F910895AF92BF92DF92EF92FF920F9305
:100800001F93CF93DF93D82E7B018A0180E590E080
:100810000E94B502C0E0D0E08D2D0E94910C5C01D9
:10082000892B21F08D2D0E94910CEC01CA15DB055E
:1008300099F7209799F463E070E08D2D0E94D4031E
:100840008431D9F18823C9F1C1E0D0E08C3111F4B1
:10085000C0E0D0E0D195C195D1092FC00C171D077C
:100860000CF4E8011C161D0644F568E270E08D2DBD
:100870000E94D403082F10E069E270E08D2D0E94E1
:10088000D403102F0027082B9E01A701B8018D2D3E
:100890000E9404120C0F1D1F412F68E270E08D2D85
:1008A0000E94AA02402F69E270E08D2D0E94AA02E8
:1008B00060E470E08D2D0E94F411CE01DF91CF91A4
:1008C0001F910F91FF90EF90DF90BF90AF90089530
:1008D0001F920F920FB60F9211242F933F934F93B5
:1008E0005F936F937F938F939F93AF93BF93EF9398
:1008F000FF938091B900887F803609F49CC068F529
:10090000883209F45BC090F4803109F454C038F4A3
:10091000882309F4F6C0883009F44DC0F6C0883148
:1009200009F44CC0803209F45DC0EFC0803409F492
:1009300068C048F4803309F455C0883309F0E5C035
:1009400080936F04D8C0803509F44FC0883509F40E
:100950005DC0883409F0D9C0D6C0883909F4C7C051
:10096000A8F4883709F467C038F4883609F463C0FE
:10097000803709F460C0C9C0883809F4B8C080392C
:1009800009F45FC0803809F0C0C05BC0803B09F447
:1009900086C038F4803A09F466C0883A09F47FC00A
:1009A000B4C0803C09F4A7C0883C09F4A4C0883BCB
:1009B00009F48AC0AAC08091950410C09091940453
:1009C00080919304981770F5E091940481E08E0F64
:1009D00080939404F0E0ED58FB4F80818093BB003E
:1009E00085EC86C080936F048EC0E091940481E012
:1009F0008E0F809394048091BB00F0E0ED58FB4F84
:100A0000808390919404809193046EC0E09194044B
:100A100081E08E0F809394048091BB00F0E0ED584C
:100A2000FB4F80838091720481116DC081E08093BF
:100A3000710484EA61C083E08093700410926E04B4
:100A4000CFCF80916E04803208F051C0E0916E04E7
:100A500081E08E0F80936E048091BB00F0E0E25B3A
:100A6000FB4F8083BDCF85EC8093BC001092700457
:100A700080916E04803230F4E0916E04F0E0E25B2D
:100A8000FB4F108260916E0470E0E0914C04F09195
:100A90004D048EE494E0099510926E0436C084E013
:100AA0008093700410924B0410924A04E091480421
:100AB000F0914904099580914A04811105C081E0B3
:100AC00080934A0410922804E0914B0481E08E0F39
:100AD00080934B04F0E0E85DFB4F80818093BB0086
:100AE00090914B0480914A04981708F479CF85E8D7
:100AF0008093BC000AC085EC8093BC001092700407
:100B000004C010926F040E949F00FF91EF91BF916B
:100B1000AF919F918F917F916F915F914F913F9195
:100B20002F910F900FBE0F901F901895FC0184819C
:100B300095816817790754F4660F771F0280F38157
:100B4000E02DE60FF71F80819181089584E090E009
:100B50009783868380E090E00895EF92FF920F9351
:100B60001F93CF937C01C1E0FC0186819781892B83
:100B700009F4C0E000E010E0F701848195810817D6
:100B800019077CF4B801C7010E949605FC0191E0A9
:100B900020813181232B09F490E0C92B0F5F1F4F77
:100BA000EBCF8C2FCF911F910F91FF90EF90089575
:100BB0002F923F924F925F926F927F928F929F926D
:100BC000AF92BF92CF92DF92EF92FF920F931F935B
:100BD000CF93DF93CDB7DEB729970FB6F894DEBF7A
:100BE0000FBECDBF5C014B015A8349833C832B83ED
:100BF0000E94391F892BC9F4F50101900020E9F703
:100C00003197EA19FB09A981BA81ED93FC93F401AC
:100C100001900020E9F73197E819F909AB81BC810F
:100C2000ED93FC9383E090E02EC1E981FA8111827B
:100C30001082AB81BC811D921C928401B986A8866A
:100C4000D8018C9181111EC0888599858A199B09CC
:100C5000E981FA8191838083C80188199909AB8160
:100C6000BC818D939C9331E020E0F801808181115B
:100C700030E0832F922FA885B9852C91211103C1D3
:100C8000826001C1E885F98520812223E9F22A32B8
:100C900009F0B5C01801F8017F0181918F3231F45C
:100CA00048845984F20180E090E008C08111F4CFBB
:100CB000F7CF222339F02A3209F401966F012191EE
:100CC0002F32B9F7B1E0CB1AD108E1E0EE1AF10802
:100CD0008130910599F0029789F176C0B701C6017C
:100CE0000E945001009709F4CEC01F7D1D3559F0B8
:100CF000B1E0CB1AD108E1E0EE1AF108D6011C915F
:100D00001A3261F769C0D6018C918F7D8B3581F3E2
:100D1000F1E0CF1AD108F7CFB701C6012F830E94A7
:100D200050012F81009709F4AEC02F7D2D3559F069
:100D3000F1E0CF1AD10821E0E21AF108D6012C9196
:100D40002A3251F709C0F60180818F7D8B3581F3FE
:100D5000B1E0CB1AD108F7CFBFEFEB1AFB0AA6011F
:100D6000415051090E151F0508F08BC06A01E1E0E2
:100D7000EE1AF1083701D6012C912A3261F0B30145
:100D8000C6012F834D835E830E9450012F814D81C8
:100D90005E81892B31F428853985C216D30611F777
:100DA0001BC02F7D2D3549F4D6018C918F7D8B355D
:100DB00021F031E0C31AD108F7CFB1E0CB1AD10846
:100DC000E1E06E1A7108D7CFB801888599850E9435
:100DD0007A01009709F457C059864886F20181913B
:100DE0002F018F3211F08111F7CF8101D1018D9147
:100DF0001D018F3209F424CF8111F7CF21CF8A3220
:100E0000A1F4E885F985F987E88781918F3211F49B
:100E1000F80106C08111F7CFFBCF882309F410CF6A
:100E20008F0181918F32C9F70BCFB80188859985E1
:100E30002F830E9450012F81009719F12B3549F41F
:100E400088859985FC01019620812D35D9F79C0173
:100E500013C02B3769F428853985F9012F5F3F4F7F
:100E600040814D37D1F739872887080F191FE8CE01
:100E7000288539852F5F3F4F398728870F5F1F4FA0
:100E8000DFCE80E090E029960FB6F894DEBF0FBE6B
:100E9000CDBFDF91CF911F910F91FF90EF90DF9029
:100EA000CF90BF90AF909F908F907F906F905F900A
:100EB0004F903F902F900895FC01828193811816E6
:100EC000190664F4848195818337910521F4868124
:100ED00097810C94C91D82369105C9F30895EF924C
:100EE000FF920F931F93CF93DF93EC011F821E821B
:100EF00000E010E08C819D81081719077CF4B8018F
:100F0000CE010E9496057C01009729F00E945C07A3
:100F1000C7010E94C91D0F5F1F4FECCF8A819B81C3
:100F20000E94C91D1B821A821D821C82DF91CF91F3
:100F30001F910F91FF90EF9008958F929F92AF9223
:100F4000BF92EF92FF920F931F93CF93DF93CDB792
:100F5000DEB72C970FB6F894DEBF0FBECDBF8C0165
:100F6000FC011182108282E690E095838483CA019D
:100F70000496938382834A01052E000CAA08BB08BD
:100F80008D829E82AF82B8869E012B5F3F4FDE012D
:100F90001996FE013196E217F30719F0FE90F192CF
:100FA000FACF89809A80AB80BC808D829E82AF828E
:100FB000B8864B875C8769877A870E94341D7C01DD
:100FC0004B855C8569857A85009731F483E090E0F4
:100FD000F801918380830BC0FC0181929192A192D0
:100FE000B192CF010E94301FF801F782E6822C9661
:100FF0000FB6F894DEBF0FBECDBFDF91CF911F912A
:101000000F91FF90EF90BF90AF909F908F900895B9
:10101000EF92FF920F931F93CF93DF9300D0CDB742
:10102000DEB77C01FC011182108283E790E095839A
:101030008483FB0101900020E9F7CF01861B970B09
:10104000F7019383828369837A830E94341D8C0124
:1010500069817A81009731F483E090E0F701918310
:10106000808305C00E94421FF701178306830F90FB
:101070000F90DF91CF911F910F91FF90EF90089506
:10108000FC01818D928D0895FC01848995890895D4
:101090002AE931E0FC0131832083FB014089518939
:1010A00062897389FC014283538364837583089545
:1010B000DC01ED91FC91028CF38DE02D0994CF932E
:1010C000FC01C08D80E590E00E94B50260E270E016
:1010D0008C2F0E94F41162E070E08C2F0E94D403E8
:1010E00084FD19C062E070E08C2F0E94D40383FF5E
:1010F0000BC048E162E070E08C2F0E94AA020E94BF
:10110000B40280E090E011C00E94B40280E590E05B
:101110000E94B502E0CF40E162E070E08C2F0E94B7
:10112000AA020E94B40281E090E0CF910895CF938B
:10113000DF93EC01888D843061F00E94B802E88D65
:10114000F0E0EE0FFF1FE556FB4F1182108284E0A6
:10115000888FDF91CF910895CF92DF92EF92FF9227
:101160001F93CF93DF931F92CDB7DEB7FC01208D85
:10117000243011F080E028C07B016C0110E080E594
:1011800090E00E94B50263E070E0812F0E94D403DA
:1011900089830E94B4028981811103C0F601108FF6
:1011A00005C08831D9F31F5F143049F7F601808DEF
:1011B000843001F3F586E486128E118E20E0A701BB
:1011C00062E00E94CA0281E00F90DF91CF911F91EF
:1011D000FF90EF90DF90CF9008952A9A08952A9873
:1011E0000895CF92DF92EF92FF920F931F93CF93C8
:1011F000DF93EC017A018B016C01C40ED51ECC1576
:10120000DD05A9F00E94EF088FE00E94CD038D2F2D
:101210000E94CD038C2F0E94CD03219680E00E9476
:10122000CD03F80181938F010E94ED08E8CFC7013B
:10123000DF91CF911F910F91FF90EF90DF90CF90B2
:101240000895CF92DF92EF92FF920F931F93CF9367
:10125000DF93EC017A018B016C01C40ED51ECC1515
:10126000DD05A1F00E94EF0880EF0E94CD038D2FD5
:101270000E94CD038C2F0E94CD032196F80181910D
:101280008F010E94CD030E94ED08E9CFC701DF91D5
:10129000CF911F910F91FF90EF90DF90CF90089525
:1012A000EF92FF921F93CF93DF93EB017A01FC0142
:1012B000178A168A108D8A81811109C08B8181114C
:1012C00006C08C81811103C08D81882329F1E1142E
:1012D000F10411F180E590E00E94B502BE016E5F5D
:1012E0007F4F812F90E0982F882744E050E0845F63
:1012F0009B4F0E9421094F2D60E170E0812F0E94D9
:10130000AA024E2D61E170E0812F0E94AA020E9484
:10131000B40281E090E002C080E090E0DF91CF91E4
:101320001F91FF90EF9008954F925F926F927F927E
:101330008F929F92AF92BF92CF92DF92EF92FF92E5
:101340000F931F93CF93DF93CDB7DEB7EE970FB612
:10135000F894DEBF0FBECDBF5C018B014A018AE964
:1013600091E09A8389831C861B8648EE53E060E0F7
:1013700070E04D875E876F87788B24E731E03A878E
:101380002987988F8F8B198E1A8E1B8E1C8E24E0C6
:1013900029A399AB88AB1AAA1BAA1CAA1DAA8091E3
:1013A000420590914305A0914405B09145058EA357
:1013B0009FA3A8A7B9A78B839C83AD83BE83188600
:1013C0001F82F80120E080E090E06AE03191332351
:1013D00019F140ED430F4A3080F4689FA001699FE6
:1013E000500D1124CA01C097830F911D37FD9A95A6
:1013F0008F3F910559F350F32BC03E3249F523300E
:1014000039F1A2E3B0E0AC0FBD1FA20FB11D8C9368
:101410002F5F80E090E0DACF2330D1F48DABD5019F
:10142000ED91FC910288F389E02D8AE991E09DA37A
:101430008CA38AA99BA9ACA9BDA98EA39FA3A8A789
:10144000B9A7A401BE016C5D7F4FC501099530C2EB
:101450004B815C816D817E8180914A0590914B0525
:10146000A0914C05B0914D05481759076A077B07B5
:1014700009F41CC20E9400146F7077277C5FCE01B4
:1014800009960E94AC08813009F00DC28AE991E00A
:101490009DA38CA38B819C81AD81BE818EA39FA3D4
:1014A000A8A7B9A745E350E0BE016C5D7F4FCE0110
:1014B00009960E945009892B19F400E010E07EC1C2
:1014C0000E94001478876F837627672776277DA38D
:1014D0006CA342E050E0BE016C5D7F4FCE010996E7
:1014E0000E94470F81E090E09FAB8EAB42E050E05E
:1014F000BE016A5C7F4FCE0109960E94470F80E0D3
:1015000091E09FAB8EAB42E050E0BE016A5C7F4F42
:10151000CE0109960E94470F1FAA1EAA42E050E082
:10152000BE016A5C7F4FCE0109960E94470F42E0E0
:1015300050E0BE016A5C7F4FCE0109960E94470FC2
:1015400042E050E0BE016A5C7F4FCE0109960E94E6
:10155000470F7801D7018C91882319F1F8017F0199
:101560008191811117C06701C01AD10A1C141D0492
:10157000A4F4C8AE41E050E0BE01685C7F4FCE01EC
:1015800009960E94470FA601B801CE0109960E9454
:10159000470F03C08E3219F7E6CF87010F5F1F4F49
:1015A000D9CF18AE41E050E0BE01685C7F4FCE015C
:1015B00009960E94470F00E011E01FAB0EAB42E01E
:1015C00050E0BE016A5C7F4FCE0109960E94470F32
:1015D0001FAB0EAB42E050E0BE016A5C7F4FCE0114
:1015E00009960E94470FCE0109960E945F08892B39
:1015F00009F463CF63E0E62EF12C0E9400142B0166
:101600003C01CE0109960E94D10E18161906A4F0CD
:101610000E940014DC01CB0184199509A609B709C1
:1016200089389341A105B105C8F462E370E080E018
:1016300090E00E949512E5CF4B815C816D817E81A7
:10164000898D9A8DAB8DBC8D481759076A077B072A
:1016500041F48D8D9E8DC59721F406C02FEF3FEF8D
:10166000A4C02EEF3FEFA1C08AA19BA10C970CF460
:10167000B2C04CE050E0BE016C5D7F4FCE010996D8
:101680000E94890E8EA190E0982F88272FA1822B8F
:101690009BAF8AAF2CA130E0322F22274DA1242B03
:1016A0004F8158854217530709F092C097FF90C0A9
:1016B0008F709270892B09F0F3C00AA510E0102FEB
:1016C00000278BA5082B0115110509F4E6C0C12CD4
:1016D000D12C88A590E0982F882729A5822BC816A1
:1016E000D90608F47BC0C12CD12C41E050E0BE01EA
:1016F000645C7F4FCE0109960E94890E8CAD982FB5
:10170000907C09F0A5C0811197C08CAD8111EDCFFF
:1017100042E050E0BE01685C7F4FCE0109960E9416
:10172000890E42E050E0BE016A5C7F4FCE0109960F
:101730000E94890ECE0109960E94A80ECE0109963C
:101740000E94A80ECE0109960E94A80ECE0109960D
:101750000E94A80E42E050E0BE01665C7F4FCE01C1
:1017600009960E94890E88AD99AD8115914009F0C6
:1017700075C02EA93FA932272327322721303105F2
:1017800009F06CC08AAD9BAD8115944009F082C010
:1017900044E050E0BE016E5C7F4FCE0109962DAF54
:1017A0003EAF0E94890E2DAD3EAD8901B1E0EB1A2E
:1017B000F10821F02F3F3F4F09F41FCFCE010996CA
:1017C0000E9497080130110509F429CEC80170C0A4
:1017D0002CEF3FEFEACF2DEF3FEFE7CF41E050E0B6
:1017E000BE016A5C7F4FCE0109960E94890E8EA9C8
:1017F000811117C08EA98111F1CFCE0109960E94E7
:10180000A80ECE0109960E94A80ECE0109960E944C
:10181000A80ECE0109960E94A80EFFEFCF1ADF0A8C
:1018200058CF8EA99FEF980F9EAB882319F3CE0156
:1018300009960E94A80EF5CF8CAD9FEF980F9CAF34
:10184000882309F462CFCE0109960E94A80EF4CF36
:10185000CE0109960E94A80E1CAE57CF612C712CA8
:101860008AAD9BAD9827892798276816790640F49A
:10187000CE0109960E94A80E8FEF681A780AF0CF61
:10188000AFEFCA1ADA0AC016D10609F02ECF26EF3A
:101890003FEF8BCF27EF3FEF88CF2AEF3FEF85CF8A
:1018A0002BEF3FEF82CF80E090E002C08EEF9FEF02
:1018B000EE960FB6F894DEBF0FBECDBFDF91CF918D
:1018C0001F910F91FF90EF90DF90CF90BF90AF905E
:1018D0009F908F907F906F905F904F9008951F938F
:1018E000CF93DF9300D0CDB7DEB7182F6A839983EB
:1018F0000E94EF0880EF0E94CD039981892F0E94FA
:10190000CD03812F0E94CD036A81862F0E94CD03D3
:101910000E94ED0881E00F900F90DF91CF911F9111
:1019200008951F93CF93DF93182F66E270E00E9413
:10193000D403C82FD0E067E270E0812F0E94D40367
:10194000DC2FCC279E01282BC901DF91CF911F915D
:1019500008951F93CF93DF93182F60E270E00E94E9
:10196000D403C82FD0E061E270E0812F0E94D4033D
:10197000DC2FCC279E01282BC901DF91CF911F912D
:101980000895CF92DF92EF92FF920F931F93CF9320
:10199000DF936C017A018B01C0E0D0E0CE15DF054A
:1019A00089F0D8016D918D01D601ED91FC910190E6
:1019B000F081E02DC6010995892B11F47E0102C04A
:1019C0002196ECCFC701DF91CF911F910F91FF902E
:1019D000EF90DF90CF900895FC01918D828D981744
:1019E00061F0828DDF01A80FB11D5D968C91928D03
:1019F0009F5F9F73928F90E008958FEF9FEF089500
:101A0000FC01918D828D981731F0828DE80FF11DC8
:101A1000858D90E008958FEF9FEF0895FC01918DE3
:101A2000228D892F90E0805C9F4F821B91098F73DC
:101A30009927089583EA94E00E940E0D21E0892BF6
:101A400009F420E0822F0895FC01848DDF01A80FA6
:101A5000B11DA35ABF4F2C91848D90E001968F73D6
:101A60009927848FA689B7892C93A089B1898C91F5
:101A700080648C93938D848D981306C00288F389BB
:101A8000E02D80818F7D80830895EF92FF920F93E8
:101A90001F93CF93DF93EC0181E0888F9B8D8C8D1A
:101AA000981305C0E889F989808185FD24C0F62E48
:101AB0000B8D10E00F5F1F4F0F731127E02E8C8DE1
:101AC000E8120CC00FB607FCFACFE889F9898081CB
:101AD00085FFF5CFCE010E94240DF1CF8B8DFE0145
:101AE000E80FF11DE35AFF4FF0820B8FEA89FB8963
:101AF0008081806207C0EE89FF896083E889F98967
:101B000080818064808381E090E0DF91CF911F919C
:101B10000F91FF90EF900895CF93DF93EC01888DA4
:101B20008823C9F0EA89FB89808185FD05C0A889E1
:101B3000B9898C9186FD0FC00FB607FCF5CF808167
:101B400085FFF2CFA889B9898C9185FFEDCFCE01B1
:101B50000E94240DE7CFDF91CF91089580E090E0BF
:101B6000892B29F00E941A0D81110C940000089510
:101B70000895CF93DF931F92CDB7DEB76983DC0161
:101B8000ED91FC910280F381E02D41E050E0BE0137
:101B90006F5F7F4F09950F90DF91CF9108950E945D
:101BA0002B1FBF92CF92DF92EF92FF920F931F9362
:101BB000CF93DF9300D000D000D0CDB7DEB7FC01CB
:101BC000208D243009F05DC06A017B018C01B12CAD
:101BD00063E070E08B2D0E94D403811103C0F801F3
:101BE000B08E06C08831D9F3B394F4E0BF12F0CFC1
:101BF000F801808D843009F444C096E0ECE0F1E017
:101C0000DE01119601900D929A95E1F7F70193810B
:101C10009F779C8394819D8395819E83B7016E5F9E
:101C20007F4F90E0982F882744E050E0845F9B4FDF
:101C30000E942109F801F08C4D2D60E170E08F2D9C
:101C40000E94AA024C2D61E170E08F2D0E94AA0231
:101C5000F801808D90E0982F882746E050E0BE0183
:101C60006F5F7F4F8A5F9B4F0E942109F801128EA0
:101C7000118E20E8A60162E0808D0E94CA0281E0F8
:101C800001C080E026960FB6F894DEBF0FBECDBF30
:101C9000DF91CF911F910F91FF90EF90DF90CF9048
:101CA000BF900895FF920F931F93CF93DF931F92DE
:101CB000CDB7DEB7FC01218D328D232B09F1F08CDD
:101CC00080E590E00E94B50268E270E08F2D0E94EE
:101CD000D403082F10E069E270E08F2D0E94D40336
:101CE000702F6627682B21E030E0AE014F5F5F4F19
:101CF0008F2D0E9404120E94B402898190E002C0DC
:101D00008FEF9FEF0F90DF91CF911F910F91FF9079
:101D10000895CF93DF93FC01218D328D211531057C
:101D200019F48FEF9FEF11C0EC014217530708F031
:101D3000A901888D0E94FA031816190694F7298DB7
:101D40003A8D281B390B3A8F298FDF91CF91089557
:101D50000F931F93CF93DF931F92CDB7DEB7FC0194
:101D6000218D328D232B61F08C0141E050E0BE01CA
:101D70006F5F7F4F808D0E94FA03181619061CF0C2
:101D80008FEF9FEF08C0F801818D928D0197928FA0
:101D9000818F898190E00F90DF91CF911F910F91FA
:101DA0000895BF92CF92DF92EF92FF920F931F930D
:101DB000CF93DF93CDB7DEB728970FB6F894DEBF89
:101DC0000FBECDBF8C01F801818D928D892B49F01A
:101DD000D801ED91FC910680F781E02DC8010995AD
:101DE000F2CFB08C80E590E00E94B502E12CF12C9E
:101DF0008B2D0E94910C6C01892B21F08B2D0E9460
:101E0000910C7C01EC14FD0499F70E94B4021E149D
:101E10001F045CF548E050E0BE016F5F7F4FD801C2
:101E200058968C910E94FA039C0118161906DCF44E
:101E300089819A81AB81BC81F801808B918BA28BC7
:101E4000B38B8D8190E0982F88272E81820F911D72
:101E5000958B848B2F8130E0322F22278885280FA5
:101E6000311D328F218FC90102C080E090E0289699
:101E70000FB6F894DEBF0FBECDBFDF91CF911F919B
:101E80000F91FF90EF90DF90CF90BF9008957F92D9
:101E90008F929F92AF92BF92CF92DF92EF92FF927A
:101EA0000F931F93CF93DF935C014B016A01FC01F9
:101EB00006891789708C80E590E00E94B502C0E029
:101EC000D0E0872D0E94A90C7C01892B21F0872D61
:101ED0000E94A90CEC01CE15DF0599F7CC15DD05A4
:101EE00078F4C0E0D0E0872D0E94A90C6C01892B0A
:101EF00021F0872D0E94A90CEC01CC15DD0599F786
:101F000064E270E0872D0E94D403E82EF12C65E294
:101F100070E0872D0E94D403FE2CEE24E82AE7010E
:101F2000C00FD11F9E013770E72CF12CC701880F1D
:101F3000991FAC01405B594F7A01FA018081918170
:101F4000820F931FA9014C0D5D1D4130584090F048
:101F500000E018E0021B130BA801B4010E94210944
:101F6000A601401B510BB401600F711FF701808166
:101F7000918102C0A601B4010E942109CC0DDD1D92
:101F80004D2F64E270E0872D0E94AA024C2F65E27B
:101F900070E0872D0E94AA020E94B402F501868992
:101FA00097898C0D9D1D978B868BC601DF91CF91F4
:101FB0001F910F91FF90EF90DF90CF90BF90AF9067
:101FC0009F908F907F9008956115710579F0FB01C6
:101FD00001900020E9F73197AF01461B570BDC0158
:101FE000ED91FC910280F381E02D099480E090E076
:101FF00008954F925F926F927F92EF92FF920F93AC
:102000001F93CF93DF93CDB7DEB7A1970FB6F894A8
:10201000DEBF0FBECDBF7C01FA01CB0119A2223079
:1020200008F42AE08E010F5D1F4F422E512C612CC7
:10203000712CBF01A30192010E94C71CF901CA01C2
:10204000015011096A3014F4605D01C0695CD80167
:102050006C93232B242B252B61F7B801C7010E9419
:10206000E40FA1960FB6F894DEBF0FBECDBFDF918F
:10207000CF911F910F91FF90EF907F906F905F90A5
:102080004F9008958F929F92AF92BF92CF92DF921E
:10209000EF92FF920F931F93CF93DF937C01EB019D
:1020A0006C0182E0C80ED11C4701E5E08E0E911C48
:1020B00000E010E0F60141916F0150E060E070E057
:1020C0002AE0CE010E94F90F5C01E881F9810190BC
:1020D000F081E02D6EE2CE0109958A0D9B1D080F5F
:1020E000191FC814D90431F7F701458150E060E0A9
:1020F00070E02AE0CE010E94F90F800F911FDF915E
:10210000CF911F910F91FF90EF90DF90CF90BF90F4
:10211000AF909F908F9008950F931F93CF93DF936D
:10212000EC010E94E40F8C016DE773E0CE010E9488
:10213000E40F800F911FDF91CF911F910F910895B0
:102140001F920F920FB60F9211242F933F934F932C
:102150005F936F937F938F939F93AF93BF93EF930F
:10216000FF9383EA94E00E94240DFF91EF91BF91C9
:10217000AF919F918F917F916F915F914F913F911F
:102180002F910F900FBE0F901F9018951F920F92D6
:102190000FB60F9211242F938F939F93EF93FF937A
:1021A000E091B304F091B4048081E091B904F0911E
:1021B000BA0482FD12C090818091BC048F5F8F733E
:1021C0002091BD04821751F0E091BC04F0E0ED5580
:1021D000FB4F958F8093BC0401C08081FF91EF91EC
:1021E0009F918F912F910F900FBE0F901F90189578
:1021F0000F931F93CF93DF938C0160E070E00E94F8
:102200009605EC01C8010E94AD0581110AC08C81C0
:102210009D818936910529F46E817F818885998514
:1022200003C060E070E0CB01DF91CF911F910F916F
:102230000895EF92FF920F931F93CF938C01C62FB7
:1022400060E070E00E9496057C01C8010E94AD0527
:1022500081110AC06C2FCC0F770B81E0F70124812C
:1022600035812617370709F080E0CF911F910F9134
:10227000FF90EF9008950F931F93CF93DF938C01FE
:1022800060E070E00E949605EC01C8010E94AD0577
:1022900081110AC08C819D818636910529F46E8159
:1022A0007F818885998503C060E070E0CB01DF9174
:1022B000CF911F910F910895CF93DF9390E0FC0190
:1022C000E256FF4F2491FC01EE54FF4F8491882386
:1022D00061F190E0880F991FFC01EC56FF4FC5910A
:1022E000D491FC01EA58FF4FA591B491611109C046
:1022F0009FB7F8948881209582238883EC912E23C0
:102300000BC0623061F49FB7F8943881822F8095BA
:1023100083238883EC912E2B2C939FBF06C08FB70D
:10232000F894E8812E2B28838FBFDF91CF910895F9
:102330003FB7F8948091650690916606A091670674
:10234000B091680626B5A89B05C02F3F19F00196ED
:10235000A11DB11D3FBFBA2FA92F982F8827820F2B
:10236000911DA11DB11DBC01CD0142E0660F771F7B
:10237000881F991F4A95D1F708950F931F93CF9304
:10238000DF9300D000D0CDB7DEB78B019E012D5F6B
:102390003F4FAE014F5F5F4FBC0180917905909137
:1023A0007A050E94D805039731F489E795E0F80192
:1023B000099581E001C080E00F900F900F900F9081
:1023C000DF91CF911F910F910895CF93DF93C9E7CC
:1023D000D5E01D861C868A859B850E94C91D1B86AB
:1023E0001A86DF91CF910895CF93C82F462F61E0D1
:1023F00070E00E94AA0261E070E08C2F0E94D4037A
:102400008111F9CFCF910895AF92BF92CF92DF9211
:10241000EF92FF920F931F93CF93DF9300D0CDB72E
:10242000DEB77A836983BA01A901E981FA81F7707D
:10243000082F10E0000F111F085A194FD8018D9175
:102440009C918E0F9F1F2E0F3F1F2130384098F018
:102450007A015B0120E038E06901CE1ADF0AA601AB
:102460000E94F108A7014C195D09B5016C0D7D1D95
:10247000F801808191810F900F90DF91CF911F9192
:102480000F91FF90EF90DF90CF90BF90AF900C94A2
:10249000F10890E0FC01E058FF4F3491FC01E25656
:1024A000FF4F2491FC01EE54FF4FE491EE2309F419
:1024B0003BC0332339F1333091F038F43130A9F097
:1024C000323001F584B58F7D12C0373091F038304D
:1024D000A1F03430B9F4809180008F7D03C08091E9
:1024E00080008F77809380000DC084B58F7784BD86
:1024F00009C08091B0008F7703C08091B0008F7DBC
:102500008093B000F0E0EE0FFF1FEA58FF4FA59157
:10251000B4918FB7F894EC91611103C020952E23EC
:1025200001C02E2B2C938FBF08958F929F92AF9254
:10253000BF92CF92DF92EF92FF926B017C010E94DB
:1025400098114B015C01C114D104E104F104F1F0D4
:102550000E949811DC01CB0188199909AA09BB09CD
:10256000883E9340A105B10570F321E0C21AD1085D
:10257000E108F10888EE880E83E0981EA11CB11CCA
:10258000C114D104E104F10419F7DDCFFF90EF90FD
:10259000DF90CF90BF90AF909F908F900895CF9293
:1025A000DF92EF92FF920F931F93CF93DF93CDB7FC
:1025B000DEB7C254D1090FB6F894DEBF0FBECDBF4F
:1025C000FC0182819381A481B58123968CAF9DAF5C
:1025D000AEAFBFAF239721E023962FAF239723966B
:1025E0004CAD5DAD6EAD7FAD23974BAB5CAB6DABD2
:1025F0007EAB89AF9AAFABAFBCAF8DA79EA7AFA79D
:10260000B8AB28AB4DA55EA56FA578A94FA358A779
:1026100069A77AA72EAB4BA95CA96DA97EA949A38E
:102620005AA36BA37CA38B8F9C8FAD8FBE8F4AE97F
:1026300051E05C8B4B8B3FEF3D8B3E8B3F8B188E7D
:102640005E874D872AA7CFA0D8A4E9A4FAA4CF8695
:10265000D88AE98AFA8A2CA309A11AA12BA13CA144
:1026600009871A872B873C875A8349838B839C83EE
:10267000AD83BE836CE271E080E090E00E94951231
:102680001FB7F89480916906811127C0ECEBF0E048
:102690008491E8EAF0E09491E82FF0E0EE0FFF1F5C
:1026A000EC56FF4FA591B491EC91E92321F461E040
:1026B0008AE00E94491261E08AE00E945C118CB5B8
:1026C00080618CBD8CB580648CBD61E08DE00E9422
:1026D0005C1161E08BE00E945C11809169068F5F64
:1026E000809369061FBF229A80E590E00E94B502A0
:1026F00060E880E090E00E946F0C65E58BE190E07F
:102700000E946F0C65E58AE190E00E946F0C0E94C8
:10271000B40280E090E4909351068093500680E0EC
:1027200090E6909359068093580680E098E4909341
:1027300053068093520680E098E690935B06809360
:102740005A0680E090E5909355068093540680E009
:1027500090E790935D0680935C0680E098E5909307
:1027600057068093560680E098E790935F06809323
:102770005E0680E590E00E94B50246E050E060E031
:1027800071E089E090E00E94210944E050E0BE0140
:102790006D5F7F4F8FE090E00E94210944E050E0A0
:1027A000BE01615F7F4F81E090E00E94210944E01B
:1027B00050E0BE016B5E7F4F85E090E00E942109F2
:1027C0000E94B40281E08C8789859A85AB85BC859F
:1027D0008093420590934305A0934405B09345052B
:1027E000CE5BDF4F0FB6F894DEBF0FBECDBFDF91DB
:1027F000CF911F910F91FF90EF90DF90CF900895B0
:102800002FB7F8946091610670916206809163061B
:10281000909164062FBF08951F920F920FB60F92EA
:1028200011242F933F938F939F93AF93BF938091E6
:10283000610690916206A0916306B09164063091A2
:10284000600623E0230F2D3720F40196A11DB11D52
:1028500005C026E8230F0296A11DB11D2093600636
:102860008093610690936206A0936306B09364061A
:102870008091650690916606A0916706B091680602
:102880000196A11DB11D8093650690936606A093E5
:102890006706B0936806BF91AF919F918F913F916A
:1028A0002F910F900FBE0F901F901895CF93DF932D
:1028B000C9E7D5E0888199810E94C91DCE010E9497
:1028C0006F078A859B85DF91CF910C94C91DCF93AB
:1028D000DF93CDB7DEB76C970FB6F894DEBF0FBEAF
:1028E000CDBF789484B5826084BD84B5816084BD99
:1028F00085B5826085BD85B5816085BD80916E009E
:10290000816080936E0010928100809181008260CE
:10291000809381008091810081608093810080910B
:1029200080008160809380008091B10084608093FA
:10293000B1008091B00081608093B00080917A00F6
:10294000846080937A0080917A00826080937A001C
:1029500080917A00816080937A0080917A0080680B
:1029600080937A001092C100E091B304F091B40416
:1029700082E08083E091AF04F091B0041082E09196
:10298000B104F091B2048FEC80831092BB04E0910B
:10299000B704F091B80486E08083E091B504F0912B
:1029A000B604808180618083E091B504F091B60423
:1029B000808188608083E091B504F091B6048081C5
:1029C00080688083E091B504F091B60480818F7DAA
:1029D000808365E373E083EA94E00E948C1062E4F4
:1029E00073E083EA94E00E948C108AE991E09A8374
:1029F00089838091750590917605A0917705B091B6
:102A000078058B839C83AD83BE83CE0101960E94A3
:102A1000CF1268EB72E283E995E00E94AC0883E98B
:102A200095E0909388058093870566E573E083EAD7
:102A300094E00E948C10AE014B5E5F4F588F4F8B1D
:102A4000CE0105969A8F898F94E0292E312C24E0AF
:102A5000C22ED12C33E0E32EF12C8091870590918A
:102A60008805DC01ED91FC91008CF18DE02D09953C
:102A70009C8F8B8F181619060CF0A7C4EB8DFC8D5C
:102A80003197FC8FEB8F319609F4CBC3809187058A
:102A900090918805DC01ED91FC910680F781E02D95
:102AA0000995B82E60918505709186056F5F7F4FFF
:102AB00080918305909184050E94611E9093840506
:102AC00080938305009781F02091850530918605DC
:102AD000A9014F5F5F4F5093860540938505FC0128
:102AE000E20FF31FB08204C0F0928005E0927F05F0
:102AF000E0918105F0918205E730F10508F0BECF45
:102B0000EC5CFF4F0C942E1DBFE2BB12B7CFE1E08F
:102B1000F0E02CC0B110B2CFA0908305B090840536
:102B20008091790590917A050E94C91DD5010D907B
:102B30000020E9F7CD018A199B090E94341D8C0100
:102B4000009729F410927A051092790507C0B50113
:102B50000E94421F10937A05009379051092800518
:102B600010927F050E94E511E2E0F0E0F09382050B
:102B7000E093810583CFFCE2BF1280CFF092820503
:102B8000E0928105A1C0BB2009F442C08EE090E034
:102B90000E94341D8C01E2E0F0E0DC011196FC9310
:102BA000EE938B2DBB0C990B15969C938E931497DB
:102BB00013961C921E92129760917D0570917E056E
:102BC0006F5F7F4F660F771F80917B0590917C052B
:102BD0000E94611E009729F4F0928005E0927F0523
:102BE0001BC090937C0580937B0520917D053091DF
:102BF0007E05A901440F551FFC01E40FF51F118349
:102C000000832F5F3F4F30937E0520937D0504C0E6
:102C1000D0928205C092810520917D0530917E057C
:102C2000C901049697FD03968C7FA9014F5F5F4F02
:102C3000841B950B11F484E090E0820F931F209188
:102C40008505309186052817390709F017CF0E94AE
:102C5000E51145E050E075C049805A806B807C806A
:102C600080917D0590917E05081719070CF0BFC073
:102C7000B80189E795E00E9496055C01009729F06C
:102C80000E945C07C5010E94C91D8EE090E00E9471
:102C9000341DFC011182108289E690E095838483C3
:102CA00033822282052C000C660877084682578200
:102CB00060867186000F111FA0917B05B0917C0585
:102CC000A00FB11FED93FC930E94E511D7CE498070
:102CD0005A806B807C8092012C5F3F4F8217930754
:102CE00009F0CCCE54E0A50EB11C80917D059091E9
:102CF0007E05081719070CF033C2B80189E795E083
:102D00000E9496054C01009729F00E945C07C401BF
:102D10000E94C91D8EE090E00E94341D4C01A2016A
:102D2000B5010E949D07D4018D919C91039709F0F4
:102D30000CC2F0928005E0927F050E94E51146E00A
:102D400050E0509382054093810598CE00E010E05A
:102D500080917D0590917E05081719070CF08ECEA5
:102D6000B80189E795E00E949605DC012D913C9120
:102D700011972230310509F032C214968D919C9141
:102D800015978636910509F454C04CF482369105A6
:102D900009F4B6C18436910509F4A8C06FCE89360E
:102DA000910529F08337910509F433C167CE8091ED
:102DB000850590918605049709F060CEE091830522
:102DC000F091840580819181A281B381898B9A8B56
:102DD000AB8BBC8BDE015596FE013196498D5A8D29
:102DE000E417F50709F438CF8E918193F7CF0817D0
:102DF000190709F009C18EE090E00E94341D5C01C2
:102E0000DC0111961C921E92E9E6F0E01596FC9307
:102E1000EE93149713963C922E921297052C000C69
:102E20006608770816964D925D926D927C9219977E
:102E3000C2C08091850590918605049709F01ECE49
:102E4000E0918305F091840580819181A281B38115
:102E5000898B9A8BAB8BBC8BDE015596FE0131962C
:102E6000498D5A8DE417F50719F08E918193F8CFAB
:102E700049805A806B807C8080917D0590917E0591
:102E800008171907DCF4B80189E795E00E94960558
:102E90005C01009729F00E945C07C5010E94C91DD2
:102EA0008EE090E00E94341DFC011182108286E6C3
:102EB00090E095838483338222825BC008171907D0
:102EC00009F0A2C08EE090E00E94341D5C01DC019C
:102ED00011961C921E92E6E6F0E01596FC93EE9396
:102EE000149713963C922E9212975FC0809185059D
:102EF00090918605089709F0C1CDE0918305F09186
:102F0000840588E0DE01119601900D928A95E1F723
:102F1000DE011596FE0171964F89588DE417F5076D
:102F200019F08E918193F8CF49885A886B887C88F4
:102F300080917D0590917E0508171907FCF4B80172
:102F400089E795E00E9496055C01009729F00E94B0
:102F50005C07C5010E94C91D8EE090E00E94341DEF
:102F6000FC01118210823382228286E690E09583F2
:102F7000848346825782608671869CCE0817190723
:102F800009F042C08EE090E00E94341D5C01DC013B
:102F900011961C921E9213963C922E921297E6E680
:102FA000F0E01596FC93EE93149716964D925D9271
:102FB0006D927C921997B8016F5F7F4F660F771FF4
:102FC00080917B0590917C050E94611E009729F4F9
:102FD000F0928005E0927F0577CE90937C058093F8
:102FE0007B0520917D0530917E05A901440F551F79
:102FF000FC01E40FF51FB182A0822F5F3F4F309399
:103000007E0520937D0560CED0928005C0927F051D
:103010005BCEB11033CDA0908305B0908405809134
:103020007D0590917E050817190754F5B80189E7C9
:1030300095E00E9496054C01009729F00E945C07DC
:10304000C4010E94C91D8EE090E00E94341D4C0115
:10305000B5010E940808F40180819181039729F449
:10306000F0928005E0927F0546C0000F111FE091AD
:103070007B05F0917C05E00FF11F918280823BC0BF
:1030800008171907A1F58EE090E00E94341D8C010D
:10309000B5010E940808D8018D919C91039701F316
:1030A00060917D0570917E056F5F7F4F660F771F82
:1030B00080917B0590917C050E94611E009781F2B2
:1030C00090937C0580937B0520917D0530917E0552
:1030D000A901440F551FFC01E40FF51F1183008364
:1030E0002F5F3F4F30937E0520937D0504C0D09223
:1030F0008005C0927F050E94E511E6E0F0E036CD44
:103100008091850590918605853091050CF4B6CCAB
:10311000A0908305B0908405D5014D915D916D918E
:103120007C91498B5A8B6B8B7C8B9E012B5E3F4F26
:10313000FE013196498D5A8DE417F50709F4C7CD84
:10314000D9014E919D014193F5CF000F111FE091E0
:103150007B05F0917C05E00FF11F91828082EDCD1F
:1031600008171907B9F58EE090E00E94341D8C0114
:10317000A201B5010E949D07F8018081918103970A
:1031800009F4D7CD60917D0570917E056F5F7F4F0B
:10319000660F771F80917B0590917C050E94611ED0
:1031A000009709F4C6CD90937C0580937B05209110
:1031B0007D0530917E05A901440F551FFC01E40FE8
:1031C000F51F118300832F5F3F4F30937E052093BF
:1031D0007D05B3CDD0928005C0927F05AECD0F5F47
:1031E0001F4FB6CD00917D0510917E05015011094C
:1031F00017FD44CCB80189E795E00E949605DC01F3
:103200002D913C911197232B89F712962D913C918A
:103210001397C901039697FD03968C7F821B930B2E
:103220000ECD89E795E00E94AD058111A0C06CE646
:1032300073E083EA94E00E948C1089E795E00E9495
:10324000F8104B015C0197FF14C0E091A304F091CA
:10325000A4040190F081E02D6DE283EA94E00995E9
:1032600044275527BA01481959096A097B092AE0F8
:1032700003C02AE0AB01BC0183EA94E00E94F90F8D
:103280006DE773E083EA94E00E94E40F60917905B2
:1032900070917A05CE0101960E94421FBE016F5FB8
:1032A0007F4F83EA94E00E948C109E012F5E3F4F77
:1032B000AE014B5E5F4F60E873E0809179059091BD
:1032C0007A050E94D8054091790550917A052D899B
:1032D0003E89039759F01216130634F4FA01E20FEF
:1032E000F31F80818F3211F020E030E012161306B8
:1032F000D4F462E772E083EA94E00E948C1069E6FD
:1033000089E795E00E941911882369F089E795E023
:103310000E94F8106130710521F481E080939A04D5
:1033200002C010929A046EE272E084E893E00E9478
:10333000BD116EE272E08AE993E00E94BD116BE775
:1033400072E083EB93E00E94BD116CE472E08BECC1
:1033500093E00E94BD116FEF71E082EE93E00E9456
:10336000BD1160ED71E08DEF93E00E94BD11809181
:10337000790590917A050E94C91D89E795E00E9420
:103380006F0780918305909184050E94C91D10925A
:103390007A051092790510927E0510927D051092A3
:1033A0007C0510927B051092840510928305109283
:1033B000860510928505109282051092810582E0A3
:1033C00090E09093800580937F050E94AE0D45CBE1
:1033D0008AE991E09093FD058093FC051092FE052B
:1033E0001092FF0510920006109201061092A6049A
:1033F0001092A50448EE53E060E070E04093A7040B
:103400005093A8046093A9047093AA0426E131E0C4
:103410003093A4042093A30425EC30E03093B0044F
:103420002093AF0424EC30E03093B2042093B10435
:1034300020EC30E03093B4042093B30421EC30E06E
:103440003093B6042093B50422EC30E03093B804F6
:103450002093B70426EC30E03093BA042093B904EB
:103460001092BC041092BD041092BE041092BF04CE
:1034700090930306809302061092040610920506AC
:10348000109206061092070690930906809308068C
:1034900010920A0610920B0610920C0610920D065E
:1034A00090930F0680930E0610921006109211064C
:1034B000109212061092130690931506809314062C
:1034C00010921606109217061092180610921906FE
:1034D0009093410580934005109242051092430558
:1034E0001092440510924505909349058093480534
:1034F00010924A0510924B0510924C0510924D0502
:1035000090931B0680931A0610921C0610921D06BB
:1035100010921E0610921F0690932106809320069B
:10352000109222061092230610922406109225066D
:10353000909327068093260610922806109229065B
:1035400010922A0610922B0690932D0680932C063B
:1035500010922E0610922F0610923006109231060D
:1035600090933306809332061092340610923506FB
:1035700010923606109237069093390680933806DB
:1035800010923A0610923B0610923C0610923D06AD
:103590001092410610924006409342065093430613
:1035A000609344067093450626E231E030933F066F
:1035B00020933E0690934B0680934A0610924C0649
:1035C00010924D0610924E0610924F069093F705FA
:1035D0008093F6051092F8051092F9051092FA05FD
:1035E0001092FB05809172058C30A0F491E0980F49
:1035F000909372058093F30590E0FC01EE0FFF1F9E
:103600008E0F9F1FFC01E25BFA4F88EB9BE09283D9
:10361000818303C08FEF8093F305809172058C3016
:10362000A0F491E0980F909372058093F00590E0DC
:10363000FC01EE0FFF1F8E0F9F1FFC01E25BFA4F94
:1036400088EB9BE09283818303C08FEF8093F0052A
:10365000E9EBF5E01282118213821082DF011197EB
:103660001C9211971C92369685E0E13DF80791F780
:103670001092DB051092DE051092DA051092D90542
:103680001092EB051092EE051092EA051092E905F2
:1036900080E68093B4058093EF058091BC0581118D
:1036A00011C01092BC0584EB95E09093BB0580930C
:1036B000BA0588E08093B7058AE08093B80589E071
:1036C0008093B90587EB95E09093B3058093B2059D
:1036D0008091C205811112C081E08093C20584EB04
:1036E00095E09093C1058093C0058DE08093BD0562
:1036F0008BE08093BE058CE08093BF058DEB95E059
:103700009093B1058093B0058091C805811111C0D7
:1037100082E08093C80524EB35E03093C705209301
:10372000C6058093C30584E08093C40583E080933D
:10373000C50583EC95E09093AF058093AE0510929C
:1037400096051092950588EE93E0A0E0B0E0809396
:10375000970590939805A0939905B0939A0584E7EF
:1037600091E090939405809393058AE991E090937A
:10377000A2058093A1051092A3051092A4051092B2
:10378000A5051092A60524E02093AB0510927A05BA
:103790001092790510927E0510927D0510927C059D
:1037A00010927B0510928405109283051092860575
:1037B00010928505109282051092810522E030E07A
:1037C0003093800520937F0590938C0580938B0523
:1037D00010928D0510928E0510928F051092900513
:1037E000909374058093730580EC8093750588EA47
:1037F00080937605109277058BE98093780508957C
:10380000E89409C097FB3EF490958095709561957A
:103810007F4F8F4F9F4F9923A9F0F92F96E9BB2730
:103820009395F695879577956795B795F111F8CFAC
:10383000FAF4BB0F11F460FF1BC06F5F7F4F8F4F17
:103840009F4F16C0882311F096E911C0772321F00D
:103850009EE8872F762F05C0662371F096E8862FA5
:1038600070E060E02AF09A95660F771F881FDAF7FC
:10387000880F9695879597F9089557FD9058440FAE
:10388000551F59F05F3F71F04795880F97FB991FBF
:1038900061F09F3F79F0879508951216130614067C
:1038A000551FF2CF4695F1DF08C016161706180609
:1038B000991FF1CF86957105610508940895E894E4
:1038C000BB2766277727CB0197F90895052E97FB2D
:1038D0001EF400940E947D1C57FD07D00E94C71C57
:1038E00007FC03D04EF40C947D1C50954095309508
:1038F00021953F4F4F4F5F4F08959095809570955C
:1039000061957F4F8F4F9F4F08950E94E91CA59F9F
:10391000900DB49F900DA49F800D911D11240895CA
:103920002F923F924F925F926F927F928F929F92CF
:10393000AF92BF92CF92DF92EF92FF920F931F93BD
:10394000CF93DF93CDB7DEB7CA1BDB0B0FB6F8946E
:10395000DEBF0FBECDBF09942A88398848885F84AE
:103960006E847D848C849B84AA84B984C884DF801F
:10397000EE80FD800C811B81AA81B981CE0FD11D03
:103980000FB6F894DEBF0FBECDBFED010895A1E2E2
:103990001A2EAA1BBB1BFD010DC0AA1FBB1FEE1FC9
:1039A000FF1FA217B307E407F50720F0A21BB30B14
:1039B000E40BF50B661F771F881F991F1A9469F790
:1039C00060957095809590959B01AC01BD01CF01EC
:1039D0000895A29FB001B39FC001A39F700D811DE8
:1039E0001124911DB29F700D811D1124911D089508
:1039F0000E94FF1C6894B1110C94601C08950E94F1
:103A0000451C88F09F5798F0B92F9927B751B0F00F
:103A1000E1F0660F771F881F991F1AF0BA95C9F752
:103A200014C0B13091F00E945F1CB1E008950C9475
:103A30005F1C672F782F8827B85F39F0B93FCCF328
:103A4000869577956795B395D9F73EF490958095CF
:103A5000709561957F4F8F4F9F4F0895EE0FFF1F19
:103A60000590F491E02D0994CF93DF938230910576
:103A700010F482E090E0E0916C06F0916D0620E099
:103A800030E0C0E0D0E0309711F14081518148171B
:103A90005907C0F04817590761F482819381209734
:103AA00019F09B838A832BC090936D0680936C06DC
:103AB00026C02115310519F04217530718F49A0151
:103AC000BE01DF01EF010280F381E02DDCCF211583
:103AD000310509F1281B390B2430310590F4129679
:103AE0008D919C9113976115710521F0FB019383D2
:103AF000828304C090936D0680936C06FD0132961C
:103B000044C0FD01E20FF31F8193919322503109CC
:103B10002D933C933AC020916A0630916B06232B7B
:103B200041F4209108013091090130936B062093F4
:103B30006A0620910601309107012115310541F4F3
:103B40002DB73EB740910A0150910B01241B350B54
:103B5000E0916A06F0916B06E217F307A0F42E1BC2
:103B60003F0B2817390778F0AC014E5F5F4F2417E1
:103B7000350748F04E0F5F1F50936B0640936A065F
:103B80008193919302C0E0E0F0E0CF01DF91CF910B
:103B900008950F931F93CF93DF93009709F48CC080
:103BA000FC0132971382128200916C0610916D060F
:103BB0000115110581F420813181820F931F20911D
:103BC0006A0630916B062817390779F5F0936B0672
:103BD000E0936A0671C0D80140E050E0AE17BF071D
:103BE00050F412962D913C911397AD01211531059A
:103BF00009F1D901F3CF9D01DA013383228360817A
:103C00007181860F971F8217930769F4EC01288151
:103C10003981260F371F2E5F3F4F318320838A81E2
:103C20009B8193838283452B29F4F0936D06E09367
:103C30006C0642C01396FC93EE931297ED014991E6
:103C400059919E01240F351FE217F30771F480810B
:103C50009181840F951F029611969C938E93828179
:103C6000938113969C938E931297E0E0F0E0D80135
:103C700012968D919C911397009719F0F8018C0181
:103C8000F6CF8D919C9198012E5F3F4F820F931F2D
:103C900020916A0630916B062817390769F430972E
:103CA00029F410926D0610926C0602C013821282E3
:103CB00010936B0600936A06DF91CF911F910F91CD
:103CC0000895A0E0B0E0E7E6FEE10C94941CEC015E
:103CD000009721F4CB010E94341DB8C0FC01E60F0F
:103CE000F71F9C0122503109E217F30708F4ACC01A
:103CF000D9010D911C91119706171707B0F00530E7
:103D0000110508F49FC0C80104978617970708F4A7
:103D100099C002501109061B170B019311936D9363
:103D20007C93CF010E94C91D8DC05B01A01AB10A0E
:103D30004C01800E911EA0916C06B0916D0640E082
:103D400050E0E12CF12C109709F44AC0A815B905F0
:103D5000D1F56D907C901197630182E0C80ED11C63
:103D6000CA14DB0480F1A3014A195B096A0182E0ED
:103D7000C80ED11C1296BC9012971396AC91B5E068
:103D8000CB16D10440F0B282A38351834083D90182
:103D90006D937C930AC00E5F1F4FC301800F911F6C
:103DA000F90191838083EB2DFA2FE114F10431F0B6
:103DB000D7011396FC93EE93129744C0F0936D06CF
:103DC000E0936C063FC08D919C911197481759075D
:103DD00008F4AC017D0112960D90BC91A02DB3CFDB
:103DE00080916A0690916B0688159905E1F4461753
:103DF0005707C8F48091060190910701009741F49C
:103E00008DB79EB740910A0150910B01841B950B11
:103E1000E817F907C8F4F0936B06E0936A06F90116
:103E2000718360830FC0CB010E94341D7C01009719
:103E300059F0A801BE010E94301FCE010E94C91D89
:103E4000C70104C0CE0102C080E090E0CDB7DEB76C
:103E5000EEE00C94B01C81E090E0F8940C94571FB5
:103E6000FB01DC0102C001900D9241505040D8F797
:103E70000895FB01DC018D91019080190110D9F3A7
:103E8000990B0895FB01DC0101900D920020E1F7F0
:103E90000895FB01DC014150504030F08D910190BC
:103EA000801919F40020B9F7881B990B089510E0C8
:103EB000C4E6D0E004C0FE010E942E1D2196C53646
:083EC000D107C9F7F894FFCF08
:103EC800DEADBEEFFEED00006E06800001005E0074
:103ED800000000000000450DC10C0E0DEC0C000D9B
:103EE8008C0D00000000E500D100980095009200BC
:103EF800910000000000CF0DCF0DCF0DCF0DCF0DDD
:103F0800CF0DCF0D8F00CF0DCF0DCF0DCF0DCF0D16
:103F1800CF0DCF0DCF0DCF0D00000000CF0DC10C80
:103F2800CF0DCF0DCF0DCF0D00000000CF0DC10C70
:103F380000000000B90D470F4008A80E520EB80D3A
:103F4800AC08D10D9708500994095F08D10E890E65
:103F5800580848084408000000004210000000000B
:103F6800CF0D4368616E67656D656E7420706F7301
:103F78006974696F6E207061757069657265206417
:103F8800726F697465005741524E494E47203A2076
:103F9800457272657572206C6F7273206475206348
:103FA80068616E67656D656E7420646520706F73F7
:103FB8006974696F6E2070617570696572652064D7
:103FC800726F697465004368616E67656D656E74CC
:103FD80020706F736974696F6E20706175706965A0
:103FE800726520676175636865005741524E494E96
:103FF80047203A20457272657572206C6F72732083
:104008006475206368616E67656D656E74206427EA
:10401800616E676C6520646520706F736974696F81
:104028006E20706175706965726520676175636877
:104038006500546F67676C6520656E6772656E61B1
:104048006765004368616E67656D656E7420616EB3
:10405800676C65206F65696C2064726F69740057BE
:1040680041524E494E47203A20457272657572207A
:104078006C6F7273206475206368616E67656D6527
:104088006E74206427616E676C65206465206C27F8
:104098006F65696C2064726F6974004368616E674C
:1040A800656D656E7420616E676C65206F65696CFF
:1040B80020676175636865005741524E494E472035
:1040C8003A20457272657572206C6F727320647540
:1040D800206368616E67656D656E74206427616E24
:1040E800676C65206465206C276F65696C20676163
:1040F800756368650053657269616C2073657475D2
:104108007000436F6E6E6578696F6E2061752072FE
:10411800657365617500526563657074696F6E20BB
:104128004F53432061637469766565005265636522
:1041380069766564206D657373616765000D0A00B3
:104148002F7445002F676F6C656D2F656E677265FC
:104158006E6167652F73656E73002F676F6C656D91
:104168002F656E6772656E6167652F766974657312
:104178007365002F676F6C656D2F6F65696C47619C
:10418800756368652F616E676C65002F676F6C6576
:104198006D2F6F65696C44726F69742F616E676CFF
:1041A80065002F676F6C656D2F6F65696C4761756A
:1041B8006368652F7061757069657265002F676F38
:1041C8006C656D2F6F65696C44726F69742F7061CF
:0841D800757069657265000055
:00000001FF
