:100000000C9463000C948B000C948B000C948B006C
:100010000C948B000C948B000C948B000C948B0034
:100020000C948B000C948B000C948B000C947D072B
:100030000C948B000C948B000C948B000C948B0014
:100040000C94D8100C948B000C94E20C0C94BC0C07
:100050000C948B000C948B000C948B000C948B00F4
:100060000C94E1070C948B00000000002500280090
:100070002B000000000023002600290000000008DB
:10008000000201000003040700000000000000005F
:1000900000000000240027002A00010204081020AC
:1000A000408001020408102001020408102004040A
:1000B0000404040404040202020202020303030310
:1000C00003034E17481711241FBECFEFD8E0DEBF41
:1000D000CDBF14E0A0E0B1E0ECE0FBE302C005908E
:1000E0000D92AA37B107D9F727E0AAE7B4E001C01B
:1000F0001D92AA32B207E1F710E0C2E6D0E004C0D8
:100100002197FE010E94671BC136D107C9F70E94E3
:1001100022110C94791D0C940000CF93DF931F9251
:10012000CDB7DEB76983DC01ED91FC910280F381EC
:10013000E02D41E050E0BE016F5F7F4F09950F90C9
:10014000DF91CF910895FC01818D928D0895FC017E
:1001500084899589089524EA31E0FC013183208364
:10016000FB014089518962897389FC014283538371
:10017000648375830895DC01ED91FC91028CF38D0D
:10018000E02D09947F928F929F92AF92BF92CF926F
:10019000DF92EF92FF920F931F93CF93DF935C0157
:1001A0004B016A01FC0106891789708C80E590E09B
:1001B0000E94B806C0E0D0E0872D0E949F067C0117
:1001C000892B21F0872D0E949F06EC01CE15DF05BB
:1001D00099F7CC15DD0578F4C0E0D0E0872D0E94BA
:1001E0009F066C01892B21F0872D0E949F06EC0150
:1001F000CC15DD0599F764E270E0872D0E94610659
:10020000E82EF12C65E270E0872D0E946106FE2C3D
:10021000EE24E82AE701C00FD11F9E013770E72CBA
:10022000F12CC701880F991FAC01455A5A4F7A012A
:10023000FA0180819181820F931FA9014C0D5D1DF0
:100240004130584090F000E018E0021B130BA80169
:10025000B4010E940606A601401B510BB401600FB9
:10026000711FF7018081918102C0A601B4010E9433
:100270000606CC0DDD1D4D2F64E270E0872D0E9437
:1002800057064C2F65E270E0872D0E9457060E94AA
:10029000B706F501868997898C0D9D1D978B868BF6
:1002A000C601DF91CF911F910F91FF90EF90DF90EA
:1002B000CF90BF90AF909F908F907F900895EF92D6
:1002C000FF921F93CF93DF93EB017A01FC01178A12
:1002D000168A108D8A81811109C08B81811106C017
:1002E0008C81811103C08D81882329F1E114F104EF
:1002F00011F180E590E00E94B806BE016E5F7F4F6D
:10030000812F90E0982F882744E050E0845F9B4F36
:100310000E9406064F2D60E170E0812F0E94570673
:100320004E2D61E170E0812F0E9457060E94B706B2
:1003300081E090E002C080E090E0DF91CF911F91DA
:10034000FF90EF900895CF93FC01C08D80E590E081
:100350000E94B80660E270E08C2F0E94770E62E087
:1003600070E08C2F0E94610684FD19C062E070E08D
:100370008C2F0E94610683FF0BC048E162E070E0B1
:100380008C2F0E9457060E94B70680E090E011C0B3
:100390000E94B70680E590E00E94B806E0CF40E1F9
:1003A00062E070E08C2F0E9457060E94B70681E041
:1003B00090E0CF910895CF93DF93EC01888D843046
:1003C00061F00E942907E88DF0E0EE0FFF1FE35275
:1003D000FB4F1182108284E0888FDF91CF910895C6
:1003E000CF92DF92EF92FF921F93CF93DF931F92F2
:1003F000CDB7DEB7FC01208D243011F080E028C09D
:100400007B016C0110E080E590E00E94B80663E09B
:1004100070E0812F0E94610689830E94B70689815E
:10042000811103C0F601108F05C08831D9F31F5F19
:10043000143049F7F601808D843001F3F586E486A7
:10044000128E118E20E0A70162E00E943B0781E03E
:100450000F90DF91CF911F91FF90EF90DF90CF90A1
:1004600008954F925F926F927F928F929F92AF9278
:10047000BF92CF92DF92EF92FF920F931F93CF9391
:10048000DF93CDB7DEB7EE970FB6F894DEBF0FBEA1
:10049000CDBF5C018B014A0184EA91E09A83898394
:1004A0001C861B8648EE53E060E070E04D875E8757
:1004B0006F87788B2EE731E03A872987988F8F8B6B
:1004C000198E1A8E1B8E1C8E24E029A399AB88AB43
:1004D0001AAA1BAA1CAA1DAA80915606909157061B
:1004E000A0915806B09159068EA39FA3A8A7B9A7BB
:1004F0008B839C83AD83BE8318861F82F80120E026
:1005000080E090E06AE03191332319F140ED430F30
:100510004A3080F4689FA001699F500D1124CA01E0
:10052000C097830F911D37FD9A958F3F910559F321
:1005300050F32BC03E3249F5233039F1A2E3B0E04D
:10054000AC0FBD1FA20FB11D8C932F5F80E090E018
:10055000DACF2330D1F48DABD501ED91FC91028837
:10056000F389E02D84EA91E09DA38CA38AA99BA93D
:10057000ACA9BDA98EA39FA3A8A7B9A7A401BE013A
:100580006C5D7F4FC501099530C24B815C816D81E7
:100590007E8180915E0690915F06A0916006B09189
:1005A0006106481759076A077B0709F41CC20E94B5
:1005B000CC106F7077277C5FCE0109960E94F00106
:1005C000813009F00DC284EA91E09DA38CA38B8158
:1005D0009C81AD81BE818EA39FA3A8A7B9A745E347
:1005E00050E0BE016C5D7F4FCE0109960E945F0115
:1005F000892B19F400E010E07EC10E94CC107887AE
:100600006F837627672776277DA36CA342E050E0AF
:10061000BE016C5D7F4FCE0109960E94C20081E051
:1006200090E09FAB8EAB42E050E0BE016A5C7F4F32
:10063000CE0109960E94C20080E091E09FAB8EAB94
:1006400042E050E0BE016A5C7F4FCE0109960E94F5
:10065000C2001FAA1EAA42E050E0BE016A5C7F4FA2
:10066000CE0109960E94C20042E050E0BE016A5CE1
:100670007F4FCE0109960E94C20042E050E0BE01C9
:100680006A5C7F4FCE0109960E94C2007801D701B3
:100690008C91882319F1F8017F018191811117C094
:1006A0006701C01AD10A1C141D04A4F4C8AE41E0AD
:1006B00050E0BE01685C7F4FCE0109960E94C200E7
:1006C000A601B801CE0109960E94C20003C08E3275
:1006D00019F7E6CF87010F5F1F4FD9CF18AE41E062
:1006E00050E0BE01685C7F4FCE0109960E94C200B7
:1006F00000E011E01FAB0EAB42E050E0BE016A5CCF
:100700007F4FCE0109960E94C2001FAB0EAB42E0A4
:1007100050E0BE016A5C7F4FCE0109960E94C20084
:10072000CE0109960E94A301892B09F463CF63E0EF
:10073000E62EF12C0E94CC102B013C01CE01099633
:100740000E948A0B18161906A4F00E94CC10DC0136
:10075000CB0184199509A609B70989389341A105E8
:10076000B105C8F462E370E080E090E00E94610FA0
:10077000E5CF4B815C816D817E81898D9A8DAB8DBA
:10078000BC8D481759076A077B0741F48D8D9E8DF4
:10079000C59721F406C02FEF3FEFA4C02EEF3FEF27
:1007A000A1C08AA19BA10C970CF4B2C04CE050E010
:1007B000BE016C5D7F4FCE0109960E94420B8EA157
:1007C00090E0982F88272FA1822B9BAF8AAF2CA176
:1007D00030E0322F22274DA1242B4F81588542171C
:1007E000530709F092C097FF90C08F709270892BC9
:1007F00009F0F3C00AA510E0102F00278BA5082BE5
:100800000115110509F4E6C0C12CD12C88A590E092
:10081000982F882729A5822BC816D90608F47BC0F3
:10082000C12CD12C41E050E0BE01645C7F4FCE0171
:1008300009960E94420B8CAD982F907C09F0A5C0C0
:10084000811197C08CAD8111EDCF42E050E0BE0127
:10085000685C7F4FCE0109960E94420B42E050E057
:10086000BE016A5C7F4FCE0109960E94420BCE0109
:1008700009960E94610BCE0109960E94610BCE0180
:1008800009960E94610BCE0109960E94610B42E01D
:1008900050E0BE01665C7F4FCE0109960E94420B7C
:1008A00088AD99AD8115914009F075C02EA93FA979
:1008B0003227232732272130310509F06CC08AAD59
:1008C0009BAD8115944009F082C044E050E0BE0128
:1008D0006E5C7F4FCE0109962DAF3EAF0E94420B5A
:1008E0002DAD3EAD8901B1E0EB1AF10821F02F3FAB
:1008F0003F4F09F41FCFCE0109960E94DB01013062
:10090000110509F429CEC80170C02CEF3FEFEACFE2
:100910002DEF3FEFE7CF41E050E0BE016A5C7F4F33
:10092000CE0109960E94420B8EA9811117C08EA993
:100930008111F1CFCE0109960E94610BCE0109967B
:100940000E94610BCE0109960E94610BCE010996AF
:100950000E94610BFFEFCF1ADF0A58CF8EA99FEFDD
:10096000980F9EAB882319F3CE0109960E94610B64
:10097000F5CF8CAD9FEF980F9CAF882309F462CF21
:10098000CE0109960E94610BF4CFCE0109960E9418
:10099000610B1CAE57CF612C712C8AAD9BAD982793
:1009A000892798276816790640F4CE0109960E9497
:1009B000610B8FEF681A780AF0CFAFEFCA1ADA0A24
:1009C000C016D10609F02ECF26EF3FEF8BCF27EFD1
:1009D0003FEF88CF2AEF3FEF85CF2BEF3FEF82CF5E
:1009E00080E090E002C08EEF9FEFEE960FB6F89495
:1009F000DEBF0FBECDBFDF91CF911F910F91FF9052
:100A0000EF90DF90CF90BF90AF909F908F907F90AE
:100A10006F905F904F9008952A9A08952A980895AC
:100A200080E008958EBD00000DB407FEFDCF8EB5A9
:100A300008950895E0919B0480919A04E81730F49A
:100A4000F0E0E658FB4F808190E008958FEF9FEF34
:100A5000089590919B0480919A04981750F4E92F7F
:100A6000F0E0E658FB4F208130E09F5F90939B04BD
:100A700002C02FEF3FEFC901089580919A0490E0E2
:100A800020919B04821B9109089585ED8093BC0001
:100A90008091BC0084FDFCCF109291050895409197
:100AA0000705262F30E0240F311D21323105DCF4FB
:100AB000209191052430C9F4FC0180E090E0861774
:100AC00058F4309107052191DC01AB51BB4FA30FC6
:100AD000B11D2C930196F3CF80910705680F6093A9
:100AE000070580E0089581E0089582E00895CF929F
:100AF000DF92EF92FF920F931F93CF93DF937C01CE
:100B0000262F972F8A0180919205882391F0C62F76
:100B1000D72F6E01C40ED51ECC15DD0571F069917D
:100B2000D701ED91FC910190F081E02DC70109956D
:100B3000F3CF642F822F0E944F05C801DF91CF9120
:100B40001F910F91FF90EF90DF90CF900895CF937A
:100B5000DF931F92CDB7DEB76983209192052223E0
:100B6000D1F02091B505203240F021E030E0FC01C9
:100B70003383228380E090E015C080919305E82FB5
:100B8000F0E0EC56FA4F998190838F5F8093930544
:100B90008093B50505C061E0CE0101960E944F0526
:100BA00081E090E00F90DF91CF910895CF92DF9296
:100BB000EF92FF920F931F93CF93DF93EC017A0193
:100BC0008B016C01C40ED51ECC15DD05A9F00E9469
:100BD0000E058FE00E9412058D2F0E9412058C2FAA
:100BE0000E941205219680E00E941205F80181936F
:100BF0008F010E940C05E8CFC701DF91CF911F91B3
:100C00000F91FF90EF90DF90CF900895CF92DF92F9
:100C1000EF92FF920F931F93CF93DF93EC017A0132
:100C20008B016C01C40ED51ECC15DD05A1F00E9410
:100C30000E0580EF0E9412058D2F0E9412058C2F49
:100C40000E9412052196F80181918F010E941205E0
:100C50000E940C05E9CFC701DF91CF911F910F9141
:100C6000FF90EF90DF90CF9008951F93CF93DF9385
:100C700000D0CDB7DEB7182F6A8399830E940E0586
:100C800080EF0E9412059981892F0E941205812F01
:100C90000E9412056A81862F0E9412050E940C058F
:100CA00081E00F900F90DF91CF911F9108959B01EC
:100CB00090E00496982F8827642F820F931F0C943E
:100CC00035060F931F93CF93DF931F92CDB7DEB7F7
:100CD00090E00496982F88278C01060F171F0E941A
:100CE0000E058FE00E941205812F0E941205802FB1
:100CF0000E94120580E00E94120589830E940C0563
:100D000089810F90DF91CF911F910F9108951F93CB
:100D1000CF93DF93182F66E270E00E946106C82F20
:100D2000D0E067E270E0812F0E946106DC2FCC27C3
:100D30009E01282BC901DF91CF911F9108951F9328
:100D4000CF93DF93182F60E270E00E946106C82FF6
:100D5000D0E061E270E0812F0E946106DC2FCC2799
:100D60009E01282BC901DF91CF911F91089508950D
:100D70008CBD9DBD0895AF92BF92DF92EF92FF921E
:100D80000F931F93CF93DF93D82E7B018A0180E5C9
:100D900090E00E94B806C0E0D0E08D2D0E9487064A
:100DA0005C01892B21F08D2D0E948706EC01CA156C
:100DB000DB0599F7209799F463E070E08D2D0E9490
:100DC00061068431D9F18823C9F1C1E0D0E08C31CA
:100DD00011F4C0E0D0E0D195C195D1092FC00C1716
:100DE0001D070CF4E8011C161D0644F568E270E0CE
:100DF0008D2D0E946106082F10E069E270E08D2DB4
:100E00000E946106102F0027082B9E01A701B80140
:100E10008D2D0E94870E0C0F1D1F412F68E270E080
:100E20008D2D0E945706402F69E270E08D2D0E94A3
:100E3000570660E470E08D2D0E94770ECE01DF91A1
:100E4000CF911F910F91FF90EF90DF90BF90AF90E7
:100E50000895CF93C82F80E590E00E94B80660E126
:100E600070E08C2F0E94770E4FEF62E070E08C2FC5
:100E7000CF910C945706FF920F931F93CF93DF935C
:100E800000D0CDB7DEB7F82E8A012A8369830E948D
:100E9000290780E590E00E94B8062A816981462FE3
:100EA000422B60E070E08F2D0E945706011511055E
:100EB00051F400915105109152050F5F1F4F10938F
:100EC000520500935105412F64E070E08F2D0E9480
:100ED0005706402F65E070E08F2D0E94570661E0B5
:100EE00070E08F2D0E94770E81E00F900F90DF91C0
:100EF000CF911F910F91FF9008951F920F920FB6FF
:100F00000F9211242F933F938F939F93EF93FF930F
:100F10008091500587FF05C01092850010928400D3
:100F200005C08091500587FD809150058091500546
:100F30008F5F809350058091500587FF20C080917E
:100F400050058C30E4F4209184003091850080912C
:100F50005005082E000C990BFC01EE0FFF1F8E0FA1
:100F60009F1FFC01E45DFA4F81819281820F931FE4
:100F700090938900809388008091500517C08091DC
:100F8000840090918500049680349C4918F480E494
:100F90009CE905C08091840090918500049690930F
:100FA0008900809388008FEF80935005FF91EF9127
:100FB0009F918F913F912F910F900FBE0F901F9097
:100FC00018951F920F920FB60F9211242F933F93F3
:100FD0004F935F936F937F938F939F93AF93BF9341
:100FE000EF93FF938091B900887F803609F49CC00D
:100FF00068F5883209F45BC090F4803109F454C07C
:1010000038F4882309F4F6C0883009F44DC0F6C0DE
:10101000883109F44CC0803209F45DC0EFC08034DF
:1010200009F468C048F4803309F455C0883309F0E6
:10103000E5C080938F05D8C0803509F44FC088354E
:1010400009F45DC0883409F0D9C0D6C0883909F4E4
:10105000C7C0A8F4883709F467C038F4883609F4A3
:1010600063C0803709F460C0C9C0883809F4B8C0CB
:10107000803909F45FC0803809F0C0C05BC0803B94
:1010800009F486C038F4803A09F466C0883A09F455
:101090007FC0B4C0803C09F4A7C0883C09F4A4C058
:1010A000883B09F48AC0AAC080916C0510C0909159
:1010B0008E0580918D05981770F5E0918E0581E081
:1010C0008E0F80938E05F0E0E359FA4F8081809374
:1010D000BB0085EC86C080938F058EC0E0918E05A5
:1010E00081E08E0F80938E058091BB00F0E0E35984
:1010F000FA4F808390918E0580918D056EC0E091AE
:101100008E0581E08E0F80938E058091BB00F0E00C
:10111000E359FA4F80838091900581116DC081E081
:1011200080936B0584EA61C083E0809391051092FF
:101130002B05CFCF80912B05803208F051C0E09174
:101140002B0581E08E0F80932B058091BB00F0E092
:10115000E55FFA4F8083BDCF85EC8093BC00109291
:10116000910580912B05803230F4E0912B05F0E061
:10117000E55FFA4F108260912B0570E0E091090560
:10118000F0910A058BE095E0099510922B0536C089
:1011900084E0809391051092080510920705E09174
:1011A0000505F0910605099580910705811105C097
:1011B00081E0809307051092E504E091080581E045
:1011C0008E0F80930805F0E0EB51FB4F80818093F8
:1011D000BB009091080580910705981708F479CF16
:1011E00085E88093BC000AC085EC8093BC00109217
:1011F000910504C010928F050E944505FF91EF9163
:10120000BF91AF919F918F917F916F915F914F911E
:101210003F912F910F900FBE0F901F901895109235
:10122000910581E08093900510926B0561E082E169
:101230000E94F50E61E083E10E94F50EE9EBF0E01B
:1012400080818E7F808380818D7F808388E48093FE
:10125000B80085E48093BC000895CF93DF93CDB7A9
:10126000DEB72A970FB6F894DEBF0FBECDBF84E07D
:101270000E94CC0E909301018093000183E00E94B4
:10128000CC0E909305018093040188E00E94CC0E5F
:10129000909303018093020187E00E94CC0E80931B
:1012A000060190930701909100019F8390910401A2
:1012B00098879091020199878A8780917006909112
:1012C0007106A0917206B09173060097A105B10551
:1012D000F1F024EA31E03A8329838B839C83AD8348
:1012E000BE8340ED5CE1BE016F5F7F4F8AE796E011
:1012F0000E945F0144E050E0BE01695F7F4F8AE7D2
:1013000096E00E94C2008AE796E00E94A3012A9616
:101310000FB6F894DEBF0FBECDBFDF91CF91089519
:10132000CF92DF92EF92FF920F931F93CF93DF93B1
:101330006C017A018B01C0E0D0E0CE15DF0589F0A9
:10134000D8016D918D01D601ED91FC910190F08154
:10135000E02DC6010995892B11F47E0102C021966A
:10136000ECCFC701DF91CF911F910F91FF90EF90CC
:10137000DF90CF900895FC01918D828D981761F0D8
:10138000828DDF01A80FB11D5D968C91928D9F5FBC
:101390009F73928F90E008958FEF9FEF0895FC0167
:1013A000918D828D981731F0828DE80FF11D858D1A
:1013B00090E008958FEF9FEF0895FC01918D228DAD
:1013C000892F90E0805C9F4F821B91098F73992732
:1013D000089587EB95E00E94DD0921E0892B09F44F
:1013E00020E0822F0895FC01848DDF01A80FB11D3C
:1013F000A35ABF4F2C91848D90E001968F7399274B
:10140000848FA689B7892C93A089B1898C91806437
:101410008C93938D848D981306C00288F389E02DF8
:1014200080818F7D80830895EF92FF920F931F93A9
:10143000CF93DF93EC0181E0888F9B8D8C8D981387
:1014400005C0E889F989808185FD24C0F62E0B8DC1
:1014500010E00F5F1F4F0F731127E02E8C8DE812E5
:101460000CC00FB607FCFACFE889F989808185FFA7
:10147000F5CFCE010E94F309F1CF8B8DFE01E80F6D
:10148000F11DE35AFF4FF0820B8FEA89FB898081BF
:10149000806207C0EE89FF896083E889F9898081CD
:1014A0008064808381E090E0DF91CF911F910F9164
:1014B000FF90EF900895CF93DF93EC01888D882300
:1014C000C9F0EA89FB89808185FD05C0A889B989B1
:1014D0008C9186FD0FC00FB607FCF5CF808185FF8C
:1014E000F2CFA889B9898C9185FFEDCFCE010E94FA
:1014F000F309E7CFDF91CF91089580E090E0892B49
:1015000029F00E94E90981110C94000008950895C2
:101510000E94641DBF92CF92DF92EF92FF920F93D1
:101520001F93CF93DF9300D000D000D0CDB7DEB7AC
:10153000FC01208D243009F05DC06A017B018C0123
:10154000B12C63E070E08B2D0E946106811103C015
:10155000F801B08E06C08831D9F3B394F4E0BF121D
:10156000F0CFF801808D843009F444C096E0E6E1C4
:10157000F1E0DE01119601900D929A95E1F7F701E5
:1015800093819F779C8394819D8395819E83B701EE
:101590006E5F7F4F90E0982F882744E050E0845F93
:1015A0009B4F0E940606F801F08C4D2D60E170E023
:1015B0008F2D0E9457064C2D61E170E08F2D0E9407
:1015C0005706F801808D90E0982F882746E050E07C
:1015D000BE016F5F7F4F8A5F9B4F0E940606F80136
:1015E000128E118E20E8A60162E0808D0E943B07DA
:1015F00081E001C080E026960FB6F894DEBF0FBEF2
:10160000CDBFDF91CF911F910F91FF90EF90DF90B1
:10161000CF90BF900895FF920F931F93CF93DF93C6
:101620001F92CDB7DEB7FC01218D328D232B09F13E
:10163000F08C80E590E00E94B80668E270E08F2DA3
:101640000E946106082F10E069E270E08F2D0E9471
:101650006106702F6627682B21E030E0AE014F5FF6
:101660005F4F8F2D0E94870E0E94B706898190E000
:1016700002C08FEF9FEF0F90DF91CF911F910F91DD
:10168000FF900895CF93DF93FC01218D328D2115BA
:10169000310519F48FEF9FEF11C0EC01421753078A
:1016A00008F0A901888D0E94BB061816190694F748
:1016B000298D3A8D281B390B3A8F298FDF91CF91D5
:1016C00008950F931F93CF93DF931F92CDB7DEB78B
:1016D000FC01218D328D232B61F08C0141E050E023
:1016E000BE016F5F7F4F808D0E94BB0618161906E2
:1016F0001CF08FEF9FEF08C0F801818D928D01974C
:10170000928F818F898190E00F90DF91CF911F910F
:101710000F910895BF92CF92DF92EF92FF920F93B5
:101720001F93CF93DF93CDB7DEB728970FB6F8940A
:10173000DEBF0FBECDBF8C01F801818D928D892B4C
:1017400049F0D801ED91FC910680F781E02DC801A8
:101750000995F2CFB08C80E590E00E94B806E12CAC
:10176000F12C8B2D0E9487066C01892B21F08B2D8B
:101770000E9487067C01EC14FD0499F70E94B706CD
:101780001E141F045CF548E050E0BE016F5F7F4F00
:10179000D80158968C910E94BB069C011816190618
:1017A000DCF489819A81AB81BC81F801808B918BBB
:1017B000A28BB38B8D8190E0982F88272E81820F8A
:1017C000911D958B848B2F8130E0322F22278885C5
:1017D000280F311D328F218FC90102C080E090E0B7
:1017E00028960FB6F894DEBF0FBECDBFDF91CF9124
:1017F0001F910F91FF90EF90DF90CF90BF900895D1
:101800006115710579F0FB0101900020E9F731972E
:10181000AF01461B570BDC01ED91FC910280F38177
:10182000E02D099480E090E008954F925F926F92CE
:101830007F92EF92FF920F931F93CF93DF93CDB7D9
:10184000DEB7A1970FB6F894DEBF0FBECDBF7C0107
:10185000FA01CB0119A2223008F42AE08E010F5DB3
:101860001F4F422E512C612C712CBF01A3019201FC
:101870000E94A41AF901CA01015011096A3014F436
:10188000605D01C0695CD8016C93232B242B252B50
:1018900061F7B801C7010E94000CA1960FB6F89439
:1018A000DEBF0FBECDBFDF91CF911F910F91FF9093
:1018B000EF907F906F905F904F9008958F929F92DE
:1018C000AF92BF92CF92DF92EF92FF920F931F934E
:1018D000CF93DF937C01EB016C0182E0C80ED11C39
:1018E0004701E5E08E0E911C00E010E0F601419109
:1018F0006F0150E060E070E02AE0CE010E94150C1C
:101900005C01E881F9810190F081E02D6EE2CE0169
:1019100009958A0D9B1D080F191FC814D90431F7AA
:10192000F701458150E060E070E02AE0CE010E94BE
:10193000150C800F911FDF91CF911F910F91FF9098
:10194000EF90DF90CF90BF90AF909F908F900895D1
:101950000F931F93CF93DF93EC010E94000C8C0137
:101960006CEB72E0CE010E94000C800F911FDF91A2
:10197000CF911F910F9108951F920F920FB60F9262
:1019800011242F933F934F935F936F937F938F9384
:101990009F93AF93BF93EF93FF9387EB95E00E94E4
:1019A000F309FF91EF91BF91AF919F918F917F913B
:1019B0006F915F914F913F912F910F900FBE0F90BC
:1019C0001F9018951F920F920FB60F9211242F930C
:1019D0008F939F93EF93FF93E091C705F091C80514
:1019E0008081E091CD05F091CE0582FD12C09081FD
:1019F0008091D0058F5F8F732091D105821751F0B0
:101A0000E091D005F0E0E954FA4F958F8093D0052E
:101A100001C08081FF91EF919F918F912F910F9045
:101A20000FBE0F901F9018950F931F93CF93DF93C6
:101A300000D0CDB7DEB7152F032FFC01808191E0D8
:101A4000909392058093B405109293051092B5057A
:101A5000F4E06F9FB00111246A5F7F4F82E696E049
:101A60002A8349830E94A7054981842F912F0E94D0
:101A7000570E812F90E00E94570E2A81822F902FBF
:101A80000E94570E802F90E00E94570E81E00F9029
:101A90000F90DF91CF911F910F910C94FA0DCF937E
:101AA000DF93EC018B819C8120E030E040E050E04E
:101AB0006A81CB960E94140D8B819C8120E030E0DE
:101AC00040E050E16981CB96DF91CF910C94140DE9
:101AD000FC0180E1689F900111248381948140E0A2
:101AE00050E06081CB960C94140DCF93DF93EC0102
:101AF000623041F06430B9F0613059F5DF91CF9137
:101B00000C944F0D8B819C8120E030E040E050E050
:101B10006981CB960E94140D8B819C8120E030E07E
:101B200040E050E110C08B819C8120E030E040E03B
:101B300050E06981CB960E94140D8B819C8120E03E
:101B400030E040E050E06A81CB96DF91CF910C9479
:101B5000140DDF91CF910895833081F028F4813006
:101B600099F08230A1F008958730A9F08830B9F05B
:101B70008430D1F4809180008F7D03C080918000FB
:101B80008F7780938000089584B58F7702C084B5E5
:101B90008F7D84BD08958091B0008F7703C08091C0
:101BA000B0008F7D8093B00008953FB7F894809186
:101BB000570590915805A0915905B0915A0526B541
:101BC000A89B05C02F3F19F00196A11DB11D3FBF75
:101BD000BA2FA92F982F8827820F911DA11DB11D03
:101BE000BC01CD0142E0660F771F881F991F4A95FF
:101BF000D1F70895382F2091B5059091B405213281
:101C000008F049C0809191058111FCCF42E04093DA
:101C10009105309390053FEF30938F0510928E051C
:101C200020938D05A4E9B5E04DE655E0FA013E2F7D
:101C3000341B321718F43D913193F9CF10926C0593
:101C400020916C05990F922B90936C0590916B05E8
:101C5000913061F410926B0590916C059093BB00EC
:101C60009091BC0093FDF8CF95EC01C095EE909358
:101C7000BC00909191059230E1F390918F059F3FC8
:101C800079F080918F05803241F080918F0580330B
:101C900031F084E005C081E003C082E001C083E050
:101CA000109293051092B505109292050895682F31
:101CB00082E696E00C94A705CF93C62F9091D606A6
:101CC00021E0209392059093B40510929305109211
:101CD000B505682F82E696E00E94A7056C2F82E684
:101CE00096E00E94A70581E0CF910C94FA0DCF9366
:101CF000C82F462F61E070E00E94570661E070E057
:101D00008C2F0E9461068111F9CFCF910895AF9277
:101D1000BF92CF92DF92EF92FF920F931F93CF93D8
:101D2000DF9300D0CDB7DEB77A836983BA01A9010A
:101D3000E981FA81F770082F10E0000F111F0D598B
:101D40001A4FD8018D919C918E0F9F1F2E0F3F1F10
:101D50002130384098F07A015B0120E038E06901D9
:101D6000CE1ADF0AA6010E94D605A7014C195D090B
:101D7000B5016C0D7D1DF801808191810F900F9050
:101D8000DF91CF911F910F91FF90EF90DF90CF9057
:101D9000BF90AF900C94D605CF93DF93282F30E0FF
:101DA000F901E458FF4F8491F901E656FF4FD491B1
:101DB000F901E255FF4FC491CC2391F081110E94AB
:101DC000AC0DEC2FF0E0EE0FFF1FEE58FF4FA5918A
:101DD000B491EC91ED2381E090E021F480E002C029
:101DE00080E090E0DF91CF9108951F93CF93DF9330
:101DF000282F30E0F901E458FF4F8491F901E656AD
:101E0000FF4FD491F901E255FF4FC491CC23C9F0A3
:101E1000162F81110E94AC0DEC2FF0E0EE0FFF1F8A
:101E2000E859FF4FA591B4918FB7F894111105C0EF
:101E30009C91ED2FE095E92302C0EC91ED2BEC9302
:101E40008FBFDF91CF911F910895CF93DF9390E0E3
:101E5000FC01E656FF4F2491FC01E255FF4F8491AF
:101E6000882361F190E0880F991FFC01E057FF4F34
:101E7000C591D491FC01E859FF4FA591B49161112E
:101E800009C09FB7F8948881209582238883EC91BC
:101E90002E230BC0623061F49FB7F8943881822FF3
:101EA000809583238883EC912E2B2C939FBF06C0B3
:101EB0008FB7F894E8812E2B28838FBFDF91CF91C5
:101EC00008958F929F92AF92BF92CF92DF92EF923E
:101ED000FF926B017C010E94D50D4B015C01C11486
:101EE000D104E104F104F1F00E94D50DDC01CB0135
:101EF00088199909AA09BB09883E9340A105B10533
:101F000070F321E0C21AD108E108F10888EE880ECA
:101F100083E0981EA11CB11CC114D104E104F1049A
:101F200019F7DDCFFF90EF90DF90CF90BF90AF908B
:101F30009F908F900895CF92DF92EF92FF920F9330
:101F40001F93CF93DF93CDB7DEB7C254D1090FB63D
:101F5000F894DEBF0FBECDBFFC0182819381A481C6
:101F6000B58123968CAF9DAFAEAFBFAF239721E075
:101F700023962FAF239723964CAD5DAD6EAD7FAD0D
:101F800023974BAB5CAB6DAB7EAB89AF9AAFABAF7E
:101F9000BCAF8DA79EA7AFA7B8AB28AB4DA55EA5DC
:101FA0006FA578A94FA358A769A77AA72EAB4BA90D
:101FB0005CA96DA97EA949A35AA36BA37CA38B8FAF
:101FC0009C8FAD8FBE8F44EA51E05C8B4B8B3FEF13
:101FD0003D8B3E8B3F8B188E5E874D872AA7CFA007
:101FE000D8A4E9A4FAA4CF86D88AE98AFA8A2CA3CD
:101FF00009A11AA12BA13CA109871A872B873C872D
:102000005A8349838B839C83AD83BE836CE271E0EA
:1020100080E090E00E94610F1FB7F8948091B605B0
:10202000811127C0E8EBF0E08491E4EAF0E09491BC
:10203000E82FF0E0EE0FFF1FE057FF4FA591B4919E
:10204000EC91E92321F461E08AE00E94F50E61E061
:102050008AE00E94250F8CB580618CBD8CB58064B0
:102060008CBD61E08DE00E94250F61E08BE00E9455
:10207000250F8091B6058F5F8093B6051FBF229A0A
:1020800080E590E00E94B80660E880E090E00E9461
:10209000350665E58BE190E00E94350665E58AE14D
:1020A00090E00E9435060E94B70680E090E490938D
:1020B0005C0580935B0580E090E6909364058093D7
:1020C000630580E098E490935E0580935D0580E071
:1020D00098E6909366058093650580E090E590937F
:1020E000600580935F0580E090E79093680580939A
:1020F000670580E098E5909362058093610580E034
:1021000098E790936A058093690580E590E00E94C6
:10211000B80646E050E06AE071E089E090E00E9495
:10212000060644E050E0BE016D5F7F4F8FE090E017
:102130000E94060644E050E0BE01615F7F4F81E0EF
:1021400090E00E94060644E050E0BE016B5E7F4FC7
:1021500085E090E00E9406060E94B70681E08C8729
:1021600089859A85AB85BC858093560690935706E2
:10217000A0935806B0935906CE5BDF4F0FB6F89484
:10218000DEBF0FBECDBFDF91CF911F910F91FF90AA
:10219000EF90DF90CF9008952FB7F894609153059A
:1021A0007091540580915505909156052FBF089563
:1021B0001F920F920FB60F9211242F933F938F937C
:1021C0009F93AF93BF938091530590915405A09135
:1021D0005505B09156053091250723E0230F2D3783
:1021E00020F40196A11DB11D05C026E8230F02961B
:1021F000A11DB11D2093250780935305909354058D
:10220000A0935505B09356058091570590915805B8
:10221000A0915905B0915A050196A11DB11D809359
:10222000570590935805A0935905B0935A05BF914F
:10223000AF919F918F913F912F910F900FBE0F9073
:102240001F901895CF93DF93CDB7DEB7AC970FB63D
:10225000F894DEBF0FBECDBF789484B5826084BD94
:1022600084B5816084BD85B5826085BD85B581609A
:1022700085BD80916E00816080936E001092810018
:1022800080918100826080938100809181008160D3
:102290008093810080918000816080938000809194
:1022A000B10084608093B1008091B0008160809320
:1022B000B00080917A00846080937A0080917A00E7
:1022C000826080937A0080917A00816080937A00A6
:1022D00080917A00806880937A001092C100E0912A
:1022E000C705F091C80582E08083E091C305F091B5
:1022F000C4051082E091C505F091C6058FEC80837E
:102300001092CF05E091CB05F091CC0586E080835B
:10231000E091C905F091CA05808180618083E091D8
:10232000C905F091CA05808188608083E091C90564
:10233000F091CA05808180688083E091C905F091A1
:10234000CA0580818F7D80836CEA71E087EB95E020
:102350000E94A80C0E942D0969EB71E087EB95E0C3
:102360000E94A80C10929B0410929A04109293055C
:102370001092B5050E940F09109293051092B505B1
:102380000E940F0960E080E00E945C0E80E496E00D
:1023900090939D0680939C068091D60691E0909341
:1023A00092058093B405109293051092B50560E0F4
:1023B00082E696E00E94A70581E00E94FA0D8091D6
:1023C000D606909191059111FCCF91E090939105E3
:1023D000909390052FEF20938F0510928E05109209
:1023E0008D0590936C0590916C05880F892B8093D7
:1023F0006C0580916B05813061F410926B058091C2
:102400006C058093BB008091BC0083FDF8CF85EC08
:1024100001C085EE8093BC00809191058130E1F38D
:1024200080918E05811103C080918E0501C081E0ED
:10243000ADE6B5E02AE734E0F9019E2F921B98172C
:1024400018F49D919193F9CF10929B0480939A0474
:1024500082E696E00E942905182F682F6F7660614A
:1024600080E00E945C0E63E08EEF0E945C0E612FA4
:1024700080E00E945C0E65E070E080E090E00E94E9
:10248000610F612F616A80E00E945C0E10E020E025
:1024900030E040E050E0612F86ED96E00E94140DA0
:1024A0001F5F1031A1F760E083E00E94250F60E01C
:1024B00084E00E94250F60E087E00E94250F60E025
:1024C00088E00E94250F0E94CC100E944E19609354
:1024D000A4047093A5048093A6049093A70410927B
:1024E000A0041092A1041092A2041092A3041092CE
:1024F0009C0410929D0410929E0410929F0464ED1F
:1025000071E087EB95E00E94A80C6FEF8091970631
:10251000909198060E94680D6FEF809195069091BA
:1025200096060E94680D809100019091010101972B
:1025300081F462E080919706909198060E94750D53
:102540000E942D096EE170E080E090E00E94610F32
:10255000EACF6CEE71E087EB95E00E94A80C0E9438
:10256000CC106B017C016093C0047093C104809314
:10257000C2049093C30480910401909105010197D6
:1025800079F480919706909198060E944F0D0E94D1
:102590002D096EE170E080E090E00E94610FEBCFCA
:1025A0000E94CC10DC01CB018C199D09AE09BF093A
:1025B0008093C0049093C104A093C204B093C30459
:1025C0006DEF71E087EB95E00E94A80C4091C0048C
:1025D0005091C1046091C2047091C3042AE087EB5A
:1025E00095E00E94150C0E94CC106B017C01609359
:1025F000B0047093B1048093B2049093B3048091BB
:10260000000190910101019781F462E080919706A9
:10261000909198060E94750D0E942D096EE170E060
:1026200080E090E00E94610FEACF0E94CC10DC01B4
:10263000CB018C199D09AE09BF098093B00490931A
:10264000B104A093B204B093B3046CE172E087EBE1
:1026500095E00E94A80C4091B0045091B1046091A3
:10266000B2047091B3042AE087EB95E00E94150C48
:1026700064E080919706909198060E94750D60E045
:1026800080919706909198060E94680D6CE372E025
:1026900087EB95E00E94A80C8091020190910301C4
:1026A000019781F462E080919506909196060E94D0
:1026B000750D0E942D096EE170E080E090E00E94AF
:1026C000610FEACF0E94CC106B017C016093C404BF
:1026D0007093C5048093C6049093C704809106014B
:1026E00090910701019779F4809195069091960653
:1026F0000E944F0D0E942D096EE170E080E090E095
:102700000E94610FEBCF0E94CC10DC01CB018C1931
:102710009D09AE09BF098093C4049093C504A0939A
:10272000C604B093C7046BE572E087EB95E00E94A6
:10273000A80C4091C4045091C5046091C6047091E6
:10274000C7042AE087EB95E00E94150C0E94CC108C
:102750006B017C016093B4047093B5048093B6045C
:102760009093B70420910201309103018091950666
:10277000909196062130310561F462E00E94750D5A
:102780000E942D096EE170E080E090E00E94610FF0
:10279000E9CF64E00E94750D60E08091950690910C
:1027A00096060E94680D0E94CC10DC01CB018C19AA
:1027B0009D09AE09BF098093B4049093B504A0931A
:1027C000B604B093B7046AE772E087EB95E00E9425
:1027D000A80C4091B4045091B5046091B604709176
:1027E000B7042AE087EB95E00E94150C6AE972E0D5
:1027F00087EB95E00E94A80C81E08093DC0468EAF6
:1028000072E087EB95E00E94A80C34EAE32E31E0F9
:10281000F32EFA82E9828091760690917706A09154
:102820007806B09179068B839C83AD83BE838E013D
:102830000F5F1F4FC8010E949B0F68EB72E28AE78F
:1028400096E00E94F001FA82E9821B821C821D82BE
:102850001E8280E590E00E94B80644E050E0BE0190
:102860006D5F7F4F8FE090E00E94D6050E94B70613
:1028700067EB75E0C8010E945E0C6CEB72E087EBC1
:1028800095E00E94000C6FEB72E087EB95E00E94F0
:10289000A80C412C512C40E8642E4EE3742E0E946B
:1028A0002D098AE796E00E948A0B8C0118161906FA
:1028B0000CF03EC18091700690917106A091720655
:1028C000B0917306892B8A2B8B2BA1F480918A06F9
:1028D00090918B06A0918C06B0918D068B839C8382
:1028E000AD83BE838093700690937106A0937206A9
:1028F000B0937306E12CF12C01501109B8F02BE0D4
:10290000E216F104CCF78AE796E00E94610BF7012A
:10291000EE0FFF1FA1E0B0E0AC0FBD1FEA0FFB1FE1
:1029200091838083BFEFEB1AFB0AE6CF89819A81FE
:102930000197B1F48091DA048111FAC081E08093AB
:10294000DA0465ED72E087EB95E00E94A80C109226
:10295000C8041092C9041092CA041092CB04E8C0B3
:102960008B819C810197B1F48091DA048111E0C0E0
:1029700081E08093DA046EEF72E087EB95E00E94CD
:10298000A80C4092C8045092C9046092CA04709284
:10299000CB04CEC08D819E81019791F48091DA04A1
:1029A0008111C6C081E08093DA0468E273E087EBAE
:1029B00095E00E94A80C80E090E0A0E0BFE315C085
:1029C0008F8198850197D1F48091DA048111B0C08C
:1029D00081E08093DA0462E573E087EB95E00E9482
:1029E000A80C80E090E0A0E4BFE38093C80490933B
:1029F000C904A093CA04B093CB049AC089859A8570
:102A0000019791F48091DA04811192C081E0809362
:102A1000DA046CE773E087EB95E00E94A80C80E095
:102A200090E0A0E8BFE3E1CF8B859C850197B1F4EE
:102A30008091DB0481117CC081E08093DB0467EA34
:102A400073E087EB95E00E94A80C1092CC041092E2
:102A5000CD041092CE041092CF046AC08D859E855D
:102A60000197B1F48091DB04811162C081E0809311
:102A7000DB0460ED73E087EB95E00E94A80C4092C8
:102A8000CC045092CD046092CE047092CF0450C01A
:102A90008F859889019791F48091DB04811148C05A
:102AA00081E08093DB046AEF73E087EB95E00E949E
:102AB000A80C80E090E0A0E0BFE32BC089899A8950
:102AC000019791F48091DB04811132C081E0809301
:102AD000DB0464E274E087EB95E00E94A80C80E0E0
:102AE00090E0A0E4BFE315C08B899C890197D1F4E5
:102AF0008091DB0481111CC081E08093DB046EE4D3
:102B000074E087EB95E00E94A80C80E090E0A0E8DC
:102B1000BFE38093CC049093CD04A093CE04B093F4
:102B2000CF0406C08D899E89019711F40C94000092
:102B3000A8EAB4E0BAA3A9A3E8EDF4E0FC8FEB8F18
:102B40002AED34E0388F2F8B88EC94E098A38F8F98
:102B5000A0EDB4E0BE8FAD8FE0E0F1E0FEA3EDA309
:102B600024E031E038A72FA388EB94E09A8F898F77
:102B700088E0282E81E0382E1CA21BA200E010E085
:102B80008091DC04882309F419C1AF89B88D8C9138
:102B9000882309F413C1EB8DFC8D808181117EC0E7
:102BA00064E080919706909198060E94750D60E010
:102BB00080919506909196060E94680DAD8DBE8D10
:102BC000CD90DD90ED90FC90EF8DF8A1808091800C
:102BD000A280B380A5019401C701B6010E944919E2
:102BE00087FF08C0E1E0D101EC93A7019601C50180
:102BF000B40106C0D1011C92A5019401C701B60120
:102C00000E94C61A9B01AC01F1018081EBA1FCA1DD
:102C10008823E1F0E054FB4F6081718182819381D0
:102C200029A73AA74BA75CA70E944E1929A53AA548
:102C30004BA55CA50E94AF190E94331BA98DBA8DCC
:102C40006D937D938D939C9313971AC0E055FB4F22
:102C5000608171818281938129A73AA74BA75CA7E4
:102C60000E944E1929A53AA54BA55CA50E94AF1953
:102C70000E94331BE98DFA8D608371838283938375
:102C80000E94CC10A9A1BAA16D937D938D939C93C2
:102C9000139721E0EB8DFC8D2083BFC00E94CC10E8
:102CA000A9A1BAA1CD90DD90ED90FC906C197D09A1
:102CB0008E099F090E944E196B017C01F1018081F0
:102CC0008823E1F06FEF0115110559F48091970603
:102CD000909198060E94680D8091970690919806B1
:102CE0000AC080919506909196060E94680D809189
:102CF0009506909196060E944F0D20C00115110572
:102D000079F46FEF80919706909198060E94680D74
:102D100062E080919706909198060E94750D0EC012
:102D200062E080919506909196060E94750D6FEF76
:102D300080919506909196060E94680DA98DBA8D96
:102D40006D917D918D919C910E944E199B01AC01DA
:102D5000C701B6010E94621B87FD5FC064E00115D8
:102D6000110561F480919706909198060E94750D67
:102D700060E080919706909198060BC0809195062F
:102D8000909196060E94750D60E080919506909155
:102D900096060E94680DEB8DFC8D1082AF89B88D70
:102DA0001C92EF8DF8A180819181A281B381ED8D7C
:102DB000FE8D80839183A283B3832FC0AF89B88DAA
:102DC0008C9181112AC0EFA1F8A580819181892B76
:102DD000F1F464E00115110561F48091970690917A
:102DE00098060E94750D60E0809197069091980674
:102DF0000BC080919506909196060E94750D60E03B
:102E000080919506909196060E94680D06C0ADA12E
:102E1000BEA18D919C91892BE1F2E9A1FAA1349692
:102E2000FAA3E9A32BA13CA12C5F3F4F3CA32BA30A
:102E30008B8D9C8D01969C8F8B8FAF89B88D119651
:102E4000B88FAF8BEF8DF8A13496F8A3EF8F2D8D4F
:102E50003E8D2C5F3F4F3E8F2D8F8DA19EA1029600
:102E60009EA38DA3AFA1B8A51296B8A7AFA3E98D75
:102E7000FA8D3496FA8FE98FFFEF2F1A3F0A01304F
:102E8000110519F001E010E07BCE0E947D0A07CD0C
:102E90008091D7069091D8060C94021C84EA91E0A8
:102EA0009093E4068093E3061092E5061092E606FE
:102EB0001092E7061092E8061092BA051092B90532
:102EC00048EE53E060E070E04093BB055093BC05D2
:102ED0006093BD057093BE0520E231E03093B805E4
:102EE0002093B70525EC30E03093C4052093C3054B
:102EF00024EC30E03093C6052093C50520EC30E08B
:102F00003093C8052093C70521EC30E03093CA0503
:102F10002093C90522EC30E03093CC052093CB05FB
:102F200026EC30E03093CE052093CD051092D005ED
:102F30001092D1051092D2051092D3059093EA0613
:102F40008093E9061092EB061092EC061092ED06C3
:102F50001092EE069093F0068093EF061092F10621
:102F60001092F2061092F3061092F4069093F60671
:102F70008093F5061092F7061092F8061092F90663
:102F80001092FA069093FC068093FB061092FD06C1
:102F90001092FE061092FF061092000790935506BD
:102FA00080935406109256061092570610925806B7
:102FB0001092590690935D0680935C0610925E060F
:102FC00010925F06109260061092610690930207BD
:102FD00080930107109203071092040710920507CF
:102FE000109206079093080780930707109209072D
:102FF00010920A0710920B0710920C0790930E077D
:1030000080930D0710920F0710921007109211076E
:1030100010921207909314078093130710921507CC
:1030200010921607109217071092180790931A071C
:103030008093190710921B0710921C0710921D070E
:1030400010921E079093200780931F07109221076C
:1030500010922207109223071092240710926506FF
:103060001092640640936606509367066093680664
:103070007093690620E331E0309363062093620683
:103080009093DE068093DD061092DF061092E00634
:103090001092E1061092E2061092D8061092D7061E
:1030A0001092DA061092D9061092DC061092DB0616
:1030B00061E070E080E090E00E949A1C009791F03F
:1030C0009093D8068093D7061092DA061092D9060C
:1030D0002091DB063091DC06232B09F0D1C0FC01E6
:1030E0001082CEC08091D7069091D806009711F03B
:1030F0000E94021C1092D8061092D7061092DC068D
:103100001092DB061092DA061092D906E0EAF6E099
:103110001282118213821082DF0111971C92119783
:103120001C92369686E0E83BF80791F71092C206AB
:103130001092C5061092C1061092C0061092D206D7
:103140001092D5061092D1061092D00680E6809398
:103150009B068093D6068091A306811111C0109220
:10316000A3068BE996E09093A2068093A10688E0DF
:1031700080939E068AE080939F0689E08093A00654
:103180008EE996E090939A06809399068091AF0617
:10319000811111C082E08093AF062BE936E03093B5
:1031A000AE062093AD068093AA0684E08093AB061A
:1031B00083E08093AC068AEA96E090939806809329
:1031C00097068091A906811112C081E08093A9061B
:1031D0008BE996E09093A8068093A7068DE08093F4
:1031E000A4068BE08093A5068CE08093A60684EA73
:1031F00096E0909396068093950610927D06109225
:103200007C0688EE93E0A0E0B0E080937E06909389
:103210007F06A0938006B09381068EE791E090939D
:103220007B0680937A0684EA91E0909389068093E6
:10323000880610928A0610928B0610928C061092C5
:103240008D0624E020939206909375068093740671
:1032500020EC2093760628EA2093770610927806D1
:103260002BE92093790690936F0680936E06109257
:1032700070061092710610927206109273060895ED
:103280001092DC061092DB066EEB72E00E94721D5B
:103290003DCF0E948B1908F481E00895E89409C09D
:1032A00097FB3EF490958095709561957F4F8F4F79
:1032B0009F4F9923A9F0F92F96E9BB279395F6958F
:1032C000879577956795B795F111F8CFFAF4BB0F0D
:1032D00011F460FF1BC06F5F7F4F8F4F9F4F16C071
:1032E000882311F096E911C0772321F09EE8872FFB
:1032F000762F05C0662371F096E8862F70E060E0B7
:103300002AF09A95660F771F881FDAF7880F96952F
:10331000879597F90895990F0008550FAA0BE0E8D3
:10332000FEEF16161706E807F907C0F01216130687
:10333000E407F50798F0621B730B840B950B39F4C7
:103340000A2661F0232B242B252B21F408950A262D
:1033500009F4A140A6958FEF811D811D08950E945B
:10336000C2190C94331A0E94251A38F00E942C1AA4
:1033700020F0952311F00C941C1A0C94221A11249D
:103380000C94671A0E94441A70F3959FC1F3950F2D
:1033900050E0551F629FF001729FBB27F00DB11DD9
:1033A000639FAA27F00DB11DAA1F649F6627B00D69
:1033B000A11D661F829F2227B00DA11D621F739F52
:1033C000B00DA11D621F839FA00D611D221F749F60
:1033D0003327A00D611D231F849F600D211D822FA7
:1033E000762F6A2F11249F5750409AF0F1F08823CE
:1033F0004AF0EE0FFF1FBB1F661F771F881F9150FB
:103400005040A9F79E3F510580F00C941C1A0C9473
:10341000671A5F3FE4F3983ED4F3869577956795F6
:10342000B795F795E7959F5FC1F7FE2B880F911D24
:103430009695879597F9089597F99F6780E870E0CA
:1034400060E008959FEF80EC089500240A9416161A
:10345000170618060906089500240A941216130682
:10346000140605060895092E0394000C11F4882310
:1034700052F0BB0F40F4BF2B11F460FF04C06F5F2C
:103480007F4F8F4F9F4F089557FD9058440F551F02
:1034900059F05F3F71F04795880F97FB991F61F0D6
:1034A0009F3F79F087950895121613061406551F4D
:1034B000F2CF4695F1DF08C0161617061806991FB9
:1034C000F1CF86957105610508940895E894BB27AE
:1034D00066277727CB0197F908952F923F924F9255
:1034E0005F926F927F928F929F92AF92BF92CF9294
:1034F000DF92EF92FF920F931F93CF93DF93CDB79D
:10350000DEB7CA1BDB0B0FB6F894DEBF0FBECDBF14
:1035100009942A88398848885F846E847D848C84E5
:103520009B84AA84B984C884DF80EE80FD800C81EE
:103530001B81AA81B981CE0FD11D0FB6F894DEBFD1
:103540000FBECDBFED010895A1E21A2EAA1BBB1B31
:10355000FD010DC0AA1FBB1FEE1FFF1FA217B3075F
:10356000E407F50720F0A21BB30BE40BF50B661F75
:10357000771F881F991F1A9469F760957095809539
:1035800090959B01AC01BD01CF0108955058BB2718
:10359000AA270E94DE1A0C94331A0E94251A38F0CA
:1035A0000E942C1A20F039F49F3F19F426F40C9451
:1035B000221A0EF4E095E7FB0C941C1AE92F0E94E6
:1035C000441A58F3BA17620773078407950720F067
:1035D00079F4A6F50C94661A0EF4E0950B2EBA2F2A
:1035E000A02D0B01B90190010C01CA01A001112409
:1035F000FF27591B99F0593F50F4503E68F11A16B5
:10360000F040A22F232F342F4427585FF3CF469545
:1036100037952795A795F0405395C9F77EF41F1667
:10362000BA0B620B730B840BBAF09150A1F0FF0F31
:10363000BB1F661F771F881FC2F70EC0BA0F621F1D
:10364000731F841F48F4879577956795B795F7950D
:103650009E3F08F0B0CF9395880F08F09927EE0FA2
:103660009795879508950E944C1A88F09F5798F077
:10367000B92F9927B751B0F0E1F0660F771F881F77
:10368000991F1AF0BA95C9F714C0B13091F00E9491
:10369000661AB1E008950C94661A672F782F882770
:1036A000B85F39F0B93FCCF3869577956795B395B8
:1036B000D9F73EF490958095709561957F4F8F4F27
:1036C0009F4F08950E948B1908F48FEF0895EE0F15
:1036D000FF1F0590F491E02D0994CF93DF93823082
:1036E000910510F482E090E0E0912807F09129071D
:1036F00020E030E0C0E0D0E0309711F1408151810E
:1037000048175907C0F04817590761F4828193811F
:10371000209719F09B838A832BC09093290780936D
:10372000280726C02115310519F04217530718F450
:103730009A01BE01DF01EF010280F381E02DDCCFB1
:103740002115310509F1281B390B2430310590F47E
:1037500012968D919C9113976115710521F0FB01D3
:103760009383828304C09093290780932807FD01E7
:10377000329644C0FD01E20FF31F819391932250D2
:1037800031092D933C933AC02091260730912707A9
:10379000232B41F42091120130911301309327071C
:1037A0002093260720911001309111012115310538
:1037B00041F42DB73EB74091140150911501241BDF
:1037C000350BE0912607F0912707E217F307A0F4E5
:1037D0002E1B3F0B2817390778F0AC014E5F5F4F67
:1037E0002417350748F04E0F5F1F5093270740936B
:1037F00026078193919302C0E0E0F0E0CF01DF91D2
:10380000CF9108950F931F93CF93DF93009709F4FF
:103810008CC0FC013297138212820091280710910C
:1038200029070115110581F420813181820F931F31
:1038300020912607309127072817390779F5F0934B
:103840002707E093260771C0D80140E050E0AE178B
:10385000BF0750F412962D913C911397AD0121159D
:10386000310509F1D901F3CF9D01DA0133832283B8
:1038700060817181860F971F8217930769F4EC01AD
:1038800028813981260F371F2E5F3F4F31832083D8
:103890008A819B8193838283452B29F4F0932907A6
:1038A000E093280742C01396FC93EE931297ED0124
:1038B000499159919E01240F351FE217F30771F4C6
:1038C00080819181840F951F029611969C938E930F
:1038D0008281938113969C938E931297E0E0F0E09F
:1038E000D80112968D919C911397009719F0F801C9
:1038F0008C01F6CF8D919C9198012E5F3F4F820FE6
:10390000931F20912607309127072817390769F45C
:10391000309729F4109229071092280702C01382C9
:1039200012821093270700932607DF91CF911F91F2
:103930000F910895A0E0B0E0E0EAFCE10C94711A68
:10394000EC01009721F4CB010E946D1BB8C0FC0173
:10395000E60FF71F9C0122503109E217F30708F424
:10396000ACC0D9010D911C91119706171707B0F043
:103970000530110508F49FC0C80104978617970702
:1039800008F499C002501109061B170B01931193FB
:103990006D937C93CF010E94021C8DC05B01A01A25
:1039A000B10A4C01800E911EA0912807B091290701
:1039B00040E050E0E12CF12C109709F44AC0A81522
:1039C000B905D1F56D907C901197630182E0C80E26
:1039D000D11CCA14DB0480F1A3014A195B096A01F6
:1039E00082E0C80ED11C1296BC9012971396AC912F
:1039F000B5E0CB16D10440F0B282A383518340835B
:103A0000D9016D937C930AC00E5F1F4FC301800FD5
:103A1000911FF90191838083EB2DFA2FE114F104BA
:103A200031F0D7011396FC93EE93129744C0F093B4
:103A30002907E09328073FC08D919C911197481763
:103A4000590708F4AC017D0112960D90BC91A02D90
:103A5000B3CF809126079091270788159905E1F447
:103A600046175707C8F480911001909111010097F3
:103A700041F48DB79EB74091140150911501841BFC
:103A8000950BE817F907C8F4F0932707E09326078A
:103A9000F901718360830FC0CB010E946D1B7C0113
:103AA000009759F0A801BE010E94691DCE010E9435
:103AB000021CC70104C0CE0102C080E090E0CDB777
:103AC000DEB7EEE00C948D1A81E090E0F8940C944F
:103AD000791DFB01DC0102C001900D924150504064
:103AE000D8F70895FB01DC0101900D920020E1F769
:103AF000089510E0C2E6D0E004C0FE010E94671BFA
:0C3B00002196C336D107C9F7F894FFCF17
:103B0C0001000100010001000101DEADBEEFFEED80
:103B1C0000002A07800001005E0000000000000089
:103B2C00140A9009DD09BB09CF095B0A00000000EB
:103B3C00A70577053D0529051A05190500000000A4
:103B4C00880A880A880A880A880A880A880A100556
:103B5C00880A880A880A880A880A880A880A880AC9
:103B6C00880A00000000880A9009880A880A880AD6
:103B7C00880A00000000880A9009000000008D00EF
:103B8C00C200A300610B0B0B870AF0018A0ADB0150
:103B9C005F013102A3018A0B420BBB00AB00A700F3
:103BAC00000000005E0C00000000880A536572697A
:103BBC00616C20736574757000496E697469616C11
:103BCC0069736174696F6E20646573206D6F7465C1
:103BDC007572730044656275742064752073657426
:103BEC0075702070617570696572650053544F5023
:103BFC002048415554204143544956450054656D65
:103C0C00707320616C6C657220706175706965727F
:103C1C006520676175636865203A200054656D7096
:103C2C0073207265746F757220706175706965723E
:103C3C006520676175636865203A2000446562758C
:103C4C00742064752073657475702070617570696B
:103C5C006572652064726F6974650054656D70736C
:103C6C0020616C6C6572207061757069657265207D
:103C7C0064726F697465203A200054656D7073200E
:103C8C007265746F757220706175706965726520EC
:103C9C0064726F697465203A2000536574757020E6
:103CAC007465726D696E6500436F6E6E6578696FD1
:103CBC006E20617520726573656175000D0A005286
:103CCC006563657074696F6E204F53432061637434
:103CDC0069766565004368616E67656D656E742015
:103CEC00706F736974696F6E20706175706965723D
:103CFC00652067617563686520746F2030004368C8
:103D0C00616E67656D656E7420706F736974696F31
:103D1C006E20706175706965726520676175636886
:103D2C006520746F203235004368616E67656D6580
:103D3C006E7420706F736974696F6E20706175702A
:103D4C00696572652067617563686520746F2035DD
:103D5C0030004368616E67656D656E7420706F73BB
:103D6C006974696F6E207061757069657265206722
:103D7C00617563686520746F203735004368616E28
:103D8C0067656D656E7420706F736974696F6E20F2
:103D9C00706175706965726520676175636865200F
:103DAC00746F20313030004368616E67656D656EED
:103DBC007420706F736974696F6E207061757069AF
:103DCC006572652064726F69746520746F203000B1
:103DDC004368616E67656D656E7420706F7369748E
:103DEC00696F6E2070617570696572652064726FA1
:103DFC0069746520746F203235004368616E6765A5
:103E0C006D656E7420706F736974696F6E2070616C
:103E1C007570696572652064726F69746520746F62
:103E2C00203530004368616E67656D656E74207077
:103E3C006F736974696F6E207061757069657265F6
:103E4C002064726F69746520746F20373500436885
:103E5C00616E67656D656E7420706F736974696FE0
:103E6C006E2070617570696572652064726F69741B
:0A3E7C006520746F20313030000023
:00000001FF
