:100000000C9465000C948D000C948D000C948D0064
:100010000C948D000C948D000C948D000C948D002C
:100020000C948D000C948D000C948D000C942E0576
:100030000C948D000C948D000C948D000C948D000C
:100040000C948F150C948D000C940B150C94E514E6
:100050000C948D000C948D000C948D000C948D00EC
:100060000C948A060C948D005E1867187A18831811
:10007000C6187519471C00000000250028002B0039
:100080000000000800020100000304070000000057
:100090000000000000000000240027002A000102E8
:1000A0000408102040800102040810200102040806
:1000B00010200404040404040404020202020202E4
:1000C000030303030303531DD91511241FBECFEFF0
:1000D000D8E0DEBFCDBF16E0A0E0B1E0EAE7F5E48E
:1000E00002C005900D92AC31B107D9F728E0ACE120
:1000F000B6E001C01D92AE35B207E1F710E0C4E6EC
:10010000D0E004C02197FE010E948720C336D107AA
:10011000C9F70E94DF150C94B0220C940000CF9315
:10012000DF93FC018181813221F0319681E090E002
:1001300003C0329680E090E0AC0121E042272081AC
:100140002D3591F0222381F0A181EB013881AD3270
:1001500039F432171CF0228123173CF43396EFCF89
:10016000231719F03196EBCFCA01DF91CF91089593
:1001700080E0089508958FEF9FEF08958FEF9FEF30
:1001800008958091A10690E0919581959109089537
:1001900085ED8093BC008091BC0084FDFCCF109263
:1001A0007B06089540915506262F30E0240F311D1F
:1001B00021323105DCF420917B062430C9F4FC01A6
:1001C00080E090E0861758F4309155062191DC01CB
:1001D000AD5CB94FA30FB11D2C930196F3CF809165
:1001E0005506680F6093550680E0089581E00895F4
:1001F00082E00895CF93DF9300D0CDB7DEB7CB0177
:10020000642F49835A830E94D2004981842F5A81E6
:10021000952F0F900F90DF91CF910895CF93DF939B
:100220001F92CDB7DEB7698361E0CE0101960E94CF
:10023000D20081E090E00F90DF91CF910895EF928E
:10024000FF920F931F93CF93DF937B010196FC01E5
:1002500020812D37E1F02223D1F02F32C1F08F0120
:1002600021912D3759F4E801C81BD90BAE01B70114
:100270000E94A222892B49F0C801E8CF222399F3DA
:100280002F3289F32C3259F7EECFCE0102C080E035
:1002900090E0DF91CF911F910F91FF90EF90089523
:1002A0006AEA71E08EEB96E00E94D11480E090E063
:1002B000A0E4BFE380932F0690933006A09331060D
:1002C000B0933206089564ED71E08EEB96E00E94E3
:1002D000D11480E090E0A0E0BFE380932F069093DC
:1002E0003006A0933106B093320608956EEF71E0A8
:1002F0008EEB96E00E94D11480E090E0A0E8BEE38F
:1003000080932F0690933006A0933106B093320667
:10031000089568E272E08EEB96E00E94D11410928C
:100320002F06109230061092310610923206089570
:1003300061E572E08EEB96E00E94D11480E090E0DF
:10034000A0E4BFE380932B0690932C06A0932D0688
:10035000B0932E0608956BE772E08EEB96E00E9454
:10036000D11480E090E0A0E0BFE380932B0690934F
:100370002C06A0932D06B0932E06089565EA72E030
:100380008EEB96E00E94D11480E090E0A0E8BEE3FE
:1003900080932B0690932C06A0932D06B0932E06E7
:1003A00008956FEC72E08EEB96E00E94D1141092EB
:1003B0002B0610922C0610922D0610922E060895F0
:1003C000CF93DF93EC0168EF72E08EEB96E00E9432
:1003D000D114CE010E94B40C8823C1F0CE010E943A
:1003E0003D150E9451209B01AC01A4EBB0E00E949E
:1003F000DE1F0E947A1F6093270670932806809361
:10040000290690932A06DF91CF91089564E173E065
:100410008EEB96E0DF91CF910C94D114CF93DF93C4
:10042000EC0160E573E08EEB96E00E94D114CE0102
:100430000E94B40C8823C1F0CE010E943D150E9499
:1004400051209B01AC01A4EBB0E00E94DE1F0E9492
:100450007A1F609323067093240680932506909359
:100460002606DF91CF9108956DE673E08EEB96E05E
:10047000DF91CF910C94D114CF93DF93EC016AEA12
:1004800073E08EEB96E00E94D114CE010E94B40C72
:10049000882371F0CE010E943D1560931F06709372
:1004A00020068093210690932206DF91CF91089534
:1004B00067EC73E08EEB96E0DF91CF910C94D11452
:1004C000CF93DF93EC0163E074E08EEB96E00E9443
:1004D000D114CE010E94B40C882361F0CE010E9499
:1004E0003D150E94512070931E0660931D06DF91FA
:1004F000CF91089569E174E08EEB96E0DF91CF91A2
:100500000C94D114CF93DF93EC010E94B40C882398
:10051000D9F0CE010E943D150E9451206130710535
:1005200021F481E080931C0602C010921C0668E44E
:1005300074E08EEB96E00E94D11480911C0690E04E
:10054000DF91CF910C94750C6CE574E08EEB96E026
:10055000DF91CF910C94D1149B0190E00496982FD9
:100560008827642F820F931F0C94E70B08958CBD8E
:100570009DBD0895CF93C82F80E590E00E94B702FB
:1005800060E170E08C2F0E94D00C4FEF62E070E0D1
:100590008C2FCF910C94AC02FF920F931F93CF93AB
:1005A000DF9300D0CDB7DEB7F82E8A012A836983A6
:1005B0000E94BA0280E590E00E94B7022A81698118
:1005C000462F422B60E070E08F2D0E94AC02011597
:1005D000110551F40091A3061091A4060F5F1F4F5F
:1005E0001093A4060093A306412F64E070E08F2DC2
:1005F0000E94AC02402F65E070E08F2D0E94AC029B
:1006000061E070E08F2D0E94D00C81E00F900F9080
:10061000DF91CF911F910F91FF900895CF93DF93BA
:1006200000D000D0CDB7DEB7DC011496FE013196C4
:10063000CE010596E817F90719F02E912193FACF0C
:1006400069817A818B819C810F900F900F900F9020
:10065000DF91CF910895CF93DF93EC0160E170E0DB
:100660008A859B850E94BA219B878A87892B29F0DE
:1006700080E190E09F878E8706C083E090E09F83B3
:100680008E831B861A861D861C86DF91CF91089566
:10069000EF92FF920F931F93CF93DF93EC017B01B7
:1006A000888199810E942221F70101900020E9F7B9
:1006B000CF018E199F090E948D208C01009739F47B
:1006C00083E090E09F838E831982188205C0B70172
:1006D0000E949B2219830883CE01DF91CF911F9145
:1006E0000F91FF90EF900895FC0184819581681728
:1006F000790754F4660F771F0280F381E02DE60F2F
:10070000F71F80819181089584E090E0978386832C
:1007100080E090E00895EF92FF920F931F93CF93A4
:100720007C01C1E0FC0186819781892B09F4C0E03E
:1007300000E010E0F70184819581081719077CF427
:10074000B801C7010E947403FC0191E0208131814E
:10075000232B09F490E0C92B0F5F1F4FEBCF8C2F99
:10076000CF911F910F91FF90EF900895FC01208190
:100770002D3559F02CF42F3301F12B3561F015C0D4
:100780002B3789F02D3749F010C0FC0120812B3523
:1007900011F00197FACF0C948F00FC0120812B37C8
:1007A00011F00197FACF0C941F0181E090E0FB015A
:1007B0003081231721F080E0089581E090E00895D2
:1007C000EF92FF920F931F93CF93DF931F92CDB7BA
:1007D000DEB77C018B01B801F80181918F018F3266
:1007E00029F4F70180818F3221F436C0811110C0C5
:1007F000F8CF882389F18A3261F5F70181818F3240
:1008000059F131E020E0811130E0832F922F26C092
:10081000F7012081C7012A3231F401960E94E003DA
:10082000892BC9F219C029830E94B6032981009738
:10083000A9F02F7D2B3549F4970179012F5F3F4FA8
:10084000F70180818F7D8D35C1F7FFEFEF1AFF0A29
:10085000C2CF80E090E002C081E090E00F90DF9195
:10086000CF911F910F91FF90EF900895FC0182812D
:1008700093811816190664F4848195818337910554
:1008800021F4868197810C94222182369105C9F347
:100890000895EF92FF920F931F93CF93DF93EC0194
:1008A0001F821E8200E010E08C819D8108171907CD
:1008B0007CF4B801CE010E9474037C01009729F0FA
:1008C0000E943604C7010E9422210F5F1F4FECCF08
:1008D0008A819B810E9422211B821A821D821C8296
:1008E00019861886CE010E942B03DF91CF911F91AC
:1008F0000F91FF90EF9008954F925F926F927F92C9
:10090000AF92BF92CF92DF92EF92FF920F931F931D
:10091000CF93DF93CDB7DEB728970FB6F894DEBF3D
:100920000FBECDBFFC011182108282E690E095835C
:100930008483CA010496938382838A01052E000C66
:10094000220B330B0D831E832F8338878E010B5FA1
:100950001F4F9E01275F3F4FDE0111966D01A017CB
:10096000B10731F0D901FE909D01D601FD92F6CF7D
:1009700049805A806B807C804D825E826F8278864F
:1009800018161906E4F47A015B018F010E948D208C
:100990006C01009731F483E090E0F801918380834B
:1009A00010C0DC014D925D926D927D92CD01A70148
:1009B000B5010E948922F801D782C68202C017823F
:1009C000168228960FB6F894DEBF0FBECDBFDF911A
:1009D000CF911F910F91FF90EF90DF90CF90BF903C
:1009E000AF907F906F905F904F900895EF92FF923D
:1009F0000F931F93CF93DF9300D0CDB7DEB77C0169
:100A0000FC011182108283E790E095838483FB01CF
:100A100001900020E9F7CF01861B970BF701938324
:100A2000828369837A830E948D208C0169817A8117
:100A3000009731F483E090E0F7019183808305C053
:100A40000E949B22F701178306830F900F90DF917E
:100A5000CF911F910F91FF90EF9008951F920F92E9
:100A60000FB60F9211242F933F934F935F936F9381
:100A70007F938F939F93AF93BF93EF93FF93809157
:100A8000A20687FF05C010928500109284001BC04B
:100A90002091A206022E000C330B80918D0790E06E
:100AA0002817390784F48091A206082E000C990BB0
:100AB000FC01EE0FFF1F8E0F9F1FFC01E759F84F3F
:100AC000808186FD15C08091A2068F5F8093A2066B
:100AD0002091A206022E000C330B80918D0790E02E
:100AE00028173907C4F48091A2068C3064F113C032
:100AF0008091A206082E000C990BFC01EE0FFF1F3F
:100B00008E0F9F1FFC01E759F84F808160E08F73C3
:100B10000E944F0FD8CF8091840090918500049659
:100B200080349C4918F480E49CE905C080918400DD
:100B300090918500049690938900809388008FEFB0
:100B40008093A2063BC02091840030918500809163
:100B5000A206082E000C990BFC01EE0FFF1F8E0F52
:100B60009F1FFC01E759F84F81819281820F931FEB
:100B700090938900809388008091A206082E000C33
:100B8000990BFC01EE0FFF1F8E0F9F1FFC01E75911
:100B9000F84F808186FF12C08091A206082E000CBB
:100BA000990BFC01EE0FFF1F8E0F9F1FFC01E759F1
:100BB000F84F808161E08F730E944F0FFF91EF919A
:100BC000BF91AF919F918F917F916F915F914F9165
:100BD0003F912F910F900FBE0F901F9018958EBDD3
:100BE00000000DB407FEFDCF8EB508950F931F933F
:100BF000CF93DF931F92CDB7DEB790E00496982F86
:100C000088278C01060F171F0E9467088FE00E943B
:100C1000EF05812F0E94EF05802F0E94EF0580E0F5
:100C20000E94EF0589830E94650889810F90DF91FA
:100C3000CF911F910F910895AF92BF92DF92EF92E3
:100C4000FF920F931F93CF93DF93D82E7B018A01DE
:100C500080E590E00E94B702C0E0D0E08D2D0E94B8
:100C6000090C5C01892B21F08D2D0E94090CEC01EF
:100C7000CA15DB0599F7209799F463E070E08D2D94
:100C80000E94F6058431D9F18823C9F1C1E0D0E092
:100C90008C3111F4C0E0D0E0D195C195D1092FC0BD
:100CA0000C171D070CF4E8011C161D0644F568E23C
:100CB00070E08D2D0E94F605082F10E069E270E0CB
:100CC0008D2D0E94F605102F0027082B9E01A701ED
:100CD000B8018D2D0E940A0F0C0F1D1F412F68E2D5
:100CE00070E08D2D0E94AC02402F69E270E08D2DE6
:100CF0000E94AC0260E470E08D2D0E94D00CCE0109
:100D0000DF91CF911F910F91FF90EF90DF90BF90F7
:100D1000AF9008951F920F920FB60F9211242F9348
:100D20003F934F935F936F937F938F939F93AF9373
:100D3000BF93EF93FF938091B900887F803609F4C9
:100D40009CC068F5883209F45BC090F4803109F4E6
:100D500054C038F4882309F4F6C0883009F44DC033
:100D6000F6C0883109F44CC0803209F45DC0EFC090
:100D7000803409F468C048F4803309F455C08833DE
:100D800009F0E5C080937A06D8C0803509F44FC0D9
:100D9000883509F45DC0883409F0D9C0D6C08839D7
:100DA00009F4C7C0A8F4883709F467C038F4883656
:100DB00009F463C0803709F460C0C9C0883809F4F9
:100DC000B8C0803909F45FC0803809F0C0C05BC08A
:100DD000803B09F486C038F4803A09F466C0883A4A
:100DE00009F47FC0B4C0803C09F4A7C0883C09F472
:100DF000A4C0883B09F48AC0AAC08091A00610C094
:100E000090919F0680919E06981770F5E0919F063D
:100E100081E08E0F80939F06F0E0E258F94F8081C9
:100E20008093BB0085EC86C080937A068EC0E091EB
:100E30009F0681E08E0F80939F068091BB00F0E0BB
:100E4000E258F94F808390919F0680919E066EC074
:100E5000E0919F0681E08E0F80939F068091BB00FA
:100E6000F0E0E258F94F808380917D0681116DC0DA
:100E700081E080937C0684EA61C083E080937B06F6
:100E800010927906CFCF80917906803208F051C058
:100E9000E091790681E08E0F809379068091BB0006
:100EA000F0E0E75AF94F8083BDCF85EC8093BC001A
:100EB00010927B0680917906803230F4E0917906B9
:100EC000F0E0E75AF94F10826091790670E0E09106
:100ED0005706F091580689E596E009951092790633
:100EE00036C084E080937B06109256061092550619
:100EF000E0915306F09154060995809155068111B1
:100F000005C081E08093550610923306E0915606A5
:100F100081E08E0F80935606F0E0ED5CF94F808102
:100F20008093BB009091560680915506981708F45F
:100F300079CF85E88093BC000AC085EC8093BC0023
:100F400010927B0604C010927A060E94C800FF919E
:100F5000EF91BF91AF919F918F917F916F915F9131
:100F60004F913F912F910F900FBE0F901F901895AA
:100F7000FC01818D928D0895FC01848995890895E5
:100F800022EA31E0FC0131832083FB014089518951
:100F900062897389FC014283538364837583089556
:100FA000DC01ED91FC91028CF38DE02D0994CF933F
:100FB000FC01C08D80E590E00E94B70260E270E025
:100FC0008C2F0E94D00C62E070E08C2F0E94F605FE
:100FD00084FD19C062E070E08C2F0E94F60583FF4B
:100FE0000BC048E162E070E08C2F0E94AC020E94CE
:100FF000B60280E090E011C00E94B60280E590E069
:101000000E94B702E0CF40E162E070E08C2F0E94C6
:10101000AC020E94B60281E090E0CF910895CF9398
:10102000DF93EC01888D843061F00E94BA02E88D74
:10103000F0E0EE0FFF1FEB55F94F1182108284E0B4
:10104000888FDF91CF910895CF92DF92EF92FF9238
:101050001F93CF93DF931F92CDB7DEB7FC01208D96
:10106000243011F080E028C07B016C0110E080E5A5
:1010700090E00E94B70263E070E0812F0E94F605C5
:1010800089830E94B6028981811103C0F601108F05
:1010900005C08831D9F31F5F143049F7F601808D00
:1010A000843001F3F586E486128E118E20E0A701CC
:1010B00062E00E94CC0281E00F90DF91CF911F91FE
:1010C000FF90EF90DF90CF9008952A9A08952A9884
:1010D0000895CF92DF92EF92FF920F931F93CF93D9
:1010E000DF93EC017A018B016C01C40ED51ECC1587
:1010F000DD05A9F00E9467088FE00E94EF058D2FA3
:101100000E94EF058C2F0E94EF05219680E00E943F
:10111000EF05F80181938F010E946508E8CFC701B0
:10112000DF91CF911F910F91FF90EF90DF90CF90C3
:101130000895CF92DF92EF92FF920F931F93CF9378
:10114000DF93EC017A018B016C01C40ED51ECC1526
:10115000DD05A1F00E94670880EF0E94EF058D2F4A
:101160000E94EF058C2F0E94EF052196F8018191D6
:101170008F010E94EF050E946508E9CFC701DF914A
:10118000CF911F910F91FF90EF90DF90CF90089536
:10119000EF92FF921F93CF93DF93EB017A01FC0153
:1011A000178A168A108D8A81811109C08B8181115D
:1011B00006C08C81811103C08D81882329F1E1143F
:1011C000F10411F180E590E00E94B702BE016E5F6C
:1011D0007F4F812F90E0982F882744E050E0845F74
:1011E0009B4F0E9499084F2D60E170E0812F0E9473
:1011F000AC024E2D61E170E0812F0E94AC020E9492
:10120000B60281E090E002C080E090E0DF91CF91F3
:101210001F91FF90EF9008954F925F926F927F928F
:101220008F929F92AF92BF92CF92DF92EF92FF92F6
:101230000F931F93CF93DF93CDB7DEB7EE970FB623
:10124000F894DEBF0FBECDBF5C018B014A0182EA7C
:1012500091E09A8389831C861B8648EE53E060E008
:1012600070E04D875E876F87788B2CE731E03A8797
:101270002987988F8F8B198E1A8E1B8E1C8E24E0D7
:1012800029A399AB88AB1AAA1BAA1CAA1DAA8091F4
:101290005D0790915E07A0915F07B09160078EA3F4
:1012A0009FA3A8A7B9A78B839C83AD83BE83188611
:1012B0001F82F80120E080E090E06AE03191332362
:1012C00019F140ED430F4A3080F4689FA001699FF7
:1012D000500D1124CA01C097830F911D37FD9A95B7
:1012E0008F3F910559F350F32BC03E3249F523301F
:1012F00039F1A2E3B0E0AC0FBD1FA20FB11D8C937A
:101300002F5F80E090E0DACF2330D1F48DABD501B0
:10131000ED91FC910288F389E02D82EA91E09DA392
:101320008CA38AA99BA9ACA9BDA98EA39FA3A8A79A
:10133000B9A7A401BE016C5D7F4FC501099530C2FC
:101340004B815C816D817E818091650790916607FC
:10135000A0916707B0916807481759076A077B078C
:1013600009F41CC20E9483156F7077277C5FCE0141
:1013700009960E942408813009F00DC282EA91E0AA
:101380009DA38CA38B819C81AD81BE818EA39FA3E5
:10139000A8A7B9A745E350E0BE016C5D7F4FCE0121
:1013A00009960E94C808892B19F400E010E07EC15C
:1013B0000E94831578876F837627672776277DA31A
:1013C0006CA342E050E0BE016C5D7F4FCE010996F8
:1013D0000E948C1381E090E09FAB8EAB42E050E026
:1013E000BE016A5C7F4FCE0109960E948C1380E09B
:1013F00091E09FAB8EAB42E050E0BE016A5C7F4F54
:10140000CE0109960E948C131FAA1EAA42E050E04A
:10141000BE016A5C7F4FCE0109960E948C1342E0A8
:1014200050E0BE016A5C7F4FCE0109960E948C138A
:1014300042E050E0BE016A5C7F4FCE0109960E94F7
:101440008C137801D7018C91882319F1F8017F0161
:101450008191811117C06701C01AD10A1C141D04A3
:10146000A4F4C8AE41E050E0BE01685C7F4FCE01FD
:1014700009960E948C13A601B801CE0109960E941C
:101480008C1303C08E3219F7E6CF87010F5F1F4F11
:10149000D9CF18AE41E050E0BE01685C7F4FCE016D
:1014A00009960E948C1300E011E01FAB0EAB42E0E6
:1014B00050E0BE016A5C7F4FCE0109960E948C13FA
:1014C0001FAB0EAB42E050E0BE016A5C7F4FCE0125
:1014D00009960E948C13CE0109960E94D707892B8A
:1014E00009F463CF63E0E62EF12C0E9483152B01F3
:1014F0003C01CE0109960E94161318161906A4F095
:101500000E948315DC01CB0184199509A609B7094E
:1015100089389341A105B105C8F462E370E080E029
:1015200090E00E949B0FE5CF4B815C816D817E81B5
:10153000898D9A8DAB8DBC8D481759076A077B073B
:1015400041F48D8D9E8DC59721F406C02FEF3FEF9E
:10155000A4C02EEF3FEFA1C08AA19BA10C970CF471
:10156000B2C04CE050E0BE016C5D7F4FCE010996E9
:101570000E94CE128EA190E0982F88272FA1822B57
:101580009BAF8AAF2CA130E0322F22274DA1242B14
:101590004F8158854217530709F092C097FF90C0BA
:1015A0008F709270892B09F0F3C00AA510E0102FFC
:1015B00000278BA5082B0115110509F4E6C0C12CE5
:1015C000D12C88A590E0982F882729A5822BC816B2
:1015D000D90608F47BC0C12CD12C41E050E0BE01FB
:1015E000645C7F4FCE0109960E94CE128CAD982F7D
:1015F000907C09F0A5C0811197C08CAD8111EDCF11
:1016000042E050E0BE01685C7F4FCE0109960E9427
:10161000CE1242E050E0BE016A5C7F4FCE010996D7
:101620000E94CE12CE0109960E94ED12CE010996BB
:101630000E94ED12CE0109960E94ED12CE0109968C
:101640000E94ED1242E050E0BE01665C7F4FCE0189
:1016500009960E94CE1288AD99AD8115914009F08E
:1016600075C02EA93FA93227232732272130310503
:1016700009F06CC08AAD9BAD8115944009F082C021
:1016800044E050E0BE016E5C7F4FCE0109962DAF65
:101690003EAF0E94CE122DAD3EAD8901B1E0EB1AF6
:1016A000F10821F02F3F3F4F09F41FCFCE010996DB
:1016B0000E940F080130110509F429CEC80170C03D
:1016C0002CEF3FEFEACF2DEF3FEFE7CF41E050E0C7
:1016D000BE016A5C7F4FCE0109960E94CE128EA990
:1016E000811117C08EA98111F1CFCE0109960E94F8
:1016F000ED12CE0109960E94ED12CE0109960E94CC
:10170000ED12CE0109960E94ED12FFEFCF1ADF0A0B
:1017100058CF8EA99FEF980F9EAB882319F3CE0167
:1017200009960E94ED12F5CF8CAD9FEF980F9CAFFC
:10173000882309F462CFCE0109960E94ED12F4CFFE
:10174000CE0109960E94ED121CAE57CF612C712C70
:101750008AAD9BAD9827892798276816790640F4AB
:10176000CE0109960E94ED128FEF681A780AF0CF29
:10177000AFEFCA1ADA0AC016D10609F02ECF26EF4B
:101780003FEF8BCF27EF3FEF88CF2AEF3FEF85CF9B
:101790002BEF3FEF82CF80E090E002C08EEF9FEF13
:1017A000EE960FB6F894DEBF0FBECDBFDF91CF919E
:1017B0001F910F91FF90EF90DF90CF90BF90AF906F
:1017C0009F908F907F906F905F904F9008951F93A0
:1017D000CF93DF9300D0CDB7DEB7182F6A839983FC
:1017E0000E94670880EF0E94EF059981892F0E946F
:1017F000EF05812F0E94EF056A81862F0E94EF0579
:101800000E94650881E00F900F90DF91CF911F91AA
:1018100008951F93CF93DF93182F66E270E00E9424
:10182000F605C82FD0E067E270E0812F0E94F60530
:10183000DC2FCC279E01282BC901DF91CF911F916E
:1018400008951F93CF93DF93182F60E270E00E94FA
:10185000F605C82FD0E061E270E0812F0E94F60506
:10186000DC2FCC279E01282BC901DF91CF911F913E
:101870000895CF93DF9390E0FC01E256FF4F24914F
:10188000FC01EE54FF4F8491882361F190E0880FB2
:10189000991FFC01EC56FF4FC591D491FC01EA5809
:1018A000FF4FA591B491611109C09FB7F894888149
:1018B000209582238883EC912E230BC0623061F443
:1018C0009FB7F8943881822F809583238883EC9189
:1018D0002E2B2C939FBF06C08FB7F894E8812E2B38
:1018E00028838FBFDF91CF910895CF92DF92EF923F
:1018F000FF92CF93DF936C01990FEE08FF08F7FE7C
:101900001CC0E091BE06F091BF060190F081E02D71
:101910006DE28EEB96E00995EC0144275527BA015C
:101920004C195D096E097F092AE08EEB96E00E9452
:101930003E147C01EC0EFD1E08C02AE0B701A60192
:101940008EEB96E00E943E147C0169E176E08EEB1E
:1019500096E00E9429148E0D9F1DDF91CF91FF907C
:10196000EF90DF90CF9008950F931F93CF93DF9365
:10197000EC0160E070E00E9474038C01CE010E94D3
:101980008B03811107C081E0F8012481358126365F
:10199000310509F080E0DF91CF911F910F910895FB
:1019A000CF93C82F462F61E070E00E94AC0261E047
:1019B00070E08C2F0E94F6058111F9CFCF91089528
:1019C0002F923F924F925F926F927F928F929F924F
:1019D000AF92BF92CF92DF92EF92FF920F931F933D
:1019E000CF93DF93CDB7DEB76A970FB6F894DEBF1B
:1019F0000FBECDBF9D8B8C8B2B015F8B4E8B212C13
:101A0000312C1B8AAC89BD8912968D919C911397BC
:101A1000281639060CF0E4C1AC89BD89ED91FC9122
:101A2000C101880F991FE80FF91FA080B1801A82A9
:101A300019821E821D8218861F821C821B821C86B0
:101A40001B861E861D86188A1F86CE0101960E945F
:101A50002B031A861986F50160817181CE010196EA
:101A60000E944803E12CF12CD50114968D919C9194
:101A70001597E816F9060CF089C0D5011296ED917C
:101A8000FC911397C701880F991FE80FF91FC080B9
:101A9000D1808EE090E00E948D208C01FC011182AB
:101AA0001082D60114968D919C911597958384830D
:101AB00012966D907C9013977382628286369105A0
:101AC000A1F08437910589F09C0128563109223014
:101AD000310558F02B5F3F4F2230310530F082370F
:101AE000910519F08D36910551F4F6013696D8011D
:101AF000169688E001900D928A95E1F71DC0833714
:101B0000910519F082369105B9F4C3010E948D2028
:101B10004C01009731F483E090E0F80191838083D9
:101B20000BC0D60116966D917C911797A3010E9468
:101B30008922F80197828682D8018D919C91039722
:101B400029F4E3E0F0E0F887EF831CC06D817E812B
:101B50006F5F7F4F660F771F8B819C810E94BA2138
:101B6000009779F39C838B832D813E81A901440FDB
:101B7000551FFC01E40FF51F118300832F5F3F4FBA
:101B80003E832D83FFEFEF1AFF0A6ECF09811A8182
:101B9000B201C8010E949222892B09F40AC1720184
:101BA000D7013C91332309F4F7C0F80120812223A7
:101BB00009F4F2C02A3209F0B3C0FA8AE98AF701BF
:101BC0006F0181918F3229F43801F80180E090E0B3
:101BD00008C08111F5CFF8CF222339F02A3209F459
:101BE00001965F0121912F32B9F7B1E0AB1AB1082C
:101BF000E1E0CE1AD1088130910599F0029789F180
:101C000074C0B601C5010E94B603892B09F4D8C07F
:101C10001F7D1D3559F0B1E0AB1AB108E1E0CE1AD5
:101C2000D108D5011C911A3261F766C0D5018C919B
:101C30008F7D8B3581F3F1E0AF1AB108F7CFB60194
:101C4000C5012A8F0E94B6032A8D892B09F4B8C0DA
:101C50002F7D2D3559F0F1E0AF1AB10821E0C21AFD
:101C6000D108D5012C912A3251F709C0F5018081A4
:101C70008F7D8B3581F3B1E0AB1AB108F7CFBFEFA1
:101C8000CB1ADB0AA50141505109EC14FD0408F000
:101C900097C05A01E1E0CE1AD1084601D5012C9136
:101CA0002A3261F0B401C5012A8F488F598F0E94F2
:101CB000B6032A8D488D598D892B21F4A016B106C3
:101CC00021F71AC02F7D2D3549F4D5018C918F7DD8
:101CD0008B3521F0F1E0AF1AB108F7CFB1E0AB1AC4
:101CE000B108E1E08E1A9108D9CFB701C8010E946E
:101CF000E003892B09F464C08301F30181913F0162
:101D00008F3211F08111F8CFE988FA88D7018D91CF
:101D1000BA8BA98B8F3209F443CF8111F5CF40CF15
:101D20003A3291F4F8018F0181918F3211F4F70169
:101D300006C08111F8CFFBCF882309F431CF7F0192
:101D400081918F32C9F72CCFB701C8012A8F0E9429
:101D5000B6032A8D0097A1F12B3559F4C801FC0177
:101D6000019620812D35D9F78C01BFEFEB1AFB0AC4
:101D700017CF2B3759F49801F9012F5F3F4F40815E
:101D80004D37D1F78901E80EF91E0ACF0F5F1F4FBB
:101D9000EFEFEE1AFE0A04CFD8018C91811110C02A
:101DA00081E090E0332311F080E090E082600397BF
:101DB00039F4CE010196EE89FF89099521E02B8B3C
:101DC00089819A810E942221CE0101960E944904B4
:101DD0008B859C850E9422218FEF281A380A12CE0B
:101DE0008B896A960FB6F894DEBF0FBECDBFDF9128
:101DF000CF911F910F91FF90EF90DF90CF90BF9008
:101E0000AF909F908F907F906F905F904F903F909A
:101E10002F900895AF92BF92CF92DF92EF92FF92F0
:101E20000F931F93CF93DF9300D0CDB7DEB77A83A4
:101E30006983BA01A901E981FA81F770082F10E0DE
:101E4000000F111F0B54194FD8018D919C918E0FCB
:101E50009F1F2E0F3F1F2130384098F07A015B0101
:101E600020E038E06901CE1ADF0AA6010E94690865
:101E7000A7014C195D09B5016C0D7D1DF80180812C
:101E800091810F900F90DF91CF911F910F91FF9053
:101E9000EF90DF90CF90BF90AF900C94690890E0E6
:101EA000FC01E058FF4F3491FC01E256FF4F2491B2
:101EB000FC01EE54FF4FE491EE2309F43BC03323C1
:101EC00039F1333091F038F43130A9F0323001F586
:101ED00084B58F7D12C0373091F03830A1F03430A6
:101EE000B9F4809180008F7D03C0809180008F774E
:101EF000809380000DC084B58F7784BD09C0809128
:101F0000B0008F7703C08091B0008F7D8093B000C8
:101F1000F0E0EE0FFF1FEA58FF4FA591B4918FB785
:101F2000F894EC91611103C020952E2301C02E2B53
:101F30002C938FBF08958F929F92AF92BF92CF92B2
:101F4000DF92EF92FF926B017C010E945E154B01C4
:101F50005C01C114D104E104F104F1F00E945E15AA
:101F6000DC01CB0188199909AA09BB09883E934075
:101F7000A105B10570F321E0C21AD108E108F1080A
:101F800088EE880E83E0981EA11CB11CC114D104F8
:101F9000E104F10419F7DDCFFF90EF90DF90CF90CF
:101FA000BF90AF909F908F900895CF92DF92EF9265
:101FB000FF920F931F93CF93DF93CDB7DEB7C25439
:101FC000D1090FB6F894DEBF0FBECDBFFC018281F0
:101FD0009381A481B58123968CAF9DAFAEAFBFAF87
:101FE000239721E023962FAF239723964CAD5DAD29
:101FF0006EAD7FAD23974BAB5CAB6DAB7EAB89AF6A
:102000009AAFABAFBCAF8DA79EA7AFA7B8AB28ABBD
:102010004DA55EA56FA578A94FA358A769A77AA774
:102020002EAB4BA95CA96DA97EA949A35AA36BA3AA
:102030007CA38B8F9C8FAD8FBE8F42EA51E05C8B6F
:102040004B8B3FEF3D8B3E8B3F8B188E5E874D87D2
:102050002AA7CFA0D8A4E9A4FAA4CF86D88AE98A6F
:10206000FA8A2CA309A11AA12BA13CA109871A87DE
:102070002B873C875A8349838B839C83AD83BE83A4
:102080006CE271E080E090E00E949B0F1FB7F89433
:102090008091BD06811127C0ECEBF0E08491E8EA65
:1020A000F0E09491E82FF0E0EE0FFF1FEC56FF4FA9
:1020B000A591B491EC91E92321F461E08AE00E94BA
:1020C0004F0F61E08AE00E94390C8CB580618CBDB5
:1020D0008CB580648CBD61E08DE00E94390C61E0BC
:1020E0008BE00E94390C8091BD068F5F8093BD0606
:1020F0001FBF229A80E590E00E94B70260E880E06E
:1021000090E00E94E70B65E58BE190E00E94E70B11
:1021100065E58AE190E00E94E70B0E94B60280E04C
:1021200090E49093AE068093AD0680E090E69093A5
:10213000B6068093B50680E098E49093B00680934D
:10214000AF0680E098E69093B8068093B70680E0EB
:1021500090E59093B2068093B10680E090E790936B
:10216000BA068093B90680E098E59093B406809310
:10217000B30680E098E79093BC068093BB0680E5A9
:1021800090E00E94B70246E050E060E071E089E034
:1021900090E00E94990844E050E0BE016D5F7F4FDF
:1021A0008FE090E00E94990844E050E0BE01615F3A
:1021B0007F4F81E090E00E94990844E050E0BE012A
:1021C0006B5E7F4F85E090E00E9499080E94B60206
:1021D00081E08C8789859A85AB85BC8580935D0776
:1021E00090935E07A0935F07B0936007CE5BDF4FCD
:1021F0000FB6F894DEBF0FBECDBFDF91CF911F9118
:102200000F91FF90EF90DF90CF900895CF92DF92E3
:10221000EF92FF920F931F93CF93DF936C017A019C
:102220008B01C0E0D0E0CE15DF0589F0D8016D91BB
:102230008D01D601ED91FC910190F081E02DC60158
:102240000995892B11F47E0102C02196ECCFC701BC
:10225000DF91CF911F910F91FF90EF90DF90CF9082
:102260000895FC01918D828D981761F0828DDF01B8
:10227000A80FB11D5D968C91928D9F5F9F73928F79
:1022800090E008958FEF9FEF0895FC01918D828D6E
:10229000981731F0828DE80FF11D858D90E008953B
:1022A0008FEF9FEF0895FC01918D228D892F90E093
:1022B000805C9F4F821B91098F73992708958EEB45
:1022C00096E00E94531121E0892B09F420E0822F2F
:1022D0000895FC01848DDF01A80FB11DA35ABF4FE3
:1022E0002C91848D90E001968F739927848FA68915
:1022F000B7892C93A089B1898C9180648C93938D3C
:10230000848D981306C00288F389E02D80818F7D2B
:1023100080830895EF92FF920F931F93CF93DF93E3
:10232000EC0181E0888F9B8D8C8D981305C0E88926
:10233000F989808185FD24C0F62E0B8D10E00F5F9A
:102340001F4F0F731127E02E8C8DE8120CC00FB6B3
:1023500007FCFACFE889F989808185FFF5CFCE01A6
:102360000E946911F1CF8B8DFE01E80FF11DE35A38
:10237000FF4FF0820B8FEA89FB898081806207C062
:10238000EE89FF896083E889F98980818064808390
:1023900081E090E0DF91CF911F910F91FF90EF903E
:1023A0000895CF93DF93EC01888D8823C9F0EA89E3
:1023B000FB89808185FD05C0A889B9898C9186FD3E
:1023C0000FC00FB607FCF5CF808185FFF2CFA8893B
:1023D000B9898C9185FFEDCFCE010E946911E7CFBD
:1023E000DF91CF91089580E090E0892B29F00E9441
:1023F0005F1181110C94000008950895CF93DF932D
:102400001F92CDB7DEB76983DC01ED91FC910280AC
:10241000F381E02D41E050E0BE016F5F7F4F0995F1
:102420000F90DF91CF9108950E948422BF92CF92A6
:10243000DF92EF92FF920F931F93CF93DF9300D021
:1024400000D000D0CDB7DEB7FC01208D243009F0DC
:102450005DC06A017B018C01B12C63E070E08B2DC3
:102460000E94F605811103C0F801B08E06C08831C4
:10247000D9F3B394F4E0BF12F0CFF801808D84302B
:1024800009F444C096E0E4E1F1E0DE011196019028
:102490000D929A95E1F7F70193819F779C83948140
:1024A0009D8395819E83B7016E5F7F4F90E0982F4B
:1024B000882744E050E0845F9B4F0E949908F80110
:1024C000F08C4D2D60E170E08F2D0E94AC024C2D00
:1024D00061E170E08F2D0E94AC02F801808D90E0E8
:1024E000982F882746E050E0BE016F5F7F4F8A5FDC
:1024F0009B4F0E949908F801128E118E20E8A601C8
:1025000062E0808D0E94CC0281E001C080E02696CE
:102510000FB6F894DEBF0FBECDBFDF91CF911F91F4
:102520000F91FF90EF90DF90CF90BF900895FF92B2
:102530000F931F93CF93DF931F92CDB7DEB7FC01AC
:10254000218D328D232B09F1F08C80E590E00E94E3
:10255000B70268E270E08F2D0E94F605082F10E0A8
:1025600069E270E08F2D0E94F605702F6627682BB8
:1025700021E030E0AE014F5F5F4F8F2D0E940A0FC8
:102580000E94B602898190E002C08FEF9FEF0F900A
:10259000DF91CF911F910F91FF900895CF93DF931B
:1025A000FC01218D328D2115310519F48FEF9FEF3C
:1025B00011C0EC014217530708F0A901888D0E9451
:1025C0001C061816190694F7298D3A8D281B390B0D
:1025D0003A8F298FDF91CF9108950F931F93CF9357
:1025E000DF931F92CDB7DEB7FC01218D328D232BF7
:1025F00061F08C0141E050E0BE016F5F7F4F808D44
:102600000E941C06181619061CF08FEF9FEF08C0D9
:10261000F801818D928D0197928F818F898190E051
:102620000F90DF91CF911F910F910895BF92CF929C
:10263000DF92EF92FF920F931F93CF93DF93CDB76B
:10264000DEB728970FB6F894DEBF0FBECDBF8C0162
:10265000F801818D928D892B49F0D801ED91FC9183
:102660000680F781E02DC8010995F2CFB08C80E596
:1026700090E00E94B702E12CF12C8B2D0E94090CF6
:102680006C01892B21F08B2D0E94090C7C01EC142C
:10269000FD0499F70E94B6021E141F045CF548E081
:1026A00050E0BE016F5F7F4FD80158968C910E9419
:1026B0001C069C0118161906DCF489819A81AB81ED
:1026C000BC81F801808B918BA28BB38B8D8190E0C4
:1026D000982F88272E81820F911D958B848B2F81B7
:1026E00030E0322F22278885280F311D328F218F2D
:1026F000C90102C080E090E028960FB6F894DEBFD2
:102700000FBECDBFDF91CF911F910F91FF90EF9042
:10271000DF90CF90BF9008957F928F929F92AF925B
:10272000BF92CF92DF92EF92FF920F931F93CF93BE
:10273000DF935C014B016A01FC0106891789708CEB
:1027400080E590E00E94B702C0E0D0E0872D0E94B3
:10275000210C7C01892B21F0872D0E94210CEC019A
:10276000CE15DF0599F7CC15DD0578F4C0E0D0E093
:10277000872D0E94210C6C01892B21F0872D0E944E
:10278000210CEC01CC15DD0599F764E270E0872D92
:102790000E94F605E82EF12C65E270E0872D0E947C
:1027A000F605FE2CEE24E82AE701C00FD11F9E019A
:1027B0003770E72CF12CC701880F991FAC014355E6
:1027C000594F7A01FA0180819181820F931FA901EB
:1027D0004C0D5D1D4130584090F000E018E0021BA8
:1027E000130BA801B4010E949908A601401B510BCC
:1027F000B401600F711FF7018081918102C0A601B1
:10280000B4010E949908CC0DDD1D4D2F64E270E0EB
:10281000872D0E94AC024C2F65E270E0872D0E944C
:10282000AC020E94B602F501868997898C0D9D1D28
:10283000978B868BC601DF91CF911F910F91FF90EF
:10284000EF90DF90CF90BF90AF909F908F907F9050
:1028500008956115710579F0FB0101900020E9F7F9
:102860003197AF01461B570BDC01ED91FC910280C3
:10287000F381E02D099480E090E008954F925F92FB
:102880006F927F92EF92FF920F931F93CF93DF93FC
:10289000CDB7DEB7A1970FB6F894DEBF0FBECDBFA0
:1028A0007C01FA01CB0119A2223008F42AE08E0142
:1028B0000F5D1F4F422E512C612C712CBF01A301C3
:1028C00092010E942020F901CA01015011096A30C9
:1028D00014F4605D01C0695CD8016C93232B242B38
:1028E000252B61F7B801C7010E942914A1960FB6E4
:1028F000F894DEBF0FBECDBFDF91CF911F910F9136
:10290000FF90EF907F906F905F904F9008958F921F
:102910009F92AF92BF92CF92DF92EF92FF920F936E
:102920001F93CF93DF937C01EB016C0182E0C80E13
:10293000D11C4701E5E08E0E911C00E010E0F6018D
:1029400041916F0150E060E070E02AE0CE010E940A
:102950003E145C01E881F9810190F081E02D6EE286
:10296000CE0109958A0D9B1D080F191FC814D904A3
:1029700031F7F701458150E060E070E02AE0CE01D8
:102980000E943E14800F911FDF91CF911F910F91F4
:10299000FF90EF90DF90CF90BF90AF909F908F907F
:1029A00008950F931F93CF93DF93EC010E94291496
:1029B0008C0169E176E0CE010E942914800F911FFD
:1029C000DF91CF911F910F9108951F920F920FB633
:1029D0000F9211242F933F934F935F936F937F93A5
:1029E0008F939F93AF93BF93EF93FF938EEB96E0FC
:1029F0000E946911FF91EF91BF91AF919F918F91CB
:102A00007F916F915F914F913F912F910F900FBEEA
:102A10000F901F9018951F920F920FB60F921124CE
:102A20002F938F939F93EF93FF93E091CE06F091B6
:102A3000CF068081E091D406F091D50682FD12C0C8
:102A400090818091D7068F5F8F732091D80682176F
:102A500051F0E091D706F0E0E254F94F958F809362
:102A6000D70601C08081FF91EF919F918F912F91A7
:102A70000F900FBE0F901F9018950F931F93CF9339
:102A8000DF938C0160E070E00E947403EC01C801E8
:102A90000E948B0381110AC08C819D81863691052D
:102AA00029F46E817F818885998503C060E070E09C
:102AB000CB01DF91CF911F910F9108953FB7F8940B
:102AC0008091560890915708A0915808B0915908E4
:102AD00026B5A89B05C02F3F19F00196A11DB11D79
:102AE0003FBFBA2FA92F982F8827820F911DA11DB4
:102AF000B11DBC01CD0142E0660F771F881F991FF1
:102B00004A95D1F708952FB7F894609152087091C3
:102B1000530880915408909155082FBF08951F9233
:102B20000F920FB60F9211242F933F938F939F9381
:102B3000AF93BF938091520890915308A09154088D
:102B4000B09155083091510823E0230F2D3720F420
:102B50000196A11DB11D05C026E8230F0296A11DF7
:102B6000B11D209351088093520890935308A0936D
:102B70005408B09355088091560890915708A09139
:102B80005808B09159080196A11DB11D80935608AF
:102B900090935708A0935808B0935908BF91AF91EC
:102BA0009F918F913F912F910F900FBE0F901F908B
:102BB00018958091F1079091F2070C942221CF9300
:102BC000DF93CDB7DEB7CC55D1090FB6F894DEBF91
:102BD0000FBECDBF789484B5826084BD84B581601A
:102BE00084BD85B5826085BD85B5816085BD8091D8
:102BF0006E00816080936E00109281008091810050
:102C00008260809381008091810081608093810047
:102C1000809180008160809380008091B100846009
:102C20008093B1008091B00081608093B00080916A
:102C30007A00846080937A0080917A008260809329
:102C40007A0080917A00816080937A0080917A0086
:102C5000806880937A001092C100E091CE06F091D6
:102C6000CF0682E08083E091CA06F091CB06108205
:102C7000E091CC06F091CD068FEC80831092D606C1
:102C8000E091D206F091D30686E08083E091D006F1
:102C9000F091D106808180618083E091D006F0912F
:102CA000D106808188608083E091D006F091D106C2
:102CB000808180688083E091D006F091D106808188
:102CC0008F7D808366E874E08EEB96E00E94D114DD
:102CD00063E974E08EEB96E00E94D11482EA91E001
:102CE0009A8389838091900790919107A091920790
:102CF000B09193078B839C83AD83BE83CE010196F5
:102D00000E94D50F68EB72E284E997E00E942408E4
:102D100067EA74E08EEB96E00E94D11403E0202E67
:102D2000312C2FE330E02C0F3D1F2C5F3F4F6B9673
:102D30003FAF2EAF6B972052310969963FAF2EAF50
:102D4000699788E0ECE0F1E0DE01A15BBF4F019004
:102D50000D928A95E1F788E0FE01E15BFF4FDE010D
:102D6000A95BBF4F01900D928A95E1F788E0FE01C3
:102D7000E95BFF4FDE01159601900D928A95E1F710
:102D80001C821B821E861D861A8219821A8A198A43
:102D90001C8A1B8A188A1F8684E997E00E941613F2
:102DA0006D969FAF8EAF6D97181619060CF04AC638
:102DB00014E0812E912C6D962EAD3FAD6D97215074
:102DC00031096D963FAF2EAF6D972F3F3F4F09F4FE
:102DD000ADC584E997E00E94ED12D82E6B897C89FD
:102DE0006F5F7F4F89899A890E94BA219A8B898B5C
:102DF000009761F02B893C89A9014F5F5F4F5C8B85
:102E00004B8BFC01E20FF31FD08204C083E090E003
:102E10009E878D878F8598898230910509F43FC000
:102E20002CF4009759F00197A9F0C5CF8330910594
:102E300009F453C0049709F4E4C0BDCF93E2D9125A
:102E400003C081E090E028C0AFE2DA12B4CF988AE4
:102E50008F86B1CF8B899C89089709F0ACCF0989FF
:102E60001A89B8018DEB94E00E949222892B39F0E7
:102E7000188A1F86E2E0F0E0FE87ED8704C022E0BA
:102E800030E0388B2F871C8A1B8AC8010E942221C0
:102E90001A8A198A82E090E0988B8F878CCF8B8971
:102EA0009C89089709F087CF89899A8928E0FC01D5
:102EB000DE01159601900D922A95E1F7A3E0B0E0AE
:102EC000B88BAF871C8A1B8A0E9422211A8A198A12
:102ED000E3E0F0E0F88BEF876ECF8B899C89049755
:102EE00009F069CF89899A89DC014D915D916D91D5
:102EF0007C9123964CAF5DAF6EAF7FAF23976B96FF
:102F0000AEADBFAD6B97FE017F9669962EAD3FAD1E
:102F10006997E217F30719F02E912193F6CF4F8DA1
:102F200058A169A17AA123964CAF5DAF6EAF7FAF78
:102F300023978A019B010370112722273327012B36
:102F4000022B032B29F4411551056105710519F474
:102F500082E090E053C0988A8F865E8B4D8B1C8AEE
:102F60001B8A0E9422211A8A198A80E190E00E941D
:102F70008D208C01DC0111961C921E9215961C92DC
:102F80001E92149717961C921E92169713961C92D7
:102F90001E9212971B961C921E921A971D961C92B7
:102FA0001E921C971F961C921E921E970E942B0326
:102FB000F8011186108622E030E0378326836B818A
:102FC0007C816F5F7F4F660F771F89819A810E9496
:102FD000BA21009789F09A8389832B813C81A901CA
:102FE000440F551FFC01E40FF51F118300832F5F71
:102FF0003F4F3C832B83DFCE83E090E09E878D871D
:10300000DACE8B819C81181619060CF0D4CE815033
:103010009048880F991FE981FA81E80FF91F008114
:103020001181D8011E962D913C911F971A968D9172
:103030009C911B971C966D917C911D9712161306FF
:103040008CF49B012F5F3F4F1D963C932E931C9752
:10305000FC01E60FF71FD0821E968D919C911F9761
:10306000019717C06F5E7F4F0E94BA21F8019387C6
:103070008287009799F024853585A9014F5F5F4FBE
:1030800055874487FC01E20FF31FD08280E190E076
:10309000D8011F969C938E931E9703C0F801378228
:1030A0002682D8011896ED91FC911997E730F10529
:1030B00008F01FC4EC5CFF4F0C948720BFE2DB12CA
:1030C00018C481E090E0F8019187808712C4D11084
:1030D00010C4D8011A966D917C911B97C8010E946B
:1030E0004803F80117821682C8010E942B03E2E010
:1030F000F0E0F5C0FCE2DF12FCC3D80119963C9267
:103100002E92189796C0DD20F1F18EE090E00E949B
:103110008D207C0122E030E0FC01318320838D2D65
:10312000DD0C990B9583848313821282D801149647
:103130006D917C9115976F5F7F4F660F771F129689
:103140008D919C9113970E94BA21009721F4F80168
:10315000378226821BC0D80113969C938E931297B8
:1031600014962D913C911597A901440F551FFC0110
:10317000E40FF51FF182E0822F5F3F4F15963C93DD
:103180002E93149703C0F80191868086D801149677
:103190002D913C911597C901809590958370992741
:1031A000009711F484E090E0820F931FF8012485CA
:1031B00035852817390709F09CC3C8010E942B03E5
:1031C000E5E0F0E08CC04F8C58A069A07AA0D8014F
:1031D00014968D919C911597E816F9060CF0C4C0D1
:1031E000B701C8010E9474036C01009729F00E9486
:1031F0003604C6010E9422218EE090E00E948D20BC
:10320000FC011182108289E690E095838483938289
:1032100082824682578260867186EE0CFF1CD8013E
:1032200012968D919C911397DC01AE0DBF1DED930D
:10323000FC93C8010E942B035CC3FFEFEF1AFF0A47
:10324000D80114968D919C911597E816F9060CF00B
:1032500050C3B701C8010E947403DC012D913C9159
:1032600011972230310549F71496AD90BC9015970F
:10327000B6E6AB16B10409F48EC0D4F133E7A31659
:10328000B10409F040C0D11034C3D8011A96CD90D2
:10329000DC901B9714968D919C911597E816F90672
:1032A0000CF444C2E816F90609F0EDC28EE090E095
:1032B0000E948D207C01B6010E94F604F7018081F6
:1032C00091818330910509F0B6C2D80117969C937D
:1032D0008E931697C8010E942B03E6E0F0E0D80118
:1032E0001996FC93EE93189704C3E12CF12CA8CF08
:1032F000F2E6AF16B10409F42EC224E6A216B10418
:1033000009F4A8C0F6C284E7A816B10409F42BC1D9
:1033100099E6A916B10409F0ECC2D8011C968D916A
:103320009C911D97049709F0E4C21A96ED91FC91C7
:103330001B9780819181A281B38123968CAF9DAF31
:10334000AEAFBFAF23976B96AEADBFAD6B97FE012F
:103350007F9669962EAD3FAD6997E217F30709F4A2
:1033600032CF8E918193F5CFE816F90609F0DAC1D4
:103370008EE090E00E948D206C01FC011182108291
:1033800089E690E095838483938282824682578285
:1033900060867186C5C0D8011C968D919C911D9741
:1033A000049709F0A6C21A96ED91FC911B978081B3
:1033B0009181A281B38123968CAF9DAFAEAFBFAF99
:1033C00023976B96AEADBFAD6B97FE017F96699666
:1033D0002EAD3FAD6997E217F30719F08E918193F7
:1033E000F6CF4F8C58A069A07AA0D80114968D9181
:1033F0009C911597E816F906D4F4B701C8010E940C
:1034000074036C01009729F00E943604C6010E94E3
:1034100022218EE090E00E948D20FC01118210821A
:1034200026E630E035832483938282825BC0E816EF
:10343000F90609F077C18EE090E00E948D206C01C2
:10344000FC011182108226E630E0358324839382CA
:1034500082825FC0D8011C968D919C911D97089720
:1034600009F047C21A96ED91FC911B9788E0DE01A6
:103470005F9601900D928A95E1F7DE019396FE0129
:10348000FF966B962EAD3FAD6B97E217F30719F0E1
:103490008E918193F6CF23964CAC5DAC6EAC7FAC35
:1034A0002397D80114968D919C911597E816F906EB
:1034B000F4F4B701C8010E9474036C01009729F06D
:1034C0000E943604C6010E9422218EE090E00E94F4
:1034D0008D20FC01118210829382828226E630E0E8
:1034E00035832483468257826086718696CEE8169D
:1034F000F90609F017C18EE090E00E948D206C0162
:10350000FC01118210829382828226E630E03583AC
:103510002483D60116964D925D926D927C921997F6
:10352000B7016F5F7F4F660F771FF801828193812C
:103530000E94BA21009731F4D80117963C922E923E
:10354000169777CEF8019383828324813581A90170
:10355000440F551FFC01E40FF51FD182C0822F5F7D
:103560003F4FD801DAC0D8011C96CD90DC901D9752
:10357000B8E0CB16D10409F0BCC1D8011A96ED9180
:10358000FC911B9788E0DE01DF9601900D928A95F1
:10359000E1F7CE01CF960E940E0323966CAF7DAF6C
:1035A0008EAF9FAF23976B968EAD9FAD6B970E94AA
:1035B0000E0327966CAF7DAF8EAF9FAF279788E045
:1035C000FE01FF96DE01D79601900D928A95E1F7F4
:1035D000F80184819581E816F9060CF045C0B70121
:1035E000C8010E9474036C01009729F00E94360400
:1035F000C6010E94222188E0FE01F796DE015F9657
:1036000001900D928A95E1F78EE090E00E948D2066
:1036100028E0FE017F96DE019F9601900D922A958B
:10362000E1F7DC0111961C921E92E4E7F0E015969A
:10363000FC93EE93149728E030E013963C932E937E
:103640001297FE01BF96169601900D922A95E1F70A
:10365000EE0CFF1CD8011296ED91FC911397EE0D24
:10366000FF1D91838083E5CDE816F90609F05AC065
:1036700088E0FE01F796DE01979601900D928A95FB
:10368000E1F788E0FE01B796DE015F9601900D92AA
:103690008A95E1F78EE090E00E948D203C0188E061
:1036A000FE017F96DE01579601900D928A95E1F713
:1036B000F30111821082B582A482D382C28288E093
:1036C000FE017796D301169601900D928A95E1F747
:1036D000B7016F5F7F4F660F771FD80112968D91EC
:1036E0009C9113970E94BA21009721F4F801378228
:1036F00026829FCDD80113969C938E931297149691
:103700002D913C911597A901440F551FFC01E40F21
:10371000F51F718260822F5F3F4F15963C932E9369
:10372000149787CDF8019782868283CDB701C801AF
:103730000E9474035C01009729F00E943604C501C1
:103740000E9422218EE090E00E948D205C01B60153
:103750000E94F6044CC0D8011C96AD90BC901D97F9
:10376000B5E0AB16B1040CF4C4C0F801C284D38434
:10377000F60180819181A281B3818F8F98A3A9A343
:10378000BAA3CE014F960E940E032B013C01C50146
:10379000BB0CAA0BBB0BB301A2014C5F5F4F6F4F79
:1037A0007F4F84179507A607B70709F0A2C0F4E07A
:1037B000CF0ED11CD80114968D919C911597E816C7
:1037C000F90644F5B701C8010E9474035C01009733
:1037D00029F00E943604C5010E9422218EE090E06B
:1037E0000E948D205C01A201B6010E947C04F501BB
:1037F000808191818330910509F467CDEE0CFF1C27
:10380000D8011296ED91FC911397EE0DFF1DB18238
:10381000A08260CDE816F906B1F58EE090E00E9436
:103820008D207C01A201B6010E947C04F7018081F9
:103830009181039769F0F801648175816F5F7F4F13
:10384000660F771F828193810E94BA21009731F41D
:10385000D80117963C922E9216973CCDF80193838F
:10386000828324813581A901440F551FFC01E40F97
:10387000F51FF182E0822F5F3F4FD80115963C93F0
:103880002E93149727CDF8019782868223CDF801D5
:10389000E480F580F1E0EF1AF108F7FC2AC0B701E7
:1038A000C8010E947403DC012D913C911197232BD8
:1038B000E1F412968D919C911397919581959109C0
:1038C00083709927009759F0D8011C962D913C914F
:1038D0001D972817390769F4C8010E942B0325E0BA
:1038E00030E0F8013187208704C031E0E31AF108A5
:1038F000D4CF2B893C898D899E892817390769F493
:1039000083E090E0988B8F871C8A1B8A89899A892B
:103910000E9422211A8A198A4ECA821793070CF034
:103920004ACAA2E0B0E0BE87AD8745CA11E08D85E6
:103930009E85892B09F410E0E12CF12C8B819C8170
:10394000E816F90684F4C701880F991FE981FA8106
:10395000E80FF91F808191810E948B03182B9FEF44
:10396000E91AF90AEBCF111169C042E852E065EC9F
:1039700074E0CE0101960E94E00C40E652E069EC52
:1039800074E0CE0101960E94E00C4CE352E06FED32
:1039900074E0CE0101960E94E00C4EE052E068EF28
:1039A00074E0CE0101960E94E00C40EE51E060E12F
:1039B00075E0CE0101960E94E00C41ED51E067E216
:1039C00075E0CE0101960E94E00C4EEB51E065E4FB
:1039D00075E0CE0101960E94E00C4BEA51E064E6EE
:1039E00075E0CE0101960E94E00C48E951E063E8E1
:1039F00075E0CE0101960E94E00C49E851E062EAD0
:103A000075E0CE0101960E94E00C46E751E06FEBB5
:103A100075E0CE0101960E94E00C43E651E06DEDA9
:103A200075E0CE0101960E94E00C40E551E06BEF9D
:103A300075E0CE0101960E94E00C04C08D859E8544
:103A40000E94750CE12CF12C2B813C8189819A819B
:103A5000E216F306FCF49701220F331FFC01E20F7C
:103A6000F31F008111810115110581F0D8018D919D
:103A70009C910E942221C8010E944904F80182857C
:103A800093850E942221C8010E942221FFEFEF1A94
:103A9000FF0ADACF0E94222189899A890E94222175
:103AA0000E94F3114EC982EA91E09093040880933A
:103AB0000308109205081092060810920708109249
:103AC00008081092C1061092C00648EE53E060E06C
:103AD00070E04093C2065093C3066093C40670938F
:103AE000C5062EE131E03093BF062093BE0625ECDB
:103AF00030E03093CB062093CA0624EC30E03093BC
:103B0000CD062093CC0620EC30E03093CF062093F6
:103B1000CE0621EC30E03093D1062093D00622EC83
:103B200030E03093D3062093D20626EC30E0309379
:103B3000D5062093D4061092D7061092D80610927C
:103B4000D9061092DA0690930A0880930908109219
:103B50000B0810920C0810920D0810920E0890930A
:103B6000100880930F0810921108109212081092FA
:103B70001308109214089093160880931508109259
:103B80001708109218081092190810921A089093AA
:103B90001C0880931B0810921D0810921E0810929A
:103BA0001F081092200890935C0780935B07109287
:103BB0005D0710925E0710925F0710926007909366
:103BC000640780936307109265071092660710924E
:103BD000670710926807909322088093210810923B
:103BE000230810922408109225081092260890931A
:103BF0002808809327081092290810922A0810920A
:103C00002B0810922C0890932E0880932D08109268
:103C10002F081092300810923108109232089093B9
:103C200034088093330810923508109236081092A9
:103C300037081092380890933A0880933908109208
:103C40003B0810923C0810923D0810923E08909359
:103C5000400880933F081092410810924208109249
:103C60004308109244081092480810924708409365
:103C7000490850934A0860934B0870934C082EE211
:103C800031E030934608209345089093FE078093D7
:103C9000FD071092FF071092000810920108109281
:103CA000020880918D078C30A0F491E0980F9093DA
:103CB0008D078093FA0790E0FC01EE0FFF1F8E0F37
:103CC0009F1FFC01E759F84F88EB9BE092838183AB
:103CD00003C08FEF8093FA0780918D078C30A0F49A
:103CE00091E0980F90938D078093F70790E0FC0187
:103CF000EE0FFF1F8E0F9F1FFC01E759F84F88EB57
:103D00009BE09283818303C08FEF8093F70710922B
:103D1000F2071092F1071092F4071092F307109235
:103D2000F6071092F50761E070E080E090E00E94F5
:103D3000BA21009791F09093F2078093F1071092C7
:103D4000F4071092F3072091F5073091F607232B23
:103D500009F0C5C0FC011082C2C08091F1079091AA
:103D6000F207009711F00E9422211092F2071092A0
:103D7000F1071092F6071092F5071092F4071092CF
:103D8000F307EAEBF7E01282118213821082DF015F
:103D900011971C9211971C92369687E0E23DF80726
:103DA00091F71092DC071092DF071092DB07109258
:103DB000DA071092EC071092EF071092EB071092BF
:103DC000EA0780E68093B5078093F0078091BD07EE
:103DD000811111C01092BD0785EB97E09093BC074D
:103DE0008093BB0788E08093B8078AE08093B90787
:103DF00089E08093BA0788EB97E09093B4078093AB
:103E0000B3078091C307811112C081E08093C3077B
:103E100085EB97E09093C2078093C1078DE0809374
:103E2000BE078BE08093BF078CE08093C0078EEBCA
:103E300097E09093B2078093B1078091C9078111F1
:103E400011C082E08093C90725EB37E03093C807A3
:103E50002093C7078093C40784E08093C50783E05D
:103E60008093C60784EC97E09093B0078093AF07E8
:103E7000109297071092960788EE93E0A0E0B0E0CA
:103E80008093980790939907A0939A07B0939B0704
:103E90008CE791E0909395078093940782EA91E0F4
:103EA0009093A3078093A2071092A4071092A507EE
:103EB0001092A6071092A70724E02093AC079093D6
:103EC0008F0780938E0780EC8093900788EA809319
:103ED0009107109292078BE98093930708951092AF
:103EE000F6071092F5076BE176E00E949B2249CF1E
:103EF000E89409C097FB3EF4909580957095619584
:103F00007F4F8F4F9F4F9923A9F0F92F96E9BB2739
:103F10009395F695879577956795B795F111F8CFB5
:103F2000FAF4BB0F11F460FF1BC06F5F7F4F8F4F20
:103F30009F4F16C0882311F096E911C0772321F016
:103F40009EE8872F762F05C0662371F096E8862FAE
:103F500070E060E02AF09A95660F771F881FDAF705
:103F6000880F9695879597F9089557FD9058440FB7
:103F7000551F59F05F3F71F04795880F97FB991FC8
:103F800061F09F3F79F08795089512161306140685
:103F9000551FF2CF4695F1DF08C016161706180612
:103FA000991FF1CF86957105610508940895E894ED
:103FB000BB2766277727CB0197F908950E944220F7
:103FC000A59F900DB49F900DA49F800D911D11246D
:103FD00008952F923F924F925F926F927F928F92AD
:103FE0009F92AF92BF92CF92DF92EF92FF920F9388
:103FF0001F93CF93DF93CDB7DEB7CA1BDB0B0FB692
:10400000F894DEBF0FBECDBF09942A88398848884E
:104010005F846E847D848C849B84AA84B984C884E4
:10402000DF80EE80FD800C811B81AA81B981CE0FDB
:10403000D11D0FB6F894DEBF0FBECDBFED010895C0
:10404000A1E21A2EAA1BBB1BFD010DC0AA1FBB1F9C
:10405000EE1FFF1FA217B307E407F50720F0A21B0E
:10406000B30BE40BF50B661F771F881F991F1A947B
:1040700069F760957095809590959B01AC01BD01A5
:10408000CF010895A29FB001B39FC001A39F700DFF
:10409000811D1124911DB29F700D811D1124911D50
:1040A00008950E9458206894B1110C94D81F089567
:1040B0000E94BD1F88F09F5798F0B92F9927B751DC
:1040C000B0F0E1F0660F771F881F991F1AF0BA95BC
:1040D000C9F714C0B13091F00E94D71FB1E0089524
:1040E0000C94D71F672F782F8827B85F39F0B93F16
:1040F000CCF3869577956795B395D9F73EF490956F
:104100008095709561957F4F8F4F9F4F0895EE0F6B
:10411000FF1F0590F491E02D0994CF93DF93823037
:10412000910510F482E090E0E0915C08F0915D0868
:1041300020E030E0C0E0D0E0309711F140815181C3
:1041400048175907C0F04817590761F482819381D5
:10415000209719F09B838A832BC090935D088093EE
:104160005C0826C02115310519F04217530718F4D1
:104170009A01BE01DF01EF010280F381E02DDCCF67
:104180002115310509F1281B390B2430310590F434
:1041900012968D919C9113976115710521F0FB0189
:1041A0009383828304C090935D0880935C08FD0133
:1041B000329644C0FD01E20FF31F81939193225088
:1041C00031092D933C933AC020915A0830915B08F5
:1041D000232B41F4209108013091090130935B08B1
:1041E00020935A08209106013091070121153105CD
:1041F00041F42DB73EB740910A0150910B01241BA9
:10420000350BE0915A08F0915B08E217F307A0F430
:104210002E1B3F0B2817390778F0AC014E5F5F4F1C
:104220002417350748F04E0F5F1F50935B084093EB
:104230005A088193919302C0E0E0F0E0CF01DF9152
:10424000CF9108950F931F93CF93DF93009709F4B5
:104250008CC0FC0132971382128200915C0810918D
:104260005D080115110581F420813181820F931FB2
:1042700020915A0830915B082817390779F5F09397
:104280005B08E0935A0871C0D80140E050E0AE17D7
:10429000BF0750F412962D913C911397AD01211553
:1042A000310509F1D901F3CF9D01DA01338322836E
:1042B00060817181860F971F8217930769F4EC0163
:1042C00028813981260F371F2E5F3F4F318320838E
:1042D0008A819B8193838283452B29F4F0935D0827
:1042E000E0935C0842C01396FC93EE931297ED01A5
:1042F000499159919E01240F351FE217F30771F47C
:1043000080819181840F951F029611969C938E93C4
:104310008281938113969C938E931297E0E0F0E054
:10432000D80112968D919C911397009719F0F8017E
:104330008C01F6CF8D919C9198012E5F3F4F820F9B
:10434000931F20915A0830915B082817390769F4A8
:10435000309729F410925D0810925C0802C0138215
:10436000128210935B0800935A08DF91CF911F913E
:104370000F910895A0E0B0E0E0ECF1E20C94ED1FA5
:10438000EC01009721F4CB010E948D20B8C0FC0104
:10439000E60FF71F9C0122503109E217F30708F4DA
:1043A000ACC0D9010D911C91119706171707B0F0F9
:1043B0000530110508F49FC0C801049786179707B8
:1043C00008F499C002501109061B170B01931193B1
:1043D0006D937C93CF010E9422218DC05B01A01AB6
:1043E000B10A4C01800E911EA0915C08B0915D084D
:1043F00040E050E0E12CF12C109709F44AC0A815D8
:10440000B905D1F56D907C901197630182E0C80EDB
:10441000D11CCA14DB0480F1A3014A195B096A01AB
:1044200082E0C80ED11C1296BC9012971396AC91E4
:10443000B5E0CB16D10440F0B282A3835183408310
:10444000D9016D937C930AC00E5F1F4FC301800F8B
:10445000911FF90191838083EB2DFA2FE114F10470
:1044600031F0D7011396FC93EE93129744C0F0936A
:104470005D08E0935C083FC08D919C9111974817AF
:10448000590708F4AC017D0112960D90BC91A02D46
:10449000B3CF80915A0890915B0888159905E1F493
:1044A00046175707C8F480910601909107010097BD
:1044B00041F48DB79EB740910A0150910B01841BC6
:1044C000950BE817F907C8F4F0935B08E0935A08D6
:1044D000F901718360830FC0CB010E948D207C01A4
:1044E000009759F0A801BE010E948922CE010E94C6
:1044F0002221C70104C0CE0102C080E090E0CDB708
:10450000DEB7EEE00C94092081E090E0F8940C9482
:10451000B022FB01DC0102C001900D9241505040DD
:10452000D8F70895FB01DC018D91019080190110ED
:10453000D9F3990B0895FB01DC0101900D92002045
:10454000E1F70895FB01DC014150504030F08D91BE
:104550000190801919F40020B9F7881B990B089570
:1045600010E0C4E6D0E004C0FE010E94872021963E
:0A457000C536D107C9F7F894FFCF54
:10457A00DEADBEEFFEED00005E0880000000000028
:10458A000000000001005E000000000000008A1127
:10459A000611531131114511D111000000000E010D
:1045AA00FA00C100BE00BB00BA00000000001412ED
:1045BA00141214121412141214121412B80014122F
:1045CA0014121412141214121412141214121412B1
:1045DA0000000000141206111412141214121412FC
:1045EA00000000001412061100000000FE118C13D6
:1045FA00B807ED129712FD11240816120F08C80801
:10460A000C09D7071613CE12D007C007BC07000043
:10461A00000087140000000014124368616E676589
:10462A006D656E7420706F736974696F6E20706146
:10463A007570696572652064726F69746520746F3C
:10464A00203735004368616E67656D656E7420704A
:10465A006F736974696F6E207061757069657265D0
:10466A002064726F69746520746F20353000436866
:10467A00616E67656D656E7420706F736974696FBA
:10468A006E2070617570696572652064726F6974F5
:10469A006520746F203235004368616E67656D6509
:1046AA006E7420706F736974696F6E2070617570B3
:1046BA00696572652064726F69746520746F203051
:1046CA00004368616E67656D656E7420706F73690B
:1046DA0074696F6E207061757069657265206761B3
:1046EA007563686520746F203735004368616E67AB
:1046FA00656D656E7420706F736974696F6E207072
:10470A006175706965726520676175636865207493
:10471A006F203530004368616E67656D656E742081
:10472A00706F736974696F6E2070617570696572F4
:10473A00652067617563686520746F2032350043B0
:10474A0068616E67656D656E7420706F73697469F0
:10475A006F6E207061757069657265206761756337
:10476A00686520746F2030004368616E67656D6507
:10477A006E7420616E676C65206F65696C20647267
:10478A006F6974005741524E494E47203A2045728C
:10479A0072657572206C6F7273206475206368612C
:1047AA006E67656D656E74206427616E676C65203F
:1047BA006465206C276F65696C2064726F69740088
:1047CA004368616E67656D656E7420616E676C65BE
:1047DA00206F65696C20676175636865005741528F
:1047EA004E494E47203A20457272657572206C6FA9
:1047FA007273206475206368616E67656D656E7497
:10480A00206427616E676C65206465206C276F657C
:10481A00696C20676175636865004368616E6765E6
:10482A006D656E74207669746573736520656E674D
:10483A0072656E616765005741524E494E47203A8C
:10484A0020457272657572206C6F727320647520D0
:10485A006368616E67656D656E74206465206C615E
:10486A00207669746573736520656E6772656E611B
:10487A00676500546F67676C652073656E732065A2
:10488A006E6772656E616765005741524E494E47C1
:10489A00203A20457272657572206C6F72732064BB
:1048AA007520746F67676C652073656E7320656E1B
:1048BA006772656E61676500546F67676C6520652E
:1048CA006E6772656E616765203A20005741524EE5
:1048DA00494E47203A20457272657572206C6F7294
:1048EA007320647520746F67676C6520656E6772E4
:1048FA00656E6167650053657269616C20736574E2
:10490A00757000436F6E6E6578696F6E20617520F1
:10491A0072657365617500526563657074696F6E5F
:10492A00204F53432061637469766565002362757D
:10493A006E646C65002F6554002F676F6C656D2F70
:10494A00656E6772656E6167652F73656E73002F9A
:10495A00676F6C656D2F656E6772656E6167652F2F
:10496A0076697465737365002F676F6C656D2F6F59
:10497A0065696C4761756368652F616E676C650070
:10498A002F676F6C656D2F6F65696C44726F697400
:10499A002F616E676C65002F676F6C656D2F6F6591
:1049AA00696C4761756368652F70617570696572B6
:1049BA0065417430002F676F6C656D2F6F65696C88
:1049CA004761756368652F706175706965726541C5
:1049DA00743235002F676F6C656D2F6F65696C4790
:1049EA0061756368652F7061757069657265417478
:1049FA003530002F676F6C656D2F6F65696C476185
:104A0A00756368652F706175706965726541743781
:104A1A0035002F676F6C656D2F6F65696C44726F17
:104A2A0069742F7061757069657265417430002F01
:104A3A00676F6C656D2F6F65696C44726F69742F4F
:104A4A00706175706965726541743235002F676FE0
:104A5A006C656D2F6F65696C44726F69742F706134
:104A6A0075706965726541743530002F676F6C65C2
:104A7A006D2F6F65696C44726F69742F7061757000
:0C4A8A006965726541743735000D0A0043
:00000001FF
