:100000000C9469000C9491000C9491000C94910054
:100010000C9491000C9491000C9491000C9491001C
:100020000C9491000C9491000C9491000C9491000C
:100030000C9491000C9491000C9491000C949100FC
:100040000C944F0E0C9491000C9405030C94DF0259
:100050000C9491000C9491000C9491000C949100DC
:100060000C9491000C9491008B129112A412AF1277
:10007000FA12A9138F1600000000230026002900A1
:1000800000000000240027002A00000000002500D6
:1000900028002B00040404040404040402020202E5
:1000A000020203030303030301020408102040803B
:1000B00001020408102001020408102000000008BA
:1000C000000201000003040700000000000000001F
:1000D0001B1911241FBECFEFD8E0DEBFCDBF23E038
:1000E000A2E4B2E001C01D92A536B207E1F712E02A
:1000F000A0E0B1E0E8E2F8E302C005900D92A2347E
:10010000B107D9F710E0C9E6D0E004C02197FE019D
:100110000E94E919C836D107C9F70E94990E0C94BC
:10012000121C0C940000CF92DF92EF92FF920F937B
:100130001F93CF93DF936C017A018B01C0E0D0E075
:10014000CE15DF0589F0D8016D918D01D601ED91B5
:10015000FC910190F081E02DC6010995892B11F4E5
:100160007E0102C02196ECCFC701DF91CF911F9194
:100170000F91FF90EF90DF90CF900895FC01918D4B
:10018000828D981761F0828DDF01A80FB11D5D96F9
:100190008C91928D9F5F9F73928F90E008958FEF67
:1001A0009FEF0895FC01918D828D981731F0828D1B
:1001B000E80FF11D858D90E008958FEF9FEF089572
:1001C000FC01918D228D892F90E0805C9F4F821BD6
:1001D00091098F739927089582E892E00E94E000C8
:1001E00021E0892B09F420E0822F0895FC01848D01
:1001F000DF01A80FB11DA35ABF4F2C91848D90E051
:1002000001968F739927848FA689B7892C93A0892B
:10021000B1898C9180648C93938D848D981306C0E2
:100220000288F389E02D80818F7D80830895EF928D
:10023000FF920F931F93CF93DF93EC0181E0888FA0
:100240009B8D8C8D981305C0E889F989808185FD87
:1002500024C0F62E0B8D10E00F5F1F4F0F73112778
:10026000E02E8C8DE8120CC00FB607FCFACFE8899F
:10027000F989808185FFF5CFCE010E94F600F1CF8C
:100280008B8DFE01E80FF11DE35AFF4FF0820B8FBB
:10029000EA89FB898081806207C0EE89FF896083DB
:1002A000E889F98980818064808381E090E0DF9132
:1002B000CF911F910F91FF90EF900895CF93DF930F
:1002C000EC01888D8823C9F0EA89FB89808185FD4E
:1002D00005C0A889B9898C9186FD0FC00FB607FCAF
:1002E000F5CF808185FFF2CFA889B9898C9185FFF0
:1002F000EDCFCE010E94F600E7CFDF91CF910895B8
:1003000080E090E0892B29F00E94EC0081110C9490
:1003100000000895CF93DF93FC018181813221F0A9
:10032000319681E090E003C0329680E090E0AC012D
:1003300021E0422720812D3591F0222381F0A181F7
:10034000EB013881AD3239F432171CF022812317CA
:100350003CF43396EFCF231719F03196EBCFCA0157
:10036000DF91CF910895CF93DF93EC01E881F9817C
:100370000480F581E02DCE010995892B41F0E881BB
:10038000F9810680F781E02DCE010995EFCFDF914D
:10039000CF910895DC01ED91FC910480F581E02D71
:1003A0000994CF93DF931F92CDB7DEB76983DC0149
:1003B000ED91FC910280F381E02D41E050E0BE011F
:1003C0006F5F7F4F09950F90DF91CF910895DC010A
:1003D000ED91FC91028CF38DE02D099480E008955D
:1003E0000E94E61BEF92FF920F931F93CF93DF9330
:1003F0007B010196FC0120812D37E1F02223D1F011
:100400002F32C1F08F0121912D3759F4E801C81B1B
:10041000D90BAE01B7010E94041C892B49F0C80119
:10042000E8CF222399F32F3289F32C3259F7EECFFC
:10043000CE0102C080E090E0DF91CF911F910F913B
:10044000FF90EF9008956115710579F0FB0101901F
:100450000020E9F73197AF01461B570BDC01ED9106
:10046000FC910280F381E02D099480E090E00895F2
:100470004F925F926F927F92EF92FF920F931F9332
:10048000CF93DF93CDB7DEB7A1970FB6F894DEBF59
:100490000FBECDBF7C01FA01CB0119A2223008F4B6
:1004A0002AE08E010F5D1F4F422E512C612C712CC2
:1004B000BF01A30192010E94C719F901CA010150AD
:1004C00011096A3014F4605D01C0695CD8016C9355
:1004D000232B242B252B61F7B801C7010E9423028F
:1004E000A1960FB6F894DEBF0FBECDBFDF91CF91BE
:1004F0001F910F91FF90EF907F906F905F904F90C2
:1005000008958F929F92AF92BF92CF92DF92EF9217
:10051000FF920F931F93CF93DF937C01EB016C014C
:1005200082E0C80ED11C4701E5E08E0E911C00E070
:1005300010E0F60141916F0150E060E070E02AE0C8
:10054000CE010E9438025C01E881F9810190F081BE
:10055000E02D6EE2CE0109958A0D9B1D080F191F33
:10056000C814D90431F7F701458150E060E070E02C
:100570002AE0CE010E943802800F911FDF91CF91B7
:100580001F910F91FF90EF90DF90CF90BF90AF90B1
:100590009F908F9008950F931F93CF93DF93EC015B
:1005A0000E9423028C016FEE71E0CE010E942302B3
:1005B000800F911FDF91CF911F910F9108951F928E
:1005C0000F920FB60F9211242F933F934F935F9387
:1005D0006F937F938F939F93AF93BF93EF93FF930B
:1005E00082E892E00E94F600FF91EF91BF91AF91F7
:1005F0009F918F917F916F915F914F913F912F913B
:100600000F900FBE0F901F9018951F920F920FB66C
:100610000F9211242F938F939F93EF93FF93E09169
:100620009202F09193028081E0919802F0919902F8
:1006300082FD12C0908180919B028F5F8F73209109
:100640009C02821751F0E0919B02F0E0EE57FD4FC3
:10065000958F80939B0201C08081FF91EF919F91C4
:100660008F912F910F900FBE0F901F901895CF93E1
:10067000DF9300D000D0CDB7DEB7DC011496FE01C9
:100680003196CE010596E817F90719F02E912193BE
:10069000FACF69817A818B819C810F900F900F90A6
:1006A0000F90DF91CF910895CF93DF93EC0160E13C
:1006B00070E08A859B850E941C1B9B878A87892BFB
:1006C00029F080E190E09F878E8706C083E090E06C
:1006D0009F838E831B861A861D861C86DF91CF9191
:1006E0000895EF92FF920F931F93CF93DF93EC0146
:1006F0007B01888199810E94841AF7010190002072
:10070000E9F7CF018E199F090E94EF198C0100971C
:1007100039F483E090E09F838E831982188205C0AC
:10072000B7010E94FD1B19830883CE01DF91CF9191
:100730001F910F91FF90EF900895FC0184819581A6
:100740006817790754F4660F771F0280F381E02D54
:10075000E60FF71F80819181089584E090E09783F0
:10076000868380E090E00895EF92FF920F931F93AD
:10077000CF937C01C1E0FC0186819781892B09F42C
:10078000C0E000E010E0F7018481958108171907A7
:100790007CF4B801C7010E949D03FC0191E0208117
:1007A0003181232B09F490E0C92B0F5F1F4FEBCF52
:1007B0008C2FCF911F910F91FF90EF9008953F9252
:1007C0004F925F926F927F928F929F92AF92BF9261
:1007D000CF92DF92EF92FF920F931F93CF93DF930D
:1007E000EC015B01198218821D821C821F821E820D
:1007F0001B821A821B861A861D861C861F861E86F1
:100800000E94540319861886D5016D917C91CE0102
:100810000E947103E12CF12CB8E03B2E13E0812EF5
:10082000912CF50184819581E816F9060CF085C0BC
:10083000D5011296ED91FC911397C701880F991F6E
:10084000E80FF91FC080D1808EE090E00E94EF1980
:100850008C01FC0111821082D60114968D919C911D
:1008600015979583848312964D905C9013975382CD
:10087000428286369105A1F08437910589F09C016A
:10088000285631092230310558F02B5F3F4F223076
:10089000310530F08237910519F08D36910551F40C
:1008A000F6013696D8011696832D01900D928A9501
:1008B000E1F71BC08337910519F082369105A9F441
:1008C000C2010E94EF193C01009721F4F8019182C6
:1008D00080820BC0D60116966D917C911797A2016C
:1008E0000E94EB1BF80177826682D8018D919C9162
:1008F000039719F49F828E821CC06C817D816F5F8B
:100900007F4F660F771F8A819B810E941C1B009777
:1009100089F39B838A832C813D81A901440F551F54
:10092000FC01E40FF51F118300832F5F3F4F3D83D0
:100930002C83BFEFEB1AFB0A74CFDF91CF911F918D
:100940000F91FF90EF90DF90CF90BF90AF909F906E
:100950008F907F906F905F904F903F900895FC0133
:1009600020812D3559F02CF42F3301F12B3561F016
:1009700015C02B3789F02D3749F010C0FC012081BC
:100980002B3511F00197FACF0C948A01FC012081DC
:100990002B3711F00197FACF0C94F20181E090E02F
:1009A000FB013081231721F080E0089581E090E081
:1009B0000895EF92FF920F931F93CF93DF931F92AF
:1009C000CDB7DEB77C018B01B801F80181918F01B1
:1009D0008F3229F4F70180818F3221F436C08111E2
:1009E00010C0F8CF882389F18A3261F5F70181813F
:1009F0008F3259F131E020E0811130E0832F922FC6
:100A000026C0F7012081C7012A3231F401960E94E5
:100A1000D904892BC9F219C029830E94AF04298106
:100A20000097A9F02F7D2B3549F4970179012F5FAD
:100A30003F4FF70180818F7D8D35C1F7FFEFEF1AB2
:100A4000FF0AC2CF80E090E002C081E090E00F900A
:100A5000DF91CF911F910F91FF90EF900895FC01CE
:100A6000828193811816190664F4848195818337F5
:100A7000910521F4868197810C94841A8236910520
:100A8000C9F30895EF92FF920F931F93CF93DF93D3
:100A9000EC01888199810E94841A1F821E8200E0E5
:100AA00010E08C819D81081719077CF4B801CE01F4
:100AB0000E949D037C01009729F00E942F05C70129
:100AC0000E94841A0F5F1F4FECCF8A819B810E9486
:100AD000841A1B821A821D821C8219861886CE01F6
:100AE0000E9454038A859B85DF91CF911F910F91BE
:100AF000FF90EF900C94841A4F925F926F927F92C6
:100B0000AF92BF92CF92DF92EF92FF920F931F931B
:100B1000CF93DF93CDB7DEB728970FB6F894DEBF3B
:100B20000FBECDBFFC011182108282E690E095835A
:100B30008483CA010496938382838A01052E000C64
:100B4000220B330B0D831E832F8338878E010B5F9F
:100B50001F4F9E01275F3F4FDE0111966D01A017C9
:100B6000B10731F0D901FE909D01D601FD92F6CF7B
:100B700049805A806B807C804D825E826F8278864D
:100B800018161906E4F47A015B018F010E94EF192F
:100B90006C01009731F483E090E0F8019183808349
:100BA00010C0DC014D925D926D927D92CD01A70146
:100BB000B5010E94EB1BF801D782C68202C01782E2
:100BC000168228960FB6F894DEBF0FBECDBFDF9118
:100BD000CF911F910F91FF90EF90DF90CF90BF903A
:100BE000AF907F906F905F904F900895EF92FF923B
:100BF0000F931F93CF93DF9300D0CDB7DEB77C0167
:100C0000FC011182108283E790E095838483FB01CD
:100C100001900020E9F7CF01861B970BF701938322
:100C2000828369837A830E94EF198C0169817A81BA
:100C3000009731F483E090E0F7019183808305C051
:100C40000E94FD1BF701178306830F900F90DF9121
:100C5000CF911F910F91FF90EF900895CF92DF9267
:100C6000EF92FF920F931F93CF93DF93C3ECD0E0EB
:100C70000FEA10E03BE9E32E30E0F32EFE01849111
:100C8000F801C490F701D490DD2079F081110E9421
:100C9000800D8D2D90E0880F991F8A589F4FFC0181
:100CA000A591B4918C91C82249F7DF91CF911F9102
:100CB0000F91FF90EF90DF90CF900895CF93DF9347
:100CC0001F92CDB7DEB7898389818EBD00000DB438
:100CD00007FEFDCF8EB52AE030E00000215031093B
:100CE000E1F70F90DF91CF910895CF93DF93D82F45
:100CF000C62F80EE0E945E06E3E2F0E03197F1F746
:100D00008D2F8F770E945E068C2F0E945E06C11188
:100D100005C08EEEDF91CF910C945E06DF91CF91EE
:100D20000895CF92DF92EF92FF920F931F93CF938C
:100D3000DF931F92CDB7DEB7E82E8B01F42E812F03
:100D400099830E945E06802F0E945E06CE2C9981B8
:100D5000D92E0C0D1D1DC016D10631F0F601819162
:100D60006F010E945E06F7CFF1E0FF120CC08EEE1D
:100D70000F90DF91CF911F910F91FF90EF90DF9037
:100D8000CF900C945E060F90DF91CF911F910F9141
:100D9000FF90EF90DF90CF900895DF92EF92FF9257
:100DA0000F931F93CF93DF937C01C62FD42E862FF2
:100DB0000E945E068701D0E0C8018E199F098C173A
:100DC0009D0734F4F80181918F010E945E06F4CFF3
:100DD000F1E0DF120AC08EEEDF91CF911F910F91EB
:100DE000FF90EF90DF900C945E06DF91CF911F9102
:100DF0000F91FF90EF90DF900895CF93DF93EC0178
:100E00008FEF0E945E0688838AE090E000000197E1
:100E1000E9F7DF91CF910895CF93DF931F92CDB77C
:100E2000DEB71982CE0101960E94FD0689810F90DE
:100E3000DF91CF9108956F927F928F929F92AF92A0
:100E4000BF92CF92DF92EF92FF920F931F93CF93B7
:100E5000DF931F92CDB7DEB7182FC62E7A01198205
:100E60000E94CD0C892B19F480E090E03EC0CE01A9
:100E700001960E94FD06106889818113F5CF0E94BA
:100E80000C07D82E882381F38701A12CB12C882E42
:100E9000912CA814B9040CF58FEF0E945E06F8019E
:100EA0008083E12CF12CF801808190E0E816F906AE
:100EB00074F4F801618072806E0C7F1C8FEF0E94C9
:100EC0005E06F3018083FFEFEF1AFF0AECCFFFEF1E
:100ED000AF1ABF0A0D5F1F4FDCCFCD10C5CFCE01BB
:100EE00001960E94FD0681E090E00F90DF91CF9186
:100EF0001F910F91FF90EF90DF90CF90BF90AF9038
:100F00009F908F907F906F90089561E08AE00C949D
:100F1000A90D60E08AE00C94A90DCF93CFB7F894A7
:100F200080917802811127C0EEE9F0E08491E2EB34
:100F3000F0E09491E82FF0E0EE0FFF1FE058FF4F34
:100F4000A591B491EC91E92321F461E08AE00E943B
:100F5000A90D61E08AE00E94D90D8CB580618CBD3D
:100F60008CB580648CBD61E08DE00E94D90D61E09C
:100F70008BE00E94D90D809178028F5F8093780278
:100F8000CFBF61E08AE00E94D90D60E087E00E9457
:100F9000D90D61E089E00E94D90D61E08AE00E94EC
:100FA000A90D61E08AE00E94A90D60E089E0CF917F
:100FB0000C94A90DCF92DF92EF92FF920F931F93A3
:100FC000CF93DF9300D0CDB7DEB78C016B01DC018E
:100FD000ED91FC910480F581E02D0995892B19F4A0
:100FE0008FEF9FEF57C0F80184858A83809181023B
:100FF000811105C00E948D0781E0809381020E94CB
:101000002E060E94890761E085E40E94750641E092
:1010100061E070E0CE0102960E9491060E942E06C9
:1010200019820E94CD0C892B19F400E010E02BC02E
:10103000CE0101960E94FD068981853CB1F70E9490
:101040000C078823D1F08FEF0E945E06082F8FEFE8
:101050000E945E06002E000C110B102F0027082B9B
:101060007601C00ED11EEC14FD0449F08FEF0E94F2
:101070005E06D7018D937D01F6CF00E010E0CE0132
:1010800001960E94FD060E9485070115110509F4CD
:10109000A7CFC8010F900F90DF91CF911F910F91B3
:1010A000FF90EF90DF90CF900895EF92FF920F9313
:1010B0001F93CF93DF9300D01F92CDB7DEB77B0194
:1010C0008A01FC0184858B8380918102811105C096
:1010D0000E948D0781E0809381020E942E060E946B
:1010E000890762E086E40E94750640E061E070E0F6
:1010F000CE0103960E94910641E0B801C7010E940B
:1011000091060E942E061A821982AE014F5F5F4F30
:10111000BE016E5F7F4F86E40E94330D0E948507FB
:10112000C8010F900F900F90DF91CF911F910F91F9
:10113000FF90EF900895CF93DF9300D01F92CDB72B
:10114000DEB7FC0184858B8380918102811105C00B
:101150000E948D0781E0809381020E942E060E94EA
:10116000890761E089E30E94750641E061E0CE01F4
:1011700003960E94CD060E942E061A821982AE01A5
:101180004F5F5F4FBE016E5F7F4F89E30E94330D5B
:101190000E9485078981882321F081E09A8191301E
:1011A00009F080E090E00F900F900F90DF91CF91C9
:1011B0000895DF92EF92FF920F931F93CF93DF93E7
:1011C000CDB7DEB728970FB6F894DEBF0FBECDBF00
:1011D000FC0184858F3F69F4A9E7B2E090E02D918E
:1011E0003D91232B21F09F5F9430C9F701C0892FD7
:1011F000848784858F3F09F459C0E52EF42EDB01E6
:101200008F0112964D915D916D917C911597498357
:101210005A836B837C838887DD24D394DF8280911B
:101220008102811104C00E948D07D09281020E9428
:101230002E060E94890764E08DE20E94750640E058
:1012400064E0CE0101960E94CD0682E00E945E0617
:101250008E2D0E945E068F2D0E945E0640E061E0AA
:10126000CE0108960E94CD0641E061E0CE010796CE
:101270000E94CD060E942E061E821D82AE014B5F8B
:101280005F4FBE016A5F7F4F8DE20E94E60C0E94B5
:101290008507F801848590E0FC01EE0FFF1FE05EFA
:1012A000FE4F9183808381E090E002C080E090E077
:1012B00028960FB6F894DEBF0FBECDBFDF91CF9159
:1012C0001F910F91FF90EF90DF9008954F925F92E2
:1012D0006F927F929F92AF92BF92CF92DF92EF92E6
:1012E000FF920F931F93CF93DF93CDB7DEB72C9769
:1012F0000FB6F894DEBF0FBECDBF7C018B016A0133
:1013000080914202811105C00E948D0781E0809387
:1013100042020E942E060E94890761E084E30E9437
:101320007506F80101900020E9F73197BF01601BB5
:10133000710B41E0C8010E94CD060E942E061F825B
:101340001982AE014F5F5F4FBE01695F7F4F84E33B
:101350000E94E60C8C870E9485078C85811103C052
:1013600080E090E063C01AE0412C512C32010FEF75
:10137000992493940B830C830D830E8380914202F6
:10138000811104C00E948D07909242020E942E0695
:101390000E94890760E085E30E9475060E942E0680
:1013A0001B86AE01455F5F4FBE01695F7F4F85E3DE
:1013B0000E94E60C892B99F04F80588469847A84C6
:1013C00091E080E04B815C816D817E814416550601
:1013D0006606770609F490E0A92EB82E02C0A12C6B
:1013E000B12C0E948507AB2851F4115009F4B8CFF5
:1013F00068EE73E080E090E00E94150EBBCF1123F1
:1014000009F4AECFD701ED91FC910288F389E02D6C
:1014100088E691E09A8389834B825C826D827E822A
:10142000A601BE016F5F7F4FC70109952C960FB6CD
:10143000F894DEBF0FBECDBFDF91CF911F910F910A
:10144000FF90EF90DF90CF90BF90AF909F907F90F4
:101450006F905F904F9008950F931F93CF93DF93FA
:1014600000D01F92CDB7DEB7FC0124852F3F59F184
:101470008C012B8380918102811105C00E948D0710
:1014800081E0809381020E942E060E94890761E01C
:101490008EE20E94750641E061E0CE0103960E9453
:1014A000CD060E942E061A821982AE014F5F5F4F51
:1014B000BE016E5F7F4F8EE20E94E60C0E948507A0
:1014C0008FEFF80184870F900F900F90DF91CF91ED
:1014D0001F910F910895CF93DF9300D000D0CDB727
:1014E000DEB7FC0184858F3F59F18C8380918102A6
:1014F000811105C00E948D0781E0809381020E94C6
:101500002E060E94890761E08BE20E94750641E089
:1015100061E0CE0104960E94CD060E942E061B8239
:101520001A821982AE014D5F5F4FBE016F5F7F4F20
:101530008BE20E94E60C0E94850789819A8102C095
:1015400080E090E00F900F900F900F90DF91CF917F
:101550000895AF92BF92CF92DF92EF92FF920F93D6
:101560001F93CF93DF9300D000D0CDB7DEB7E9E76C
:10157000F2E000E010E0A02E21913191232B79F4CC
:101580006B017C010C83BB24B394BB8280918102EC
:1015900081110CC00E948D07B092810207C00F5FBD
:1015A0001F4F0430110539F780E038C00E942E0625
:1015B0000E94890763E088E20E94750682E00E942B
:1015C0005E068D2D0E945E068C2D0E945E0640E018
:1015D00061E0CE0104960E94CD0641E061E0CE01BB
:1015E00003960E94CD060E942E061A821982AE0131
:1015F0004F5F5F4FBE016E5F7F4F88E20E94E60C37
:101600000E948507000F111FF801E758FD4FC082A7
:10161000D182F701A486C586D68681E00F900F900F
:101620000F900F90DF91CF911F910F91FF90EF904E
:10163000DF90CF90BF90AF900895CF93DF9300D00D
:10164000CDB7DEB780914202811105C00E948D079F
:1016500081E0809342020E942E060E94890760E08A
:1016600080E20E9475060E942E068FEF8A831982FF
:10167000AE014F5F5F4FBE016E5F7F4F80E20E9401
:10168000E60C0E9485078A810F900F90DF91CF9121
:1016900008950F931F93CF93DF93CDB7DEB72797AE
:1016A0000FB6F894DEBF0FBECDBF8F838E010F5FE4
:1016B0001F4F86E0F80111928A95E9F77B836A83D0
:1016C0005E834D8380914202811105C00E948D0787
:1016D00081E0809342020E942E060E94890761E009
:1016E0008AE30E94750641E061E0CE0107960E9400
:1016F000CD060E942E06A80162E08AE30E941B0725
:101700000E94850727960FB6F894DEBF0FBECDBFA7
:10171000DF91CF911F910F910895CF93DF9300D068
:1017200000D000D0CDB7DEB719821A821B821C828E
:101730001E821D82AE014B5F5F4FBE016F5F7F4F08
:10174000FC0184850E94490B8D8190E0982F8827A9
:101750002E81820F911D26960FB6F894DEBF0FBE24
:10176000CDBFDF91CF9108950F931F93CF93DF9358
:1017700000D000D000D0CDB7DEB78C01FB011982BC
:101780001A821B821C821E821D82AE014B5F5F4F3C
:10179000BE016F5F7F4F84850E94490B88E691E010
:1017A000F8019183808389819A81AB81BC81828396
:1017B0009383A483B583C80126960FB6F894DEBF41
:1017C0000FBECDBFDF91CF911F910F910895FF9272
:1017D0000F931F93CF93DF9300D01F92CDB7DEB747
:1017E0008B838B01F42E80918102811105C00E94B0
:1017F0008D0781E0809381020E942E060E94890756
:1018000062E08CE20E94750640E061E0CE01039642
:101810000E94CD0682E00E945E0680E00E945E0685
:101820008F2D0E945E068EEE0E945E060E942E069E
:101830001A821982AE014F5F5F4FBE016E5F7F4F0C
:101840008CE20E94330D0E9485078981882329F04C
:101850008A81F801808381E001C080E00F900F90C1
:101860000F90DF91CF911F910F91FF9008950F93EB
:101870001F93CF93DF931F92CDB7DEB78C01DC01AE
:10188000ED91FC910480F581E02D0995892B59F0AB
:1018900041E0BE016F5F7F4FF80184850E94E70B36
:1018A000898190E002C08FEF9FEF0F90DF91CF9181
:1018B0001F910F9108950F931F93CF93DF931F9262
:1018C000CDB7DEB78C01DC01ED91FC910480F58190
:1018D000E02D0995892B59F040E0BE016F5F7F4FE5
:1018E000F80184850E94E70B898190E002C08FEFA8
:1018F0009FEF0F90DF91CF911F910F9108953FB708
:10190000F8948091330390913403A0913503B09102
:10191000360326B5A89B05C02F3F19F00196A11DDF
:10192000B11D3FBFBA2FA92F982F8827820F911D75
:10193000A11DB11DBC01CD0142E0660F771F881FBC
:10194000991F4A95D1F70895CF92DF92EF92FF92B7
:10195000CF93DF936B017C01E0918202F0918302CF
:101960000190F081E02D6DE282E892E00995EC01B2
:1019700044275527BA014C195D096E097F092AE0F1
:1019800082E892E00E9438028C0F9D1FDF91CF9178
:10199000FF90EF90DF90CF900895CF93DF93C9EE43
:1019A000D3E00E940C078F3E29F0219731F0803E52
:1019B000C1F703C08FEF9FEF06C021E090E0803EAB
:1019C00009F020E0822FDF91CF910895CF92DF922E
:1019D000EF92FF920F931F93CF93DF931F92CDB798
:1019E000DEB7182F6B017A0119820E94CD0C892B6A
:1019F00019F480E090E02DC0CE0101960E94FD0612
:101A0000106889818113F5CFCE0101960E94FD06F1
:101A10008981813071F78FEF0E945E06E114F10435
:101A200011F0F701808300E010E0F701808190E081
:101A30000817190744F4C601800F911F0E94FD0684
:101A40000F5F1F4FF2CFCE0101960E94FD0681E08D
:101A500090E00F90DF91CF911F910F91FF90EF9049
:101A6000DF90CF900895CF92DF92EF92FF920F9385
:101A70001F93CF93DF931F92CDB7DEB7F82E6B0184
:101A80008A0119820E94CD0C892B19F480E090E024
:101A90002DC0CE0101960E94FD068F2D8068998190
:101AA0009813F4CF0E940C07811107C0CE01019654
:101AB0000E94FD0681E090E019C08FEF0E945E0653
:101AC0000115110511F0F80180837601F80180817C
:101AD00090E097012C193D09281739073CF78FEF43
:101AE0000E945E06F70181937F01F0CF0F90DF9196
:101AF000CF911F910F91FF90EF90DF90CF900895BD
:101B0000833081F028F4813099F08230A1F008957B
:101B10008730A9F08830B9F08430D1F4809180000A
:101B20008F7D03C0809180008F778093800008951F
:101B300084B58F7702C084B58F7D84BD0895809170
:101B4000B0008F7703C08091B0008F7D8093B0008C
:101B500008951F93CF93DF93282F30E0F901E454C9
:101B6000FF4F8491F901E855FF4FD491F901EC56EC
:101B7000FF4FC491CC23C9F0162F81110E94800D14
:101B8000EC2FF0E0EE0FFF1FE657FF4FA591B49149
:101B90008FB7F894111105C09C91ED2FE095E923C2
:101BA00002C0EC91ED2BEC938FBFDF91CF911F9191
:101BB0000895CF93DF9390E0FC01E855FF4F249107
:101BC000FC01EC56FF4F8491882361F190E0880F6F
:101BD000991FFC01E058FF4FC591D491FC01E657D5
:101BE000FF4FA591B491611109C09FB7F894888106
:101BF000209582238883EC912E230BC0623061F400
:101C00009FB7F8943881822F809583238883EC9145
:101C10002E2B2C939FBF06C08FB7F894E8812E2BF4
:101C200028838FBFDF91CF9108958F929F92AF92BB
:101C3000BF92CF92DF92EF92FF926B017C010E94E4
:101C40007F0C4B015C01C114D104E104F104F1F0FB
:101C50000E947F0CDC01CB0188199909AA09BB09F4
:101C6000883E9340A105B10570F321E0C21AD10866
:101C7000E108F10888EE880E83E0981EA11CB11CD3
:101C8000C114D104E104F10419F7DDCFFF90EF9006
:101C9000DF90CF90BF90AF909F908F9008951F924C
:101CA0000F920FB60F9211242F933F938F939F9310
:101CB000AF93BF9380912F0390913003A091310394
:101CC000B091320330912E0323E0230F2D3720F4FF
:101CD0000196A11DB11D05C026E8230F0296A11D86
:101CE000B11D20932E0380932F0390933003A09374
:101CF0003103B09332038091330390913403A09168
:101D00003503B09136030196A11DB11D80933303B5
:101D100090933403A0933503B0933603BF91AF91F2
:101D20009F918F913F912F910F900FBE0F901F9019
:101D30001895CF93DF93CDB7DEB7C755D1090FB64E
:101D4000F894DEBF0FBECDBF789484B5826084BDA9
:101D500084B5816084BD85B5826085BD85B58160AF
:101D600085BD80916E00816080936E00109281002D
:101D700080918100826080938100809181008160E8
:101D800080938100809180008160809380008091A9
:101D9000B10084608093B1008091B0008160809335
:101DA000B00080917A00846080937A0080917A00FC
:101DB000826080937A0080917A00816080937A00BB
:101DC00080917A00806880937A001092C100E0913F
:101DD0009202F091930282E08083E0918E02F09172
:101DE0008F021082E0919002F09191028FEC80833B
:101DF00010929A02E0919602F091970286E0808319
:101E0000E0919402F0919502808180618083E0915D
:101E10009402F0919502808188608083E091940221
:101E2000F0919502808180688083E0919402F09126
:101E3000950280818F7D80830E941D0B8F3F39F436
:101E400066E771E082E892E00E94CB02FFCF8091CA
:101E50004202811105C00E948D0781E080934202F9
:101E60000E942E060E94890760E087E30E947506A3
:101E70000E942E0619829E012F5F3F4F7901A90112
:101E800064E472E087E30E94E60C0E948507E4E4C4
:101E9000F2E001900020E9F731978F0104541240DD
:101EA000B8016F5F7F4F80E090E00E941C1B6C01C7
:101EB000009779F0DC011C9264E472E00E94FD1B43
:101EC000012B39F06EE871E0C6010E94F41B892BEA
:101ED00031F064E971E082E892E00E94CB0200E018
:101EE000A02E01E0B02E7724739466246A9480912A
:101EF000760290917702039709F469C060EB71E074
:101F000082E892E00E94230266E171E082E892E0BA
:101F10000E94CB02F50101900020E9F731979F0163
:101F2000205031404901E6E1F1E001900020E9F75D
:101F300031978F010651114080914202811104C0F6
:101F40000E948D07709242020E942E060E9489070D
:101F500062E081E10E94750640E0602F86E191E039
:101F60000E94CD0641E0682D80E091E00E94CD0600
:101F70000E942E06198A1982A701BE016F5E7F4F4B
:101F800081E10E94E60C892B09F4698A0E94850789
:101F900089898F3F79F01AE068E873E180E090E08A
:101FA0000E94150E0E941D0B982F9D7F21F4115049
:101FB00099F701C084E090E09093770280937602D5
:101FC00060E177E280E090E00E94150E90CF60ED36
:101FD00071E082E892E00E94CB0269EC71E082E855
:101FE00092E00E94230280914202811105C00E946A
:101FF0008D0781E0809342020E942E060E9489078D
:1020000061E083E20E9475068FEF898B41E061E019
:10201000CE0141960E94CD060E942E061982A7018C
:102020006AE472E083E20E94E60C0E9485076AE49B
:1020300072E082E892E00E94CB0288E691E09A8BFF
:10204000898B1B8A1C8A1D8A1E8A89E0D7011D92F2
:102050008A95E9F782E792E09B838A838EE692E095
:102060009E838D838AE692E09987888780914202D9
:10207000811105C00E948D0781E0809342020E9479
:102080002E060E94890761E081E20E9475068FEFAB
:1020900089A341E061E0CE0181960E94CD060E94B5
:1020A0002E06A70163E081E20E941B070E948507BC
:1020B0008091720290917302A0917402B0917502A6
:1020C0008B8B9C8BAD8BBE8B62EE71E082E892E0D5
:1020D0000E94230262E872E0CE0141960E948102D2
:1020E0006FEE71E082E892E00E942302809142024A
:1020F000811105C00E948D0781E0809342020E94F9
:102100002E060E94890761E085E20E9475068FEF26
:1021100089A741E061E0CE0189960E94CD060E9428
:102120002E0619A219821A821B821C82AE014F5DF3
:102130005F4FB70185E20E94E60C0E948507898007
:102140009A80AB80BC8062EF71E082E892E00E94EE
:102150002302B7FE05C0C501B4010E94A40C07C04C
:102160002AE0B501A40182E892E00E9438026AE008
:1021700072E082E892E00E94CB026FE072E082E8B7
:1021800092E00E94CB0268EB72E28FE193E00E9442
:10219000A90AC6010E94841AFE0175962396FFAF14
:1021A000EEAF23979E012B5F3F4F25963FAF2EAF9B
:1021B00025978FE193E00E94CA0161969FAF8EAF91
:1021C00061971816190614F00C94E918812C912CBB
:1021D00027961FAE1EAE279729961FAE1EAE2997D3
:1021E0002D961FAE1EAE2D972F961FAE1EAE2F97AB
:1021F0002B961FAE1EAE2B9714E0212E312C61962C
:102200002EAD3FAD61972150310961963FAF2EAFA2
:1022100061972F3F3F4F09F4E1C58FE193E00E94A2
:102220005B0CD82E84010F5F1F4FB80127968EAD2F
:102230009FAD27970E941C1B27969FAF8EAF2797B5
:10224000009731F0FC01E80DF91DD082480106C06D
:1022500023E030E02D963FAF2EAF2D9729962EAD7F
:102260003FAD29972230310509F441C024F42130D3
:102270003105A9F00CC029962EAD3FAD299723302A
:10228000310509F440C02430310509F4E0C033E2DF
:10229000D31609F499C58FE2D812B1CFC6C038E081
:1022A0008316910409F0ABCF27966EAD7FAD2797CB
:1022B0008FE192E00E94F41B892B31F022E030E0A4
:1022C0002D963FAF2EAF2D9727968EAD9FAD2797BA
:1022D0000E94841A812C912C27961FAE1EAE279740
:1022E00022E030E029963FAF2EAF299788CF38E023
:1022F0008316910409F083CF27968EAD9FAD279763
:102300000E94841A50C534E08316910409F077CFF7
:102310002796EEADFFAD279780819181A281B38191
:10232000898B9A8BAB8BBC8BDE015596FE01319667
:1023300025962EAD3FAD2597E217F30719F08E9144
:102340008193F6CF89819A81AB81BC81898B9A8BED
:10235000AB8BBC8BAC01BD0143705527662777273B
:10236000452B462B472B09F032C50097A105B10537
:1023700009F42DC563969FAF8EAF639727968EADF8
:102380009FAD27970E94841A80E190E00E94EF1988
:102390008C01DC0111961C921E9215961C921E92C5
:1023A000149717961C921E92169713961C921E92C3
:1023B00012971B961C921E921A971D961C921E92A3
:1023C0001C971F961C921E921E970E945403F801A0
:1023D0001186108622E030E0378326832F96CEAC1C
:1023E000DFAC2F973FEFC31AD30A7601EE0CFF1C28
:1023F000B7012B968EAD9FAD2B970E941C1B0097AB
:10240000B9F0E80EF91EF7013297118300832F9679
:10241000DFAECEAE2F972B969FAF8EAF2B97812C32
:10242000912C27961FAE1EAE279724E030E05ACF9E
:10243000812C912C27961FAE1EAE279724E030E00A
:1024400029963FAF2EAF299723E030E0C2C42F96E4
:102450002EAD3FAD2F972115310509F4D0CEF901EE
:10246000E150F048EE0FFF1F2B962EAD3FAD2B979E
:10247000E20FF31F00811181D8011E962D913C912E
:102480001F971A968D919C911B971C966D917C912C
:102490001D97121613068CF49B012F5F3F4F1D965C
:1024A0003C932E931C97FC01E60FF71FD0821E96DB
:1024B0008D919C911F97019717C06F5E7F4F0E946F
:1024C0001C1BF80193878287009799F02485358536
:1024D000A9014F5F5F4F55874487FC01E20FF31F4F
:1024E000D08280E190E0D8011F969C938E931E9736
:1024F00005C023E030E0F80137832683D801189621
:10250000ED91FC911997E730F10508F03BC4EC5CC4
:10251000FF4F0C94E919BFE2DB1234C421E030E034
:1025200021C4D1102FC4D8011A966D917C911B97AC
:10253000C8010E947103F80117821682C8010E9427
:102540005403E2E0F0E0FFC0FCE2DF121BC4E3E072
:10255000F0E0D8011996FC93EE9318979EC0DD2009
:1025600009F445C08EE090E00E94EF197C01E2E0A2
:10257000F0E0DC011196FC93EE938D2DDD0C990BB0
:1025800015969C938E93149713961C921E921297F5
:10259000D80114966D917C9115976F5F7F4F660FF0
:1025A000771F12968D919C9113970E941C1B009788
:1025B00031F423E030E0F801378326831BC0D801D3
:1025C00013969C938E93129714962D913C91159788
:1025D000A901440F551FFC01E40FF51FF182E082B1
:1025E0002F5F3F4F15963C932E93149703C0F8012D
:1025F00031862086D80114962D913C911597C901FA
:102600008095909583709927009711F484E090E06D
:10261000820F931FF801248535852817390709F0A3
:10262000B1C3C8010E945403E5E0F0E08CC04980CA
:102630005A806B807C80D80114968D919C9115975F
:10264000E816F9060CF0C0C0B701C8010E949D034E
:102650006C01009729F00E942F05C6010E94841A80
:102660008EE090E00E94EF19FC011182108289E651
:1026700090E09583848333822282468257826086EB
:102680007186EE0CFF1CD80112968D919C911397C8
:10269000DC01AE0DBF1DED93FC93C8010E945403F5
:1026A00071C3FFEFEF1AFF0AD80114968D919C9128
:1026B0001597E816F9060CF065C3B701C8010E942A
:1026C0009D03DC012D913C9111972230310549F792
:1026D0001496AD90BC901597B6E6AB16B10409F40C
:1026E0008AC0D4F133E7A316B10409F040C0D11079
:1026F00049C3D8011A96CD90DC901B9714968D9102
:102700009C911597E816F9060CF439C2E816F906FB
:1027100009F001C38EE090E00E94EF197C01B60140
:102720000E94F605F701808191818330910509F0BF
:102730003BC2D80117969C938E931697C8010E94AE
:102740005403E6E0F0E0D8011996FC93EE93189755
:1027500019C3E12CF12CA8CFF2E6AF16B10409F4AD
:1027600032C224E6A216B10409F4A0C00BC384E768
:10277000A816B10409F424C199E6A916B10409F018
:1027800001C3D8011C968D919C911D97049709F067
:10279000F9C21A96ED91FC911B9780819181A281DB
:1027A000B381898B9A8BAB8BBC8BDE015596FE0176
:1027B000319625962EAD3FAD2597E217F30709F424
:1027C00036CF8E918193F5CFE816F90609F0D3C183
:1027D0008EE090E00E94EF196C01FC0111821082E2
:1027E00089E690E0958384833382228246825782F1
:1027F00060867186BFC0D8011C968D919C911D97F3
:10280000049709F0BFC21A96ED91FC911B97808145
:102810009181A281B381898B9A8BAB8BBC8BDE01BA
:102820005596FE01319625962EAD3FAD2597E217C0
:10283000F30719F08E918193F6CF49805A806B800F
:102840007C80D80114968D919C911597E816F90615
:10285000D4F4B701C8010E949D036C01009729F0D0
:102860000E942F05C6010E94841A8EE090E00E940B
:10287000EF19FC011182108226E630E035832483B3
:102880003382228259C0E816F90609F074C18EE03D
:1028900090E00E94EF196C01FC011182108226E683
:1028A00030E035832483338222825DC0D8011C96B8
:1028B0008D919C911D97089709F064C21A96ED912D
:1028C000FC911B9788E0DE01119601900D928A958C
:1028D000E1F7DE011596FE01719623962EAD3FAD10
:1028E0002397E217F30719F08E918193F6CF498869
:1028F0005A886B887C88D80114968D919C91159785
:10290000E816F906F4F4B701C8010E949D036C01B2
:10291000009729F00E942F05C6010E94841A8EE0BC
:1029200090E00E94EF19FC01118210823382228212
:1029300026E630E03583248346825782608671869E
:10294000A0CEE816F90609F016C18EE090E00E94CC
:10295000EF196C01FC01118210823382228226E67B
:1029600030E035832483D60116964D925D926D92A8
:102970007C921997B7016F5F7F4F660F771FF80141
:10298000828193810E941C1B009741F4E3E0F0E0F8
:10299000D8011796FC93EE9316977FCED801139625
:1029A0009C938E93129714962D913C911597A901A3
:1029B000440F551FFC01E40FF51FD182C082D4C023
:1029C000D8011C96CD90DC901D97B8E0CB16D104B1
:1029D00009F0D8C1D8011A96ED91FC911B9788E0B7
:1029E000DE01519601900D928A95E1F7CE01419654
:1029F0000E943703698B7A8B8B8B9C8BCE0145961B
:102A00000E9437036D8B7E8B8F8B988F88E0FE0141
:102A10007196DE01D99601900D928A95E1F7F80141
:102A200084819581E816F9060CF045C0B701C8010C
:102A30000E949D036C01009729F00E942F05C6019A
:102A40000E94841A88E0FE01F996DE011196019039
:102A50000D928A95E1F78EE090E00E94EF1928E050
:102A6000FE013196DE01D19601900D922A95E1F793
:102A7000DC0111961C921E92E4E7F0E01596FC939F
:102A8000EE93149728E030E013963C932E93129720
:102A9000FE01F196169601900D922A95E1F7EE0C43
:102AA000FF1CD8011296ED91FC911397EE0DFF1DBE
:102AB00091838083F2CDE816F90609F05CC088E0C6
:102AC000FE01F996DE01999601900D928A95E1F743
:102AD00088E0FE01B996DE01119601900D928A956B
:102AE000E1F78EE090E00E94EF193C0188E0FE01E2
:102AF0003196DE01919601900D928A95E1F7F301EE
:102B000011821082B582A482D382C28288E0FE0143
:102B1000B196D301169601900D928A95E1F7B7010F
:102B20006F5F7F4F660F771FD80112968D919C9132
:102B300013970E941C1B009731F423E030E0F8014A
:102B400037832683AACDD80113969C938E93129730
:102B500014962D913C911597A901440F551FFC0126
:102B6000E40FF51F718260822F5F3F4F15963C93F3
:102B70002E93149792CDF801378226828ECDB7011D
:102B8000C8010E949D035C01009729F00E942F0557
:102B9000C5010E94841A8EE090E00E94EF195C014A
:102BA000B6010E94F6055BC0F801648175816F5F14
:102BB0007F4F660F771F828193810E941C1B0097B5
:102BC00009F091C071C0D8011C96AD90BC901D97C2
:102BD000B5E0AB16B1040CF4D5C0F801C284D384BF
:102BE000F60180819181A281B38189839A83AB832D
:102BF000BC83CE0101960E9437032B013C01C50125
:102C0000BB0CAA0BBB0BB301A2014C5F5F4F6F4F14
:102C10007F4F84179507A607B70709F0B3C0F4E004
:102C2000CF0ED11CD80114968D919C911597E81662
:102C3000F90644F5B701C8010E949D035C010097A5
:102C400029F00E942F05C5010E94841A8EE090E0B1
:102C50000E94EF195C01A201B6010E947C05F501FA
:102C6000808191818330910509F463CDEE0CFF1CC6
:102C7000D8011296ED91FC911397EE0DFF1DB182D4
:102C8000A0825CCDE816F90609F045C08EE090E020
:102C90000E94EF197C01A201B6010E947C05F70198
:102CA00080819181039741F4E3E0F0E0D801179629
:102CB000FC93EE93169742CDD80114966D917C91BA
:102CC00015976F5F7F4F660F771F12968D919C91BE
:102CD00013970E941C1B009731F423E030E0F801A9
:102CE000378326832BCDD80113969C938E9312970E
:102CF00014962D913C911597A901440F551FFC0185
:102D0000E40FF51FF182E0822F5F3F4F15963C9351
:102D10002E93149713CDF801378226820FCDF80138
:102D2000E480F580F1E0EF1AF10803C031E0E31A26
:102D3000F108F7FC27C0B701C8010E949D03DC0120
:102D40002D913C911197232B89F712968D919C918F
:102D5000139791958195910983709927009731F484
:102D600025E030E0F801318720870CC0D8011C969F
:102D70002D913C911D972817390721F4C8010E9415
:102D80005403EECF63968EAD9FAD63978816990678
:102D900099F427968EAD9FAD27970E94841A63966B
:102DA0009FAE8EAE6397812C912C27961FAE1EAEE0
:102DB000279723E030E096CA63968EAD9FAD639768
:102DC0008815990524F01BCA21E030E08BCA22E067
:102DD00030E02D963FAF2EAF2D9711CA2A962FAC1B
:102DE0002A972B963FAC2B972F962EAD3FAD2F9762
:102DF00065963FAF2EAF6597DD24D3942D962EAD0B
:102E00003FAD2D97232B09F4D12C2B962EAD3FAD42
:102E10002B9761963FAF2EAF61978901E12CF12C82
:102E20002F962EAD3FAD2F97E216F3065CF4D80136
:102E30008D919D918D010E94B403D82ABFEFEB1AAA
:102E4000FB0AEECFD110B2C1232B59F02B96AEADB9
:102E5000BFAD2B970D90BC91A02D6796BFAFAEAFC5
:102E6000679767966EAD7FAD6797CE0141960E94DA
:102E7000DF0360E070E0CE0141960E949D038C016B
:102E8000CE0141960E94B403811103C0F801648110
:102E900001C060E0062E000C770B695D7D4F82E873
:102EA00092E00E94CB022B961FAE1EAE2B972B9664
:102EB0002EAD3FAD2B972F968EAD9FAD2F97281738
:102EC00039070CF06EC16196AEADBFAD61976D91E3
:102ED0007D916196BFAFAEAF6197CE0101960E9422
:102EE000DF0389809A8060E771E0C4010E94F41BCF
:102EF000892B31F0840180E7C82E81E0D82E4CC0A8
:102F0000F40101900020E9F73197CF018819990960
:102F100030C1F8012081222309F412C12A3209F0BC
:102F2000CEC02D96DFAECEAE2D97F6015F0181911A
:102F30008F32B9F529961FAF0EAF2997F80180E0BF
:102F400090E07F0121912F3291F5B1E0EB1AF10869
:102F5000E1E0AE1AB1088130910531F5D7011C913D
:102F60001A3259F529960EAD1FAD2997F8018191B6
:102F70002996FFAFEEAF29978F3209F09AC02D96B0
:102F8000CEACDFAC2D97D6018D912D96BFAFAEAFF5
:102F90002D978F3209F090C0D6014C914111B9CFD5
:102FA000CFC08111C3CFC6CF0297B9F17AC0222317
:102FB00061F22A3231F60196C4CFB501C7010E94F1
:102FC000AF04892B09F4DEC01F7D1D3549F4D701FC
:102FD0008C918F7D8B3521F0F1E0EF1AF108F7CF5E
:102FE000B1E0EB1AF108E1E0AE1AB108B7CFB501D4
:102FF000C70168962FAF68970E94AF0468962FADFF
:103000006897892B09F4BEC02F7D2D3559F0F1E06A
:10301000EF1AF10821E0A21AB108D7012C912A3247
:1030200031F709C0F70180818F7D8B3581F3B1E0E5
:10303000EB1AF108F7CFBFEFAB1ABB0AE1E0EE1ACB
:10304000F108CA14DB0408F09DC03701F1E0AF1AA3
:10305000B1082501D3012C912A3261F0B201C301DC
:1030600068962FAF68970E94AF0468962FAD689757
:10307000892B21F46016710621F774CF2F7D2D3531
:1030800049F4D3018C918F7D8B3521F021E0621AB8
:103090007108F7CFB1E06B1A7108E1E04E1A5108E0
:1030A000D9CFB601C8010E94D904892B09F05ACFA3
:1030B00069C0811157CF63CF811161CF6DCF4A3283
:1030C00091F4F8018F0181918F3211F4F60106C05D
:1030D0008111F8CFFBCF882309F45ECF6F01819176
:1030E0008F32C9F759CFB601C80168962FAF6897DC
:1030F0000E94AF0468962FAD6897009709F442C00C
:103100002B3559F4C801FC01019620812D35D9F7E2
:103110008C01BFEFCB1ADB0A3FCF2B3759F4980154
:10312000F9012F5F3F4F40814D37D1F78901C80E1C
:10313000D91E32CF0F5F1F4FEFEFCE1ADE0A2CCF12
:10314000C8018819990921E030E0442311F020E0FA
:1031500030E0D8014C91411104C022602330310588
:1031600041F01816190674F4F80180818F3251F479
:1031700003C01816190634F464E372E082E892E0A2
:103180000E94CB02CE0101960E9442052B962EADE5
:103190003FAD2B972F5F3F4F2B963FAF2EAF2B9717
:1031A00086CECE0141960E9442051DC02D962EADC1
:1031B0003FAD2D97A90160E070E02AE082E892E03F
:1031C0000E9438026FEE71E082E892E00E942302D2
:1031D0000AC027961FAE1EAE279765961FAE1EAE7D
:1031E0006597212C312C8101E12CF12C6596EEADF7
:1031F000FFAD6597EE16FF068CF4D801CD90DD90FB
:103200008D01C114D10431F0C6010E944205C601EE
:103210000E94841ABFEFEB1AFB0AE8CFC1010E949B
:10322000841A27968EAD9FAD27970E94841A0E941C
:1032300080010C94D910E7E3F3E088E691E09183F4
:1032400080831282138214821582E2E8F2E01382F4
:10325000128248EE53E060E070E044835583668359
:10326000778322E331E03183208325EC30E035871A
:10327000248724EC30E03787268720EC30E0318B40
:10328000208B21EC30E0338B228B22EC30E0358B2D
:10329000248B26EC30E0378B268B118E128E138E0A
:1032A000148EEDE3F3E09183808312821382148203
:1032B0001582E3E4F3E09183808312821382148207
:1032C0001582E9E4F3E091838083128213821482F1
:1032D0001582EFE4F3E091838083128213821482DB
:1032E0001582E5E5F3E091838083128213821482D4
:1032F0001582EBE5F3E091838083128213821482BE
:103300001582EFE1F3E013821282448355836683D2
:10331000778382E491E0918380838FEF848708959F
:103320002F923F924F925F926F927F928F929F92D5
:10333000AF92BF92CF92DF92EF92FF920F931F93C3
:10334000CF93DF93CDB7DEB7CA1BDB0B0FB6F89474
:10335000DEBF0FBECDBF09942A88398848885F84B4
:103360006E847D848C849B84AA84B984C884DF8025
:10337000EE80FD800C811B81AA81B981CE0FD11D09
:103380000FB6F894DEBF0FBECDBFED010895A1E2E8
:103390001A2EAA1BBB1BFD010DC0AA1FBB1FEE1FCF
:1033A000FF1FA217B307E407F50720F0A21BB30B1A
:1033B000E40BF50B661F771F881F991F1A9469F796
:1033C00060957095809590959B01AC01BD01CF01F2
:1033D0000895EE0FFF1F0590F491E02D0994CF930F
:1033E000DF938230910510F482E090E0E091630376
:1033F000F091640320E030E0C0E0D0E0309711F1BC
:103400004081518148175907C0F04817590761F4A6
:1034100082819381209719F09B838A832BC090939C
:1034200064038093630326C02115310519F0421708
:10343000530718F49A01BE01DF01EF010280F38106
:10344000E02DDCCF2115310509F1281B390B243083
:10345000310590F412968D919C9113976115710529
:1034600021F0FB019383828304C0909364038093D3
:103470006303FD01329644C0FD01E20FF31F819307
:103480009193225031092D933C933AC020916103CE
:1034900030916203232B41F420912A0130912B01BA
:1034A0003093620320936103209128013091290118
:1034B0002115310541F42DB73EB740912C015091B3
:1034C0002D01241B350BE0916103F0916203E2179B
:1034D000F307A0F42E1B3F0B2817390778F0AC0137
:1034E0004E5F5F4F2417350748F04E0F5F1F509314
:1034F0006203409361038193919302C0E0E0F0E0A6
:10350000CF01DF91CF9108950F931F93CF93DF9356
:10351000009709F48CC0FC0132971382128200914B
:103520006303109164030115110581F42081318139
:10353000820F931F2091610330916203281739078E
:1035400079F5F0936203E093610371C0D80140E024
:1035500050E0AE17BF0750F412962D913C9113978F
:10356000AD012115310509F1D901F3CF9D01DA0132
:103570003383228360817181860F971F821793079F
:1035800069F4EC0128813981260F371F2E5F3F4FE8
:10359000318320838A819B8193838283452B29F405
:1035A000F0936403E093630342C01396FC93EE939D
:1035B0001297ED01499159919E01240F351FE21791
:1035C000F30771F480819181840F951F0296119603
:1035D0009C938E938281938113969C938E931297E2
:1035E000E0E0F0E0D80112968D919C91139700973E
:1035F00019F0F8018C01F6CF8D919C9198012E5F06
:103600003F4F820F931F209161033091620328176F
:10361000390769F4309729F4109264031092630318
:1036200002C0138212821093620300936103DF9140
:10363000CF911F910F910895A0E0B0E0E2E2FBE18D
:103640000C949419EC01009721F4CB010E94EF191E
:10365000B8C0FC01E60FF71F9C0122503109E217A8
:10366000F30708F4ACC0D9010D911C91119706170E
:103670001707B0F00530110508F49FC0C801049782
:103680008617970708F499C002501109061B170BFB
:10369000019311936D937C93CF010E94841A8DC086
:1036A0005B01A01AB10A4C01800E911EA091630328
:1036B000B091640340E050E0E12CF12C109709F444
:1036C0004AC0A815B905D1F56D907C90119763019A
:1036D00082E0C80ED11CCA14DB0480F1A3014A1990
:1036E0005B096A0182E0C80ED11C1296BC90129749
:1036F0001396AC91B5E0CB16D10440F0B282A3830F
:1037000051834083D9016D937C930AC00E5F1F4F94
:10371000C301800F911FF90191838083EB2DFA2F54
:10372000E114F10431F0D7011396FC93EE93129754
:1037300044C0F0936403E09363033FC08D919C9178
:1037400011974817590708F4AC017D0112960D90A6
:10375000BC91A02DB3CF8091610390916203881535
:103760009905E1F446175707C8F480912801909114
:103770002901009741F48DB79EB740912C015091DB
:103780002D01841B950BE817F907C8F4F093620329
:10379000E0936103F901718360830FC0CB010E9444
:1037A000EF197C01009759F0A801BE010E94EB1BA4
:1037B000CE010E94841AC70104C0CE0102C080E07D
:1037C00090E0CDB7DEB7EEE00C94B01981E090E068
:1037D000F8940C94121CFB01DC0102C001900D92C4
:1037E00041505040D8F70895FB01DC018D910190C4
:1037F00080190110D9F3990B0895FB01DC010190A8
:103800000D920020E1F70895FB01DC01415050408A
:1038100030F08D910190801919F40020B9F7881BC0
:08382000990B0895F894FFCF05
:1038280056306170716D776E7A6F736B786E6569FB
:10383800646A636E210046617420436F6C6F630095
:10384800FFFFFFFFFFFFFFFF000065038000000090
:10385800000017019300E000BE00D2005E010000E6
:103868000000D10155086B0A5B0C370CB301A90A9B
:10387800EE012C0AD90866099B08CA01DA07E70194
:10388800B40B8D0B00000000810200000000F00165
:103898002F746F6E65005769466920736869656C97
:1038A80064206E6F742070726573656E7400312EBB
:1038B800312E3000506C65617365207570677261D8
:1038C800646520746865206669726D776172650049
:1038D800417474656D7074696E6720746F20636FCE
:1038E8006E6E65637420746F20535349443A200008
:1038F800436F6E6E656374656420746F20776966C4
:103908006900495020416464726573733A20000D60
:103918000A007369676E616C20737472656E6774F0
:1039280068202852535349293A002064426D0057B1
:10393800616974696E6720666F72204F5343002374
:1039480062756E646C6500526563656976656420AE
:103958004F534300546F6E652072656365697665E1
:023968006400F9
:00000001FF
