:100000000C9464000C948C000C948C000C948C0068
:100010000C948C000C948C000C948C000C948C0030
:100020000C948C000C948C000C948C000C94600646
:100030000C948C000C948C000C948C000C948C0010
:100040000C94C8160C948C000C948E110C946811AE
:100050000C948C000C948C000C948C000C948C00F0
:100060000C94BC070C948C00441A4D1A601A691A3F
:10007000AC1A5B1B311E00000000250028002B007D
:100080000000000800020100000304070000000057
:100090000000000000000000240027002A000102E8
:1000A0000408102040800102040810200102040806
:1000B00010200404040404040404020202020202E4
:1000C000030303030303B71F11241FBECFEFD8E0C0
:1000D000DEBFCDBF13E0A0E0B1E0E2E9F9E402C089
:1000E00005900D92A632B107D9F725E0A6E2B3E05C
:1000F00001C01D92A939B207E1F710E0C4E6D0E0D3
:1001000004C02197FE010E946722C336D107C9F7B8
:100110000E9412170C94C7240C940000CF93DF9315
:10012000FC018181813221F0319681E090E003C0B1
:10013000329680E090E0AC0121E0422720812D350D
:1001400091F0222381F0A181EB013881AD3239F4A5
:1001500032171CF0228123173CF43396EFCF23177C
:1001600019F03196EBCFCA01DF91CF91089580E06D
:1001700008950895E091470380914603E81730F40D
:10018000F0E0EA5DFC4F808190E008958FEF9FEFF3
:1001900008959091470380914603981750F4E92FF2
:1001A000F0E0EA5DFC4F208130E09F5F90934703D1
:1001B00002C02FEF3FEFC90108958091460390E000
:1001C00020914703821B9109089585ED8093BC001F
:1001D0008091BC0084FDFCCF1092C903089540912A
:1001E0007303262F30E0240F311D21323105DCF45A
:1001F0002091C9032430C9F4FC0180E090E0861707
:1002000058F4309173032191DC01AF5ABC4FA30F16
:10021000B11D2C930196F3CF80917303680F609307
:10022000730380E0089581E0089582E00895CF92FD
:10023000DF92EF92FF920F931F93CF93DF937C0196
:10024000262F972F8A018091CA03882391F0C62F09
:10025000D72F6E01C40ED51ECC15DD0571F0699146
:10026000D701ED91FC910190F081E02DC701099536
:10027000F3CF642F822F0E94EF00C801DF91CF914E
:100280001F910F91FF90EF90DF90CF900895CF9343
:10029000DF931F92CDB7DEB769832091CA03222373
:1002A000D1F02091ED03203240F021E030E0FC015C
:1002B0003383228380E090E015C08091CB03E82F48
:1002C000F0E0E453FC4F998190838F5F8093CB03E0
:1002D0008093ED0305C061E0CE0101960E94EF001E
:1002E00081E090E00F90DF91CF910895EF92FF921F
:1002F0000F931F93CF93DF937B010196FC01208125
:100300002D37E1F02223D1F02F32C1F08F0121915E
:100310002D3759F4E801C81BD90BAE01B7010E9473
:100320008224892B49F0C801E8CF222399F32F3288
:1003300089F32C3259F7EECFCE0102C080E090E075
:10034000DF91CF911F910F91FF90EF900895CF9380
:10035000DF93EC0162E672E08FEF93E00E945411AC
:1003600066E6CE010E945416882371F0CE010E94E9
:100370007616609348037093490380934A039093E1
:100380004B03DF91CF9108956EE772E08FEF93E01A
:10039000DF91CF910C945411CF93DF93EC016AEB72
:1003A00072E08FEF93E00E94541166E6CE010E9446
:1003B0005416882371F0CE010E94761660934C0388
:1003C00070934D0380934E0390934F03DF91CF9131
:1003D000089567ED72E08FEF93E0DF91CF910C9479
:1003E00054119B0190E00496982F8827642F820F68
:1003F000931F0C94370D08958CBD9DBD0895CF9328
:10040000C82F80E590E00E94FC0160E170E08C2F35
:100410000E940C144FEF62E070E08C2FCF910C948F
:10042000F101FF920F931F93CF93DF9300D0CDB7CD
:10043000DEB7F82E8A012A8369830E94FF0180E5D6
:1004400090E00E94FC012A816981462F422B60E0E6
:1004500070E08F2D0E94F1010115110551F40091FA
:10046000990310919A030F5F1F4F10939A03009303
:100470009903412F64E070E08F2D0E94F101402F1D
:1004800065E070E08F2D0E94F10161E070E08F2D3A
:100490000E940C1481E00F900F90DF91CF911F917B
:1004A0000F91FF900895CF93DF9300D000D0CDB788
:1004B000DEB7DC011496FE013196CE010596E817F1
:1004C000F90719F02E912193FACF69817A818B81F6
:1004D0009C810F900F900F900F90DF91CF91089516
:1004E000CF93DF93EC0160E170E08A859B850E94E9
:1004F0009A239B878A87892B29F080E190E09F8748
:100500008E8706C083E090E09F838E831B861A86C9
:100510001D861C86DF91CF910895EF92FF920F9375
:100520001F93CF93DF93EC017B01888199810E9417
:100530000223F70101900020E9F7CF018E199F09EE
:100540000E946D228C01009739F483E090E09F8334
:100550008E831982188205C0B7010E947B241983FB
:100560000883CE01DF91CF911F910F91FF90EF9003
:100570000895FC01848195816817790754F4660F0A
:10058000771F0280F381E02DE60FF71F80819181B4
:10059000089584E090E09783868380E090E008955A
:1005A000EF92FF920F931F93CF937C01C1E0FC0168
:1005B00086819781892B09F4C0E000E010E0F70103
:1005C00084819581081719077CF4B801C7010E943E
:1005D000B902FC0191E020813181232B09F490E0E4
:1005E000C92B0F5F1F4FEBCF8C2FCF911F910F9116
:1005F000FF90EF9008950F931F93CF93DF93EC013B
:1006000064E173E08FEF93E00E94541169E6CE013C
:100610000E945416882309F160E070E0CE010E9428
:10062000B9028C01CE010E94D00281110BC0F801E9
:10063000848195818936910529F486819781A085E9
:10064000B18503C080E090E0DC01019721F481E0F6
:100650008093500302C010925003DF91CF911F91FD
:100660000F9108953F924F925F926F927F928F9277
:100670009F92AF92BF92CF92DF92EF92FF920F9331
:100680001F93CF93DF93EC015B01198218821D82C7
:100690001C821F821E821B821A821B861A861D865E
:1006A0001C861F861E860E94700219861886D50138
:1006B0006D917C91CE010E948D02E12CF12CB8E06D
:1006C0003B2E13E0812E912CF50184819581E81653
:1006D000F9060CF085C0D5011296ED91FC911397A7
:1006E000C701880F991FE80FF91FC080D1808EE0E5
:1006F00090E00E946D228C01FC0111821082D601D3
:1007000014968D919C9115979583848312964D90A4
:100710005C9013975382428286369105A1F084370C
:10072000910589F09C01285631092230310558F095
:100730002B5F3F4F2230310530F08237910519F0A1
:100740008D36910551F4F6013696D8011696832D13
:1007500001900D928A95E1F71BC08337910519F03E
:1007600082369105A9F4C2010E946D223C010097D6
:1007700021F4F801918280820BC0D60116966D910A
:100780007C911797A2010E946924F8017782668202
:10079000D8018D919C91039719F49F828E821CC081
:1007A0006C817D816F5F7F4F660F771F8A819B8190
:1007B0000E949A23009789F39B838A832C813D8131
:1007C000A901440F551FFC01E40FF51F118300839D
:1007D0002F5F3F4F3D832C83BFEFEB1AFB0A74CF93
:1007E000DF91CF911F910F91FF90EF90DF90CF900D
:1007F000BF90AF909F908F907F906F905F904F9041
:100800003F900895FC0120812D3559F02CF42F33B1
:1008100001F12B3561F015C02B3789F02D3749F0E8
:1008200010C0FC0120812B3511F00197FACF0C94F8
:100830008E00FC0120812B3711F00197FACF0C9428
:10084000760181E090E0FB013081231721F080E008
:10085000089581E090E00895EF92FF920F931F9327
:10086000CF93DF931F92CDB7DEB77C018B01B80128
:10087000F80181918F018F3229F4F70180818F3245
:1008800021F436C0811110C0F8CF882389F18A3253
:1008900061F5F70181818F3259F131E020E081115A
:1008A00030E0832F922F26C0F7012081C7012A3222
:1008B00031F401960E942C04892BC9F219C02983B6
:1008C0000E94020429810097A9F02F7D2B3549F45D
:1008D000970179012F5F3F4FF70180818F7D8D3523
:1008E000C1F7FFEFEF1AFF0AC2CF80E090E002C02D
:1008F00081E090E00F90DF91CF911F910F91FF90D9
:10090000EF900895FC01828193811816190664F412
:10091000848195818337910521F4868197810C9498
:10092000022382369105C9F30895EF92FF920F9347
:100930001F93CF93DF93EC01888199810E9402235A
:100940001F821E8200E010E08C819D81081719072C
:100950007CF4B801CE010E94B9027C01009729F015
:100960000E948204C7010E9402230F5F1F4FECCF39
:100970008A819B810E9402231B821A821D821C8213
:1009800019861886CE010E9470028A859B85DF91A8
:10099000CF911F910F91FF90EF900C9402234F92F3
:1009A0005F926F927F92AF92BF92CF92DF92EF925F
:1009B000FF920F931F93CF93DF93CDB7DEB72897A6
:1009C0000FB6F894DEBF0FBECDBFFC0111821082BE
:1009D00082E690E095838483CA01049693838283A0
:1009E0008A01052E000C220B330B0D831E832F83EF
:1009F00038878E010B5F1F4F9E01275F3F4FDE013F
:100A000011966D01A017B10731F0D901FE909D013B
:100A1000D601FD92F6CF49805A806B807C804D8252
:100A20005E826F82788618161906E4F47A015B01FB
:100A30008F010E946D226C01009731F483E090E0F9
:100A4000F8019183808310C0DC014D925D926D921C
:100A50007D92CD01A701B5010E946924F801D782DA
:100A6000C68202C01782168228960FB6F894DEBF9F
:100A70000FBECDBFDF91CF911F910F91FF90EF90EF
:100A8000DF90CF90BF90AF907F906F905F904F902E
:100A90000895EF92FF920F931F93CF93DF9300D0AF
:100AA000CDB7DEB77C01FC011182108283E790E0B4
:100AB00095838483FB0101900020E9F7CF01861B19
:100AC000970BF7019383828369837A830E946D2257
:100AD0008C0169817A81009731F483E090E0F7011D
:100AE0009183808305C00E947B24F70117830683CE
:100AF0000F900F90DF91CF911F910F91FF90EF908A
:100B00000895CF92DF92EF92FF92CF93DF93EC01A3
:100B1000603282E078070CF03DC077FD06C0653B8F
:100B200071052CF064EB70E002C060E070E0898138
:100B300028E830E06901C81AD10887FDD394CC0CAD
:100B4000DD1CCC0CDD1C0D2C000CEE08FF088A818E
:100B500028E532E0281B310987FD3395220F331F2A
:100B6000220F331FC901330FAA0BBB0B9C01AD0130
:100B70002C193D094E095F09DB010E94C32124EBBA
:100B800030E040E050E00E949921C20ED31EE41EE6
:100B9000F51EB60188818C3080F5998148E850E0D7
:100BA000491B510997FD5395440F551F440F551F7D
:100BB0006417750784F09A8128E532E0291B310912
:100BC00097FD3395220F331F220F331FAB012617DA
:100BD00037070CF4A90142505109440F551F2FB794
:100BE000F89490E0FC01EE0FFF1F8E0F9F1FFC0199
:100BF000EA54FB4F528341832FBFDF91CF91FF9087
:100C0000EF90DF90CF9008951F93CF93DF93EC0187
:100C1000162F88818C3008F04EC061E0812F0E9431
:100C2000AD148881E82FF0E09F01220F331FE20FFF
:100C3000F31FEA54FB4F1F739081907C192B108394
:100C400019821A826CE00E945B229CE0899FB001AD
:100C5000112440E050E09A01260F371FF901EE0FF2
:100C6000FF1F2E0F3F1FF901EA54FB4F908196FDA5
:100C700016C04F5F5F4F4C30510569F781110FC0AF
:100C80001092800082E08093810010928500109283
:100C90008400B19A80916F00826080936F00E88138
:100CA000F0E0CF01880F991FE80FF91FEA54FB4FBE
:100CB0008081806480838881DF91CF911F91089526
:100CC0001F920F920FB60F9211242F933F934F93C1
:100CD0005F936F937F938F939F93AF93BF93EF93A4
:100CE000FF938091980387FF05C0109285001092B2
:100CF00084001BC020919803022E000C330B8091BE
:100D0000DA0490E02817390784F480919803082EBC
:100D1000000C990BFC01EE0FFF1F8E0F9F1FFC01B3
:100D2000EA54FB4F808186FD15C0809198038F5F48
:100D30008093980320919803022E000C330B80912E
:100D4000DA0490E028173907C4F4809198038C30B6
:100D500064F113C080919803082E000C990BFC01DC
:100D6000EE0FFF1F8E0F9F1FFC01EA54FB4F808187
:100D700060E08F730E946114D8CF809184009091BD
:100D80008500049680349C4918F480E49CE905C0F1
:100D900080918400909185000496909389008093BF
:100DA00088008FEF809398033BC02091840030919E
:100DB000850080919803082E000C990BFC01EE0F22
:100DC000FF1F8E0F9F1FFC01EA54FB4F8181928110
:100DD000820F931F909389008093880080919803DD
:100DE000082E000C990BFC01EE0FFF1F8E0F9F1FAA
:100DF000FC01EA54FB4F808186FF12C0809198036A
:100E0000082E000C990BFC01EE0FFF1F8E0F9F1F89
:100E1000FC01EA54FB4F808161E08F730E946114F2
:100E2000FF91EF91BF91AF919F918F917F916F91C2
:100E30005F914F913F912F910F900FBE0F901F9098
:100E400018958EBD00000DB407FEFDCF8EB5089538
:100E50000F931F93CF93DF931F92CDB7DEB790E030
:100E60000496982F88278C01060F171F0E94B70938
:100E70008FE00E942107812F0E942107802F0E946E
:100E8000210780E00E94210789830E94B50989819A
:100E90000F90DF91CF911F910F910895AF92BF9264
:100EA000DF92EF92FF920F931F93CF93DF93D82E91
:100EB0007B018A0180E590E00E94FC01C0E0D0E067
:100EC0008D2D0E94590D5C01892B21F08D2D0E94E2
:100ED000590DEC01CA15DB0599F7209799F463E0E9
:100EE00070E08D2D0E9428078431D9F18823C9F143
:100EF000C1E0D0E08C3111F4C0E0D0E0D195C195D3
:100F0000D1092FC00C171D070CF4E8011C161D0693
:100F100044F568E270E08D2D0E942807082F10E04C
:100F200069E270E08D2D0E942807102F0027082B02
:100F30009E01A701B8018D2D0E941C140C0F1D1FCE
:100F4000412F68E270E08D2D0E94F101402F69E28F
:100F500070E08D2D0E94F10160E470E08D2D0E9403
:100F60000C14CE01DF91CF911F910F91FF90EF9064
:100F7000DF90BF90AF9008951F920F920FB60F921F
:100F800011242F933F934F935F936F937F938F938E
:100F90009F93AF93BF93EF93FF938091B900887FA6
:100FA000803609F49CC068F5883209F45BC090F47F
:100FB000803109F454C038F4882309F4F6C088302D
:100FC00009F44DC0F6C0883109F44CC0803209F4F0
:100FD0005DC0EFC0803409F468C048F4803309F480
:100FE00055C0883309F0E5C08093C703D8C0803569
:100FF00009F44FC0883509F45DC0883409F0D9C0C0
:10100000D6C0883909F4C7C0A8F4883709F467C086
:1010100038F4883609F463C0803709F460C0C9C069
:10102000883809F4B8C0803909F45FC0803809F005
:10103000C0C05BC0803B09F486C038F4803A09F434
:1010400066C0883A09F47FC0B4C0803C09F4A7C0E8
:10105000883C09F4A4C0883B09F48AC0AAC08091E6
:10106000A40310C09091C6038091C503981770F532
:10107000E091C60381E08E0F8093C603F0E0EB554C
:10108000FC4F80818093BB0085EC86C08093C703B2
:101090008EC0E091C60381E08E0F8093C6038091DD
:1010A000BB00F0E0EB55FC4F80839091C60380912C
:1010B000C5036EC0E091C60381E08E0F8093C60326
:1010C0008091BB00F0E0EB55FC4F80838091C8031A
:1010D00081116DC081E08093A30384EA61C083E045
:1010E0008093C90310929703CFCF809197038032EA
:1010F00008F051C0E091970381E08E0F8093970331
:101100008091BB00F0E0E958FC4F8083BDCF85ECB7
:101110008093BC001092C90380919703803230F411
:10112000E0919703F0E0E958FC4F1082609197033B
:1011300070E0E0917503F091760387E793E00995FD
:101140001092970336C084E08093C9031092740311
:1011500010927303E0917103F091720309958091ED
:101160007303811105C081E08093730310925103D2
:10117000E091740381E08E0F80937403F0E0EF5AE6
:10118000FC4F80818093BB00909174038091730326
:10119000981708F479CF85E88093BC000AC085ECE5
:1011A0008093BC001092C90304C01092C7030E9430
:1011B000E500FF91EF91BF91AF919F918F917F914A
:1011C0006F915F914F913F912F910F900FBE0F90B4
:1011D0001F9018951092C90381E08093C803109264
:1011E000A30361E082E10E94611461E083E10E9457
:1011F0006114E9EBF0E080818E7F808380818D7FB8
:10120000808388E48093B80085E48093BC000895CF
:10121000FC01818D928D0895FC0184899589089542
:1012200022EA31E0FC0131832083FB0140895189AE
:1012300062897389FC0142835383648375830895B3
:10124000DC01ED91FC91028CF38DE02D0994CF939C
:10125000FC01C08D80E590E00E94FC0160E270E03E
:101260008C2F0E940C1462E070E08C2F0E942807E3
:1012700084FD19C062E070E08C2F0E94280783FF74
:101280000BC048E162E070E08C2F0E94F1010E94E7
:10129000FB0180E090E011C00E94FB0180E590E03E
:1012A0000E94FC01E0CF40E162E070E08C2F0E94E0
:1012B000F1010E94FB0181E090E0CF910895CF936E
:1012C000DF93EC01888D843061F00E94FF01E88D8E
:1012D000F0E0EE0FFF1FE556FC4F1182108284E014
:1012E000888FDF91CF910895CF92DF92EF92FF9296
:1012F0001F93CF93DF931F92CDB7DEB7FC01208DF4
:10130000243011F080E028C07B016C0110E080E502
:1013100090E00E94FC0163E070E0812F0E942807AA
:1013200089830E94FB018981811103C0F601108F1E
:1013300005C08831D9F31F5F143049F7F601808D5D
:10134000843001F3F586E486128E118E20E0A70129
:1013500062E00E94110281E00F90DF91CF911F9116
:10136000FF90EF90DF90CF9008952A9A08952A98E1
:101370000895CF92DF92EF92FF920F931F93CF9336
:10138000DF93EC017A018B016C01C40ED51ECC15E4
:10139000DD05A9F00E94B7098FE00E9421078D2F7B
:1013A0000E9421078C2F0E942107219680E00E9435
:1013B0002107F80181938F010E94B509E8CFC70189
:1013C000DF91CF911F910F91FF90EF90DF90CF9021
:1013D0000895CF92DF92EF92FF920F931F93CF93D6
:1013E000DF93EC017A018B016C01C40ED51ECC1584
:1013F000DD05A1F00E94B70980EF0E9421078D2F23
:101400000E9421078C2F0E9421072196F8018191CB
:101410008F010E9421070E94B509E9CFC701DF9122
:10142000CF911F910F91FF90EF90DF90CF90089593
:10143000EF92FF921F93CF93DF93EB017A01FC01B0
:10144000178A168A108D8A81811109C08B818111BA
:1014500006C08C81811103C08D81882329F1E1149C
:10146000F10411F180E590E00E94FC01BE016E5F85
:101470007F4F812F90E0982F882744E050E0845FD1
:101480009B4F0E94E9094F2D60E170E0812F0E947F
:10149000F1014E2D61E170E0812F0E94F1010E9467
:1014A000FB0181E090E002C080E090E0DF91CF910D
:1014B0001F91FF90EF9008954F925F926F927F92ED
:1014C0008F929F92AF92BF92CF92DF92EF92FF9254
:1014D0000F931F93CF93DF93CDB7DEB7EE970FB681
:1014E000F894DEBF0FBECDBF5C018B014A0182EADA
:1014F00091E09A8389831C861B8648EE53E060E066
:1015000070E04D875E876F87788B2CE731E03A87F4
:101510002987988F8F8B198E1A8E1B8E1C8E24E034
:1015200029A399AB88AB1AAA1BAA1CAA1DAA809151
:101530009E0490919F04A091A004B091A1048EA359
:101540009FA3A8A7B9A78B839C83AD83BE8318866E
:101550001F82F80120E080E090E06AE031913323BF
:1015600019F140ED430F4A3080F4689FA001699F54
:10157000500D1124CA01C097830F911D37FD9A9514
:101580008F3F910559F350F32BC03E3249F523307C
:1015900039F1A2E3B0E0AC0FBD1FA20FB11D8C93D7
:1015A0002F5F80E090E0DACF2330D1F48DABD5010E
:1015B000ED91FC910288F389E02D82EA91E09DA3F0
:1015C0008CA38AA99BA9ACA9BDA98EA39FA3A8A7F8
:1015D000B9A7A401BE016C5D7F4FC501099530C25A
:1015E0004B815C816D817E818091A6049091A704DE
:1015F000A091A804B091A904481759076A077B076E
:1016000009F41CC20E94BC166F7077277C5FCE0164
:1016100009960E947409813009F00DC282EA91E0B6
:101620009DA38CA38B819C81AD81BE818EA39FA342
:10163000A8A7B9A745E350E0BE016C5D7F4FCE017E
:1016400009960E94180A892B19F400E010E07EC167
:101650000E94BC1678876F837627672776277DA33D
:101660006CA342E050E0BE016C5D7F4FCE01099655
:101670000E940F1081E090E09FAB8EAB42E050E003
:10168000BE016A5C7F4FCE0109960E940F1080E078
:1016900091E09FAB8EAB42E050E0BE016A5C7F4FB1
:1016A000CE0109960E940F101FAA1EAA42E050E028
:1016B000BE016A5C7F4FCE0109960E940F1042E086
:1016C00050E0BE016A5C7F4FCE0109960E940F1068
:1016D00042E050E0BE016A5C7F4FCE0109960E9455
:1016E0000F107801D7018C91882319F1F8017F013F
:1016F0008191811117C06701C01AD10A1C141D0401
:10170000A4F4C8AE41E050E0BE01685C7F4FCE015A
:1017100009960E940F10A601B801CE0109960E94F9
:101720000F1003C08E3219F7E6CF87010F5F1F4FEE
:10173000D9CF18AE41E050E0BE01685C7F4FCE01CA
:1017400009960E940F1000E011E01FAB0EAB42E0C3
:1017500050E0BE016A5C7F4FCE0109960E940F10D7
:101760001FAB0EAB42E050E0BE016A5C7F4FCE0182
:1017700009960E940F10CE0109960E942709892B15
:1017800009F463CF63E0E62EF12C0E94BC162B0116
:101790003C01CE0109960E94990F18161906A4F073
:1017A0000E94BC16DC01CB0184199509A609B70972
:1017B00089389341A105B105C8F462E370E080E087
:1017C00090E00E94E914E5CF4B815C816D817E81C0
:1017D000898D9A8DAB8DBC8D481759076A077B0799
:1017E00041F48D8D9E8DC59721F406C02FEF3FEFFC
:1017F000A4C02EEF3FEFA1C08AA19BA10C970CF4CF
:10180000B2C04CE050E0BE016C5D7F4FCE01099646
:101810000E94510F8EA190E0982F88272FA1822B34
:101820009BAF8AAF2CA130E0322F22274DA1242B71
:101830004F8158854217530709F092C097FF90C017
:101840008F709270892B09F0F3C00AA510E0102F59
:1018500000278BA5082B0115110509F4E6C0C12C42
:10186000D12C88A590E0982F882729A5822BC8160F
:10187000D90608F47BC0C12CD12C41E050E0BE0158
:10188000645C7F4FCE0109960E94510F8CAD982F5A
:10189000907C09F0A5C0811197C08CAD8111EDCF6E
:1018A00042E050E0BE01685C7F4FCE0109960E9485
:1018B000510F42E050E0BE016A5C7F4FCE010996B5
:1018C0000E94510FCE0109960E94700FCE01099619
:1018D0000E94700FCE0109960E94700FCE010996EA
:1018E0000E94700F42E050E0BE01665C7F4FCE0167
:1018F00009960E94510F88AD99AD8115914009F06C
:1019000075C02EA93FA93227232732272130310560
:1019100009F06CC08AAD9BAD8115944009F082C07E
:1019200044E050E0BE016E5C7F4FCE0109962DAFC2
:101930003EAF0E94510F2DAD3EAD8901B1E0EB1AD3
:10194000F10821F02F3F3F4F09F41FCFCE01099638
:101950000E945F090130110509F429CEC80170C049
:101960002CEF3FEFEACF2DEF3FEFE7CF41E050E024
:10197000BE016A5C7F4FCE0109960E94510F8EA96D
:10198000811117C08EA98111F1CFCE0109960E9455
:10199000700FCE0109960E94700FCE0109960E9429
:1019A000700FCE0109960E94700FFFEFCF1ADF0A69
:1019B00058CF8EA99FEF980F9EAB882319F3CE01C5
:1019C00009960E94700FF5CF8CAD9FEF980F9CAFDA
:1019D000882309F462CFCE0109960E94700FF4CFDC
:1019E000CE0109960E94700F1CAE57CF612C712C4E
:1019F0008AAD9BAD9827892798276816790640F409
:101A0000CE0109960E94700F8FEF681A780AF0CF06
:101A1000AFEFCA1ADA0AC016D10609F02ECF26EFA8
:101A20003FEF8BCF27EF3FEF88CF2AEF3FEF85CFF8
:101A30002BEF3FEF82CF80E090E002C08EEF9FEF70
:101A4000EE960FB6F894DEBF0FBECDBFDF91CF91FB
:101A50001F910F91FF90EF90DF90CF90BF90AF90CC
:101A60009F908F907F906F905F904F9008951F93FD
:101A7000CF93DF9300D0CDB7DEB7182F6A83998359
:101A80000E94B70980EF0E9421079981892F0E9447
:101A90002107812F0E9421076A81862F0E9421073A
:101AA0000E94B50981E00F900F90DF91CF911F91B7
:101AB00008951F93CF93DF93182F66E270E00E9482
:101AC0002807C82FD0E067E270E0812F0E94280726
:101AD000DC2FCC279E01282BC901DF91CF911F91CC
:101AE00008951F93CF93DF93182F60E270E00E9458
:101AF0002807C82FD0E061E270E0812F0E942807FC
:101B0000DC2FCC279E01282BC901DF91CF911F919B
:101B10000895CF92DF92EF92FF920F931F93CF938E
:101B2000DF936C017A018B01C0E0D0E0CE15DF05B8
:101B300089F0D8016D918D01D601ED91FC91019054
:101B4000F081E02DC6010995892B11F47E0102C0B8
:101B50002196ECCFC701DF91CF911F910F91FF909C
:101B6000EF90DF90CF900895FC01918D828D9817B2
:101B700061F0828DDF01A80FB11D5D968C91928D71
:101B80009F5F9F73928F90E008958FEF9FEF08956E
:101B9000FC01918D828D981731F0828DE80FF11D37
:101BA000858D90E008958FEF9FEF0895FC01918D52
:101BB000228D892F90E0805C9F4F821B91098F734B
:101BC000992708958FEF93E00E94D60D21E0892B8D
:101BD00009F420E0822F0895FC01848DDF01A80F15
:101BE000B11DA35ABF4F2C91848D90E001968F7345
:101BF0009927848FA689B7892C93A089B1898C9164
:101C000080648C93938D848D981306C00288F38929
:101C1000E02D80818F7D80830895EF92FF920F9356
:101C20001F93CF93DF93EC0181E0888F9B8D8C8D88
:101C3000981305C0E889F989808185FD24C0F62EB6
:101C40000B8D10E00F5F1F4F0F731127E02E8C8D4F
:101C5000E8120CC00FB607FCFACFE889F989808139
:101C600085FFF5CFCE010E94EC0DF1CF8B8DFE01EB
:101C7000E80FF11DE35AFF4FF0820B8FEA89FB89D1
:101C80008081806207C0EE89FF896083E889F989D5
:101C900080818064808381E090E0DF91CF911F910B
:101CA0000F91FF90EF900895CF93DF93EC01888D13
:101CB0008823C9F0EA89FB89808185FD05C0A88950
:101CC000B9898C9186FD0FC00FB607FCF5CF8081D6
:101CD00085FFF2CFA889B9898C9185FFEDCFCE0120
:101CE0000E94EC0DE7CFDF91CF91089580E090E066
:101CF000892B29F00E94E20D81110C9400000895B7
:101D00000895CF93DF931F92CDB7DEB76983DC01CF
:101D1000ED91FC910280F381E02D41E050E0BE01A5
:101D20006F5F7F4F09950F90DF91CF9108950E94CB
:101D30006424BF92CF92DF92EF92FF920F931F9392
:101D4000CF93DF9300D000D000D0CDB7DEB7FC0139
:101D5000208D243009F05DC06A017B018C01B12C1B
:101D600063E070E08B2D0E942807811103C0F80109
:101D7000B08E06C08831D9F3B394F4E0BF12F0CF2F
:101D8000F801808D843009F444C096E0E4E1F1E08C
:101D9000DE01119601900D929A95E1F7F70193817A
:101DA0009F779C8394819D8395819E83B7016E5F0D
:101DB0007F4F90E0982F882744E050E0845F9B4F4E
:101DC0000E94E909F801F08C4D2D60E170E08F2D43
:101DD0000E94F1014C2D61E170E08F2D0E94F10114
:101DE000F801808D90E0982F882746E050E0BE01F2
:101DF0006F5F7F4F8A5F9B4F0E94E909F801128E47
:101E0000118E20E8A60162E0808D0E94110281E01F
:101E100001C080E026960FB6F894DEBF0FBECDBF9E
:101E2000DF91CF911F910F91FF90EF90DF90CF90B6
:101E3000BF900895FF920F931F93CF93DF931F924C
:101E4000CDB7DEB7FC01218D328D232B09F1F08C4B
:101E500080E590E00E94FC0168E270E08F2D0E9416
:101E60002807082F10E069E270E08F2D0E942807F4
:101E7000702F6627682B21E030E0AE014F5F5F4F87
:101E80008F2D0E941C140E94FB01898190E002C0EA
:101E90008FEF9FEF0F90DF91CF911F910F91FF90E8
:101EA0000895CF93DF93FC01218D328D21153105EB
:101EB00019F48FEF9FEF11C0EC014217530708F0A0
:101EC000A901888D0E944E071816190694F7298DCE
:101ED0003A8D281B390B3A8F298FDF91CF910895C6
:101EE0000F931F93CF93DF931F92CDB7DEB7FC0103
:101EF000218D328D232B61F08C0141E050E0BE0139
:101F00006F5F7F4F808D0E944E07181619061CF0D8
:101F10008FEF9FEF08C0F801818D928D0197928F0E
:101F2000818F898190E00F90DF91CF911F910F9168
:101F30000895BF92CF92DF92EF92FF920F931F937B
:101F4000CF93DF93CDB7DEB728970FB6F894DEBFF7
:101F50000FBECDBF8C01F801818D928D892B49F088
:101F6000D801ED91FC910680F781E02DC80109951B
:101F7000F2CFB08C80E590E00E94FC01E12CF12CC6
:101F80008B2D0E94590D6C01892B21F08B2D0E9405
:101F9000590D7C01EC14FD0499F70E94FB011E14FD
:101FA0001F045CF548E050E0BE016F5F7F4FD80131
:101FB00058968C910E944E079C0118161906DCF465
:101FC00089819A81AB81BC81F801808B918BA28B36
:101FD000B38B8D8190E0982F88272E81820F911DE1
:101FE000958B848B2F8130E0322F22278885280F14
:101FF000311D328F218FC90102C080E090E0289608
:102000000FB6F894DEBF0FBECDBFDF91CF911F9109
:102010000F91FF90EF90DF90CF90BF9008957F9247
:102020008F929F92AF92BF92CF92DF92EF92FF92E8
:102030000F931F93CF93DF935C014B016A01FC0167
:1020400006891789708C80E590E00E94FC01C0E051
:10205000D0E0872D0E94710D7C01892B21F0872D06
:102060000E94710DEC01CE15DF0599F7CC15DD0549
:1020700078F4C0E0D0E0872D0E94710D6C01892BAF
:1020800021F0872D0E94710DEC01CC15DD0599F72B
:1020900064E270E0872D0E942807E82EF12C65E2AB
:1020A00070E0872D0E942807FE2CEE24E82AE70125
:1020B000C00FD11F9E013770E72CF12CC701880F8C
:1020C000991FAC0142515C4F7A01FA0180819181E4
:1020D000820F931FA9014C0D5D1D4130584090F0B7
:1020E00000E018E0021B130BA801B4010E94E909EB
:1020F000A601401B510BB401600F711FF7018081D5
:10210000918102C0A601B4010E94E909CC0DDD1D38
:102110004D2F64E270E0872D0E94F1014C2F65E2A3
:1021200070E0872D0E94F1010E94FB01F501868974
:1021300097898C0D9D1D978B868BC601DF91CF9162
:102140001F910F91FF90EF90DF90CF90BF90AF90D5
:102150009F908F907F9008956115710579F0FB0134
:1021600001900020E9F73197AF01461B570BDC01C6
:10217000ED91FC910280F381E02D099480E090E0E4
:1021800008954F925F926F927F92EF92FF920F931A
:102190001F93CF93DF93CDB7DEB7A1970FB6F89417
:1021A000DEBF0FBECDBF7C01FA01CB0119A22230E8
:1021B00008F42AE08E010F5D1F4F422E512C612C36
:1021C000712CBF01A30192010E94CB21F901CA0128
:1021D000015011096A3014F4605D01C0695CD801D6
:1021E0006C93232B242B252B61F7B801C7010E9488
:1021F000AC10A1960FB6F894DEBF0FBECDBFDF9135
:10220000CF911F910F91FF90EF907F906F905F9013
:102210004F9008958F929F92AF92BF92CF92DF928C
:10222000EF92FF920F931F93CF93DF937C01EB010B
:102230006C0182E0C80ED11C4701E5E08E0E911CB6
:1022400000E010E0F60141916F0150E060E070E0C5
:102250002AE0CE010E94C1105C01E881F981019061
:10226000F081E02D6EE2CE0109958A0D9B1D080FCD
:10227000191FC814D90431F7F701458150E060E017
:1022800070E02AE0CE010E94C110800F911FDF9103
:10229000CF911F910F91FF90EF90DF90CF90BF9063
:1022A000AF909F908F9008950F931F93CF93DF93DC
:1022B000EC010E94AC108C016FE572E0CE010E942F
:1022C000AC10800F911FDF91CF911F910F91089556
:1022D0001F920F920FB60F9211242F933F934F939B
:1022E0005F936F937F938F939F93AF93BF93EF937E
:1022F000FF938FEF93E00E94EC0DFF91EF91BF9160
:10230000AF919F918F917F916F915F914F913F918D
:102310002F910F900FBE0F901F9018951F920F9244
:102320000FB60F9211242F938F939F93EF93FF93E8
:10233000E0910F04F09110048081E0911504F09178
:10234000160482FD12C09081809118048F5F8F73F4
:1023500020911904821751F0E0911804F0E0E15047
:10236000FC4F958F8093180401C08081FF91EF91FD
:102370009F918F912F910F900FBE0F901F901895E6
:102380000F931F93CF93DF9300D0CDB7DEB7152FF8
:10239000032FFC01808191E09093CA038093EC03AA
:1023A0001092CB031092ED03F4E06F9FB001112463
:1023B0006A5F7F4F8AEA94E02A8349830E9447013B
:1023C0004981842F912F0E945812812F90E00E9402
:1023D00058122A81822F902F0E945812802F90E04D
:1023E0000E94581281E00F900F90DF91CF911F91C2
:1023F0000F910C94FB11382F2091ED039091EC0379
:10240000213208F049C08091C9038111FCCF42E01C
:102410004093C9033093C8033FEF3093C703109232
:10242000C6032093C503ACECB3E045EA53E0FA01E0
:102430003E2F341B321718F43D913193F9CF10928F
:10244000A4032091A403990F922B9093A40390913D
:10245000A303913061F41092A3039091A40390938D
:10246000BB009091BC0093FDF8CF95EC01C095EEB8
:102470009093BC009091C9039230E1F39091C7030F
:102480009F3F79F08091C703803241F08091C7036C
:10249000803331F084E005C081E003C082E001C0F8
:1024A00083E01092CB031092ED031092CA030895BB
:1024B000682F8AEA94E00C944701CF93C62F90913D
:1024C000390521E02093CA039093EC031092CB03CB
:1024D0001092ED03682F8AEA94E00E9447016C2F66
:1024E0008AEA94E00E94470181E0CF910C94FB11AD
:1024F0002F923F924F925F926F927F928F929F9214
:10250000AF92BF92CF92DF92EF92FF920F931F9301
:10251000CF93DF93CDB7DEB76C970FB6F894DEBFDD
:102520000FBECDBF9D8B8C8B3B015F8B4E8B212CC7
:10253000312C1B8AAC89BD8912968D919C91139781
:10254000281639060CF04EC1AC89BD89ED91FC917D
:10255000C101880F991FE80FF91F60817181CE01B9
:1025600001960E94320389809A80B301C4010E94BF
:102570007224892B19F0730184013DC0F40101908C
:102580000020E9F73197BF016819790919C1F801ED
:102590002081222309F4FCC02A3209F0BCC02701A3
:1025A000F7015F0181918F3259F51A8B098BF80180
:1025B00080E090E06F0121912F3241F5B1E0CB1A1C
:1025C000D108E1E0AE1AB10881309105E1F4D601FD
:1025D0001C911A3209F509891A89D8018D91BA8B93
:1025E000A98B8F3209F091C07201F20181912F0104
:1025F0008F3209F08DC0D7013C913111C8CFC8C0CE
:102600008111CFCFD2CF029799F177C02223B1F2B7
:102610002A3281F60196CECFB501C6010E9402048E
:10262000892B09F4D7C01F7D1D3549F4D6018C9143
:102630008F7D8B3521F0F1E0CF1AD108F7CFB1E0D3
:10264000CB1AD108E1E0AE1AB108C1CFB501C6017D
:102650002C8F0E9402042C8D892B09F4BBC02F7D86
:102660002D3559F0F1E0CF1AD10821E0A21AB108B6
:10267000D6012C912A3251F709C0F60180818F7D55
:102680008B3581F3B1E0CB1AD108F7CFBFEFAB1A8E
:10269000BB0AF6013197F98FE88FEA14FB0408F0C2
:1026A00099C0C88CD98CF1E0AF1AB1089501F60138
:1026B00040814A3261F0B901C6012C8F3A8F4B8FAD
:1026C0000E9402042C8D3A8D4B8D892B21F4C0166B
:1026D000D10619F780CF4F7D4D3549F4D6018C9145
:1026E0008F7D8B3521F081E0C81AD108F7CFB1E09A
:1026F000CB1AD10821503109DACFB701C8010E94A5
:102700002C04892B09F067CF65C0811164CF6CCF91
:1027100081116ACF70CF3A3291F4F8018F01819123
:102720008F3211F4F70106C08111F8CFFBCF882357
:1027300009F461CF7F0181918F32C9F75CCFB70176
:10274000C8012C8F0E9402042C8D009709F442C00E
:102750002B3559F4C801FC01019620812D35D9F79C
:102760008C01FFEFEF1AFF0A46CF2B3759F498017F
:10277000F9012F5F3F4F40814D37D1F78901E80EB6
:10278000F91E39CF0F5F1F4F2FEFE21AF20A33CF36
:10279000B8016819790981E090E0332311F080E0F5
:1027A00090E0D8012C91211103C08260039741F081
:1027B000161617067CF4F80180818F3259F403C095
:1027C000161617063CF4CE010196EE89FF8909958D
:1027D00021E02B8BCE0101960E9495048FEF281AE1
:1027E000380AA8CE8B896C960FB6F894DEBF0FBE60
:1027F000CDBFDF91CF911F910F91FF90EF90DF90B0
:10280000CF90BF90AF909F908F907F906F905F9090
:102810004F903F902F900895CF93C82F462F61E09F
:1028200070E00E94F10161E070E08C2F0E942807A7
:102830008111F9CFCF910895AF92BF92CF92DF92DD
:10284000EF92FF920F931F93CF93DF9300D0CDB7FA
:10285000DEB77A836983BA01A901E981FA81F77049
:10286000082F10E0000F111F0A501C4FD8018D9146
:102870009C918E0F9F1F2E0F3F1F2130384098F0E4
:102880007A015B0120E038E06901CE1ADF0AA60177
:102890000E94B909A7014C195D09B5016C0D7D1D98
:1028A000F801808191810F900F90DF91CF911F915E
:1028B0000F91FF90EF90DF90CF90BF90AF900C946E
:1028C000B90990E0FC01E058FF4F3491FC01E25659
:1028D000FF4F2491FC01EE54FF4FE491EE2309F4E5
:1028E0003BC0332339F1333091F038F43130A9F063
:1028F000323001F584B58F7D12C0373091F0383019
:10290000A1F03430B9F4809180008F7D03C08091B4
:1029100080008F77809380000DC084B58F7784BD51
:1029200009C08091B0008F7703C08091B0008F7D87
:102930008093B000F0E0EE0FFF1FEA58FF4FA59123
:10294000B4918FB7F894EC91611103C020952E23B8
:1029500001C02E2B2C938FBF0895CF93DF9390E06F
:10296000FC01E256FF4F2491FC01EE54FF4F84918D
:10297000882361F190E0880F991FFC01EC56FF4F0E
:10298000C591D491FC01EA58FF4FA591B491611112
:1029900009C09FB7F8948881209582238883EC91A1
:1029A0002E230BC0623061F49FB7F8943881822FD8
:1029B000809583238883EC912E2B2C939FBF06C098
:1029C0008FB7F894E8812E2B28838FBFDF91CF91AA
:1029D00008958F929F92AF92BF92CF92DF92EF9223
:1029E000FF926B017C010E9497164B015C01C114A0
:1029F000D104E104F104F1F00E949716DC01CB014F
:102A000088199909AA09BB09883E9340A105B10517
:102A100070F321E0C21AD108E108F10888EE880EAF
:102A200083E0981EA11CB11CC114D104E104F1047F
:102A300019F7DDCFFF90EF90DF90CF90BF90AF9070
:102A40009F908F900895CF92DF92EF92FF920F9315
:102A50001F93CF93DF93CDB7DEB7C254D1090FB622
:102A6000F894DEBF0FBECDBFFC0182819381A481AB
:102A7000B58123968CAF9DAFAEAFBFAF239721E05A
:102A800023962FAF239723964CAD5DAD6EAD7FADF2
:102A900023974BAB5CAB6DAB7EAB89AF9AAFABAF63
:102AA000BCAF8DA79EA7AFA7B8AB28AB4DA55EA5C1
:102AB0006FA578A94FA358A769A77AA72EAB4BA9F2
:102AC0005CA96DA97EA949A35AA36BA37CA38B8F94
:102AD0009C8FAD8FBE8F42EA51E05C8B4B8B3FEFFA
:102AE0003D8B3E8B3F8B188E5E874D872AA7CFA0EC
:102AF000D8A4E9A4FAA4CF86D88AE98AFA8A2CA3B2
:102B000009A11AA12BA13CA109871A872B873C8711
:102B10005A8349838B839C83AD83BE836CE271E0CF
:102B200080E090E00E94E9141FB7F8948091FE03C2
:102B3000811127C0ECEBF0E08491E8EAF0E0949199
:102B4000E82FF0E0EE0FFF1FEC56FF4FA591B49178
:102B5000EC91E92321F461E08AE00E94611461E0D4
:102B60008AE00E94AD148CB580618CBD8CB5806408
:102B70008CBD61E08DE00E94AD1461E08BE00E94AD
:102B8000AD148091FE038F5F8093FE031FBF229AD6
:102B900080E590E00E94FC0160E880E090E00E9407
:102BA000370D65E58BE190E00E94370D65E58AE120
:102BB00090E00E94370D0E94FB0180E090E490932A
:102BC000EF038093EE0380E090E69093F703809309
:102BD000F60380E098E49093F1038093F00380E0A3
:102BE00098E69093F9038093F80380E090E5909342
:102BF000F3038093F20380E090E79093FB038093CC
:102C0000FA0380E098E59093F5038093F40380E065
:102C100098E79093FD038093FC0380E590E00E9489
:102C2000FC0146E050E060E071E089E090E00E9445
:102C3000E90944E050E0BE016D5F7F4F8FE090E016
:102C40000E94E90944E050E0BE01615F7F4F81E0EE
:102C500090E00E94E90944E050E0BE016B5E7F4FC6
:102C600085E090E00E94E9090E94FB0181E08C87E9
:102C700089859A85AB85BC8580939E0490939F043B
:102C8000A093A004B093A104CE5BDF4F0FB6F894DD
:102C9000DEBF0FBECDBFDF91CF911F910F91FF908F
:102CA000EF90DF90CF900895EF92FF920F931F93D4
:102CB000CF938C01C62F60E070E00E94B9027C01C6
:102CC000C8010E94D00281110AC06C2FCC0F770B73
:102CD00081E0F701248135812617370709F080E06C
:102CE000CF911F910F91FF90EF9008950F931F9335
:102CF000CF93DF938C0160E070E00E94B902EC0199
:102D0000C8010E94D00281110AC08C819D81863643
:102D1000910529F46E817F818885998503C060E0E3
:102D200070E0CB01DF91CF911F910F9108953FB7D4
:102D3000F8948091910590919205A0919305B0919E
:102D4000940526B5A89B05C02F3F19F00196A11D3B
:102D5000B11D3FBFBA2FA92F982F8827820F911D31
:102D6000A11DB11DBC01CD0142E0660F771F881F78
:102D7000991F4A95D1F708952FB7F89460918D0562
:102D800070918E0580918F05909190052FBF0895C9
:102D90001F920F920FB60F9211242F933F938F9390
:102DA0009F93AF93BF9380918D0590918E05A091D5
:102DB0008F05B091900530918C0523E0230F2D37BE
:102DC00020F40196A11DB11D05C026E8230F02962F
:102DD000A11DB11D20938C0580938D0590938E05C8
:102DE000A0938F05B09390058091910590919205E5
:102DF000A0919305B09194050196A11DB11D8093FA
:102E0000910590939205A0939305B0939405BF917B
:102E1000AF919F918F913F912F910F900FBE0F9087
:102E20001F901895CF93DF93CDB7DEB7C656D10963
:102E30000FB6F894DEBF0FBECDBF789484B5826024
:102E400084BD84B5816084BD85B5826085BD85B54E
:102E5000816085BD80916E00816080936E001092CC
:102E60008100809181008260809381008091810047
:102E700081608093810080918000816080938000D8
:102E80008091B10084608093B1008091B000816036
:102E90008093B00080917A00846080937A00809162
:102EA0007A00826080937A0080917A0081608093BA
:102EB0007A0080917A00806880937A001092C10035
:102EC000E0910F04F091100482E08083E0910B0404
:102ED000F0910C041082E0910D04F0910E048FEC3F
:102EE000808310921704E0911304F091140486E09B
:102EF0008083E0911104F0911204808180618083CD
:102F0000E0911104F0911204808188608083E09147
:102F10001104F0911204808180688083E091110493
:102F2000F091120480818F7D80836AEA71E08FEFD7
:102F300093E00E94541160E070E08DE395E00E9400
:102F4000040660E070E08AE395E00E9404061092B7
:102F50004703109246031092CB031092ED030E9498
:102F6000EA081092CB031092ED030E94EA0860E099
:102F700080E00E945D1280E496E0909300058093CB
:102F8000FF048091390591E09093CA038093EC038C
:102F90001092CB031092ED0360E08AEA94E00E9465
:102FA000470181E00E94FB11809139059091C9038E
:102FB0009111FCCF91E09093C9039093C8032FEF38
:102FC0002093C7031092C6031092C5039093A403E5
:102FD0009091A403880F892B8093A4038091A3036D
:102FE000813061F41092A3038091A4038093BB000D
:102FF0008091BC0083FDF8CF85EC01C085EE809305
:10300000BC008091C9038130E1F38091C603811136
:1030100003C08091C60301C081E0A5EAB3E026E2C7
:1030200033E0F9019E2F921B981718F49D9191930C
:10303000F9CF10924703809346038AEA94E00E94F6
:10304000C900182F682F6F76606180E00E945D12C2
:1030500063E08EEF0E945D12612F80E00E945D129E
:1030600065E070E080E090E00E94E914612F616A01
:1030700080E00E945D1210E020E030E040E050E08F
:10308000612F89E395E00E94C0111F5F1031A1F705
:1030900060E080E00E94AD1460E080E00E94AD142A
:1030A00060E080E00E94AD1460E080E00E94AD141A
:1030B00065EC71E08FEF93E00E94541182EA91E099
:1030C0009A8389838091DD049091DE04A091DF04CE
:1030D000B091E0048B839C83AD83BE83CE010196C7
:1030E0000E94231503E0202E312C27E430E02C0F22
:1030F0003D1F2C5F3F4FA3963FAF2EAFA397CE014E
:103100004B96A1969FAF8EAFA19788E0ECE0F1E0DF
:10311000DE01A95ABF4F01900D928A95E1F788E030
:10312000FE01E95AFF4FDE01A15BBF4F01900D92F6
:103130008A95E1F788E0FE01E15BFF4FDE0115961D
:1031400001900D928A95E1F71C821B821E861D86D6
:103150001A8219821A8A198A1C8A1B8A188A1F865F
:1031600081EE94E00E94990FA5969FAF8EAFA59730
:10317000181619060CF066C614E0812E912CA5963F
:103180002EAD3FADA59721503109A5963FAF2EAF8B
:10319000A5972F3F3F4F09F4B3C581EE94E00E94FD
:1031A000700FD82E6B897C896F5F7F4F89899A89D0
:1031B0000E949A239A8B898B009761F02B893C8916
:1031C000A9014F5F5F4F5C8B4B8BFC01E20FF31F3C
:1031D000D08204C0A3E0B0E0BE87AD878F85988918
:1031E0008230910509F441C02CF4009759F0019701
:1031F000B9F0C5CF8330910509F455C0049709F49F
:10320000E6C0BDCFB3E2DB1205C081E090E0988B51
:103210008F87B5CFEFE2DE12B2CF988A8F86AFCF1D
:103220008B899C89089709F0AACF09891A89B80166
:1032300089ED91E00E947224892B39F0188A1F864B
:1032400022E030E03E872D8704C082E090E0988B3A
:103250008F871C8A1B8AC8010E9402231A8A198A36
:10326000A2E0B0E0B88BAF878ACF8B899C890897A2
:1032700009F085CF89899A8928E0FC01DE0115963D
:1032800001900D922A95E1F7E3E0F0E0F88BEF87EB
:103290001C8A1B8A0E9402231A8A198A23E030E0C2
:1032A000388B2F876CCF8B899C89049709F067CF67
:1032B00089899A89DC014D915D916D917C912B9664
:1032C0004CAF5DAF6EAF7FAF2B97A396AEADBFADEA
:1032D000A397FE017796A1962EAD3FADA197E21779
:1032E000F30719F02E912193F6CF4F89588D698DF0
:1032F0007A8D2B964CAF5DAF6EAF7FAF2B978A0167
:103300009B010370112722273327012B022B032B4C
:1033100029F4411551056105710519F482E090E029
:1033200053C0988A8F865E8B4D8B1C8A1B8A0E94A5
:1033300002231A8A198A80E190E00E946D228C0192
:10334000DC0111961C921E9215961C921E921497E7
:1033500017961C921E92169713961C921E92129705
:103360001B961C921E921A971D961C921E921C97D9
:103370001F961C921E921E970E947002F8011186E1
:10338000108622E030E0378326836B817C816F5F7B
:103390007F4F660F771F89819A810E949A23009739
:1033A00089F09A8389832B813C81A901440F551FA1
:1033B000FC01E40FF51F118300832F5F3F4F3C8317
:1033C0002B83DDCE83E090E09E878D87D8CE8B81E6
:1033D0009C81181619060CF0D2CE81509048880FA7
:1033E000991FE981FA81E80FF91F00811181D80145
:1033F0001E962D913C911F971A968D919C911B972B
:103400001C966D917C911D97121613068CF49B01EE
:103410002F5F3F4F1D963C932E931C97FC01E60FA8
:10342000F71FD0821E968D919C911F97019717C010
:103430006F5E7F4F0E949A23F801938782870097DF
:1034400099F024853585A9014F5F5F4F55874487E3
:10345000FC01E20FF31FD08280E190E0D8011F96BB
:103460009C938E931E9703C0F80137822682D80161
:103470001896ED91FC911997E730F10508F023C4F7
:10348000EC5CFF4F0C946722BFE2DB121CC481E0AE
:1034900090E0F8019187808716C4D11014C4D80138
:1034A0001A966D917C911B97C8010E948D02F801BC
:1034B00017821682C8010E947002E2E0F0E0F5C0B7
:1034C000FCE2DF1200C4D80119963C922E921897A4
:1034D00096C0DD20F1F18EE090E00E946D227C012B
:1034E00022E030E0FC01318320838D2DDD0C990B2F
:1034F0009583848313821282D80114966D917C91F6
:1035000015976F5F7F4F660F771F12968D919C9175
:1035100013970E949A23009721F4F801378226829C
:103520001BC0D80113969C938E93129714962D91DD
:103530003C911597A901440F551FFC01E40FF51F9D
:10354000F182E0822F5F3F4F15963C932E931497A4
:1035500003C0F80191868086D80114962D913C9184
:103560001597C9018095909583709927009711F45C
:1035700084E090E0820F931FF80124853585281799
:10358000390709F0A0C3C8010E947002E5E0F0E02D
:103590008CC04F88588C698C7A8CD80114968D9188
:1035A0009C911597E816F9060CF0C4C0B701C80144
:1035B0000E94B9026C01009729F00E948204C601A2
:1035C0000E9402238EE090E00E946D22FC01118295
:1035D000108289E690E0958384839382828246827A
:1035E000578260867186EE0CFF1CD80112968D9171
:1035F0009C911397DC01AE0DBF1DED93FC93C801A8
:103600000E94700260C3FFEFEF1AFF0AD801149600
:103610008D919C911597E816F9060CF054C3B701EB
:10362000C8010E94B902DC012D913C911197223012
:10363000310549F71496AD90BC901597B6E6AB16D8
:10364000B10409F48EC0D4F133E7A316B10409F034
:1036500040C0D11038C3D8011A96CD90DC901B978A
:1036600014968D919C911597E816F9060CF448C2B2
:10367000E816F90609F0F1C28EE090E00E946D2292
:103680007C01B6010E944905F70180819181833058
:10369000910509F0BAC2D80117969C938E9316979C
:1036A000C8010E947002E6E0F0E0D8011996FC9390
:1036B000EE93189708C3E12CF12CA8CFF2E6AF16D1
:1036C000B10409F432C224E6A216B10409F4A8C078
:1036D000FAC284E7A816B10409F42CC199E6A91628
:1036E000B10409F0F0C2D8011C968D919C911D97F0
:1036F000049709F0E8C21A96ED91FC911B9780811E
:103700009181A281B3812B968CAF9DAFAEAFBFAF3D
:103710002B97A396AEADBFADA397FE017796A1966A
:103720002EAD3FADA197E217F30709F432CF8E918A
:103730008193F5CFE816F90609F0DEC18EE090E03E
:103740000E946D226C01FC011182108289E690E0DA
:1037500095838483938282824682578260867186B3
:10376000C6C0D8011C968D919C911D97049709F0B5
:10377000AAC21A96ED91FC911B9780819181A2813A
:10378000B3812B968CAF9DAFAEAFBFAF2B97A396F7
:10379000AEADBFADA397FE017796A1962EAD3FAD1E
:1037A000A197E217F30719F08E918193F6CF4F8816
:1037B000588C698C7A8CD80114968D919C911597B0
:1037C000E816F906D4F4B701C8010E94B9026C01E9
:1037D000009729F00E948204C6010E9402238EE015
:1037E00090E00E946D22FC011182108226E630E0FA
:1037F00035832483938282825CC0E816F90609F03F
:103800007BC18EE090E00E946D226C01FC01118270
:10381000108226E630E0358324839382828260C062
:10382000D8011C968D919C911D97089709F04BC269
:103830001A96ED91FC911B9788E0DE015796019056
:103840000D928A95E1F7DE015B96FE01E95BFF4F81
:10385000A3962EAD3FADA397E217F30719F08E9113
:103860008193F6CF2B964CAC5DAC6EAC7FAC2B97B6
:10387000D80114968D919C911597E816F906F4F4E9
:10388000B701C8010E94B9026C01009729F00E949B
:103890008204C6010E9402238EE090E00E946D2205
:1038A000FC01118210829382828226E630E0358309
:1038B0002483468257826086718695CEE816F90683
:1038C00009F01AC18EE090E00E946D226C01FC01AB
:1038D000118210829382828226E630E0358324832F
:1038E000D60116964D925D926D927C921997B70112
:1038F0006F5F7F4F660F771FF801828193810E946F
:103900009A23009731F4D80117963C922E9216977D
:1039100076CEF8019383828324813581A901440FF7
:10392000551FFC01E40FF51FD182C0822F5F3F4F6E
:10393000D801DDC0D8011C96CD90DC901D97B8E071
:10394000CB16D10409F0BFC1D8011A96ED91FC91B4
:103950001B9788E0DE01A95BBF4F01900D928A950D
:10396000E1F7CE01895B9F4F0E9453022B966CAF0B
:103970007DAF8EAF9FAF2B97A3968EAD9FADA397D4
:103980000E9453022F966CAF7DAF8EAF9FAF2F97E3
:1039900088E0FE01E95BFF4FDE01DF9601900D92AA
:1039A0008A95E1F7F80184819581E816F9060CF013
:1039B00045C0B701C8010E94B9026C01009729F007
:1039C0000E948204C6010E94022388E0FE01FF9645
:1039D000DE01579601900D928A95E1F78EE090E016
:1039E0000E946D2228E0FE017796DE01D7960190B5
:1039F0000D922A95E1F7DC0111961C921E92E4E7E4
:103A0000F0E01596FC93EE93149728E030E01396BF
:103A10003C932E931297FE01F796169601900D9205
:103A20002A95E1F7EE0CFF1CD8011296ED91FC915E
:103A30001397EE0DFF1D91838083E1CDE816F90603
:103A400009F05AC088E0FE01FF96DE019F960190C2
:103A50000D928A95E1F788E0FE01BF96DE01579648
:103A600001900D928A95E1F78EE090E00E946D2220
:103A70003C0188E0FE017796DE01979601900D9259
:103A80008A95E1F7F30111821082B582A482D38274
:103A9000C28288E0FE01B796D301169601900D927E
:103AA0008A95E1F7B7016F5F7F4F660F771FD801E7
:103AB00012968D919C9113970E949A23009721F45E
:103AC000F801378226829BCDD80113969C938E9362
:103AD000129714962D913C911597A901440F551FEB
:103AE000FC01E40FF51F718260822F5F3F4F159636
:103AF0003C932E93149783CDF801978286827FCDD5
:103B0000B701C8010E94B9025C01009729F00E9428
:103B10008204C5010E9402238EE090E00E946D2283
:103B20005C01B6010E9449054CC0D8011C96AD90BD
:103B3000BC901D97B5E0AB16B1040CF4C4C0F801FD
:103B4000C284D384F60180819181A281B3818F8B5D
:103B5000988FA98FBA8FCE0147960E9453022B01EE
:103B60003C01C501BB0CAA0BBB0BB301A2014C5F0E
:103B70005F4F6F4F7F4F84179507A607B70709F070
:103B8000A2C0F4E0CF0ED11CD80114968D919C9167
:103B90001597E816F90644F5B701C8010E94B90265
:103BA0005C01009729F00E948204C5010E94022353
:103BB0008EE090E00E946D225C01A201B6010E949D
:103BC000CF04F501808191818330910509F463CDA3
:103BD000EE0CFF1CD8011296ED91FC911397EE0D9F
:103BE000FF1DB182A0825CCDE816F906B1F58EE02A
:103BF00090E00E946D227C01A201B6010E94CF04D8
:103C0000F70180819181039769F0F80164817581E2
:103C10006F5F7F4F660F771F828193810E949A2387
:103C2000009731F4D80117963C922E92169738CD12
:103C3000F8019383828324813581A901440F551FA4
:103C4000FC01E40FF51FF182E0822F5F3F4FD801A6
:103C500015963C932E93149723CDF8019782868274
:103C60001FCDF801E480F580F1E0EF1AF108F7FCD0
:103C70002AC0B701C8010E94B902DC012D913C9114
:103C80001197232BE1F412968D919C9113979195A6
:103C90008195910983709927009759F0D8011C9656
:103CA0002D913C911D972817390769F4C8010E948E
:103CB000700225E030E0F8013187208704C031E050
:103CC000E31AF108D4CF2B893C898D899E89281766
:103CD000390769F483E090E0988B8F871C8A1B8AF0
:103CE00089899A890E9402231A8A198A48CA8217E6
:103CF00093070CF044CAA2E0B0E0BE87AD873FCA8C
:103D0000FF24F3948D859E85892B09F4F12C00E026
:103D100010E08B819C81081719077CF4C801880F7B
:103D2000991FE981FA81E80FF91F808191810E9432
:103D3000D002F82A0F5F1F4FECCFF1105AC01816AF
:103D4000190644F4E981FA81A081B181A796BFAF39
:103D5000AEAFA797A7966EAD7FADA797CE0147965A
:103D60000E94320360E070E0CE0147960E94B902E3
:103D70008C01CE0147960E94D002811103C0F80148
:103D8000648101C060E0062E000C770B6F517E4FFE
:103D90008FEF93E00E9454114BEF52E06EEE71E012
:103DA000CE0101960E9478124BEF52E065E072E07E
:103DB000CE0101960E9478124BEF52E06AE172E068
:103DC000CE0101960E9478124CEC51E062E372E061
:103DD000CE0101960E94781247EA51E069E472E050
:103DE000CE0101960E947812CE0147960E9495045A
:103DF00029C0CD84DE840D2C000CEE08FF08F7FEF0
:103E000014C0E091FF03F09100040190F081E02DD7
:103E10006DE28FEF93E0099544275527BA014C19BD
:103E20005D096E097F092AE003C02AE0B701A601F7
:103E30008FEF93E00E94C1106FE572E08FEF93E087
:103E40000E94AC1000E010E02B813C8189819A81B6
:103E500002171307A4F49801220F331FFC01E20F8D
:103E6000F31FE080F180E114F10431F0C7010E94FA
:103E70009504C7010E9402230F5F1F4FE5CF0E94E8
:103E8000022389899A890E9402238091500300911C
:103E9000FC041091FD04D8018823A9F013968D919C
:103EA0009C91149720E030E040E050E011966C9136
:103EB000CB960E94C011F8018381948120E030E00C
:103EC00040E050E114C013968D919C91149720E02E
:103ED00030E040E050E011966C91CB960E94C0110A
:103EE000F8018381948120E030E040E050E062817D
:103EF000CB960E94C011E091FC04F091FD048381F7
:103F0000948120E030E040E050E06081CB960E9458
:103F1000C011609148037091490380914A039091C8
:103F20004B030E94FC219B01AC01A3EBB0E00E947B
:103F3000B8216B017C0160914C0370914D0380911D
:103F40004E0390914F030E94FC219B01AC01A3EB17
:103F5000B0E00E94B8218DE395E00E948105B60192
:103F60008AE395E00E9481050E94760ECEC882EA1F
:103F700091E0909341058093400510924205109284
:103F800043051092440510924505109202041092C8
:103F9000010448EE53E060E070E040930304509366
:103FA000040460930504709306042EE131E030931D
:103FB00000042093FF0325EC30E030930C042093A1
:103FC0000B0424EC30E030930E0420930D0420EC1D
:103FD00030E03093100420930F0421EC30E0309354
:103FE00012042093110422EC30E030931404209347
:103FF000130426EC30E0309316042093150410923D
:1040000018041092190410921A0410921B04909331
:104010004705809346051092480510924905109275
:104020004A0510924B0590934D0580934C051092D4
:104030004E0510924F051092500510925105909325
:104040005305809352051092540510925505109215
:104050005605109257059093590580935805109274
:104060005A0510925B0510925C0510925D059093C5
:104070009D0480939C0410929E0410929F041092C1
:10408000A0041092A1049093A5048093A40410921C
:10409000A6041092A7041092A8041092A904909369
:1040A0005F0580935E051092600510926105109285
:1040B00062051092630590936505809364051092E4
:1040C0006605109267051092680510926905909335
:1040D0006B0580936A0510926C0510926D05109225
:1040E0006E0510926F059093710580937005109284
:1040F00072051092730510927405109275059093D5
:1041000077058093760510927805109279051092C4
:104110007A0510927B0590937D0580937C05109223
:104120007E0510927F0510928005109281051092F5
:10413000AD041092AC044093AE045093AF0460936E
:10414000B0047093B1042EE231E03093AB042093BD
:10415000AA04909387058093860510928805109293
:10416000890510928A0510928B058091DA048C30B3
:10417000A0F491E0980F9093DA0480933D0590E0CD
:10418000FC01EE0FFF1F8E0F9F1FFC01EA54FB4F37
:1041900088EB9BE09283818303C08FEF80933D0582
:1041A0008091DA048C30A0F491E0980F9093DA04B7
:1041B00080933A0590E0FC01EE0FFF1F8E0F9F1FCA
:1041C000FC01EA54FB4F88EB9BE09283818303C0A0
:1041D0008FEF80933A05E3E0F5E0128211821382BB
:1041E0001082DF0111971C9211971C92369685E080
:1041F000EB31F80791F710922505109228051092DF
:10420000240510922305109235051092380510925E
:1042100034051092330580E68093FE0480933905BF
:1042200080910605811111C0109206058EEF94E071
:10423000909305058093040588E0809301058AE04A
:104240008093020589E08093030581E095E09093D7
:10425000FD048093FC0480910C05811112C081E063
:1042600080930C058EEF94E090930B0580930A05E4
:104270008DE0809307058BE0809308058CE08093A8
:10428000090587E095E090938505809384058091EA
:104290001205811111C082E0809312052EEF34E0E7
:1042A000309311052093100580930D0584E08093D1
:1042B0000E0583E080930F058DE095E090938305D4
:1042C000809382051092E4041092E30488EE93E058
:1042D000A0E0B0E08093E5049093E604A093E704A7
:1042E000B093E8048CE791E09093E2048093E104BA
:1042F00082EA91E09093F0048093EF041092F1042D
:104300001092F2041092F3041092F40424E020932B
:10431000F9049093DC048093DB0480EC8093DD044B
:1043200088EA8093DE041092DF048BE98093E00436
:104330000895052E97FB1EF400940E94B02157FDAE
:1043400007D00E94CB2107FC03D04EF40C94B0217F
:1043500050954095309521953F4F4F4F5F4F0895B1
:1043600090958095709561957F4F8F4F9F4F0895E1
:104370000E94ED21A59F900DB49F900DA49F800DEC
:10438000911D11240895B7FF0C94B8210E94B82103
:10439000821B930B0895A1E21A2EAA1BBB1BFD01E1
:1043A0000DC0AA1FBB1FEE1FFF1FA217B307E40714
:1043B000F50720F0A21BB30BE40BF50B661F771F6C
:1043C000881F991F1A9469F760957095809590954C
:1043D0009B01AC01BD01CF010895A29FB001B39F25
:1043E000C001A39F700D811D1124911DB29F700DFE
:1043F000811D1124911D08950E9403226894B1111A
:104400000C94552208950E943A2288F09F5798F004
:10441000B92F9927B751B0F0E1F0660F771F881FC9
:10442000991F1AF0BA95C9F714C0B13091F00E94E3
:104430005422B1E008950C945422672F782F8827D6
:10444000B85F39F0B93FCCF3869577956795B3950A
:10445000D9F73EF490958095709561957F4F8F4F79
:104460009F4F089557FD9058440F551F59F05F3FD7
:1044700071F04795880F97FB991F61F09F3F79F086
:1044800087950895121613061406551FF2CF469508
:10449000F1DF08C0161617061806991FF1CF86958A
:1044A0007105610508940895E894BB27662777276E
:1044B000CB0197F90895991B79E004C0991F9617CD
:1044C00008F0961B881F7A95C9F780950895EE0F1E
:1044D000FF1F0590F491E02D0994CF93DF93823074
:1044E000910510F482E090E0E0919705F091980535
:1044F00020E030E0C0E0D0E0309711F14081518100
:1045000048175907C0F04817590761F48281938111
:10451000209719F09B838A832BC0909398058093F2
:10452000970526C02115310519F04217530718F4D5
:104530009A01BE01DF01EF010280F381E02DDCCFA3
:104540002115310509F1281B390B2430310590F470
:1045500012968D919C9113976115710521F0FB01C5
:104560009383828304C09093980580939705FD01FF
:10457000329644C0FD01E20FF31F819391932250C4
:1045800031092D933C933AC02091950530919605C1
:10459000232B41F4209108013091090130939605B5
:1045A00020939505209106013091070121153105D1
:1045B00041F42DB73EB740910A0150910B01241BE5
:1045C000350BE0919505F0919605E217F307A0F4FD
:1045D0002E1B3F0B2817390778F0AC014E5F5F4F59
:1045E0002417350748F04E0F5F1F509396054093F0
:1045F00095058193919302C0E0E0F0E0CF01DF9157
:10460000CF9108950F931F93CF93DF93009709F4F1
:104610008CC0FC0132971382128200919705109191
:1046200098050115110581F420813181820F931FB6
:1046300020919505309196052817390779F5F09363
:104640009605E093950571C0D80140E050E0AE17A3
:10465000BF0750F412962D913C911397AD0121158F
:10466000310509F1D901F3CF9D01DA0133832283AA
:1046700060817181860F971F8217930769F4EC019F
:1046800028813981260F371F2E5F3F4F31832083CA
:104690008A819B8193838283452B29F4F09398052B
:1046A000E093970542C01396FC93EE931297ED01A9
:1046B000499159919E01240F351FE217F30771F4B8
:1046C00080819181840F951F029611969C938E9301
:1046D0008281938113969C938E931297E0E0F0E091
:1046E000D80112968D919C911397009719F0F801BB
:1046F0008C01F6CF8D919C9198012E5F3F4F820FD8
:10470000931F20919505309196052817390769F474
:10471000309729F4109298051092970502C01382E1
:1047200012821093960500939505DF91CF911F910A
:104730000F910895A0E0B0E0E0EAF3E20C94942435
:10474000EC01009721F4CB010E946D22B8C0FC015E
:10475000E60FF71F9C0122503109E217F30708F416
:10476000ACC0D9010D911C91119706171707B0F035
:104770000530110508F49FC0C801049786179707F4
:1047800008F499C002501109061B170B01931193ED
:104790006D937C93CF010E9402238DC05B01A01A10
:1047A000B10A4C01800E911EA0919705B091980519
:1047B00040E050E0E12CF12C109709F44AC0A81514
:1047C000B905D1F56D907C901197630182E0C80E18
:1047D000D11CCA14DB0480F1A3014A195B096A01E8
:1047E00082E0C80ED11C1296BC9012971396AC9121
:1047F000B5E0CB16D10440F0B282A383518340834D
:10480000D9016D937C930AC00E5F1F4FC301800FC7
:10481000911FF90191838083EB2DFA2FE114F104AC
:1048200031F0D7011396FC93EE93129744C0F093A6
:104830009805E09397053FC08D919C91119748177B
:10484000590708F4AC017D0112960D90BC91A02D82
:10485000B3CF809195059091960588159905E1F45F
:1048600046175707C8F480910601909107010097F9
:1048700041F48DB79EB740910A0150910B01841B02
:10488000950BE817F907C8F4F0939605E0939505A2
:10489000F901718360830FC0CB010E946D227C01FE
:1048A000009759F0A801BE010E946924CE010E9420
:1048B0000223C70104C0CE0102C080E090E0CDB762
:1048C000DEB7EEE00C94B02481E090E0F8940C9414
:1048D000C724FB01DC0102C001900D924150504001
:1048E000D8F70895FB01DC018D910190801901102A
:1048F000D9F3990B0895FB01DC0101900D92002082
:10490000E1F70895FB01DC014150504030F08D91FA
:104910000190801919F40020B9F7881B990B0895AC
:104920002F923F924F925F926F927F928F929F92BF
:10493000AF92BF92CF92DF92EF92FF920F931F93AD
:10494000CF93DF93CDB7DEB7CA1BDB0B0FB6F8945E
:10495000DEBF0FBECDBF09942A88398848885F849E
:104960006E847D848C849B84AA84B984C884DF800F
:10497000EE80FD800C811B81AA81B981CE0FD11DF3
:104980000FB6F894DEBF0FBECDBFED010895F894C9
:02499000FFCF57
:10499200DEADBEEFFEED00009905800000000000D4
:1049A2000000000001005E000000000000000D0E8B
:1049B200890DD60DB40DC80D540E0000000047013C
:1049C2001701DD00C900BA00B90000000000970E0F
:1049D200970E970E970E970E970E970EB700970E9B
:1049E200970E970E970E970E970E970E970E970E9D
:1049F20000000000970E890D970E970E970E970EE6
:104A020000000000970E890D00000000810E0F10BB
:104A12000809700F1A0F800E7409990E5F09180A9F
:104A22005C0A2709990F510F200910090C0900008F
:104A320000000A1100000000970E496E6974696156
:104A42006C69736174696F6E20646573206D6F7435
:104A52006575727300436F6E6E6578696F6E206163
:104A62007520726573656175002362756E646C658D
:104A7200005265636569766564204F5343002F6772
:104A82006F6C656D2F746F67676C65456E677265D5
:104A92006E616765002F676F6C656D2F73656E734E
:104AA200456E6772656E616765002F676F6C656D35
:104AB2002F76697465737365456E6772656E61679B
:104AC20065002F676F6C656D2F616E676C654F6552
:104AD200696C476175636865002F676F6C656D2F40
:104AE200616E676C654F65696C44726F6974000D25
:104AF2000A004368616E67656D656E7420616E675A
:104B02006C65206F65696C2064726F69740057412F
:104B1200524E494E47203A20457272657572206C9A
:104B22006F7273206475206368616E67656D656E70
:104B320074206427616E676C65206465206C276F42
:104B420065696C2064726F6974004368616E6765A1
:104B52006D656E7420616E676C65206F65696C208F
:104B6200676175636865005741524E494E47203A66
:104B720020457272657572206C6F727320647520A5
:104B82006368616E67656D656E74206427616E6728
:104B92006C65206465206C276F65696C20676175A0
:104BA20063686500546F67676C6520656E67726540
:064BB2006E616765000062
:00000001FF
