:100000000C94D5000C94FD000C94FD000C94FD00A4
:100010000C94FD000C94FD000C94FD000C94FD006C
:100020000C94FD000C94FD000C94FD000C949806BB
:100030000C94FD000C94FD000C94FD000C94FD004C
:100040000C94800C0C94FD000C94AC0D0C94860D5B
:100050000C94FD000C94FD000C94FD000C94FD002C
:100060000C9459070C94FD0000407A10F35A00A03C
:10007000724E18090010A5D4E80000E87648170071
:1000800000E40B54020000CA9A3B000000E1F505B1
:10009000000080969800000040420F000000A086FB
:1000A00001000000102700000000E803000000002D
:1000B0006400000000000A000000000001000000D1
:1000C00000002C76D888DC674F0823DFC1DFAE59EB
:1000D000E1B1B796E5E3E453C63AE651997696E87E
:1000E000E6C28426EB898C9B62ED407C6FFCEFBC02
:1000F0009C9F40F2BAA56FA5F490055A2AF75C932D
:100100006B6CF9676DC11BFCE0E40D47FEF520E662
:10011000B500D0ED902E0300943577050080841E45
:10012000080000204E0A000000C80C333333330FA0
:10013000986E12831141EF8D2114893BE65516CF3D
:10014000FEE6DB18D1844B381BF77C1D901DA4BB49
:10015000E424203284725E228100C9F124ECA1E5FE
:100160003D2700000000250028002B0004040404A3
:100170000404040402020202020203030303030351
:10018000010204081020408001020408102001022E
:10019000040810200000000800020100000304070A
:1001A0000000000000000000051111241FBECFEF69
:1001B000D8E0DEBFCDBF12E0A0E0B1E0E2EAF3E3B9
:1001C00002C005900D92A034B107D9F724E0A0E455
:1001D000B2E001C01D92AB37B207E1F710E0C5ED08
:1001E000D0E004C02197FE010E94BD17C43DD10795
:1001F000C9F70E94C70E0C94CF190C940000FC01A3
:10020000818D928D0895FC0184899589089529E94D
:1002100031E0FC0131832083FB01408951896289EF
:100220007389FC0142835383648375830895DC01E1
:10023000ED91FC91028CF38DE02D09942A9A08959A
:100240002A98089580E008958EBD00000DB407FE41
:10025000FDCF8EB5089508958FEF9FEF08958FEF2E
:100260009FEF08958091AE0290E09195819591095C
:10027000089585ED8093BC008091BC0084FDFCCF87
:1002800010928802089540916202262F30E0240FD8
:10029000311D21323105DCF4209188022430C9F46B
:1002A000FC0180E090E0861758F4309162022191C1
:1002B000DC01A05CBD4FA30FB11D2C930196F3CFC1
:1002C00080916202680F6093620280E0089581E08D
:1002D000089582E00895CF93DF9300D0CDB7DEB7C5
:1002E000CB01642F49835A830E9443014981842FA3
:1002F0005A81952F0F900F90DF91CF910895CF9352
:10030000DF931F92CDB7DEB7698361E0CE0101961E
:100310000E94430181E090E00F90DF91CF9108951A
:10032000CF92DF92EF92FF920F931F93CF93DF93C1
:10033000EC017A018B016C01C40ED51ECC15DD05D4
:10034000A9F00E9420018FE00E9424018D2F0E94BD
:1003500024018C2F0E942401219680E00E94240118
:10036000F80181938F010E941E01E8CFC701DF9140
:10037000CF911F910F91FF90EF90DF90CF90089554
:10038000CF92DF92EF92FF920F931F93CF93DF9361
:10039000EC017A018B016C01C40ED51ECC15DD0574
:1003A000A1F00E94200180EF0E9424018D2F0E9465
:1003B00024018C2F0E9424012196F80181918F0144
:1003C0000E9424010E941E01E9CFC701DF91CF9155
:1003D0001F910F91FF90EF90DF90CF9008950F93B2
:1003E0001F93CF93DF931F92CDB7DEB7282F30E056
:1003F0002C5F3F4F322F22278901060F171F498399
:100400000E94200180EF0E942401812F0E9424017C
:10041000802F0E9424014981842F0E9424010E9480
:100420001E0181E00F90DF91CF911F910F910895F0
:100430000F931F93CF93DF931F92CDB7DEB790E05A
:100440000496982F88278C01060F171F0E94200101
:100450008FE00E942401812F0E942401802F0E949E
:10046000240180E00E94240189830E941E01898169
:100470000F90DF91CF911F910F9108951F93CF930C
:10048000DF93182F66E270E00E941802C82FD0E0B8
:1004900067E270E0812F0E941802DC2FCC279E01BA
:1004A000282BC901DF91CF911F9108951F93CF93FE
:1004B000DF93182F60E270E00E941802C82FD0E08E
:1004C00061E270E0812F0E941802DC2FCC279E0190
:1004D000282BC901DF91CF911F91089508958CBDFC
:1004E0009DBD0895AF92BF92DF92EF92FF920F935E
:1004F0001F93CF93DF93D82E7B018A0180E590E094
:100500000E946F02C0E0D0E08D2D0E943E025C018F
:10051000892B21F08D2D0E943E02EC01CA15DB05CE
:1005200099F7209799F463E070E08D2D0E941802EE
:100530008431D9F18823C9F1C1E0D0E08C3111F4C4
:10054000C0E0D0E0D195C195D1092FC00C171D078F
:100550000CF4E8011C161D0644F568E270E08D2DD0
:100560000E941802082F10E069E270E08D2D0E94B1
:100570001802102F0027082B9E01A701B8018D2D0E
:100580000E94050E0C0F1D1F412F68E270E08D2D9B
:100590000E94EF01402F69E270E08D2D0E94EF0173
:1005A00060E470E08D2D0E94F50DCE01DF91CF91BA
:1005B0001F910F91FF90EF90DF90BF90AF90089543
:1005C000CF93C82F80E590E00E946F0260E170E059
:1005D0008C2F0E94F50D4FEF62E070E08C2FCF91D1
:1005E0000C94EF01CF93DF93EC01888D843061F0A0
:1005F0000E94E002E88DF0E0EE0FFF1FEE54FD4F89
:100600001182108284E0888FDF91CF910895FF924C
:100610000F931F93CF93DF9300D0CDB7DEB7F82EA3
:100620008A012A8369830E94E00280E590E00E94AB
:100630006F022A816981462F422B60E070E08F2D86
:100640000E94EF010115110551F40091B0021091C3
:10065000B1020F5F1F4F1093B1020093B002412F00
:1006600064E070E08F2D0E94EF01402F65E070E0A4
:100670008F2D0E94EF0161E070E08F2D0E94F50D3B
:1006800081E00F900F90DF91CF911F910F91FF901C
:100690000895EF92FF921F93CF93DF93FC01208D7B
:1006A000243011F080E022C07B01EC0110E080E5F5
:1006B00090E00E946F0263E070E0812F0E941802B8
:1006C000811102C0188F05C08831E1F31F5F14301B
:1006D00071F7888D843031F3FD86EC861A8E198E81
:1006E00020E0A70162E00E94070381E0DF91CF9143
:1006F0001F91FF90EF9008952F923F924F925F923B
:100700006F927F928F929F92AF92BF92CF92DF9221
:10071000EF92FF920F931F93CF93DF93CDB7DEB786
:10072000C254D1090FB6F894DEBF0FBECDBF1C0175
:100730008B014A0189E991E09A8389831C861B8693
:1007400048EE53E060E070E04D875E876F87788BFE
:1007500023E731E03A872987988F8F8B198E1A8E7D
:100760001B8E1C8E24E029A399AB88AB1AAA1BAA66
:100770001CAA1DAA8091890390918A03A0918B03E2
:10078000B0918C038EA39FA3A8A7B9A78B839C834A
:10079000AD83BE8318861F82F80120E080E090E0E0
:1007A0006AE03191332319F140ED430F4A3080F470
:1007B000689FA001699F500D1124CA01C097830F43
:1007C000911D37FD9A958F3F910559F350F32BC03A
:1007D0003E3249F5233039F1A2E3B0E0AC0FBD1F42
:1007E000A20FB11D8C932F5F80E090E0DACF233011
:1007F000D1F48DABD101ED91FC910288F389E02D0C
:1008000089E991E09DA38CA38AA99BA9ACA9BDA964
:100810008EA39FA3A8A7B9A7A401BE016C5D7F4FBB
:10082000C10109956BC24B815C816D817E81809194
:10083000910390919203A0919303B0919403481770
:1008400059076A077B0709F457C20E94BB0E6F70F5
:1008500077277C5FCE0109960E944903813009F019
:1008600048C289E991E09DA38CA38B819C81AD81D5
:10087000BE818EA39FA3A8A7B9A745E350E0BE0100
:100880006C5D7F4FCE0109960E946C09892B19F48B
:1008900000E010E0B9C10E94BB0E78876F83762715
:1008A000672776277DA36CA342E050E0BE016C5D14
:1008B0007F4FCE0109960E946E0A81E090E09FABC7
:1008C0008EAB42E050E0BE016A5C7F4FCE010996DC
:1008D0000E946E0A80E091E09FAB8EAB42E050E058
:1008E000BE016A5C7F4FCE0109960E946E0A1FAA64
:1008F0001EAA42E050E0BE016A5C7F4FCE0109961D
:100900000E946E0A42E050E0BE016A5C7F4FCE0159
:1009100009960E946E0A42E050E0BE016A5C7F4F79
:10092000CE0109960E946E0A6801F6018081882333
:1009300031F1C8017C01DC012C910196211118C014
:1009400067013701601A710A16141704A4F468AE1F
:1009500041E050E0BE01685C7F4FCE0109960E94E5
:100960006E0AA301B801CE0109960E946E0A03C067
:100970002E3201F7E5CF87010F5F1F4FD6CF18AE9C
:1009800041E050E0BE01685C7F4FCE0109960E94B5
:100990006E0A00E011E01FAB0EAB42E050E0BE017A
:1009A0006A5C7F4FCE0109960E946E0A1FAB0EABA8
:1009B00042E050E0BE016A5C7F4FCE0109960E9482
:1009C0006E0ACE0109960E940B0B892B09F460CFA9
:1009D00073E0E72EF12C0E94BB0E21966CAF7DAF29
:1009E0008EAF9FAF2197CE0109960E94F809181685
:1009F00019060CF43FC00E94BB0EDC01CB0121960E
:100A00002CAD3DAD4EAD5FAD2197821B930BA40B7A
:100A1000B50B89389341A105B105F0F50E94960EFA
:100A20005B016C0162E3462E512C612C712C0E94FB
:100A3000960EDC01CB018A199B09AC09BD09883EE1
:100A40009340A105B10580F041E0441A51086108C6
:100A5000710858EEA50E53E0B51EC11CD11C4114FF
:100A600051046104710419F74114510461047104C3
:100A7000F1F6B9CF4B815C816D817E81898D9A8D34
:100A8000AB8DBC8D481759076A077B0741F48D8DE4
:100A90009E8DC59721F406C02FEF3FEFACC02EEF1F
:100AA0003FEFA9C08AA19BA10C970CF4BAC04CE0FF
:100AB00050E0BE016C5D7F4FCE0109960E94B009E7
:100AC0008EA190E0982F88272FA1822B9BAF8AAF11
:100AD0002CA130E0322F22274DA1242B4F815885A5
:100AE0004217530709F09AC097FF98C08F70927011
:100AF000892B09F0FBC00AA510E0102F00278BA559
:100B0000082B0115110509F4EEC0C12CD12C88A5C4
:100B100090E0982F882729A5822BC816D90608F4BB
:100B200083C0C12CD12C41E050E0BE01645C7F4FFA
:100B3000CE0109960E94B0098CAD982F907C09F0E7
:100B4000ADC081119FC08CAD8111EDCF42E050E06E
:100B5000BE01685C7F4FCE0109960E94B00942E059
:100B600050E0BE016A5C7F4FCE0109960E94B00939
:100B7000CE0109960E94CF09CE0109960E94CF09A5
:100B8000CE0109960E94CF09CE0109960E94CF0995
:100B900042E050E0BE01665C7F4FCE0109960E94A4
:100BA000B00988AD99AD8115914009F07DC02EA99D
:100BB0003FA93227232732272130310509F074C09D
:100BC0008AAD9BAD8115944009F08AC044E050E0A5
:100BD000BE016E5C7F4FCE01099622962FAF229701
:100BE00023963FAF23970E94B00922962FAD2297FC
:100BF00023963FAD23978901A1E0EA1AF10821F07D
:100C00002F3F3F4F09F4E7CECE0109960E94F20232
:100C10000130110509F4EECDC80170C02CEF3FEF93
:100C2000EACF2DEF3FEFE7CF41E050E0BE016A5C35
:100C30007F4FCE0109960E94B0098EA9811117C07D
:100C40008EA98111F1CFCE0109960E94CF09CE0164
:100C500009960E94CF09CE0109960E94CF09CE01C4
:100C600009960E94CF09FFEFCF1ADF0A50CF8EA955
:100C70009FEF980F9EAB882319F3CE0109960E942F
:100C8000CF09F5CF8CAD9FEF980F9CAF882309F467
:100C90005ACFCE0109960E94CF09F4CFCE01099612
:100CA0000E94CF091CAE4FCF612C712C8AAD9BAD39
:100CB0009827892798276816790640F4CE01099667
:100CC0000E94CF095FEF651A750AF0CF8FEFC81A3F
:100CD000D80AC016D10609F026CF26EF3FEF8BCFFA
:100CE00027EF3FEF88CF2AEF3FEF85CF2BEF3FEF86
:100CF00082CF80E090E002C08EEF9FEFCE5BDF4FAF
:100D00000FB6F894DEBF0FBECDBFDF91CF911F911C
:100D10000F91FF90EF90DF90CF90BF90AF909F909A
:100D20008F907F906F905F904F903F902F9008959D
:100D30001F920F920FB60F9211242F933F934F9350
:100D40005F936F937F938F939F93AF93BF93EF9333
:100D5000FF938091AF0287FF05C01092850010922B
:100D600084001BC02091AF02022E000C330B809137
:100D7000B90390E02817390784F48091AF02082E58
:100D8000000C990BFC01EE0FFF1F8E0F9F1FFC0143
:100D9000EB56FC4F808186FD15C08091AF028F5FBE
:100DA0008093AF022091AF02022E000C330B809192
:100DB000B90390E028173907C4F48091AF028C3052
:100DC00064F113C08091AF02082E000C990BFC0156
:100DD000EE0FFF1F8E0F9F1FFC01EB56FC4F808113
:100DE00060E08F730E944A0ED8CF8091840090916A
:100DF0008500049680349C4918F480E49CE905C081
:100E0000809184009091850004969093890080934E
:100E100088008FEF8093AF023BC020918400309117
:100E200085008091AF02082E000C990BFC01EE0F9B
:100E3000FF1F8E0F9F1FFC01EB56FC4F818192819B
:100E4000820F931F90938900809388008091AF0256
:100E5000082E000C990BFC01EE0FFF1F8E0F9F1F39
:100E6000FC01EB56FC4F808186FF12C08091AF02DF
:100E7000082E000C990BFC01EE0FFF1F8E0F9F1F19
:100E8000FC01EB56FC4F808161E08F730E944A0E9B
:100E9000FF91EF91BF91AF919F918F917F916F9152
:100EA0005F914F913F912F910F900FBE0F901F9028
:100EB00018951F920F920FB60F9211242F933F9304
:100EC0004F935F936F937F938F939F93AF93BF9352
:100ED000EF93FF938091B900887F803609F49CC01E
:100EE00068F5883209F45BC090F4803109F454C08D
:100EF00038F4882309F4F6C0883009F44DC0F6C0F0
:100F0000883109F44CC0803209F45DC0EFC08034F0
:100F100009F468C048F4803309F455C0883309F0F7
:100F2000E5C080938702D8C0803509F44FC088356A
:100F300009F45DC0883409F0D9C0D6C0883909F4F5
:100F4000C7C0A8F4883709F467C038F4883609F4B4
:100F500063C0803709F460C0C9C0883809F4B8C0DC
:100F6000803909F45FC0803809F0C0C05BC0803BA5
:100F700009F486C038F4803A09F466C0883A09F466
:100F80007FC0B4C0803C09F4A7C0883C09F4A4C069
:100F9000883B09F48AC0AAC08091AD0210C090912C
:100FA000AC028091AB02981770F5E091AC0281E041
:100FB0008E0F8093AC02F0E0E557FD4F8081809367
:100FC000BB0085EC86C0809387028EC0E091AC02A6
:100FD00081E08E0F8093AC028091BB00F0E0E5577A
:100FE000FD4F80839091AC028091AB026EC0E09186
:100FF000AC0281E08E0F8093AC028091BB00F0E0E8
:10100000E557FD4F808380918A0281116DC081E098
:101010008093890284EA61C083E080938802109201
:101020008602CFCF80918602803208F051C0E091D5
:10103000860281E08E0F809386028091BB00F0E0F3
:10104000EA59FD4F8083BDCF85EC8093BC001092A0
:10105000880280918602803230F4E0918602F0E0CE
:10106000EA59FD4F10826091860270E0E0916402BF
:10107000F091650286E692E009951092860236C0EC
:1010800084E0809388021092630210926202E091E1
:101090006002F0916102099580916202811105C0A0
:1010A00081E08093620210924002E091630281E04D
:1010B0008E0F80936302F0E0E05CFD4F80818093AF
:1010C000BB009091630280916202981708F479CF77
:1010D00085E88093BC000AC085EC8093BC00109228
:1010E000880204C0109287020E943901FF91EF919B
:1010F000BF91AF919F918F917F916F915F914F9130
:101100003F912F910F900FBE0F901F901895FC01EB
:10111000918D228D892F90E0805C9F4F821B9109D9
:101120008F739927089580E090E0892B29F00E9421
:101130000D0C81110C94000008950895CF93DF9356
:101140001F92CDB7DEB76983DC01ED91FC9102807F
:10115000F381E02D41E050E0BE016F5F7F4F0995C4
:101160000F90DF91CF910895BF92CF92DF92EF92CF
:10117000FF920F931F93CF93DF9300D000D000D046
:10118000CDB7DEB7FC01208D243009F05DC06A01C7
:101190007B018C01B12C63E070E08B2D0E94180262
:1011A000811103C0F801B08E06C08831D9F3B39421
:1011B000F4E0BF12F0CFF801808D843009F444C010
:1011C00096E0EBE0F1E0DE01119601900D929A9528
:1011D000E1F7F70193819F779C8394819D839581AB
:1011E0009E83B7016E5F7F4F90E0982F882744E081
:1011F00050E0845F9B4F0E94C001F801F08C4D2DA0
:1012000060E170E08F2D0E94EF014C2D61E170E0F4
:101210008F2D0E94EF01F801808D90E0982F882794
:1012200046E050E0BE016F5F7F4F8A5F9B4F0E9498
:10123000C001F801128E118E20E8A60162E0808DB7
:101240000E94070381E001C080E026960FB6F89463
:10125000DEBF0FBECDBFDF91CF911F910F91FF90E9
:10126000EF90DF90CF90BF900895FF920F931F9360
:10127000CF93DF931F92CDB7DEB7FC01218D328D66
:10128000232B09F1F08C80E590E00E946F0268E268
:1012900070E08F2D0E941802082F10E069E270E0C4
:1012A0008F2D0E941802702F6627682B21E030E0F6
:1012B000AE014F5F5F4F8F2D0E94050E0E946E02A0
:1012C000898190E002C08FEF9FEF0F90DF91CF9167
:1012D0001F910F91FF900895EF92FF921F93CF936C
:1012E000DF93EB017A01FC01178A168A108D8A813F
:1012F000811109C08B81811106C08C81811103C0CD
:101300008D81882329F1E114F10411F180E590E049
:101310000E946F02BE016E5F7F4F812F90E0982F79
:10132000882744E050E0845F9B4F0E94C0014F2D0E
:1013300060E170E0812F0E94EF014E2D61E170E0CD
:10134000812F0E94EF010E946E0281E090E002C0B6
:1013500080E090E0DF91CF911F91FF90EF90089592
:10136000CF93DF93FC01218D328D2115310519F4C6
:101370008FEF9FEF11C0EC014217530708F0A9014E
:10138000888D0E9472021816190694F7298D3A8DDD
:10139000281B390B3A8F298FDF91CF9108950F9336
:1013A0001F93CF93DF931F92CDB7DEB7FC01218D42
:1013B000328D232B61F08C0141E050E0BE016F5F64
:1013C0007F4F808D0E947202181619061CF08FEF55
:1013D0009FEF08C0F801818D928D0197928F818FC8
:1013E000898190E00F90DF91CF911F910F91089527
:1013F000BF92CF92DF92EF92FF920F931F93CF9302
:10140000DF93CDB7DEB728970FB6F894DEBF0FBED7
:10141000CDBF8C01F801818D928D892B49F0D801C7
:10142000ED91FC910680F781E02DC8010995F2CF7E
:10143000B08C80E590E00E946F02E12CF12C8B2DA6
:101440000E943E026C01892B21F08B2D0E943E02EE
:101450007C01EC14FD0499F70E946E021E141F0417
:101460005CF548E050E0BE016F5F7F4FD8015896B1
:101470008C910E9472029C0118161906DCF4898175
:101480009A81AB81BC81F801808B918BA28BB38B4D
:101490008D8190E0982F88272E81820F911D958B4A
:1014A000848B2F8130E0322F22278885280F311D31
:1014B000328F218FC90102C080E090E028960FB6DC
:1014C000F894DEBF0FBECDBFDF91CF911F910F917A
:1014D000FF90EF90DF90CF90BF9008957F928F9212
:1014E0009F92AF92BF92CF92DF92EF92FF920F93B3
:1014F0001F93CF93DF935C014B016A01FC010689C6
:101500001789708C80E590E00E946F02C0E0D0E007
:10151000872D0E9456027C01892B21F0872D0E9485
:101520005602EC01CE15DF0599F7CC15DD0578F4F0
:10153000C0E0D0E0872D0E9456026C01892B21F07B
:10154000872D0E945602EC01CC15DD0599F764E267
:1015500070E0872D0E941802E82EF12C65E270E001
:10156000872D0E941802FE2CEE24E82AE701C00F06
:10157000D11F9E013770E72CF12CC701880F991FEE
:10158000AC0146525D4F7A01FA0180819181820F50
:10159000931FA9014C0D5D1D4130584090F000E0B3
:1015A00018E0021B130BA801B4010E94C001A601A0
:1015B000401B510BB401600F711FF70180819181B5
:1015C00002C0A601B4010E94C001CC0DDD1D4D2F4B
:1015D00064E270E0872D0E94EF014C2F65E270E01D
:1015E000872D0E94EF010E946E02F501868997897E
:1015F0008C0D9D1D978B868BC601DF91CF911F911E
:101600000F91FF90EF90DF90CF90BF90AF909F90A1
:101610008F907F900895CF93FC01C08D80E590E07E
:101620000E946F0260E270E08C2F0E94F50D62E074
:1016300070E08C2F0E94180284FD19C062E070E0F7
:101640008C2F0E94180283FF0BC048E162E070E01B
:101650008C2F0E94EF010E946E0280E090E011C08A
:101660000E946E0280E590E00E946F02E0CF40E1B0
:1016700062E070E08C2F0E94EF010E946E0281E018
:1016800090E0CF910895FC01848DDF01A80FB11D7A
:10169000A35ABF4F2C91848D90E001968F739927A8
:1016A000848FA689B7892C93A089B1898C91806495
:1016B0008C93938D848D981306C00288F389E02D56
:1016C00080818F7D80830895CF92DF92EF92FF9289
:1016D0000F931F93CF93DF936C017A018B01C0E0CE
:1016E000D0E0CE15DF0589F0D8016D918D01D601CE
:1016F000ED91FC910190F081E02DC6010995892BB7
:1017000011F47E0102C02196ECCFC701DF91CF9189
:101710001F910F91FF90EF90DF90CF900895FC0103
:10172000918D828D981761F0828DDF01A80FB11D18
:101730005D968C91928D9F5F9F73928F90E008953C
:101740008FEF9FEF0895FC01918D828D981731F0F6
:10175000828DE80FF11D858D90E008958FEF9FEF4A
:101760000895CF93DF93EC0188819981009711F060
:101770000E945818198218821D821C821B821A82AC
:10178000DF91CF9108950E94BA190F931F93CF93C1
:10179000DF93EC0188819981009729F02A813B81B0
:1017A0002617370788F48B016F5F7F4F0E94F01870
:1017B000009761F0998388831B830A832C813D8184
:1017C000232B11F4FC01108281E001C080E0DF9145
:1017D000CF911F910F910895EF92FF920F931F9356
:1017E000CF93DF93EC017B018A01BA010E94C50B04
:1017F000811104C0CE010E94B10B07C01D830C8370
:10180000B701888199810E94C819CE01DF91CF91DB
:101810001F910F91FF90EF9008958AEE92E00E9441
:10182000870821E0892B09F420E0822F0895EF92A8
:10183000FF920F931F93CF93DF93EC0181E0888F8A
:101840009B8D8C8D981305C0E889F989808185FD71
:1018500024C0F62E0B8D10E00F5F1F4F0F73112762
:10186000E02E8C8DE8120CC00FB607FCFACFE88989
:10187000F989808185FFF5CFCE010E94430BF1CF1E
:101880008B8DFE01E80FF11DE35AFF4FF0820B8FA5
:10189000EA89FB898081806207C0EE89FF896083C5
:1018A000E889F98980818064808381E090E0DF911C
:1018B000CF911F910F91FF90EF900895CF93DF93F9
:1018C000EC01888D8823C9F0EA89FB89808185FD38
:1018D00005C0A889B9898C9186FD0FC00FB607FC99
:1018E000F5CF808185FFF2CFA889B9898C9185FFDA
:1018F000EDCFCE010E94430BE7CFDF91CF9108954A
:101900001F920F920FB60F9211242F933F938F9334
:101910009F93AF93BF938091D2029091D302A091F5
:10192000D402B091D5023091D10223E0230F2D379C
:1019300020F40196A11DB11D05C026E8230F0296D3
:10194000A11DB11D2093D1028093D2029093D302A6
:10195000A093D402B093D5028091D6029091D70281
:10196000A091D802B091D9020196A11DB11D80931A
:10197000D6029093D702A093D802B093D902BF9118
:10198000AF919F918F913F912F910F900FBE0F902C
:101990001F9018956115710579F0FB0101900020E9
:1019A000E9F73197AF01461B570BDC01ED91FC9134
:1019B0000280F381E02D099480E090E008954F9239
:1019C0005F926F927F92EF92FF920F931F93CF934C
:1019D000DF93CDB7DEB7A1970FB6F894DEBF0FBE89
:1019E000CDBF7C01FA01CB0119A2223008F42AE014
:1019F0008E010F5D1F4F422E512C612C712CBF01A7
:101A0000A30192010E94FA16F901CA0101501109BD
:101A10006A3014F4605D01C0695CD8016C93232BBB
:101A2000242B252B61F7B801C7010E94CA0CA1968F
:101A30000FB6F894DEBF0FBECDBFDF91CF911F91DF
:101A40000F91FF90EF907F906F905F904F9008956F
:101A50008F929F92AF92BF92CF92DF92EF92FF92BE
:101A60000F931F93CF93DF937C01EB016C0182E016
:101A7000C80ED11C4701E5E08E0E911C00E010E07D
:101A8000F60141916F0150E060E070E02AE0CE0184
:101A90000E94DF0C5C01E881F9810190F081E02D6A
:101AA0006EE2CE0109958A0D9B1D080F191FC814FF
:101AB000D90431F7F701458150E060E070E02AE099
:101AC000CE010E94DF0C800F911FDF91CF911F91FB
:101AD0000F91FF90EF90DF90CF90BF90AF909F90CD
:101AE0008F9008950F931F93CF93DF93EC010E9483
:101AF000CA0C8C0161EA71E0CE010E94CA0C800F11
:101B0000911FDF91CF911F910F9108951F920F9216
:101B10000FB60F9211242F933F934F935F936F93C0
:101B20007F938F939F93AF93BF93EF93FF938AEE2F
:101B300092E00E94430BFF91EF91BF91AF919F9173
:101B40008F917F916F915F914F913F912F910F9066
:101B50000FBE0F901F9018951F920F920FB60F9205
:101B600011242F938F939F93EF93FF93E091FA02A9
:101B7000F091FB028081E0910003F091010382FD6E
:101B800012C09081809103038F5F8F7320910403B3
:101B9000821751F0E0910303F0E0E651FD4F958F7D
:101BA0008093030301C08081FF91EF919F918F91FA
:101BB0002F910F900FBE0F901F901895CF93DF932A
:101BC000FC0144815581608171818AEE92E00E941E
:101BD000640BEC0161EA71E08AEE92E00E94CA0CAB
:101BE0008C0F9D1FDF91CF910895CF93C82F462F63
:101BF00061E070E00E94EF0161E070E08C2F0E94D4
:101C000018028111F9CFCF910895AF92BF92CF9270
:101C1000DF92EF92FF920F931F93CF93DF9300D049
:101C2000CDB7DEB77A836983BA01A901E981FA8168
:101C3000F770082F10E0000F111F0E511D4FD80133
:101C40008D919C918E0F9F1F2E0F3F1F213038408A
:101C500098F07A015B0120E038E06901CE1ADF0AD2
:101C6000A6010E949001A7014C195D09B5016C0DF8
:101C70007D1DF801808191810F900F90DF91CF91B0
:101C80001F910F91FF90EF90DF90CF90BF90AF909A
:101C90000C94900190E0FC01EC56FE4F3491FC0155
:101CA000E058FE4F2491FC01E459FE4FE491EE23ED
:101CB00009F43BC0332339F1333091F038F431303B
:101CC000A9F0323001F584B58F7D12C0373091F024
:101CD0003830A1F03430B9F4809180008F7D03C09A
:101CE000809180008F77809380000DC084B58F77BE
:101CF00084BD09C08091B0008F7703C08091B0008F
:101D00008F7D8093B000F0E0EE0FFF1FEE59FE4F85
:101D1000A591B4918FB7F894EC91611103C020950F
:101D20002E2301C02E2B2C938FBF08953FB7F8941C
:101D30008091D6029091D702A091D802B091D90299
:101D400026B5A89B05C02F3F19F00196A11DB11D16
:101D50003FBFBA2FA92F982F8827820F911DA11D51
:101D6000B11DBC01CD0142E0660F771F881F991F8E
:101D70004A95D1F708952FB7F8946091D2027091E7
:101D8000D3028091D4029091D5022FBF0895CF93B2
:101D9000DF93CDB7DEB7A0970FB6F894DEBF0FBEC6
:101DA000CDBF789484B5826084BD84B5816084BDE4
:101DB00085B5826085BD85B5816085BD80916E00E9
:101DC000816080936E00109281008091810082601A
:101DD0008093810080918100816080938100809157
:101DE00080008160809380008091B1008460809346
:101DF000B1008091B00081608093B00080917A0042
:101E0000846080937A0080917A00826080937A0067
:101E100080917A00816080937A0080917A00806856
:101E200080937A001092C100E091FA02F091FB02D7
:101E300082E08083E091F602F091F7021082E09157
:101E4000F802F091F9028FEC808310920203E09186
:101E5000FE02F091FF0286E08083E091FC02F091A7
:101E6000FD02808180618083E091FC02F091FD029F
:101E7000808188608083E091FC02F091FD02808186
:101E800080688083E091FC02F091FD0280818F7D6B
:101E9000808364EA71E08AEE92E00E94720D8DEC1C
:101EA0009CECACE4BEE38093C6029093C702A0937F
:101EB000C802B093C90283E393E3A3E3BFE3809333
:101EC000CA029093CB02A093CC02B093CD0288E8D3
:101ED00093E1A0E0B0E08093C2029093C302A0938C
:101EE000C402B093C50281E08093D00221E030E0CB
:101EF00030930401209303013093020120930101E8
:101F00008093CF02CE0101967C01DD24D3941C8EF8
:101F10001B8E1E8E1D8E18A21F8E40E050E063EABD
:101F200071E0CE014B960E94EC0B8091D002882389
:101F300009F464C18091030190910401892B09F493
:101F40005DC18091010190910201892B09F456C174
:101F50008091CF02882309F451C18091CE02811172
:101F60000FC12091C6023091C7024091C802509122
:101F7000C9026091CA027091CB028091CC0290910B
:101F8000CD020E949F1587FF19C0D092000161EB1E
:101F900071E08AEE92E00E94720D2091CA023091A7
:101FA000CB024091CC025091CD026091C60270915B
:101FB000C7028091C8029091C90218C01092000116
:101FC00062EC71E08AEE92E00E94720D2091C602EE
:101FD0003091C7024091C8025091C9026091CA0273
:101FE0007091CB028091CC029091CD020E941C177F
:101FF0004B015C016091C2027091C3028091C402E6
:102000009091C5020E94A4152091C6023091C7028A
:102010004091C8025091C9020E9405160E9489177A
:102020002B013C016093BE027093BF028093C002FB
:102030009093C1020E94BB0E6093BA027093BB02E0
:102040008093BC029093BD024FE350E063ED71E0DA
:10205000CE014B960E94EC0B1E8A1D8A188E1F8A99
:102060001A8E198E6B8D7C8D6115710531F04F8D37
:1020700058A1CE0145960E94EC0B2AE0A701C301AE
:10208000B2010E940713F70101900020E9F7319790
:10209000EE19FF09098D1A8D3097C9F00E0F1F1F19
:1020A000B801CE0145960E94C50B882361F02D89A9
:1020B0003E89898D9A8DB701820F931F0E94C8199E
:1020C0001A8F098F04C0CE0145960E94B10BCE0134
:1020D00045960E94DE0D8D899E890E9458184AE11E
:1020E00050E063E172E0CE014B960E94EC0B1E8A39
:1020F0001D8A188E1F8A1A8E198E6B8D7C8D611524
:10210000710531F04F8D58A1CE0145960E94EC0B20
:10211000870122E044E0C501B4010E94E7125C019E
:10212000FC0101900020E9F73197E81BF90B098DBC
:102130001A8D892BB9F03097C9F00E0F1F1FB80107
:10214000CE0145960E94C50B882361F02D893E89FA
:10215000898D9A8DB501820F931F0E94C8191A8F1D
:10216000098F04C0CE0145960E94B10BCE01459661
:102170000E94DE0D8D899E890E945818D092CE0251
:102180000E94BB0E0091BA021091BB022091BC02CA
:102190003091BD02601B710B820B930B0E94A41542
:1021A0004B015C016091BE027091BF028091C00240
:1021B0009091C1020E94A4159B01AC01C501B4011C
:1021C0000E94B81787FD1AC06EE272E08AEE92E0B4
:1021D0000E94720D1092CE021092CF028091C60220
:1021E0009091C702A091C802B091C9028093CA021F
:1021F0009093CB02A093CC02B093CD028B8D9C8D9B
:102200000E9458180E94930882CE89E991E0909329
:10221000BB038093BA031092BC031092BD031092CB
:10222000BE031092BF031092ED021092EC0248EE32
:1022300053E060E070E04093EE025093EF02609351
:10224000F0027093F10225E131E03093EB0220932C
:10225000EA0225EC30E03093F7022093F60224ECFA
:1022600030E03093F9022093F80220EC30E0309314
:10227000FB022093FA0221EC30E03093FD02209320
:10228000FC0222EC30E03093FF022093FE0226ECA9
:1022900030E0309301032093000310920303109267
:1022A000040310920503109206039093C1038093D8
:1022B000C0031092C2031092C3031092C403109281
:1022C000C5039093C7038093C6031092C80310926E
:1022D000C9031092CA031092CB039093CD0380934D
:1022E000CC031092CE031092CF031092D003109221
:1022F000D1039093D3038093D2031092D40310920E
:10230000D5031092D6031092D7039093880380933D
:1023100087031092890310928A0310928B03109204
:102320008C039093900380938F03109291031092EB
:10233000920310929303109294039093D903809385
:10234000D8031092DA031092DB031092DC03109290
:10235000DD039093DF038093DE031092E00310927D
:10236000E1031092E2031092E3039093E50380935C
:10237000E4031092E6031092E7031092E803109230
:10238000E9039093EB038093EA031092EC0310921D
:10239000ED031092EE031092EF039093F1038093FC
:1023A000F0031092F2031092F3031092F4031092D0
:1023B000F5039093F7038093F6031092F8031092BD
:1023C000F9031092FA031092FB031092FF0310928C
:1023D000FE03409300045093010460930204709341
:1023E000030425E231E03093FD032093FC03909336
:1023F000720480937104109273041092740410920A
:102400007504109276048091B9038C30A0F491E0A9
:10241000980F9093B90380936E0490E0FC01EE0F47
:10242000FF1F8E0F9F1FFC01EB56FC4F88EB9BE0BC
:102430009283818303C08FEF80936E048091B903F0
:102440008C30A0F491E0980F9093B90380936B04C3
:1024500090E0FC01EE0FFF1F8E0F9F1FFC01EB565B
:10246000FC4F88EB9BE09283818303C08FEF8093C6
:102470006B04E4E3F4E01282118213821082DF0124
:1024800011971C9211971C92369684E0EC34F80751
:1024900091F710925604109259041092550410921C
:1024A000540410926604109269041092650410920C
:1024B000640480E680932F0480936A04809137043B
:1024C000811111C0109237048FE294E0909336048A
:1024D0008093350488E0809332048AE0809333044B
:1024E00089E08093340482E394E090932E048093F7
:1024F0002D0480913D04811112C081E080933D0440
:102500008FE294E090933C0480933B048DE08093B1
:1025100038048BE0809339048CE080933A0488E39C
:1025200094E090932C0480932B04809143048111B8
:1025300011C082E0809343042FE234E030934204E0
:102540002093410480933E0484E080933F0483E021
:10255000809340048EE394E090932A0480932904AE
:10256000109211041092100488EE93E0A0E0B0E005
:102570008093120490931304A0931404B093150451
:1025800083E791E090930F0480930E0489E991E032
:1025900090931D0480931C0410921E0410921F043B
:1025A000109220041092210424E02093260490939A
:1025B00009048093080480EC80930A0488EA8093DD
:1025C0000B0410920C048BE980930D040895EF9294
:1025D0000F931F93CF93DF93E80147FD02C034E0D0
:1025E00001C034E1E42F440FFF0BF7FF03C0F19566
:1025F000E195F109E32E022F2E2FAE010E9429133F
:10260000CE01DF91CF911F910F91EF900895BB27DD
:10261000FA01A62F6217710581059105330B30FB76
:1026200066F0AA27660F771F881F991FAA1FA21797
:1026300010F0A21B63953850A9F7A05DAA3308F0EB
:10264000A95DA19336F7B111B1931082CA010C9420
:102650008F154F925F926F927F929F92AF92BF922F
:10266000CF92DF92EF92FF920F931F93CF93DF935E
:10267000CDB7DEB729970FB6F894DEBF0FBECDBF3A
:102680006A01122FB02E2BE3201720F0FF24F394C1
:10269000F00E02C0BCE3FB2E0F2D27E0AE014F5F12
:1026A0005F4F0E94B714AC018981982F99709130C7
:1026B00031F0E1FC06C0E0FE06C090E205C09DE2FC
:1026C00003C09BE201C090E0EE2DE07183FF3CC0AF
:1026D000911102C083E001C084E0811718F4212F1A
:1026E000281B01C020E0E1110BC0F601822F30E26F
:1026F000882319F031938150FBCFC20ED11C20E00A
:10270000992329F0D6019C93F60131966F01C601F9
:102710000396E2FE0AC03EE4D6013C9341E41196E2
:102720004C93119712963C9306C03EE6F601308317
:1027300041E641833283FC01322F40E2332309F426
:1027400042C041933150FACF82FF44C0911102C080
:1027500083E001C084E0811718F4212F281B01C0F9
:1027600020E0E1110BC0F601822F30E2882319F03E
:1027700031938150FBCFC20ED11C20E0992329F068
:10278000D6019C93F60131966F01C6010396E2FED5
:102790000BC039E4D6013C933EE411963C9311976B
:1027A00036E412963C9307C039E6F60130833EE6E4
:1027B000318336E63283FC01322F40E2332319F0B5
:1027C00041933150FBCFFC01E20FF11D10828EEFDF
:1027D0009FEFB7C0F1E0911101C0F0E06F2F70E002
:1027E0001416150624F49A012F5F3F4F02C021E012
:1027F00030E0260F371FBB2029F06B2D70E06F5F94
:102800007F4F02C060E070E0260F371F612F70E03D
:10281000261737071CF4121B212F01C020E03E2D84
:10282000387159F4D601322F60E2332319F06D93D9
:102830003150FBCFC20ED11C20E0FF2331F0D60176
:102840009C93B6016F5F7F4F6B01E1110BC0F601E6
:10285000922F30E3992319F031939150FBCFC20EA0
:10286000D11C20E09F2D940F3A81782F7071A72EF4
:1028700084FF03C0313309F49150191624F49930C0
:1028800018F098E001C091E0E42F852F57FF02C0B7
:10289000E0E080E06E2F782FE0E0F0E0AEE29A2EEC
:1028A0003A01691A71082A01461A570A0B2D10E0DD
:1028B0001195019511096F3F8FEF780729F4D60123
:1028C0009C92C60101966C014617570784F0661664
:1028D00077066CF47F01E40CF51CA1E0B0E0AC0FCE
:1028E000BD1FEA0EFB1ED7011196BC9002C090E3FB
:1028F000B92E615071093196C60101967C016017AD
:10290000710724F0D601BC926C01D5CF641775070E
:1029100041F4363320F4353321F4A11002C081E3B1
:10292000B82EF601B082F701822F90E2882319F0C9
:1029300091938150FBCFF701E20FF11D108280E0EF
:1029400090E029960FB6F894DEBF0FBECDBFDF91A1
:10295000CF911F910F91FF90EF90DF90CF90BF909C
:10296000AF909F907F906F905F904F900895283028
:1029700008F027E03327DA01990F311D87FD9160B8
:1029800000966105710539F432602E5F3D9330E3A6
:102990002A95E1F708959F3F30F080387105610571
:1029A00009F03C5F3C5F3D93913008F08068911DD9
:1029B000DF93CF931F930F93FF92EF92192F987F7E
:1029C0009695E92F96959695E90FFF27EE53FF4FC1
:1029D00099273327EE24FF24A701E70105900894E7
:1029E000079428F4360FE71EF81E491F511D660F85
:1029F000771F881F991F0694A1F70590079428F464
:102A0000E70EF81E491F561FC11D770F881F991F1B
:102A1000661F0694A1F70590079428F4F80E491F45
:102A2000561FC71FD11D880F991F661F771F069459
:102A3000A1F70590079420F4490F561FC71FD81F10
:102A4000990F661F771F881F0694A9F78491109528
:102A5000177041F0D695C79557954795F794E79429
:102A60001A95C1F7E8E6F0E0689415901591359154
:102A70006591959105907FE27395E118F10A430BFA
:102A8000560BC90BD009C0F7E10CF11E431F561FAE
:102A9000C91FD01D7EF4703311F48A95E6CFE894F7
:102AA000015030F0080F0AF40027021708F4202F15
:102AB0002395022F7A3328F079E37D932A95E9F75D
:102AC00010C07D932A9589F606949795679537955A
:102AD00017951794E118F10A430B560BC90BD0094F
:102AE00098F023957E9173957A3308F070E37C9388
:102AF0002013B8F77E9170617D9330F0839571E378
:102B00007D9370E32A95E1F71124EF90FF900F91E8
:102B10001F91CF91DF91992787FD90950895DC0152
:102B2000FC01672F71917723E1F7329704C07C9104
:102B30006D9370836291AE17BF07C8F308950E942A
:102B4000E11508F481E00895E89409C097FB3EF48C
:102B500090958095709561957F4F8F4F9F4F9923EA
:102B6000A9F0F92F96E9BB279395F6958795779568
:102B70006795B795F111F8CFFAF4BB0F11F460FF28
:102B80001BC06F5F7F4F8F4F9F4F16C0882311F080
:102B900096E911C0772321F09EE8872F762F05C094
:102BA000662371F096E8862F70E060E02AF09A952F
:102BB000660F771F881FDAF7880F9695879597F924
:102BC0000895990F0008550FAA0BE0E8FEEF1616BE
:102BD0001706E807F907C0F012161306E407F50711
:102BE00098F0621B730B840B950B39F40A2661F085
:102BF000232B242B252B21F408950A2609F4A14028
:102C0000A6958FEF811D811D08950E9418160C94C2
:102C100089160E947B1638F00E94821620F09523B8
:102C200011F00C9472160C94781611240C94BD16A5
:102C30000E949A1670F3959FC1F3950F50E0551FAF
:102C4000629FF001729FBB27F00DB11D639FAA2701
:102C5000F00DB11DAA1F649F6627B00DA11D661F50
:102C6000829F2227B00DA11D621F739FB00DA11D71
:102C7000621F839FA00D611D221F749F3327A00D2B
:102C8000611D231F849F600D211D822F762F6A2FC7
:102C900011249F5750409AF0F1F088234AF0EE0F2C
:102CA000FF1FBB1F661F771F881F91505040A9F759
:102CB0009E3F510580F00C9472160C94BD165F3F38
:102CC000E4F3983ED4F3869577956795B795F79595
:102CD000E7959F5FC1F7FE2B880F911D969587950D
:102CE00097F9089597F99F6780E870E060E008958C
:102CF0009FEF80EC089500240A9416161706180614
:102D00000906089500240A941216130614060506EF
:102D10000895092E0394000C11F4882352F0BB0F80
:102D200040F4BF2B11F460FF04C06F5F7F4F8F4FE3
:102D30009F4F089557FD9058440F551F59F05F3F1E
:102D400071F04795880F97FB991F61F09F3F79F0CD
:102D500087950895121613061406551FF2CF46954F
:102D6000F1DF08C0161617061806991FF1CF8695D1
:102D70007105610508940895E894BB2766277727B5
:102D8000CB0197F908952F923F924F925F926F92E5
:102D90007F928F929F92AF92BF92CF92DF92EF92EB
:102DA000FF920F931F93CF93DF93CDB7DEB7CA1B6C
:102DB000DB0B0FB6F894DEBF0FBECDBF09942A8897
:102DC000398848885F846E847D848C849B84AA843F
:102DD000B984C884DF80EE80FD800C811B81AA81CC
:102DE000B981CE0FD11D0FB6F894DEBF0FBECDBF97
:102DF000ED010895A1E21A2EAA1BBB1BFD010DC017
:102E0000AA1FBB1FEE1FFF1FA217B307E407F5079A
:102E100020F0A21BB30BE40BF50B661F771F881F76
:102E2000991F1A9469F760957095809590959B010C
:102E3000AC01BD01CF0108955058BB27AA270E94BD
:102E400034170C9489160E947B1638F00E94821663
:102E500020F039F49F3F19F426F40C9478160EF400
:102E6000E095E7FB0C947216E92F0E949A1658F32E
:102E7000BA17620773078407950720F079F4A6F55F
:102E80000C94BC160EF4E0950B2EBA2FA02D0B015E
:102E9000B90190010C01CA01A0011124FF27591B9F
:102EA00099F0593F50F4503E68F11A16F040A22FA5
:102EB000232F342F4427585FF3CF46953795279516
:102EC000A795F0405395C9F77EF41F16BA0B620B15
:102ED000730B840BBAF09150A1F0FF0FBB1F661F5C
:102EE000771F881FC2F70EC0BA0F621F731F841F9F
:102EF00048F4879577956795B795F7959E3F08F0C5
:102F0000B0CF9395880F08F09927EE0F9795879586
:102F100008950E94A21688F09F5798F0B92F99271C
:102F2000B751B0F0E1F0660F771F881F991F1AF0B4
:102F3000BA95C9F714C0B13091F00E94BC16B1E047
:102F400008950C94BC16672F782F8827B85F39F046
:102F5000B93FCCF3869577956795B395D9F73EF44D
:102F600090958095709561957F4F8F4F9F4F0895F5
:102F70000E94E11508F48FEF0895EE0FFF1F0590F2
:102F8000F491E02D0994CF93DF938230910510F4F2
:102F900082E090E0E0917904F0917A0420E030E062
:102FA000C0E0D0E0309711F14081518148175907B6
:102FB000C0F04817590761F482819381209719F076
:102FC0009B838A832BC090937A048093790426C0D4
:102FD0002115310519F04217530718F49A01BE0163
:102FE000DF01EF010280F381E02DDCCF21153105F7
:102FF00009F1281B390B2430310590F412968D917C
:103000009C9113976115710521F0FB0193838283D5
:1030100004C090937A0480937904FD01329644C0F1
:10302000FD01E20FF31F81939193225031092D93FB
:103030003C933AC02091770430917804232B41F4DB
:103040002091070130910801309378042093770490
:1030500020910501309106012115310541F42DB76C
:103060003EB74091090150910A01241B350BE091B4
:103070007704F0917804E217F307A0F42E1B3F0BBE
:103080002817390778F0AC014E5F5F4F24173507DA
:1030900048F04E0F5F1F509378044093770481935C
:1030A000919302C0E0E0F0E0CF01DF91CF9108956D
:1030B0000F931F93CF93DF93009709F48CC0FC010B
:1030C0003297138212820091790410917A040115CB
:1030D000110581F420813181820F931F20917704A3
:1030E000309178042817390779F5F0937804E09344
:1030F000770471C0D80140E050E0AE17BF0750F42C
:1031000012962D913C911397AD012115310509F1CE
:10311000D901F3CF9D01DA0133832283608171816C
:10312000860F971F8217930769F4EC012881398174
:10313000260F371F2E5F3F4F318320838A819B816B
:1031400093838283452B29F4F0937A04E0937904E6
:1031500042C01396FC93EE931297ED014991599159
:103160009E01240F351FE217F30771F480819181CE
:10317000840F951F029611969C938E938281938162
:1031800013969C938E931297E0E0F0E0D80112968C
:103190008D919C911397009719F0F8018C01F6CF4F
:1031A0008D919C9198012E5F3F4F820F931F20912C
:1031B0007704309178042817390769F4309729F497
:1031C00010927A041092790402C013821282109332
:1031D000780400937704DF91CF911F910F910895A8
:1031E000A0E0B0E0E6EFF8E10C94C716EC01009720
:1031F00021F4CB010E94C317B8C0FC01E60FF71FF2
:103200009C0122503109E217F30708F4ACC0D90140
:103210000D911C91119706171707B0F00530110595
:1032200008F49FC0C80104978617970708F499C04F
:1032300002501109061B170B019311936D937C9398
:10324000CF010E9458188DC05B01A01AB10A4C0131
:10325000800E911EA0917904B0917A0440E050E074
:10326000E12CF12C109709F44AC0A815B905D1F545
:103270006D907C901197630182E0C80ED11CCA1436
:10328000DB0480F1A3014A195B096A0182E0C80EE0
:10329000D11C1296BC9012971396AC91B5E0CB1648
:1032A000D10440F0B282A38351834083D9016D934E
:1032B0007C930AC00E5F1F4FC301800F911FF9015D
:1032C00091838083EB2DFA2FE114F10431F0D701C3
:1032D0001396FC93EE93129744C0F0937A04E09314
:1032E00079043FC08D919C9111974817590708F4B4
:1032F000AC017D0112960D90BC91A02DB3CF8091B1
:1033000077049091780488159905E1F446175707DA
:10331000C8F48091050190910601009741F48DB7A2
:103320009EB74091090150910A01841B950BE81743
:10333000F907C8F4F0937804E0937704F9017183F6
:1033400060830FC0CB010E94C3177C01009759F026
:10335000A801BE010E94BF19CE010E945818C701E2
:1033600004C0CE0102C080E090E0CDB7DEB7EEE051
:103370000C94E31681E090E0F8940C94CF19FB01D3
:10338000DC0102C001900D9241505040D8F70895E1
:10339000FB01DC0101900D920020E1F70895F89403
:0233A000FFCF5D
:1033A200010100010000007B04800001005E0000BA
:1033B2000000000000170C640B87088F0BA30B5E44
:1033C2000C000000007F016B0132012F012C012B48
:1033D2000100000000C30BC30BC30BC30BC30BC321
:1033E2000BC30B2201C30BC30BC30BC30BC30BC316
:1033F2000BC30BC30BC30B00000000C30B640BC356
:103402000BC30BC30BC30B00000000C30B640B0008
:103412000000009E086E0AFF00CF0935099D084989
:1034220003B408F2026C097C030B0BF809B009170C
:10343200010701030100000000280D00000000C385
:103442000B0D0A0053657269616C207365747570A7
:10345200004C65206D6F74657572206176616E63D4
:1034620065004C65206D6F746575722072656375B9
:103472006C65004465627574206475206D6F7576A5
:10348200656D656E74206465206C276F65696C20BC
:10349200676175636865203B2054656D7073206DAC
:1034A2006F7576206F65696C20676175636865204A
:1034B2003D2000506F757263656E746167652064AC
:1034C200657374696E6174696F6E203A200053549B
:1034D2004F50204F65696C20476175636865000035
:00000001FF
